:020000041008E2
:4000000000780408EB0208100D0000005103081051030810510308105103081000000000000000000000000000000000413808104D0308100000000071380810D53808109B
:400040004D0308104D0308104D0308104D0308104D0308104D0308104D0308104D0308104D0308104D0308104D0308104D0308104D0308104D0308104D0308104D03081000
:400080004D0308104D0308104D0308104D0308104D0308104D0308104D0308104D0308104D0308104D0308104D0308104D0308104D0308104D0308104D0308104D030810C0
:4000C0004D0308104D0308104D0308104D0308104D0308104D0308104D0308104D0308104D0308104D0308104D0308104D0308104D0308104D0308104D0308104D03081080
:400100004D0308104D0308104D0308104D0308104D0308104D0308104D0308104D0308104D0308104D0308104D0308104D0308104D0308104D0308104D0308104D0308103F
:400140004D0308104D0308104D0308104D0308104D0308104D0308104D0308104D0308104D0308104D0308104D0308104D0308104D0308104D0308104D0308104D030810FF
:400180004D0308104D0308104D0308104D0308104D0308104D0308104D0308104D0308104D0308104D0308104D0308104D0308104D0308104D0308104D0308104D030810BF
:4001C0004D0308104D0308104D0308104D0308104D0308104D0308104D0308104D0308104D0308104D0308104D0308104D0308104D0308104D0308104D0308104D0308107F
:400200004D0308104D0308104D0308104D0308104D0308104D0308104D0308104D0308104D0308104D0308104D0308104D0308104D0308104D0308104D0308104D0308103E
:400240004D0308104D0308104D0308104D0308104D0308104D0308104D0308104D0308104D0308104D0308104D0308104D0308104D0308104D0308104D0308104D030810FE
:400280004D0308104D0308104D03081010B5054C237833B9044B13B10448AFF300800123237010BDA04802080000000034B30810084B10B51BB108490848AFF3008008487C
:4002C000036803B910BD074B002BFBD0BDE81040184700BF00000000A448020834B3081050430208000000007047FFF7FDFF72B6104C114DAC4209DA21686268A368043B24
:40030000A2BFC858D050FAE70C34F3E70B490C4A00209142BCBF41F8040BFAE709480A490860BFF34F8F02F069FA02F043FA02F0B3FAFEE740B3081058B30810A04802081C
:40034000304D02080040020808ED00E0FEE7FEE700B504207146084202D0EFF3098001E0EFF30880043002F07BFEFEE72DE9F043023001F1C00E4A7891F8008016028A7807
:40038000140446EA040242EA0802DFF86C80930803EA08084FEA520C174B22F07F4222F45B020CEA030322F4DB42434422F036021A44C2F3C20C02F00703CCEB030320F86D
:4003C000023CC2F3422CC2F38213CCEB03030380C2F3C23CC2F30233C2F382480331CCEB0303A8EB525271454380828000F10800C1D1BDE8F08300BF499224002DE9F04F9D
:40040000D0E90034ADF52F7DCDE90834D0E90234CDE90A34D0E90434CDE90C34D0E90634CDE90E34D0E90834CDE91034D0E90A34CDE91234D0E90C34CDE91434D0E90E3406
:40044000CDE91634D0E91034CDE91834D0E91234CDE91A34D0E91434CDE91C34D0E91634CDE91E34D0E91834CDE92034D0E91A34CDE92234D0E91C34CDE92434D0E91E3424
:40048000CDE92634D0E92034CDE92834D0E92234CDE92A34D0E92434CDE92C34D0E92634CDE92E34D0E92834CDE93034D0E92A34CDE93234D0E92C34CDE93434D0E92E34E4
:4004C000CDE93634D0E930340249CDE9383401F1D00C01E070A508101031614500F0D287DDE91234DDE908AB8AEA030A8BEA040BDDE91C3483EA0A0384EA0B049A46A346E6
:40050000DDE9263483EA0A0384EA0B049A46A346DDE9303483EA0A0384EA0B049A46A346DDE90A89DDE9143488EA030889EA0409DDE91E3483EA080384EA09049846A146BD
:40054000DDE9283483EA080384EA09049846A146DDE9323483EA080384EA09049846A146DDE91623DDE90C4554405D40DDE9202362406B4014461D46DDE92A2362406B4003
:4005800014461D46DDE9342362406B4014461D46DDE91867DDE90E2372407B40DDE9226756405F4032463B46DDE92C6756405F4032463B46DDE9366756405F40CDE90067F5
:4005C000DDE91A23DDE9106756405F40DDE9242372407B4016461F46DDE92E2372407B4016461F46DDE938234FEA490E7B401F464EEAD8734FEA480E9B934EEAD9739A9344
:4006000072409AAB1646D3E900234FEA450E72407B40CDE902234EEAD4734FEA440E9D934EEAD5739C939CABD3E9002382EA0A0283EA0B03CDE90423019B4FEA430E009B14
:400640004EEAD3739F93009B4FEA430E019B4EEAD3739E939EABD3E900234FEA470E83EA090399464EEAD6737600A19346EAD773A09382EA0802A0AB9046D3E9002362405C
:400680006B404FEA4B04CDE9062344EADA734FEA4A04A39344EADB73A293A2ABD3E900ABDDE9003483EA0A0384EA0B049A46A346DDE90223DDE90845DDE9046754405D4071
:4006C000DDE9142372407B40160D46EA03361B0D43EA02333B93DDE9202382EA080283EA09033A96560D46EAC3265B0D43EAC2233C963D93DDE90667DDE92C237B40724097
:400700005E0546EAD226520542EAD3233E93DDE9382383EA0B0382EA0A023F969E0346EA9246920342EA93434196409351E9062382EA040683EA0507CDE90067DDE93C237D
:40074000DDE93A6722EA060623EA0707DDE9002372407B40CDE90823DDE93C67DDE93E2322EA060223EA0703DDE93A6756405F40CDE9206740AED6E90067DDE93E2326EAC9
:40078000020227EA0303DDE93C675F4040AB5640D3E90023CDE93867DDE93E6724EA020225EA030356405F40DDE93A2323EA05031D4622EA040240AB1446D3E90023624027
:4007C0006B40CDE92C23DDE90645DDE90E236B4062401C0744EA1214120742EA13134293DDE91A2383EA0B0382EA0A0243941C0544EA1234120542EA133345944493DDE9DC
:400800000245DDE91C236B406240DC0044EA5274D20042EA5373CDE9146746934794DDE92823DDE9044562406B40D40C44EA4334DB0C43EA42334993DDE9342382EA0802BC
:40084000489483EA0903D40844EA4374DB0843EA42734A944B9346AC44ABD4E90045D3E9002324EA020242AC25EA0303D4E9004554405D4048ABCDE92845D3E9004546ABCF
:40088000D3E9002325EA030544AB24EA0204D3E9002362406B40CDE90E234AAC48ABD4E90045D3E9002324EA020246AC25EA0303D4E9004554405D4042ABCDE91C45D3E956
:4008C00000454AABD3E9002325EA030548AB24EA0204D3E9002362406B40CDE9342344AC42ABD4E90045D3E9002324EA02024AAC25EA0303D4E9004554405D40CDE91A4565
:40090000DDE90A23DDE904456B4062405C0044EAD274520042EAD3734C93DDE9162383EA090382EA08024D949C0144EA9264920142EA93634F944E93DDE90645DDE92223D0
:400940006B4062405C0644EAD214520642EAD3135093DDE92E2383EA0B03519482EA0A021C0244EA1264120242EA136353945293DDE90245DDE930236B4062409C0444EAF3
:400980009234920442EA93335594549350AC4EABD4E90045D3E9002324EA02024CAC25EA0303D4E9004554405D40CDE9164552AB50ACD4E90045D3E9002322EA04024EACFA
:4009C00023EA0503D4E9004554405D4052ABCDE92E45D3E9004554ABD3E9002323EA050550AB22EA0404D3E9002362406B40CDE90A2354AC4CABD4E90045D3E9002322EA91
:400A0000040252AC23EA0503D4E9004554405D40CDE922454CAB4EACD4E90045D3E9002324EA020254AC25EA0303D4E9004554405D40DDE9102383EA0B03CDE9304582EA16
:400A40000A02DC0644EA5214D20642EA53135794DDE902455693DDE9122362406B40140F44EA03141B0F43EA021358945993DDE90445DDE91E236B4062409C0244EA9254A0
:400A8000920242EA93535A93DDE92A2383EA09035B9482EA0802DC0344EA5244D20342EA53435D945C93DDE90645DDE9362362406B40140A44EA03641B0A43EA02635E94BF
:400AC0005F935AAC58ABD4E90045D3E9002324EA020256AC25EA0303D4E9004554405D40CDE936455CAB5AACD4E90045D3E9002322EA040258AC23EA0503D4E900455440DE
:400B00005D40CDE912455CAB5EACD4E90045D3E9002324EA02025AAC25EA0303D4E9004554405D40CDE92A4556AB5EACD4E90045D3E9002322EA04025CAC23EA0503D4E9BC
:400B4000004554405D40CDE9104556AB58ACD3E90023D4E9004524EA02025EAC25EA0303D4E9004554405D40CDE91E45DDE90C3483EA080384EA090498469B0843EA8473F3
:400B80006093A30843EA88736193DDE91845DDE9062354405D40630A43EAC55362936B0A43EAC4536393DDE9242382EA0A0283EA0B03540E44EAC3145B0E43EAC213649418
:400BC0006593DDE90245DDE9262362406B40D40D44EA4324DB0D43EA422366946793DDE90445DDE932236B4062409C0044EA9274920042EA93736994689364AC62ABD4E9D3
:400C00000045D3E9002324EA020260AC25EA0303D4E9004554405D40CDE9244566AB64ACD4E90045D3E9002322EA040262AC23EA0503D4E9004554405D40CDE9324566AB63
:400C400068ACD4E90045D3E9002324EA020264AC25EA0303D4E9004554405D40CDE9184560AB68ACD4E90045D3E9002322EA040266AC23EA0503D4E9004554405D40CDE9E0
:400C8000264560AB62ACD4E90045D3E9002324EA020268AC25EA0303D4E9004554405D40CDE90C45DDE908ABDDE928348AEA030A8BEA040BDDE9163483EA0A0384EA0B04B3
:400CC0009A46A346DDE9363483EA0A0384EA0B049A46A346DDE9243483EA0A0384EA0B049A46A346DDE92089DDE90E3488EA030889EA0409DDE92E3483EA080384EA0904CE
:400D00009846A146DDE9123483EA080384EA09049846A146DDE9323483EA080384EA09049846A146DDE91C23DDE9384554405D40DDE90A2362406B4014461D46DDE92A23BD
:400D400062406B4014461D46DDE9182362406B4014461D4632463B46DDE9346772407B40DDE9226756405F4032463B46DDE9106756405F4032463B46DDE9266756405F4027
:400D8000CDE90067DDE93023DDE91A6756405F40DDE92C2372407B4016461F46DDE91E2372407B4016461F46DDE90C234FEA490E7B401F464EEAD8734FEA480EA5934EEAE2
:400DC000D973A4937240A4AB1646D3E900234FEA450E72407B40CDE902234EEAD4734FEA440EA7934EEAD573A693A6ABD3E9002382EA0A0283EA0B03CDE90423019B4FEA8E
:400E0000430E009B4EEAD373A993009B4FEA430E019B4EEAD373A893A8ABD3E900234FEA470E83EA090399464EEAD6737600AB9346EAD773AA9382EA0802AAAB9046D3E931
:400E4000002362406B404FEA4B04CDE9062344EADA734FEA4A04AD9344EADB73AC93ACABD3E900ABDDE9003483EA0A0384EA0B049A46A346DDE90823DDE90245DDE90467F7
:400E800062406B40DDE90E4574407D40260D46EA05362D0D45EA0434CDE900236A966B94DDE90A4584EA080485EA0905660D46EAC5266D0D45EAC4246C966D94DDE90667E3
:400EC000DDE910457D4074406E0546EAD426640544EAD5246E94DDE90C4585EA0B056F9684EA0A04AE0346EA9446A40344EA9544709451E904456B401D466AAB7196624064
:400F0000D3E900676CAB1446D3E9002322EA060623EA070784EA060285EA0703CDE908236EABD3E900456CABD3E9002325EA03056AABD3E9006724EA02046EAB66406F405A
:400F4000D3E9004570ABD3E9002323EA05056CABCDE90A67D3E9006722EA040470AB66406F40D3E90045DDE9002323EA05031D466EABCDE90C67D3E9006722EA04026AAB8C
:400F800056406F40D3E90045DDE9002324EA020270AC25EA0303D4E9004554405D40CDE91045DDE91423DDE906456B4062401C0744EA1214120742EA1313CDE90E67739412
:400FC0007293DDE91A2383EA0B0382EA0A021C0544EA1234120542EA133375947493DDE90245DDE916236B406240DC0044EA5274D20042EA537377947693DDE90445DDE9F2
:40100000122362406B40D40C44EA4334DB0C43EA42337993DDE9182382EA0802789483EA0903D40844EA4374DB0843EA42737A947B9376AC74ABD4E90045D3E9002324EA46
:40104000020272AC25EA0303D4E9004554405D40CDE9124578AB76ACD4E90045D3E9002322EA040274AC23EA0503D4E9004554405D40CDE9144578AB7AACD4E90045D3E943
:40108000002324EA020276AC25EA0303D4E9004554405D4072ABCDE91645D3E900457AABD3E9002325EA030578AB24EA0204D3E9002362406B40CDE9182374AC72ABD3E9FA
:4010C0000023D4E9004524EA02027AAC25EA0303D4E9004554405D40CDE91A45DDE92023DDE904456B4062405C0044EAD274520042EAD3737C93DDE91C2383EA09037D949F
:4011000082EA08029C0144EA9264920142EA93637F947E93DDE90645DDE922236B4062405C0644EAD214520642EAD3138093DDE91E2383EA0B03819482EA0A021C0244EAE8
:401140001264120242EA136383948293DDE90245DDE924236B4062409C0444EA9234920442EA93338594849380AC7EABD4E90045D3E9002324EA02027CAC25EA0303D4E922
:40118000004554405D40CDE91C4582AB80ACD4E90045D3E9002322EA04027EAC23EA0503D4E9004554405D40CDE91E4582AB84ACD4E90045D3E9002324EA020280AC25EA40
:4011C0000303D4E9004554405D40CDE920457CAB84ACD4E90045D3E9002322EA040282AC23EA0503D4E9004554405D40CDE922457CAB7EACD4E90045D3E9002324EA02027A
:4012000084AC25EA0303D4E9004554405D40CDE92445DDE92C4585EA0B0584EA0A04EB0643EA54138793E30643EA55138693DDE90245DDE9282362406B40140F44EA0314DC
:401240001B0F43EA021388948993DDE90445DDE92E236B4062409C0244EA9254920242EA93538A93DDE92A2383EA09038B9482EA0802DC0344EA5244D20342EA53438D9466
:401280008C93DDE90645DDE9262362406B40140A44EA03641B0A43EA02638E948F938AAC88ABD4E90045D3E9002324EA020286AC25EA0303D4E9004554405D40CDE92645FD
:4012C0008CAB8AACD4E90045D3E9002322EA040288AC23EA0503D4E9004554405D40CDE928458CAB8EACD4E90045D3E9002324EA02028AAC25EA0303D4E9004554405D400D
:40130000CDE92A4586AB8EACD4E90045D3E9002322EA04028CAC23EA0503D4E9004554405D40CDE92C4586AB88ACD4E90045D3E9002324EA02028EAC25EA0303D4E90045DA
:4013400054405D40CDE92E45DDE9383483EA080384EA090498469B0843EA84739093A30843EA8873DDE934459193DDE9062354405D40630A43EAC55392936B0A43EAC45340
:401380009393DDE9302382EA0A0283EA0B03540E44EAC3145B0E43EAC21394949593DDE90245DDE9362362406B40D40D44EA4324DB0D43EA422396949793DDE90445DDE947
:4013C00032236B4062409C0044EA9274920042EA93739994989394AC92ABD3E90023D4E9004524EA020290AC25EA0303D4E9004554405D40CDE9304596AB94ACD4E90045BD
:40140000D3E9002322EA040292AC23EA0503D4E9004554405D40CDE9324596AB98ACD4E90045D3E9002324EA020294AC25EA0303D4E9004554405D40CDE9344590AB98AC5A
:40144000D4E90045D3E9002322EA040296AC23EA0503D4E9004554405D40CDE9364590AB92ACD4E90045D3E9002324EA020298AC25EA0303D4E9004554405D40CDE9384593
:40148000FFF72AB8DDE90834C0E90034DDE90A34C0E90234DDE90C34C0E90434DDE90E34C0E90634DDE91034C0E90834DDE91234C0E90A34DDE91434C0E90C34DDE91634D7
:4014C000C0E90E34DDE91834C0E91034DDE91A34C0E91234DDE91C34C0E91434DDE91E34C0E91634DDE92034C0E91834DDE92234C0E91A34DDE92434C0E91C34DDE9263494
:40150000C0E91E34DDE92834C0E92034DDE92A34C0E92234DDE92C34C0E92434DDE92E34C0E92634DDE93034C0E92834DDE93234C0E92A34DDE93434C0E92C34DDE9363453
:40154000C0E92E34DDE93834C0E930340DF52F7DBDE8F08F2DE9F843DDF82480089D044616461F4628F0070956EA07031FD02846FEF744FF2146A5F1080004EB090C8C45F4
:401580000FD050F8083FD0F804E000228B5401321B0A082A43EA0E634FEA1E2EF6D10831EDE716F1FF36444447F1FF37DCE7BDE8F8832DE9F04F0023B9B016460A46CDE937
:4015C000022304460D4621F0070742ABD3E90023DDE902018B4208BF82423ED3A4F1080AB046F319434528D000210022CDE90012C3464FF000094A461BF8010B059300211F
:4016000005F0C0FCDDE9002309F108090B430243B9F1400FCDE90023059BECD1FAE90201DDE900BC8BEA000B8CEA010C58466146CAE9000108F10808D4E72046FEF7DEFEE4
:4016400042A9D1E90001DDE90223821A61EB030342A9C1E900232E44B7E7002200230020DDE9028906A91144013243F100034B4508BF42450870F3D3429B0DF11708013BAD
:40168000721E1E444346B24204D012F8011F03F8011FF8E7429B06AA13449DF810211A70013D38AB1D4404EB070915F8C83C63F07F0305F8C83CA14519D0C2460025002605
:4016C00000272A461AF8010F002105F05BFC0835402D46EA000647EA0107F2D1D4E9002356405F40E4E8026708F10808E3E739B0BDE8F08F2DE9F04714461D46E0B0A8225A
:40170000002381462946204606F012F82CAB06468A465EAA00200021E3E902019342FBD11F2302936AABD3E900232EAFCDE900234FF0A808689AA8213846FFF73AFF3246DE
:4017400053468DE880014846FFF704FFA6FB082308FB0A33A41A65EB030554EA050314D0012200238DE8800104A8FFF7F3FE013C04AA0DF10F0308FB06961444A34204D08D
:4017800013F8012F06F8012BF8E760B0BDE8F0872DE97043D8B090469946064624AB56AA00240025E3E902459A42FBD1062326AD0A46029388212846CDE90089FFF7F9FE70
:4017C00004AC882301930095002301222046FFF7C1FE0023E25CF2540133202BFAD158B0BDE870832DE97043C8B090469946064614AB46AA00240025E3E902459A42FBD17E
:40180000062316AD0A46029348212846CDE90089FFF7CFFE04AC482301930095002301222046FFF797FE0023E25CF2540133402BFAD148B0BDE8708338B50C46054600F068
:4018400083FD6A1E04F27F6304F69F3112F8010F03F8010F8B42F9D14FF4A4620023294604F53A60FFF794FF04F53C60202100F037FD002038BD70B5A0B004460E4610A831
:401880002021154600F02CFD10A9084620220023FFF77EFF294618A84FF4A4620023FFF777FF10A9684640220023FFF79BFF23462A4608A910A800F0A6FD214608A84FF4E2
:4018C000B8620023FFF764FF3046402200236946FFF75EFF002020B070BDF0B51446ADF2446D064602F5D06720466A460D4600F0F5FD04F69F330DF11F0204F6BF3113F844
:40190000010F02F8010F8B42F9D1694610A840220023FFF767FF20AB3A4618A9684600F072FD20A94FF4B862284600F06BFE294607464FF4B86218A80023FFF729FFFBB2E1
:4019400004F53C6110A8202200F06EFE30464022002310A9FFF71CFF00200DF2446DF0BD10B5063100F1C00211F8063C31F8044C03F03F0343EA8413037031F8043C31F8C8
:40198000024CC3F3830343EA0413437031F8023C31F8084BC3F3011343EA8403837003308242E1D110BD10B501F50072037803F03F030B80437804789B0003F03C0343EA43
:4019C00094134B80837844781B0103F0300343EA14138B8083789B08CB800831914200F10300E3D110BD70B501F5006501F5007403460A881A700A884E88C2F3042242EAF5
:401A000046125A704A88D2089A704A888E88C2F3C12242EA8602DA708A88CE88C2F3861242EAC6121A71CA8852085A71CA880E89C2F3432242EA06129A710A891209DA714A
:401A40000A894E89C2F3003242EA46021A724A898E89C2F3C51242EA86125A728A8992089A728A89CE89C2F3822242EAC602DA72CA89103152098C421A7303F10D03B8D17C
:401A8000AC4200F5D0702146B0D170BD70B5023001F5006501F50074034613F8012C13F8026C120202F4F85232430A801A7813F8016CD20042EA56165A78D20202F4C05263
:401AC00032434A809A785E78920102F4FE5242EA96028A80DA789E78520042EAD6161A79520202F4F0523243CA805A791E79120142EA16169A79120302F4805232430A81A3
:401B0000DA799E79D20102F4FC5242EA56024A811A7ADE79920042EA96165A7A920202F4E05232438A819A7A5E7A520142EAD602CA8110318C4203F10D03AED1AC4200F56D
:401B4000D0702146A6D170BDF0B501F5006602460B46002431F83450157031F834505F88C5F3012545EA870555705D889F88C5F3831545EA071595709D88DF88C5F305152E
:401B800045EA8715D570DD880134AD08402C157103F1080302F10502DCD101F500718E4200F5A070D3D1F0BD70B501F5006501F5007403465A781E78120202F440723243D5
:401BC0000A809A785E78920102F4707242EA96024A80DA789E78120102F47C7242EA16128A801A79DE78920042EA9612CA8008318C4203F10503DDD1AC4200F5A070214619
:401C0000D5D170BD30B5002201EB02150023845C1C4104F0010425F813400133082BF6D10132202AF0D130BD38B5202204460D46002105F03BFF2946204604F12005002377
:401C400031F81320047802F001029A4001332243082B0270F4D10130A84201F11001EED138BD2DE9F047074689469A46164600254FEA05180024BAF1010F0CBF281908EBEA
:401C8000040009EB040107BF324607EB80003246C01904F5007400F089F9B4F5006FEAD18035B5F5007F06F50076E1D1BDE8F087F8B505460E4617460024311928193A467F
:401CC00004F5007400F072F9B4F5006FF5D1F8BD70B5ADF5D05D84B020220023CDE90223064600914FF4D052002304A8FFF702FD00244FF4D06504AB06EBC42105FB0430C6
:401D00000134FFF7C3FE042CF5D10DF5D05D04B070BD70B5ADF5447D20220023CDE90223054600914FF44072002304A8FFF7E2FC0024C02604AB06FB043105EB44200134FD
:401D4000FEF714FB042CF5D10DF5447D70BD2DE9F04FE1B00DF5807905460DF140080D91144600217E22484605F0A0FE20AE3E220021404605F09AFE30AF3E2200213046F5
:401D800005F094FE3E220021384605F08FFEFE220021204605F08AFEC3460195CDF83C900025BA46B046019BDDF834E01B880293019B1B8C0393019BB3F840300493019B2C
:401DC000049EB3F8603005930F9B5F190BEB050308930AEB05030993029B33449BB20A93059E039B33449BB20B9308EB05030C930B9E0A9B3344621900210E93BEF82030D7
:401E0000BEF800900693BDF808001388BDF8186010FB09331380BDF80C00B2F8403010FB06330398029EA2F8403006440898069B30F811C04B4413FB06C320F81130BEF807
:401E40004060B2F880C0BDF81000BEF86030079310FB06CCA2F880C0BDF81400B2F8C0C0BDF81C3010FB03CC0498A2F8C0C0079B844605988444F0180346099830F81100FC
:401E80001CFB030C09984E4420F811C0B7F800C0BDF828300698B6B216FB03CC079BA7F800C00344B7F840C0BDF82C009BB213FB00CC1E440C9BBDF8380033F81130A7F87E
:401EC00040C016FB00360C9B23F81160013110290EF1020E02F1020207F102078ED1019B02350233202D01937FF45DAF0DF59F7622462146002340AD38F8130035F8137046
:401F0000C01B36F8027FC01B28F813000F883BF81300C01BB1F84070C01B2BF81300B1F880703AF81300C01BB1F8C070C01B2AF8130001331F2B01F10201DDD10023E81801
:401F400038F80310068C31440184108C3BF8031001441184B2F8A0003AF80310023301443E2BA2F8A01002F10202E8D10DF1FE01A21E04F17C0032F8026F31F8023F9B1B81
:401F8000B2F880608242A3EB06030B80F3D13E34002334F8021F35F8132001330A443F2B2280F6D161B0BDE8F08F00002DE9F04FADF5905D87B0044602920F464FF48062AE
:401FC00000210DF6186005F071FDFE2200210DF5E36005F06BFDFE2200210DF6180005F065FDFE2200210DF6181005F05FFDFE2200210DF6182005F059FDFE2200210DF684
:40200000183005F053FDFE2200210DF6184005F04DFDFE2200210DF6185005F047FD0DF58C7A204600220DF5CC790DF506780DF5267C0588B0F880E0B0F80031B0F8804181
:40204000E9180EEB0406B6B289B201EB060B891B29F8121003EB85019B0003EBC4032B4404EB8E0603EB4E0E26AB490023F812E0C6AB89B223F81250B6B206AB2AF812B088
:4020800001EB060B891B28F812B02CF8121023F812400132402A00F10200CAD1384600220DF593670DF5A3660DF5B3650DF58368E6A9B0F800C0B0F880A0B0F80031B0F8D1
:4020C00080E121F812E00CEB03040AEB0E091FFA89F9A4B204EB090BC9EB040426F8124003EB8C049B000EEB8A09640003EBCE031FFA89F9A4B2634427F812B003EB4A0AC7
:4021000004EB090B0DF5D363C9EB04040DF5C36925F812B029F8124028F812A023F812C00132402A00F10200C3D10DF5E36206A80DF61804FFF70BFE4146224626A80DF672
:402140001818FFF704FE3946424646A80DF61827FFF7FDFD31463A4666A80DF61836FFF7F6FD2946324686A80DF61845FFF7EFFD0DF618592A460DF5C361A6A8FFF7E7FD48
:402180004A460DF5D361C6A8FFF7E1FDB2460DF618624FF0000EAB46CDF80C90049705940DF5E36338F81E1033F81E60039B3AF81E9033F81E70049B3BF81E5033F81E4080
:4021C000059B641A64101FFA84FC33F81E306144C6EB090089B2C9EB05059944C1EB09091FFA89F9A9EB8119C91B891B89B201EB410380B2ADB2A0EB8710C3EB031313FA08
:4022000089F305EB40009BB280B201934FEA0419A0EBC1004AF6AB23304C5843019B09EA04041C4448F639635C43C4F34F041E2303FB04F9019B2B449BB2C3EB09094EF606
:40224000EF6303FB09F913881F44B2F880301780C9F38F094B44A2F88030B2F80031C0F3CF000344A2F80031B2F88031CCEB030CB2F800321944B2F88032C4EB0C0C1C44A4
:40228000B2F80033A2F880C10EF1010E091AC9EB04041E44BEF17F0FA2F80012A2F88042A2F8006302F102027FF47AAF029B0DF616609A1E03F5FF7132F8024F30F8023F28
:4022C0002344B0F800429142A3EB04031380F3D10DF5905D07B0BDE8F08F00BFF0FF0F007FB5164D2B7804460E4683B962B61448291D01F029FD05F13001114801F00CFCE9
:4023000001F05AFC012001F0DBFB01232B70A5190C4EAC420FD003AB07224FF0864100964FF0844001F060FC012001F0C9FB039B04F8013BEDE704B070BD00BFBC480208D9
:4023400028A608101849020870B5ADF5415D84B004AC4FF4006205460E460DF50560002105F0A4FB20212046FFF7BAFF20220023CDE9022320460094FFF7BCF920210CA833
:40238000FFF7AEFF0DF5825021461030FFF7A0FC0CA914A8FFF7BDFC0DF5825014A901230DF505621030FFF75CFC00210DF505620023501830F813200432D21020F81320CE
:4023C0000133B3F5807FF5D101F50071B1F5006FECD114A93046FFF706FB28460DF50561FFF7B2FB05F5A06304F12005224603CAAA4218605960144603F10803F6D10DF5D5
:40240000415D04B070BDF0B5ADF5705D81B00F46154600214FF4006206460DF540601C4605F044FB4FF400720021684605F03EFB05F5A0610DF5E050FFF74AFC39460DF542
:402440008060FFF766FC0DF5806100230DF540620DF5E050FFF705FC00210DF540620023501830F813200432D21020F813200133B3F5807FF5D101F50071B1F5006FECD169
:402480000DF540612046FFF75FFB28460DF5A051FFF78AFB80AD6A460DF580610DF5A050FFF706FC29463046FFF7ACFB00223DF8123035F81210A3EB412304331B112DF859
:4024C00012300132B2F5807FF1D1694604F5A060FFF746FA0DF5705D01B0F0BD70B5ADF5A05D04460D46164600214FF40072684605F0DCFA20460DF58061FFF7C7FA0DF5E6
:4025000040612846FFF750FB80AC6A460DF580610DF54060FFF7CCFB214605F5A060FFF742FA00223DF8123034F81210FC33A3EB01135B122DF812300132B2F5807FF1D173
:4025400069463046FFF770FB0DF5A05D70BD0000831E022B06D8042807D1054B01221A60002070474FF0FF3070476FF001007047284902084FF4A46070474FF43E607047E8
:402580004FF4B860704720207047000010B4084C24682CB138B131B15DF8044BFFF74CB94FF0FF3001E06FF001005DF8044B70472849020870B4084E36682EB138B131B1E0
:4025C0002AB170BCFFF757B94FF0FF3001E06FF0010070BC704700BF2849020870B4084E36682EB138B131B12AB170BCFFF775B94FF0FF3001E06FF0010070BC704700BFC4
:4026000028490208F0B5002300240025934206D0C75CCE5C7E4044EA06040133F6E7644265EB4505E80FF0BD30B55B42DBB201380A44914208D010F8015F11F8014B6C4081
:402640001C406C400470F4E730BD012000F0B8BC70470000514B524AD3F8800300F00F00810001F1804101F5181130B5D1F8403303F00704032C07D0042C07D0494B4A49AF
:40268000002C08BF0B460EE013680CE0D1F8003303F01F03112B01D0132B02D14FF4004301E04FF4FA433D4930BBD1F89045D1F88805D1F8885515F0405FC0F3017005D0C3
:4026C000D1F88815C1F30171012901D1E40701D403283AD13149D1F88005D1F88445D1F88015C0F31100C1F30061C4F30C040131B3FBF4F3434326E0012826D1D1F8404642
:40270000D1F80006D1F8005615F0405F05D0D1F80016C1F30171012901D1E10703D4C0F30171032911D11D48D0F80016D0F80046D0F8000601F07F014B43C4F30421B3FB97
:40274000F1F3C0F30441B3FBF1F31449D1F88013C1F30111CB4015495360D1F890000969090E0131B3FBF1F19160C0F307210131B3FBF1F303F57421D360136101F23F2195
:402780000B48B1FBF0F103F2E73311754FF47A71B3FBF1F39361DB03D36130BD000026408C42020800366E0100127A000000214040420F0008B50D4800F0B8FCFFF748FF9D
:4027C000FFF748FF00221146042000F08DFA084800F00EFB074B1B6893F8513013B1064800F03EFBBDE8084000F018BA6CA908102C490208F44C020858A6081008B500F0BB
:4028000084FC074AD2F8883043F47003C2F88830BFF34F8FBFF36F8FBDE8084000F079BC00ED00E0174A70B5174C184E1546D4F808331549C3F308037BB1D4F84003138864
:402840005188013303F07F0389B28B42EFD0298889B2C0B270542B80E9E70423C1F8C03FD1F8C03F0A4BB3F90030002B09DB5A09012103F01F0301FA03F36032054941F8E7
:40288000223070BDAC4A020800006640744C0208ACA8081000E100E02DE9F04162B6504C5049204600F0ACFBB4F90030002B08DB5909012203F01F0302FA03F34A4A42F826
:4028C00021304A4B0424C3F8C84F01F051F8484B1868002302221946406805F0A5FE454805F08AFE444805F087FE444805F084FE2046FFF72DFE10B1414805F07DFEFFF77B
:402900003CFE0446FFF736FE0646FFF739FE0546FFF739FE80463B4805F06EFE31463A4805F0F8FD2146394805F0F4FD2946384805F0F0FD4146374805F0ECFD0121204660
:4029400005F082F8344C012160600746304605F07BF80121A0600646284605F075F80121E0600546404605F06FF8206117B10EB105B108B9294820E0294805F03DFE616834
:40298000A068FFF703FE08B1264800E0264805F033FEA2682169E068FFF70CFE08B1234800E0234805F028FE6268E1682069FFF715FE08B11F4800E01F4805F01DFE606833
:4029C00005F052F8A06805F04FF8E06805F04CF8206905F049F8194805F00EFEFEE700BFACA808102528081000E100E0000066400C4302088CA60810B0A608108EA6081079
:402A0000D1A60810E4A60810F2A6081014A7081036A7081058A70810AC4A02087CA70810C8A70810E8A7081003A8081022A8081038A8081052A8081068A8081082A8081054
:402A400010B504462146034800F09EFB0028F9D010BD00BF00006640054AD2F80833C3F30803002BF9D0024BD3F84003704700BF00006640034B1B681A68D3F88430D0586F
:402A8000000E7047F44C0208044B1B681A68D3F88430D058C0F30720704700BFF44C0208034B1B68B3F8B0201B6A00FB02307047F44C0208034B1B68D3F8B430C058C00F0C
:402AC000704700BFF44C02081D4B984236D00FD840282CD005D800282FD010282BD119487047802825D0B0F5807F24D118467047154B984214D008D8B0F1204F1DD0134B8F
:402B0000984218D14FF4A0007047114B98420AD00133984209D0023B98420CD10D4870474FF4A40070470C4870470C4870470C4870470C4870470C4870470020704700BFD6
:402B40000600520001005000010000F0090000A0040000F00100520002005200030052000200500005005200FF00520008B50120FFF796FFFFF79EFF60B9074B1868FFF74B
:402B8000A3FF064B1B685B6801229A609A68002AFCD108BD024808BDC04A0208F44C020802005000184B13B5186128B102230370FF23437000234380144A136893F85010AE
:402BC0001446F1B11B8FADF80030114900236846019300F015FABDF90030002B08DB5909012203F01F0302FA03F30A4A42F82130236893F8513023B102220749012000F04D
:402C00008FF902B010BD00BFC04A0208F44C0208DF43020800E100E0AD4302080148FFF7C1BF00BFD44A0208054B1B68D3F8B430C358002BBDBF89B24160002001487047A3
:402C4000F44C020801008A000368002BBBBF89B2C26002488160B8BF0020704701008A00054B1B68D3F8B430C358002BBDBFC3680B60002001487047F44C020801008A003F
:402C8000F8B5154B0C46196891F83130834221D904B3226812F01F071CD1B1F8B0300D6A0E4E00FB0355D20839466068356004F0FDFE39462846FFF7B7FF394622463068C9
:402CC000FFF7C2FF014618B93068FFF7ADFF10B10348F8BD0348F8BDF44C0208D84A020801018A0003018A0010B404465AB999B90B4B1A68B2F8B030106A04FB0300094BD5
:402D00001860084609E039B1064B5DF8044B5960191D9A60FFF7B4BF03485DF8044B7047F44C0208D84A020803018A001C4B1A682DE9F041D2F80C80D8F800208242044685
:402D40000D461E4624D919B900F0DFF9074600E0002730680368002B01DB124C13E06209D8F804100123A4EB421403FA04F451F822301C420ED023EA040341F8223000246F
:402D80000021FFF751FF3DB9384600F0C2F903E0054C01E0054CF3E72046BDE8F08100BFD84A02080301880004018A00020188000B4B1B68DB681A6882420ED942095968EB
:402DC000A0EB4210012303FA00F051F822301842044B054818BF184670470448704700BFD84A0208010188000001880004018A00024B1A6802B91860704700BFE44A020828
:402E0000F0B52C246043144C059F25685FFA83FE45F800E02C1811480668306AB6F8B060C3F307250EFB0606266105F1800665601B0C00EB461600EB451041F20805A3605F
:402E400043EA0343666143510023E2612162A3610FB13B88A381F0BDE44A0208F44C0208F0B5174B41691B688269DB8EC668076985B002AD00950B440446C16AADF8083081
:402E80000392436A826A006AFFF7BAFF00223B46114600923046FFF7B3FF216B284600F0AFF8BDF90830002B08DB5909012203F01F0302FA03F3034A42F8213005B0F0BDCE
:402EC000F44C020800E100E0F0B5124C26682C2707FB006425693DB107FB0161886928B92E68002E02DA03E00B48F0BD0B48F0BD4E68D4F804E0012404FA06F7168846EAF4
:402F000007461660EA608C6104FA0EF4A4B24B62AC60F0BDE44A020804028A0007028A00074B10B51C682C2303FB0040C369934283BF036A002043F82210024810BD00BF45
:402F4000E44A02080A028A0073B54369DD6800262A0C044601961ED012041A601B68174B00691B68D3F8B430C358B34213DA01A9FFF776FE58B90198E26903681E0CDBB207
:402F8000934204D2226A52F8233003B1984731462069FFF749FEADB265B163691D601B68636A002513B19847656202E0A36A03B19847A56163691B6802B070BDF44C0208D0
:402FC000034B1B682C2202FB0030FFF7BDBF00BFE44A0208074B9A68074B9A4218BF074A00F1100306BF52F8230042F8231052F82300704700ED00E000400208000008107C
:4030000010B5F0B1B0F900304268002BA8BF03F160434FEA4212ADBF03F5614303F00F030A4CD2B2B6BFD2B283F80023E254084B9A68084B9A4206D1B0F90000FFF7CAFF7A
:4030400001E0054810BD002010BD00BF14ED00E000ED00E00040020801005600FEE7000008B5234B02681A6042685A6082689A60C268DA6002691A6142695A6182699A6188
:40308000C269DA611B4A916A1962D16A5962516A9962516BD962926B1A63F1EE102A12F0900F21D0026A5A63426A9A63826ADA63C26A1A64026B5A64426B9A64826BDA6461
:4030C000C26B1A65026C5A65426C9A65826CDA65C26C1A66026D5A66426D9A66826DDA66C26D1A67026E5A67FFF7B8FF08BD00BF2848020800ED00E00230800803D001304B
:403100000238FCD100BF00BF7047EFF3108072B6704780F3108870474FF0B0535A7812B15878C0B27047212070470000014B1860704700BFF44C0208D0F8003303F00F03F4
:40314000072B02D901EB420201E00A4407E0914204D0D0F8403321F8023BF8E77047914204D0D0F8403301F8013BF8E7704710B5D0F80843C4F30804944228BF1446224667
:40318000FFF7DAFF204610BD036813F4006FD0F8083214BF80224022C3F3080393421ABFC0F84012012000207047D0F8003203F00F03072B02D901EB420201E00A4407E090
:4031C000914204D031F8023BC0F84032F8E77047914204D011F8013BC0F84032F8E77047036810B5D0F8084213F4006F14BF80234023C4F308041C1B944228BF144622464C
:40320000FFF7D3FF204610BD2DE9F043002800F0D580002900F0D2800F78022F01D18C7F0CB14C68013C0B7F002B8B6804F00F0414BF4FF48036002644F00074092B34BFBF
:403240004FF40065002534432C4304603C0604F0407404644C7F4E7B8D7B002C8C7C14BF4FF040094FF00009002C0C7C14BF4FF480684FF00008002C4C7C14BF4FF4807C73
:403280004FF0000C002CCC6A04F1FF3406F1FF364FEA044406F007064FEA051504F4702405F0300544EA060444EA050444EA090444EA080414BF4FF4007E4FF0000E44EA8D
:4032C0000C0C4CEA0E0491F80CE08464CC7BBEF1000F14BF4FF4807C4FF0000C2CB9022F14BF00244FF4007401E04FF40074013B03F00F034CEA030C4CEA0404C0F8004394
:403300008C6991F814C0240404F47F0444EA0C04C0F81043CC7F24B1012F0CBF4FF48074002435432C43BEF1000F446414BF4FF480740024012F43EA04030CBF4FF4803438
:4033400000242343C0F8003291F83030C0F8043391F8203091F8214091F82460002B14BF4FF000730023012C91F828400CBF4FF0807500253343012C0CBF4FF48034002493
:403380002B43234303654C6B91F83830C0F8043240F66D332340C96BC0F8C83F40F273730B40C0F8883F00205AB1506090601060D06010621063D062BDE8F0830248BDE8A4
:4033C000F0831046BDE8F0830160AA0008694B6998422DBF4B69CB684A69C01A3CBFC018801A7047D0F8003E1A072DE9F04705460C4640F1BB80D0F8CC3F13F448730AD072
:403400004A681A434A60C0F8C03FD0F8C03F0B6B0BB110209847D5F8CC3F1B0509D5636843F4006363604FF40063C5F8C03FD5F8C03FD5F8CC3FD80740F19880E269002A73
:4034400043D02B68A16913F4006F284614BF40262026FFF78CFE236AE2690344121A2362E261EAB9A3687BB1E368D5F804239E4294BF06F1FF3303F1FF3322F0FF02DBB26B
:403480001343C5F804330123C5F8C83F636823F001036360236B002B63D00420984760E0D5F80033A16903F00F03072B88BF400008449642A06154D9D5F80433013A23F09A
:4034C000FF031A43C5F804234BE0A368002B48D02B6813F4006FD5F80833266914BF4FF040084FF02008C3F30809B9F1000F26D0E368676901369E4208BF0026B7420FD141
:40350000236B0BB10820984763699F4208D10023C5F8C83F0FB17E1E11E0E668013E0EE0D5F84023D5F8003303F00F03072BA36809F1FF3994BF9A5523F81620D5E726618B
:4035400021462846E668FFF741FF301A804508D900B10138D5F8043323F0FF031843C5F804030123C5F8C03FD5F8C03FD5F8003E590776D5D5F88C3F13F4A0630AD0226878
:403580001A432260C5F8803FD5F8803F236B0BB120209847D5F88C3FDA0750D52B68A26AD5F8006213F4006F14BF80274027012A06F00F0610D9D4F82480E2624146013A63
:4035C0002846FFF70DFEA36A072EA3EB000388BF40004044A3626062D5F80832C3F30803BB4227D0A36A012B24D10023A362636A072E94BF1E781E88FFF787FD4FF40073E4
:40360000C5F84062C5F8803FD5F8803FFFF781FDD5F8883F23F4007323F0010343F40073C5F8883F236843F002032360236B0BB1012098470123C5F8803FD5F8803FD5F8C3
:403640008C3F9B050DD50022C5F8882F236823F001032360236BE2621BB10220BDE8F0471847BDE8F08743684B609A688A609A685160996003680861013303607047416872
:40368000826803698A60826851605968884208BF5A60002202611A68013A1A6018687047064B9A6A126812B94FF0FF3203E09A6AD268D2685268DA62704700BF244B0208E6
:4036C0002DE9F84F334BD3F818211C4662BB1E6B01361E63B6B99B6A1B6843B14FF03F0383F31188BFF36F8FBFF34F8FFEE7A36AA26BA262A363D4F820310133C4F8203109
:40370000FFF7CEFFE36A9E424FF000053AD3DFF884804FF0140B08F1580AA36A1D4A1B684BB94FF0FF330DE0D3F824310133C4F82431002526E0D8F82830DB68DF687B6836
:403740009E4201D2D3621DE007F104094846FFF796FFBB6A1BB107F11800FFF790FFF86AD4F81431984288BFC8F8140149460BFB00A0FFF778FF636BFA6ADB6A9A4228BF7B
:403780000125CAE7D4F82831002B18BF01252846BDE8F88F244B020838B5244BD3F818211C461AB10122C3F8282138BDC3F828215B6B1B6B1A68B2F1A53F0BD15A68B2F18F
:4037C000A53F07D19A68B2F1A53F03D1DB68B3F1A53F04D0606B616B343100F091F8D4F81431142000FB03F56219916D59B943B94FF03F0383F31188BFF36F8FBFF34F8F0D
:40380000FEE7013BEEE7D16D09484968D1652844814204BF4968D165142202FB0342D26DD2686263C4F8143138BD00BF244B0208844B020800000000000000000000000086
:40384000074B19680868B0E8F04F80F30988BFF36F8F4FF0000080F311887047AFF30080584B0208000000000000000000000000EFF30980BFF36F8F154B1A681EF0100F7F
:4038800008BF20ED108A20E9F04F10602DE909004FF03F0080F31188BFF34F8FBFF36F8FFFF77AFF4FF0000080F3118809BC19680868B0E8F04F1EF0100F08BFB0EC108A88
:4038C00080F30988BFF36F8F704700BFAFF30080584B020808B54FF03F0383F31188BFF36F8FBFF34F8FFFF7EBFE18B1034B4FF080521A60002383F3118808BD04ED00E0F9
:403900004FF03F0383F31188BFF36F8FBFF34F8FFEE770B516460C4659B10D462B1BB34204DA15F8010BFFF78BF8F7E726EAE67070BD084670BD70B516460D4609B90C4623
:403940000CE00024B44209DAFFF786F8C0B20A28285504F1010401D00D28F3D1204670BD01490248FFF73EBDF84C02080000664010B5114C237853B9104A11491148FFF72D
:4039800043FC11491148FFF73BFB012323700F4BB3F90030002B08DB5909012203F01F0302FA03F30A4A42F82130064A136843F00043136010BD00BF504C0208F84C02084F
:4039C00024AA08100000664061390810ACA8081000E100E00B4B10B519680B4B0C691A688B69126A80335B019B180122D868A24080B2824205D11A601B68CB69002B00D004
:403A0000984710BD544C0208F44C0208084B1A684369126A80335B019B189A68036901209840120C801A43425841C0B27047C046F44C0208074B1A681300116AB032128893
:403A4000B43350431B685B1818180068C043C00F7047C046F44C0208134B10B51C682000FFF7D4FF00281BD02069FFF7E3FF002818D001210D4B62691B6891401A00B032BC
:403A8000108822691B6A50432200C018FFF7DCF843425841064B40421840064BC01810BD0548FCE70548FAE7544C0208F44C0208FCFFCDFF0400320006003200070030000A
:403AC000114B70B51C680500002C16D02378002B13D02000FFF79AFF002810D0002D06D12069FFF7A7FF00280BD0606870BD2069FFF7A0FF0028FAD0F7E70448F6E70448C6
:403B0000F4E70448F2E7C046544C0208080032000600320007003000F7B505006B6800684B61AB6808618B616B691E4FCB614B1C01932B7B4A1CD3773B680C001A0001267E
:403B4000B03212881B6A50430021C018FFF76CF826702000FFF75AFF002820D0E369002B19D0280010490C30FFF74AFAA3693A688033126A5B019B18320021698A4092B234
:403B80009A60A319DB7F5BB2002B04DB1F2213409E40064B1E600020054B1C60FEBD0548FCE7C046F44C0208D539081000E100E0544C020806003200094B10B51B68002BE6
:403BC0000BD0012400221C709A62FFF745FF002802D12000FFF774FF10BD0248FCE7C046544C02080800320070B5074D049C2D68002D06D00626AC622E700FC4FFF72CFFFC
:403C000070BD0248FCE7C046544C020808003200002807DB1F23C02218401E3B8340024952008B507047C04600E100E030B5F8250F4B104A18681468436A226C6D039A1899
:403C40001168294010D01160226C9B181B680A4B1A68531CD97F002907D1416A086A496A506291620122DA7730BD0022FBE7C046F44C0208644C0208584C02080022F8B54D
:403C8000060004000368471C0B60436828364B6083690D008B60C369CB604B1CDA77FB7F0B7433780B7603F06DF8A169002900D11F4920002030FFF7A3F91F23FB56002B71
:403CC00006DB1F2213401E3A9A401300194A1360194F63683A688033126A5B019B188022216852028A40E1699A60002900D113493000FFF785F900203056FFF789FF002353
:403D0000F356002B06DB1F2213401E3A9A401300084A13600A4A3B6812685B6A926C00209B18F82252031A60064B1D60F8BDC046AD40081000E100E0F44C02082D3C081086
:403D4000644C0208584C020810B5084B084A1B6829331B78012B05D1064B60335360FFF78DFF10BD044B3833F8E7C046F44C0208584C020864AB0810E4AB0810F0B5BA4D06
:403D800087B0AC68002C1CD0B84BB94E636032682378506A012B16D103F006F860600023AB603368E1691A00B032108822691B6A5043C018002902D00121A3699940FEF707
:403DC00033FF07B0F0BD0268002AE8DAA94A62606A68002A11D00E2B00D1EAE04CD8082B00D1ACE02DD8042B00D194E01BD8022B00D182E0032B00D183E06368002BCED1FA
:403E00002A68511CC87F002800D045E13268526A106A526AD70F012F01D1974BCF77A060E2606360BBE7062B00D17DE0072BE4D1D768002FE1D0A16A4A7D0B008969B847A8
:403E40005DE00B2B00D194E006D8092B00D181E00A2BD2D197697EE00C2B00D19AE00D2BCBD1576A002FC8D0A16A0B7B00938B684A680968B84742E0142B00D1D2E025D818
:403E8000112B00D1B2E00FD80F2B00D1A1E0102BB3D1176B002FB0D0A16ACB680A699BB2D2B28968B8479EE0122B00D1ADE0132BA3D1D76B002FA0D0A16A0B6A0193CB699A
:403EC00000938B694A69C968B84718E0172B00D1BFE006D8152B00D1B0E0162B8DD1976CADE0192B00D1C9E000D2B4E0552B00D083E7A06A02F0E2FF01E002F0E3FF6060D0
:403F00007BE71768002F00D177E7A16A8B684A680968B847F3E75368002B00D16DE7A16A0A69C9689847EAE79768002F00D164E7A16ACB6800938B684A6809687CE01769D1
:403F4000002F00D159E7A26A117D0092136BD26AB847D4E75769002F00D14EE7A26A117D0292136B0193D36A0093536AD269B847C5E7D769002F00D13FE7A16A03910B6B3E
:403F80000293CB6A01938B6A00934B6A0A6AC969B847B4E7176A002F00D12EE7A16A0291CB6A01934B7D00938B69CA69096BB847A5E7976A002F00D11FE7A16A0B7B02937B
:403FC0004B6901930B6900934B680A688968B84795E7D76A002F00D10FE7A16ACB680A689BB28968B8470023636006E7576B002F00D102E7A16A8B684A680593CB68096853
:404000009BB2B847059B1860EDE7976B002F00D1F3E6A16ACB689BB200934B680A688968B847E0E7176C002F00D1E6E6A16A0B6900934B680A688968B84760E7576C002FC4
:4040400000D1DAE6A26AD36811780093936852687EE7D76C69E7136D002B00D1CDE6A26A116898474BE7C046584C020809003200F44C02080A00320001003200576D002F3F
:4040800000D1BAE6A16A0B690A790193CB6800938B680968B84732E7506A926A002A00DA014B0027CF77BAE60100320070B5124C124B22681E68106853680122356A8033D9
:4040C0005B01EB18D9688240090C8A4212D1210012041A60B0361B683388083158434019FEF7BEFD002805D123689B68002B01D1FFF744FE70BDC046584C0208F44C0208FC
:4041000037B505001400012A18D149682800069A013C02F079F80C236142614100932800083B4431002202F0D7F8054B1B681B68ED1801232A681A42FCD137BD0968E5E718
:40414000644C020813B519001300049A040002F05BF80823200000930022043B482102F0BBF8044B1B681B68E418012322681A42FCD113BD644C0208F8B504000327134E6F
:40418000080031681A721D004B693A40E3181A60096D020061180B0080336B6020002023E960296001F04EFF06CD200002F012F8082320000022462102F078F833681B68E2
:4041C000E418012320681840FCD1F8BD644C0208F0B50500160085B01A000A9B0391DC681023671CFF3711343900FF3401F02AFF2300039A0A9928000097FFF781FF280080
:4042000010232200310001F01DFF002005B0F0BDF0B5160087B0040004911A0033076AD10E9B3500DB681F00591C31371133FF31FF33FF37039102933900102301F002FFCF
:40424000049B012B4BD00C9B9B195B1B05930D9B9A19521B002D4BD010230399200001F0F1FE039B3A000E9920000097FFF76AFF029B049A0E9920000097FFF741FF102379
:40428000029A3900200001F0DDFE1023029A0599200001F0D7FE103DD5E710230399200001F0D0FE039B012200930E99029B2000FFF726FF029B029A00930E993B00200092
:4042C000FFF740FF1023039A3900200001F0BAFE1023029A0499200001F0B4FE103D0C9B9B195B1B04930D9B9A19521B002DD4D1002007B0F0BD0148FBE7C0460200320050
:40430000F0B5170089B006000C001A003B0747D1109BDD682B003133FF3303930399102301F090FE0E9B0593012C01D10F9B05933C006B1CFF3311350493FF35059BDB1951
:404340001B1B07930E9BDB191B1B06930F9BDA19121B002C02D1200009B0F0BD10230499300001F06FFE039B0022009310992B003000FFF7C5FE049B2A001099300000950D
:40438000FFF7E0FE10232A000699300001F05AFE1023079A0399300001F054FE103CCDE70048D9E702003200F0B58DB00793159B0691DD680B922B003133FF3302936B1C13
:4043C000FF3303931033049310330593079A10230299040001F036FE2B00F8331A6C5B6C17BA1BBA0893069B089E1B090A93089B1399F31A1A018918099114998A180A9918
:404400008B420ED3029A20001023079901F01AFE0F23069A00201A4013000B9A13600DB0F0BD03992000102301F00CFE029B159900932000059B0022FFF762FE012200230F
:40444000B6185F412B0032BA39BAF83319645A64059B049A00931599039B2000FFF772FE1023049A0999200001F0ECFDBFE70200002310B50F32441E1178013A49000B43C0
:4044800053701B0A9442F7D1002B04D07923C27B5B425340C37310BDF7B505000F009668546831001023002201F0E8FD39002800009623000022FFF723FE2000FFF7D7FF56
:4044C000F7BDF0B585B003939368166802930F00102300220299050001F0D0FD0A9C039B0A9A9A18121B102C07D83C61A3B23100280001F0A7FD05B0F0BD10233100280018
:4045000001F0A0FD029B32000093390033002800FFF718FE0096029B002239002800FFF7EFFD103CDBE7F0B587B0059393680C690393536806000F00156804930F2C0DD8C7
:404540001800FFF794FF80232B55713B1B1B611C9BB269180022300001F090FD039B2A00009339002B003000FFF7ECFD049B2A00009339002B003000FFF7E4FD039B39000E
:40458000300000950022FFF7BBFD1023039A0599300001F057FD07B0F0BD0000F0B585B0039119000AAB17001A78134B05001B681C6D0C9B4134FF340419FFF7DDFD23006C
:4045C00026001033303623631033A36332000C9928006463FFF760FF039B32000C9928000097FFF76EFF28000B9B32000C99FFF79AFF002005B0F0BD644C0208F0B58BB01B
:40460000069312AB09921A78604B08911B6804001F6D5F4BC719FD188D3BFF3BFB180493F0239B00FB1805938823DB00FB1801923A0003933B00C0328033009229003A002B
:40464000119E01F0C9FB9823049ADB00FA50059AFB185A60039A9A60AB689E4200D86FE02900200001F01EFC3300109A2900200001F020FC3300039A2900200001F034FC7A
:40468000296AAB68039A5B1A9BB251180022200001F0F4FC3E4A0023BE1836225C209446B268934264D32900200001F0FBFB049A2900200001F072FB069B099A2900200012
:4046C00001F0F8FBB268069B944629006344049A200001F009FC2900200001F0E3FB059A2900200001F05AFB336A049A2900200001F0E0FBB268336A29009B182000089AD2
:4047000001F0F2FB9821C900795820008023002201F0B4FC9823DB00FE18716820008023002201F0ABFC80230022B168200001F0A5FC2000290001F032FC00200BB0F0BD40
:40474000B2B207929E420CD213000399109A200001F078FCAB68B2B29B1A039A9BB2911994E7079B109A0399200001F06BFC91E76146039AD25C4A400499CA54039A05999B
:40478000D25C4240CA5401338AE7C046644C0208CC040000034B1B689B68C0180F23006818407047644C0208F8B504000D0017001E002000FFF7EEFF0C28FAD8082D04D0E2
:4047C0000C4AA358002BFCDB04E086225201A358002BFCDBE221084BC9051B680D43DA68A2181560DA68A2181760DB68E4182660F8BDC046D0100000644C0208F8B50700E1
:404800000C0016001D003800FFF7C4FF0E28FAD8064B24031B682D04D8688023DB051E43344338182C430460F8BDC046644C020870B505000C0016002800FFF7ABFF0E2897
:40484000FAD8054B24021B68DB68ED18D023DB051E4334432C6070BD644C020810B504002000FFF797FF0E28FAD8044B1B68DB68E418A023DB05236010BDC046644C0208C6
:4048800010B504002000FFF785FF0E28FAD8044B1B68DB68E418A223DB05236010BDC046644C020870B504000E0015002000FFF771FF0C28FAD8064B06491B68DA68A218D0
:4048C0001160DA68A2181660DB68E418256070BD644C02080C00007070B505000C7A0A680234E40023000821FFF75EFF1023082204212800FFF782FF2300103B002B04D045
:40490000082205212800FFF779FF70BD70B505000B7A0233DC00FFF7DFFF2800FFF79EFF1023062204212800FFF768FF2300103B002B04D0072205212800FFF75FFF70BDAB
:40494000F8B51E0004000F00150031001423002202F0E8F8054B35721B6837605B690020E41803231D402560F8BDC046644C0208F8B50D00040016001F000699002D1FD1CB
:40498000FFF7AAFF10233A0008212000FFF70CFF102231002000FFF785FF2000102308220021FFF72BFF2000002D0CD1FFF756FF2000102301220C21FFF720FF0020F8BDE4
:4049C000FFF7A4FFDEE7FFF75BFFF1E7F8B504000E0015001F0013075CD10899002E1ED1FFF77AFF10233A0009212000FFF7DCFE2B00079A08212000FFF7D6FE2A0006999B
:404A00002000FFF74FFF10230922002E20D101212000FFF7F3FE002D04D10020F8BDFFF775FFDFE72000FFF7B5FE0E28FAD81A4B1A4A1B682000DB68103DE3181A60FFF72D
:404A40000DFF102301220C212000FFF7D7FEE2E702212000FFF7D2FE002DDED02000102308220021FFF7CAFE2000FFF709FF2000FFF790FE0E28FAD8074B094A1B6802219E
:404A8000DB682000E3181A6010230022FFF7B6FE103DE1E70348C1E7644C02081800104121C0104102003200F7B50F260400019115001F0016404DD10A99FFF70DFF102397
:404AC0003A0009212000FFF76FFE1023092231002000FFF793FE2B00099A08212000FFF763FE2A0008992000FFF7DCFE019B002B2CD0002D2CD02000FFF7B0FE1023082263
:404B000000212000FFF77AFE2000FFF743FE0E28FAD8114B114A1B68103DDB68E3181A60E7E72000FFF79AFE2000FFF733FE0E28FAD8094B0A4A1B680C21DB682000E318A7
:404B40001A6010230022FFF759FE103D002DE8D10020FEBD0348FCE7644C020801C010411800104102003200F0B51D008BB004926A781B7812021A43AB7804001B041A4358
:404B8000EB782E7A1B0613436A7906932B7912021A43AB7902911B041A43EB7913991B06134307936B7A6A7B1B023343AE7A120236043343EE7A36061E432B7B08961A439F
:404BC000AB7B1B041A43EB7B1B061343099332BA1BBA05920193FFF77FFE102306AA09212000FFF7E1FD1023092200212000FFF705FE019B0C211A0E2000FFF719FE019BE8
:404C00000D211A0CD2B22000FFF712FE019B0E211A0AD2B22000FFF70BFE6B460F211A792000FFF705FE2000FFF718FE029B129A08212000FFF7B8FD029A11992000FFF792
:404C400031FE029B019E1B09059F0393019B039AF31A93420ED306AA20001023290001F025FF0F23029A00201A401300049A13600BB0F0BD2000FFF7F1FD01220023B61842
:404C80005F413ABA33BA08920C21320E20000993FFF7CEFD320CD2B20D212000FFF7C8FD320AD2B20E212000FFF7C2FDF2B20F212000FFF7BDFD2000FFF76CFD0E28FAD835
:404CC000084B094A1B68DB68E3181A602000FFF761FD0E28FAD8034B044A1B68DB68E3181A60B3E7644C02081010006610100067034B1B689B68C0180F23006818407047CA
:404D0000644C020810B504002000FFF7F1FF0E28FAD8044B1B68DB68E418A023DB05236010BDC046644C02080200002310B50F32441E1178013A49000B4353701B0A944278
:404D4000F7D1002B04D07923C27B5B425340C37310BD000070B504000E0015002000FFF7C7FF0C28FAD886225201A358002BFCDB064B07491B68DA68A2181160DA68A218AD
:404D80001660DB68E418256070BDC046644C02080800007170B504000D002000FFF7A8FF0C28FAD8064B07491B68DA68A2181160DA68A2181560DB68E4181023236070BD36
:404DC000644C02080C000070002370B504000E000B602000FFF78CFF0E28FAD8144D154A2B682000DB68E3181A60FFF78BFF71682000FFF7CFFF2000FFF77AFF0E28FAD810
:404E00002A680D49D368E31819601368E3181A68002AFCD17068FFF787FF2000FFF768FF0E28FAD82B68DB68E418044B236070BD644C02080000104101C0104011101041B4
:404E400070B50E001100326805009C181A00FFF781FF102C01D8346070BD2800FFF748FF0E28FAD8054B064A1B682800DB68103CEB181A60FFF746FFEBE7C046644C0208A4
:404E800018001041F0B5102587B00F000400019200212A0002A802F009FE80237E683F6802AA137002A9EA1B2000FFF753FF2000FFF71EFF0E28FAD8184D194A2B68DB6894
:404EC000E3181A600F2F02D83000FFF72DFF102231002000FFF73EFF2000FFF709FF0E28FAD82B680F4ADB682000E3181A60FFF709FF01992000FFF74DFF2000FFF7F8FE2D
:404F00000E28FAD82A680849D368E31819601368E4182368002BFCD107B0F0BD644C0208180010410800104101C0104070B504000D00160086B019000AAB1A780C9BFFF76D
:404F4000FFFC0C992000FFF7C7FC02AB694620000193FFF739FF33002A0069462000FFF76FFF20000B9A6946FFF78CFF002006B070BDF0B5F3B005937AAB0391049269A9B1
:404F80001A78040001F0EAFBC02306AA5B0006A9D250043326AACA5046AE0433CE500833CF581033CB58BDB2019300222B003100200001F0B7FD799BBB4254D969A92000DE
:404FC00001F02AFC799B789A69A9200001F040FC320069A9200001F06DFC019B019AEB1A9BB2B1182000002201F09CFD3622002394465C269F424ED169A9200001F00CFC37
:405000003B0006AA69A9200001F022FC059B049A69A9200001F01CFC06AA69A9200001F049FC69A9200001F0F7FB3B0026AA69A9200001F00DFC019B06AA69A9200001F0F8
:4050400007FC039A69A9200001F034FC0C23002266A9200001F066FD200069A901F0A0FC002073B0F0BD799B9BB20293799BBB420AD2029B789A3100200001F017FD029B35
:40508000799AED1AABB2ACE7029B789A3100200001F00CFDAAE7654606A95A18501CFF3001788032694006ADE95401780133714011709FE7034B1B681B68C0180368002B09
:4050C000FCD17047644C020810B5064C246829342478012C02D100F0EDFF10BD01F05CFDFBE7C046F44C020810B51300064A146829342278012A03D1002200F0BFFF10BD7A
:40510000002201F00FFDFAE7F44C020810B5094B1B6829331B78012B0AD0A023064C090324689B05E468114300191943016010BDB023F3E7F44C0208644C02080B030949F3
:4051400012010968C96840180749096829310978012905D19421890511431943016070470249F9E7644C0208F44C02080F00002410B50A4B0C241B6829331B78012B00D061
:405180000434074BA1401B68DB68C018531E902252051A431143016010BDC046F44C0208644C020810B50A4B89061B6829331B78013B5C1EA3410C339A408023054C1B06A0
:4051C00024681943E4680A430019026010BDC046F44C0208644C0208F7B504001D005F1C0E00019200213A00FFF7C2FF3A0001212000FFF7BDFF3A0002212000FFF7B8FF89
:405200002A0003212000FFF7CDFFD022204F92053B680021DB682000E3181A600322FFF775FF3A681B49D368E3181960D023D26831039B050B43A21813603601164B0E4301
:405240001E433A68D368E318002D02DA134A1A60F7BD1349019801431960D3681149E3181960D368E3181E600F4B1B6829331978D368E318012909D1842292051A60022213
:4052800020001100FFF75AFF013DDAE7074AF5E7644C0208002000300200303A070000130010003701003003F44C02080F000021F7B5060015001C00099B01915F003A000B
:4052C0000221FFF755FF3A0003213000FFF750FF099A00213000FFF765FF2C4F2D013A68D368F1182A4B23432B430B60294B1B6829331B78012B47D08C2327499B05194399
:40530000D3680898F3181960D3682449F31801431960D368224AF31815431D60099B30009C1C22000021FFF723FF3A681D49D3683000F3181960D3681B4AF3181A600121F2
:405340002200FFF715FF3B680898DA681749B21801431160DA681649B2181160DA681549B21801431160019AD96813481203711810430860D9681148711802430A60DB68FD
:405380000F4AF3181A60F7BD9023B6E7644C020800200033F44C0208203000003020003300300020320000370C000013001000371000400310000037010040300000303057
:4053C00003000013F8B5040080274A4D1E002B687F05D86820180760E027D8683F023943201801609021DB680902E3180A431A600B2132002000FFF7BBFE32000C2120008A
:40540000FFF7B6FE32000D212000FFF7B1FE2B683949DA680227A2181160DA683749A2181160DB68364AE3181A60721E04260A212000FFF7B7FE0A220B212000FFF766FE4B
:405440002B68304ADB68E3181A602000FFF732FE2B682D4ADB682000E3181A60FFF72AFE2B68DA6BA2181268324238D10B2220001100FFF763FE2B68244ADB682000E31884
:405480001A60FFF717FE2B68DA6BA21812683A420AD00D2220001100FFF750FE0E2220001100FFF74BFED0E7DA681949A2181160184ADB681268E31829321278012A0CD134
:4054C000154A1A600E2220001100FFF737FE0A220E212000FFF71AFEB7E7104AF1E7DA680F49A2181160DB68E41888235B052360F8BDC046644C020800D0003500E00034CE
:4055000000B0003409C000300B00003F0D00003FDCD00036F44C0208D0D00026DFD0002500380013F7B504001500089F00917E007A1C01210193FFF71BFE3200022120009C
:40554000FFF716FE320003212000FFF711FE3A0000212000FFF726FE3A4E3B4933680198DA6801432D010D43A2181560DA683749374DA21811602A68DB6829321278E31878
:40558000012A5AD1334A1A60012220001100FFF7D5FD33683049DA68A2181160DA682F49A2181160DA682E49A21811602A6829321278012A43D08C222A4992051143DA6835
:4055C0002000A2181160DB68274AE3181A6000221100FFF7E7FD200000220121FFF796FD3A0020000021FFF7DDFD32681F49D3682000E3181960D3681D4AE3181A60FFF714
:4056000059FD33681B49DA681B48A2181160DA681A49A2181160DA68A2181060DA68A21811600099DA6808031549A21801431160DB68E418134B2360F7BD134AA3E790227C
:40564000BAE7C046644C0208003000333A100033F44C020810100021182000332320003600400005202000000010003410100020040000042130003A2830003723003003F9
:40568000020000300E0000131F100021F0B585B006000F0002930A9D0B98062A37D8214C93001959A31823341B7FA45C01223A701A190B32824232D82A78002A2FD16A7863
:4056C000012A2CD1021B0092D21A9446AA18501E00780192002822D162462800033A0392421B9446039A624515D89BB2019A3000FFF7EAFC002812D1009AA3B2AA18029962
:405700003000FFF7E1FC002809D1387007E0002423002100CAE701304278FF2AE0D0002005B0F0BD74AC0810F0B504008BB009938B68B74E0593CB68089206930B684F689E
:4057400007930B697D1C02934B6903938B690493B04B1B68DA6C33689200196D92B24118FFF7C2FC3A0005212000FFF701FD3A0006212000FFF7FCFC3A0007212000FFF7F5
:40578000F7FC3A0008212000FFF7F2FC2A000A212000FFF7EDFC3A000B212000FFF7E8FC3A0009212000FFF7E3FC3B00079A0821200001F0B5FB069B059A0721200001F043
:4057C000AFFB099B089ADB000621200001F0A8FB029B002B00D0CBE020003B0008220A21FFF7FAFC2000FFF765FC049B002B00D0C5E03368884ADB682000E3181A600823FE
:4058000001970093092202330B21FFF751FD2000FFF750FC039B002B00D0B7E020003B0008220921FFF7CEFD2000FFF743FC802133684905DA682000A2181160DA687749FD
:40584000A2181160DA687649A2181160DA687549A2181160DA687449A2181160DA687349A2181160DA687249A2181160DB68714AE3181A6009213A00FFF77AFC3A000D2180
:405880002000FFF775FC3A000B212000FFF770FC082306220D210093200004330197FFF707FD2000FFF706FC32686349D3682000E3181960D3686149E3181960554BD2681C
:4058C0001B68A218029329331B78013B591E8B41A0215B4289055B065B1859490B431360FFF7E8FB33680E211B692000E3189A6BDD6A9200ED04ED0C920C0135AD1AFFF7AA
:4059000051FC33684F4ADB68E3181A603368DB68E318002D41DC404A20001A600522092311000097FFF7FEFD33684749DA68A21811608821DA684905A2181160354A1B68FD
:405940001268E31829321278012A5DD17F3219681142FCD13B0020000522109901F0F3FA00203368DB68E418384B23600BB0F0BD2B00029A0A21200001F0D2FA35E73B008B
:40598000049A0B21200001F0CBFA43E73B00039A0921200001F0C4FA49E71E4A1268029229321278012A21D1294A1A602000FFF781FB01223368DB6BE3181B6800971342B7
:4059C00016D004320D2311002000FFF7ABFD2000FFF770FB0D2300971A0019002000FFF7A1FD2000FFF766FB013D8FE7194ADCE70D23052219002000FFF794FD2000FFF7DF
:405A000059FB00970523E7E71A68002AFCDBA1E7644C0208F44C0208009000350660000005500000077000000880000009A000000AC000000B50003007B00030009000344E
:405A4000B9E00000BEB00020002A0013E00F0013B0B00021BFB00021F0B504000B6887B002930B69344E03934B694D6804938B696F1C0593314B1B68DA6C33689200196D2C
:405A800092B24118FFF730FB2A0020000B21FFF76FFB3A0020000D21FFF76AFB2A0020000C21FFF765FB2A0020000E21FFF760FB2B00029A20000B2101F032FA2B000B2250
:405AC0000D212000FFF788FB2000FFF7F3FA3B000B27039920000D2201F035FA3368184ADB680E21E3181A6020000D230C2201950097FFF7DDFB2000FFF7DCFA2B00059952
:405B000020000E2201F01FFA2B003A000C212000FFF758FC2000FFF7CDFA2B0020000C22049901F010FA00203368DB68E418054B236007B0F0BDC046644C0208F44C0208E6
:405B400000C0003500780013F0B580270C4C7F002568DBB22C6A0619059C24023C40FF3F3A40224332606A6A82181360AB6AC3181960EB6AC018069B03600020F0BDC04673
:405B8000644C020870B50D001100862204000498D200A0501A00200000F01CFB042300225821200000F082FB0821064B1A681368E31818680840FCD1136BE41823682B60B7
:405BC00070BDC046644C02087FB50D0019000E4B16000393099A089B040000F015FB03AB690059180823895D200000930022043B00F072FB054B1B681B68E4180223226804
:405C00001A42FCD17FBDC04670717273644C0208F0B5040016000025082787B005931B4B04911B681B6DC3180393194BE900C9183A00300001F020FF002825D00135102DE8
:405C4000F3D10025039F3200103739002000082300F0F8F90C9A03992000082300F0F2F9039E039B08360193049A3B00200000960021FFF7A9FF200008233200059900F0E9
:405C8000E1F9280007B0F0BD024DDBE7644C020820AD081003003100F0B589B00593274B04001B6816001B6D0027C3180393130008330693083304910793214BFD00ED1836
:405CC00008222900300001F0D7FE002833D008222900069801F0D0FE00282CD008222900079801F0C9FE002825D00137102FE4D10025039F3200103739002000182300F0A5
:405D0000A1F90E9A03992000082300F09BF9039E039B08360193049A3B00200000960121FFF752FF200008233200059900F08AF9280009B0F0BD034DDBE7C046644C0208BF
:405D400020AD08100300310010B58024A4000151812152005208890042508222DB00DB0892008350002010BD70B50400150000F01BFA00225C21200000F086FA2021064B8A
:405D80001A681368E31818680840FCD19369E41823682B6070BDC046644C02080B0013B51100DA68040000925B6900F04BFA0C230193043B00932000043B00224C2100F033
:405DC000A5FA044B1B681B68E418042322681A42FCD113BD644C0208F0B5050005A840C804780220062C11D82000402701F0C0F80416222B394A410027488F6048621420A0
:405E0000086108622D30FF3088610020CB60C0239B004E610C704A60E850F0BD1E488F60143048622020086104380862E4308861FF38EBE718488F603430486220200861F9
:405E40000862E030F3E7144854304862802088604038086110380862A020800088610220D4E70E48143048628020886040380861F1E70A48543048628020886040380861B5
:405E80002438E8E706481430486280208860403808612038DFE7C046A0AD081020AE0810A0AE081010B50B694A6A9BB2C96800F0C9F810BDF7B50E0017001C008D680190E1
:405EC000F361AC4208D26B1E23403A0071689BB2019800F0B7F8F7BD3A0031000198FFF75DFF7F19641BECE7F0B589B007938B6816000193013B0493049ACB69039013406E
:405F0000029370230693019B0C00CF684D68802B01D0382306938023029A0398AB546B469B88511C0593013B9B1A9BB20022691800F0A4F8069B029A93420AD82A0021003E
:405F40000398FFF72BFF059B00222900039800F095F8079BDA00019B100EEB18191F0870D91E100C0870023B110A1970049B2100EA5403982A00FFF711FF236A9B08002BEA
:405F800001D109B0F0BDFA78013B3270BA7872707A78B2703A780437F2700436EFE770B50C0005008B6800229BB2496800F066F823692800E1689BB2002200F05FF8A3697C
:405FC00028009BB20022616900F058F870BD0000F0B587B004930CAB1B7817000593184B03911B6800221E6DD02386199B00F51829002823040000F041F8059A3300019200
:406000003200C03280330092290032002000FFF7E3FE29002000FFF745FF3B00039A29002000FFF747FF3B00049A29002000FFF75BFF20002900FFF7B2FF002007B0F0BDDF
:40604000644C020813B50400080011000200200000F0DAF80823200000930022043B502100F03AF9044B1B681B68E418102322681A42FCD113BDC046644C020813B5040037
:4060800010001A000300200000F0BEF80C23200000930022043B512100F01EF9044B1B681B68E418102322681A42FCD113BDC046644C020813B5040000F0A6F808230022C3
:4060C00000935221043B200000F006F91022054B1B681B68E31819681142FCD1C0235B00E05816BD644C020813B50400080011001A0004AB1B880090200000F0A3F80C236A
:406100000193043B00932000043B0022532100F0FDF8044B1B681B68E418102322681A42FCD113BD644C020870B50400A020164D800025503F2504302550002501263C3058
:4061400025500830255008302650104E1030265040382150A921890062502000190000F023F82A006021200000F08EF84021084B1A681368E31818680840FCD1D369E4184F
:406180002268049B1A6070BD0000033101000100644C0208034B1B689B68C0180F23006818407047644C020870B504000D002000FFF7F0FF0628FAD88021054BC9051A6894
:4061C000D368E3181960D368E418256070BDC046644C020870B504000E0015002000FFF7D9FF0528FAD8064B06491B68DA68A2181160DA68A2181660DB68E418256070BD1B
:40620000644C020810000041F8B504000F0016001D002000FFF7BEFF0428FAD8074B08491B68DA68A2181160DA68A2181760DA68A2181660DB68E4182560F8BD644C0208E4
:4062400010020042F8B504000F0016001D002000FFF7A0FF0328FAD8094B0A491B68DA68A2181160DA68A2181760DA68A2181660DA68A2181560DB68E418069B2360F8BD20
:40628000644C02081032004370B504000D002000FFF780FF0728FAD8034B2D061B68DB68E418256070BDC046644C020870B505000C001E002800FFF76DFF0728FAD8054BEF
:4062C00024061B68DB68ED180123B3401C432C6070BDC046644C0208F8B507000C001D0006AB1E783800FFF755FF0728FAD8064B02211B68B140D8680123AB402406194356
:40630000381821430160F8BD644C020870B506000C001D003000FFF73DFF0728FAD80221084B059A1B682406D868049B301899400123AB40194303239340194321430160DB
:4063400070BDC046644C0208F0B580270C4C7F002568DBB22C6A0619059C24023C40FF3F3A40224332606A6A82181360AB6AC3181960EB6AC018069B03600020F0BDC046FE
:40638000644C0208F0B504000F2716480568A8682618306838400C28FBD8E868124E20180660E86820180260EA680F20A21813608C23059A5B01E250AB68E2181368034087
:4063C0000F2BFBD0B022EB68D205E3181A602B68E31818680028FCD12B6BE41823680B60F0BDC046644C02080800007070B50F260B4B1B689C6805192C6834400C2CFBD84F
:4064000086256D014459002CFCDBDC68054D04192560DC6804192160DB68C018026070BD644C02080800007130B50F25064B1C68A368C21813682B400F2BFBD0E368090694
:40644000C018016030BDC046644C0208F0B50F27094C2668B46805192C683C400F2CFBD0F468090300198024E405224311431B0419430160F0BDC046644C020830B50F25FF
:40648000094B1B689A68841822682A400C2AFBD8DA68064C82181460DA6882181160DB68C0180823036030BD644C02080C000070F7B5040016001F00002501911C4BEA00C2
:4064C000D21831000823200000F066FB00282CD00135102DF2D10025310020000822FFF785FF082320001A000421FFF7AFFF082208992000FFF77AFF39002000FFF7BEFFDD
:40650000082320001A000021FFF7A0FF019920004B1E99415231FFF787FF2000082301220C21FFF793FF2800FEBD024DD4E7C046F4AE081003003100F7B504001600002753
:4065400000910193284BFD00ED182A0008233100200000F021FB002843D008232A00F118200000F019FB00283BD0310008232A001031200000F010FB002832D00137102F5C
:40658000E0D10025310020001822FFF72FFF2000102308220421FFF759FF082320001A000521FFF753FF082208992000FFF71EFF01992000FFF762FF082320001A000021FE
:4065C000FFF744FF009920004B1E99415431FFF72BFF2000082301220C21FFF737FF2800FEBD024DCEE7C046F4AE08100300310010B58024A40001518121520052088900E9
:4066000042508222DB00DB0892008350002010BD83239B0010B5C15001210433C150064B19680B68C3181C68002CFCDB8B69C01803680020136010BD644C0208034B1B68CA
:406640009B68C0180F23006818407047644C0208034B1B681B68C0180368002BFCD17047644C0208F8B504000F0016001D002000FFF7E4FF0C28FAD8E021074BC9051B6846
:406680000F43DA68A2181760DA68A2181660DB68E4182560F8BDC046644C020870B504000D002000FFF7CAFF0E28FAD8034B2D061B68DB68E418256070BDC046644C020898
:4066C00010B504002000FFF7B9FF0E28FAD8044B1B68DB68E418C823DB05236010BDC046644C020810B504002000FFF7A7FF0E28FAD8044B1B68DB68E418CA23DB05236021
:4067000010BDC046644C020870B505000C0016002800FFF793FF0E28FAD8054B24021B68DB68ED18D023DB051E4334432C6070BD644C020870B504000D002000FFF77EFFA0
:406740000E28FAD8CC21044BC9051B682943DB68E418216070BDC046644C020870B52423150000220C0000F0DDF9062D23D8280000F0FEFB04160D2B2236410069232360BD
:40678000224B2362402363602C3BA36012E06A2323601E4B1433236240236360203BF4E76A232360194B3433236240236360203BA360043B636170BD6B232360134B5433BA
:4067C000236280236360403BDFE76B232360104B1433236280236360403BA360103BE9E76B2323600A4B5433236280236360403BA360203BDEE76B232360064B1433236292
:4068000080236360403BA360243BD3E774AF0810F4AF081074B00810002370B504000D00CB61CB60FFF74CFF2000FFF711FFAB682A6A20000821FFF715FFA9682000FFF7F1
:4068400079FF2000FFF704FF2000FFF74BFF70BDF8B51E0004000D001700CB689B19CB602000FFF7EBFE0C28FAD886225201A358002BFCDB0D4B0E491B68DA68A218116059
:40688000DA68A2181760DB68E3181E606968B14201D9EE61F8BD2000FFF74CFF6B6829682000F61AFFF7FAFEF0E7C046644C020808000071F0B50E004D68CF69C96885B00E
:4068C0004B0F0192CA0002920393702304000093802D01D0383B009339002000FFF72AFF2000FFF7B5FE802239002000FFF70CFF009BBB4206D820003168FFF7CFFE2000BA
:40690000FFF7A6FE029A039B691FDAB22000FFF7FBFE029A039B291F120E2000FFF7F4FE029A039B120CE91ED2B22000FFF7ECFE029A039B120AA91ED2B22000FFF7E4FE3A
:40694000029A039B691ED2B22000FFF7DDFE31682000FFF7A3FE2000FFF77AFE7369019A0C212000FFF77EFE2000FFF7BBFE75692000FFF763FE0E28FAD8CE22064BD20589
:406980001B682A43DB68E3181A60044AA358002BFCDB05B0F0BDC046644C0208F010000010B504002423002200F0BCF82000FFF787FE2000FFF74CFE10BDF0B504000E006D
:4069C00017001D008BB010AB1A7801A9FFF7C6FE01A92000FFF720FF3B00320001A92000FFF736FF2A0001A92000FFF763FF200001A9FFF7D5FF00200BB0F0BD034B1B68FD
:406A00009B68C0180F23006818407047644C0208034B1B681B68C0180368002BFCD17047644C0208F8B504000D0017001E002000FFF7E4FF0C28FAD8082D04D00C4AA358CC
:406A4000002BFCDB04E086225201A358002BFCDBE221084BC9051B680D43DA68A2181560DA68A2181760DB68E4182660F8BDC046D0100000644C020870B504000E001500F7
:406A80002000FFF7BBFF0C28FAD8064B06491B68DA68A2181160DA68A2181660DB68E418256070BD644C02080C00007070B51E000C0005000821FFF7B5FF21003200280035
:406AC000FFF7DAFF34000F2C18D81024330964425C43A419A4B2002C0CD02800FFF78EFF0E28FAD80C4B0D4A1B682404DB681443EB181C602800FFF78BFF70BD2800FFF780
:406B00007DFF0E28FAD8044B054A1B68103CDB68A4B2EB181A60D6E7644C020808C0004008C01040F8B51F0016001A0005003C00FFF7A2FF0F2C19D810243B0964425C43FA
:406B4000E419A4B2002C0DD02800FFF757FF0E28FAD80E4B0E4A1B683243DB682404EB1814431C602800FFF753FFF8BD2800FFF745FF0E28FAD8054B064A1B683243DB68E9
:406B8000103CEB181A60A4B2D4E7C046644C020800C0004200C0104270B51C008C231600002205005B01C2500A0023000821FFF739FF3200230009212800FFF733FF260013
:406BC0000F2E1BD8102322095B4253431C19A4B2002C0CD02800FFF711FF0E28FAD80E4B0E4A1B682404DB681443EB181C602800FFF70EFF8C235B01E85870BD2800FFF7D5
:406C0000FDFE0E28FAD8044B054A1B68103EDB68B6B2EB181A60D3E7644C02089800004398001043F8B505001F000C0006AB1E8808213300FFF7F6FE33003A000921280047
:406C4000FFF7F0FE210032002800FFF715FF34000F2C18D81024330964425C43A419A4B2002C0CD02800FFF7C9FE0E28FAD80D4B0D4A1B682404DB681443EB181C602800F4
:406C8000FFF7C6FEF8BD2800FFF7B8FE0E28FAD8044B064A1B68103CDB68A4B2EB181A60D6E7C046644C020898C0004198C01041F7B504001000A022214D9200A126A55008
:406CC0003F22B600A251B02200259200A550B4270832A55001220193B823BF00E251194F9B00E750A827BF00E151A921019B890060501C3963500323134FA15938001942C8
:406D000017D0A42189006250104A019611680A68A218280008E0002809D1019D6559AC466646094D1E42F4D01568002DF3DBB84200D1FEBDCB69E4182268089B1A60F8E79C
:406D4000000003310100010001003200644C020810B50A4B89061B6829331B78013B5C1EA3410C339A408023054C1B0624681943E4680A430019026010BDC046F44C0208F4
:406D8000644C0208054B064A1B68293319781300012900D05433034A13607047F44C0208C8B00810644C020870B50400FFF7EAFF3D4B3E4A19680B0029331B78012B5DD17D
:406DC0003B4B2360012512682000536BE3181D60936B126DE318A2181A60CA6C0F21FFF7B7FF200000220E21FFF7B2FF200000220D21FFF7ADFF200000220C21FFF7A8FFA0
:406E0000200000220B21FFF7A3FF200000220A21FFF79EFF200000220921FFF799FF200000220821FFF794FF200000220721FFF78FFF200000220621FFF78AFF2000002246
:406E40000521FFF785FF200000220421FFF780FF200000220321FFF77BFF200000220221FFF776FF290020000022FFF771FF002220001100FFF76CFF002070BD23680D483E
:406E8000034080202360136880025B68E3181860802320681B060343236003238020A360054BC001E0508DE7F44C0208644C020803000080FFFFFE7F88140000032303706F
:406EC00000207047054B1B6829331A7800230360012A01D1002070478360FBE7F44C0208064B89001A681369126DC91809180B6880189B009B0C9B0018187047644C0208AF
:406F000010B5064C246829342478012C02D1FFF799F810BDFFF7CAFDFBE7C046F44C020870B5DC0805001600A4B25B0701D00134A4B22800FFF7D4FF3200010023002800CB
:406F4000FFF7DEFF70BD70B5DC0805000E00A4B25B0701D00134A4B211002800FFF7C0FF3100020023002800FFF7CAFF70BD000002B4714649084900095C49008E4402BC44
:406F8000704700BF9140031C90409C46203A9340194352426346D3401943704781F0004102E000BF83F0004330B54FEA41044FEA430594EA050F08BF90EA020F1FBF54EAE0
:406FC000000C55EA020C7FEA645C7FEA655C00F0E2804FEA5454D4EB5555B8BF6D420CDD2C4480EA020281EA030382EA000083EA010180EA020281EA0303362D88BF30BD9A
:4070000011F0004F4FEA01314FF4801C4CEA113102D0404261EB410113F0004F4FEA03334CEA133302D0524263EB430394EA050F00F0A780A4F10104D5F1200E0DDB02FA0A
:407040000EFC22FA05F2801841F1000103FA0EF2801843FA05F359410EE0A5F120050EF1200E012A03FA0EFC28BF4CF0020C43FA05F3C01851EBE37101F0004507D54FF09D
:40708000000EDCF1000C7EEB00006EEB0101B1F5801F1BD3B1F5001F0CD349085FEA30004FEA3C0C04F101044FEA445212F5800F80F09A80BCF1004F08BF5FEA500C50F171
:4070C000000041EB045141EA050130BD5FEA4C0C404141EB010111F4801FA4F10104E9D191F0000F04BF01460020B1FA81F308BF2033A3F10B03B3F120020CDA0C3208DD45
:4071000002F1140CC2F10C0201FA0CF021FA02F10CE002F11402D8BFC2F1200C01FA02F120FA0CFCDCBF41EA0C019040E41AA2BF01EB0451294330BD6FEA04041F3C1CDAAD
:407140000C340EDC04F11404C4F1200220FA04F001FA02F340EA030021FA04F345EA030130BDC4F10C04C4F1200220FA02F001FA04F340EA0300294630BD21FA04F0294603
:4071800030BD94F0000F83F4801306BF81F480110134013D4EE77FEA645C18BF7FEA655C29D094EA050F08BF90EA020F05D054EA000C04BF1946104630BD91EA030F1EBFDD
:4071C0000021002030BD5FEA545C05D14000494128BF41F0004130BD14F580043CBF01F5801130BD01F0004545F0FE4141F470014FF0000030BD7FEA645C1ABF1946104653
:407200007FEA655C1CBF0B46024650EA013406BF52EA033591EA030F41F4002130BD00BF90F0000F04BF0021704730B54FF4806404F132044FF000054FF0000150E700BF9E
