:020000041000EA
:4000000000400208230100100D00000085010010000000000000000000000000000000000000000000000000000000008101001000000000000000008101001081010010E9
:400040008101001081010010810100108101001081010010810100108101001081010010810100108101001081010010810100108101001081010010810100108101001060
:400080008101001081010010810100108101001081010010810100108101001081010010810100108101001081010010810100108101001081010010810100108101001020
:4000C00010B5064C2378002B07D1054B002B02D0044800E000BF0123237010BD300500080000000040180010084B10B5002B03D00749084800E000BF07480368002B00D1DF
:4001000010BD064B002BFBD09847F9E7000000003405000840180010E8000008000000007047FFF7FDFF72B60F4C104DAC4209DA21686268A368043B02DBC858D050FAE75E
:400140000C34F3E70A490B4A0020521A02DD043A8850FCDC084809490860BFF34F8F00F0E3F800F01DF8FEE7441800105C18001030050008080700080000000808ED00E0F4
:40018000FEE7FEE700B504207146084202D0EFF3098001E0EFF30880043000F03BFFFEE710B562B6014800F03FF9FEE70000081010B5002000F06EFD10BD0000F8B5E023C8
:4001C000504C9B00E2580F231340D022990092000919885807224C4D0240032A05D0042A05D0002A0FD0494811E028680FE0C022920089581F220A40112A01D0132A04D1D9
:400200008020000203E0424801E0FA20C001002B27D1B223B1210322DB00C900E658635867581B0F3F0F1340174205D0354F7958090F0A40012A01D1F20701D4032B3AD1F4
:40024000B023344ADB00E658A158E758C904C90C01F056F9B603F901B60BC90F7043013127E0012B27D1C823C0210322DB00C900E658635867583F0F174205D0214F795894
:40028000090F0A40012A01D1F20703D49B009B0F032B10D1C0227F23D200A758A1583B401F27A658090A3940584301F029F9310C394001F025F9E0239B00E3589B069B0F8B
:4002C000D840154B68601C691969240A090E013101F016F9E1B2A860013101F011F90F4BE860286104000E49C01801F009F9FA210C4B28758900E01801F002F9A861C003DF
:40030000E861F8BD00002640C000000800366E0100127A0084050000000021403F420F0040420F00E703000010B5254801F0E2F8B022E0213020234CD200A35889005B002B
:400340005B08A35063588343635080235B04A3501D4A1E4BE250A02204339201E250FF221B4BE25001F0B4F8C02201215200A3588B43A35000F082F8FFF720FFB0235B0524
:400380005A78002A02D05B78212B03D10022114BDA605A60104C80212200042000F00EFB2000103000F084FB0C4B1B6851331B78002B02D00A4800F0B7FB00F053FA10BD13
:4003C000881700100000264001000200840500008C050000E00023404C0500080407000840160010024BD86F032318407047C0460400214010B500F08CFE074A074BD16F60
:400400000B4007490B43D367102306490A681A42FCD000F082FE10BD04002140FCFF00000100FA058800214070B50F4C060000F070FEE36F0500DB439B0701D1FFF7DAFF5B
:40044000B0230A4A9B00D650E26F094B09491340094A1343E36710230A681A42FCD0280000F05BFE70BDC0460400214000002140FCFF0000880021400300FA05F0B59621DE
:400480008FB0002000F0DEFD00F0B4FD8C4E002810D100F0A1FDC0235B00F358894ADB0703D4B3585B005B08B3508021B35809060B43B350012000F08DFFE821824F8348D1
:4004C0007B6C890103400B437B647A6C0190120AD2B23A2A04D17B6C7D4A13400B437B64A0220321D200B3587A4C8B43B350236801981A001D0088321968126808358A1854
:4005000011680140802011601A68E96F400451180A681202120A02430A601968EA6F01988A1811683E33014011601A780394002A07D0E0210F24624A890052586048A2439D
:4005400042501A78002A05D0E021302089007258824372501B78002B06D0E02280219200B35809060B43B3500021012000F0AAFB0021022000F0A6FB0021032000F0A2FB7D
:400580000021042000F09EFB002105AD080000F099FB2B00504A13CA13C303CA03C3280000F0B8FB4C4B0293002800D0FEE780214A4A0906B3584A480B43B35000F006FC0B
:4005C0003F4C061E00D0FEE7464B474AE1580A40E250E158454A0A408021E250E25809060A43E250043BE158414A0A40E250E158404A0A40802189010A438021E250E25802
:4006000009020A43E2503A683B4B13408022520013433B6000F03EFF80212A4B0906E25830000A43E2500122E1580A43E250642100F008FD039B1B681A003F3211789A6809
:40064000052901D92D495650190074310988019889180A6802408C20800102430A601800190072307031007809789A68733381401878032383400B43802109060B43802101
:40068000C900535053582A00029B143313CB13C213CB13C213CB13C22900194800F0EAF82B00029C383407CC07C307CC07C307CC07C32900134800F0DDF80FB0F0BDC046D9
:4006C000000026400C05000000002740FF00FFFFFFC5FFDF0407000874160010087F0000400D030004050000FEFCFFFFFFFF00FFFFF0FFFFFF8FFFFFFFFCFFFF140C000069
:400700008002324000033240044B1B681A00B03212881B6A5043C0187047C04604070008034B1B68B4331B68C0180068C00F7047040700081E4A0300904238D010D840287F
:400740002ED005D8002831D010282DD119482EE0802827D08021100049008B4227D023E0154A904214D008D8A022120690421DD0124AA020934211D016E0114A904209D014
:40078000104A904208D0104A90420DD10F480EE0A42003E00E480AE00E4808E0C00306E00D4804E00D4802E00D4800E0002070470600520001005000010000F0090000A059
:4007C000040000F0050000F0030000F00100520002005200030052000200500005005200FF00520010B50020FFF78EFFFFF798FF00280CD1074B1868FFF79CFF0122064B56
:400800001B685B689A609A68002AFCD100E0034810BDC046DC06000804070008020050000D4B10B51861002805D002230370FD33437000234380094B1B681A005032127841
:40084000002A08D051331B78002B04D002220449002000F0C9F910BDDC060008040700085101000810B502481430FFF7D9FF10BDDC06000830B5002830D000292ED0184B8A
:40088000CD681B689A695C69821AD209120112190C6804601C007D342478241825601C007E3424780D69241825601C007F3424784D69241825601C007C3424788D682418E5
:4008C00025604C68803384611B7818188B690360CB69002013600B6A536000E0014830BD0407000801005A00064B1B68B4331B68C3181B68002B03DA89B24160002000E01A
:40090000014870470407000801008A000368002B01DB034803E089B2C26081600020704701008A00064B1B68B4331B68C3181B68002B03DAC36800200B6000E0014870479F
:400940000407000801008A00F8B5184B0D001B681A0031321278824224D9002922D01F240A6814401ED11900B0310E88104F70431E6AD2088619210068683E6000F04CFEF2
:4009800021003000FFF7B0FF21002A003868FFF7BDFF011E04D13868FFF7A6FF031E02D0044B00E0044B1800F8BDC04604070008F406000801018A0003018A0010B5002A13
:4009C0000DD1002914D10B4B1A681300B0331B885843136AC018084B1860080009E0002906D0054B5960191D9A60FFF7ADFF00E0024810BD04070008F406000803018A007A
:400A0000194BF7B51A680193D76804003B680E00834223D90025A94202D100F07AFB0500019B18680368002B01DB104C10E063095A01A41A0122A24079689B00CB1819684A
:400A400011420DD00024914319600021FFF74CFF002E07D1280000F060FB03E0044C01E0044CF2E72000FEBDF40600080301880004018A00020188000A4B1B68DA681368A5
:400A800083420DD9430999005B01C31A0120984052688B581840431E9841034BC01800E002487047F40600080001880004018A00024B1A68002A00D118607047000700081C
:400AC000F0B52C246043154C1F0024681E0A2018FF2427403440124E1B0C356807602E6A44608360B0352D886F43BF190761270080377F01F71964010A4D476134191F047C
:400B00003B436419236000238361059BC2610162002B01D01B888381F0BDC046000700080407000808100000F0B5038985B002AD2B80144B02681B68066ADB8E476A9B1831
:400B4000AB7043680095826AC16A040003930369C068FFF7B5FF00213B000A0000913000FFF7AEFF216B280000F0DAF90023EA5E002A05DB1F231A401E3B9340024A1360EE
:400B800005B0F0BD0407000800E100E0F7B52C25124C6843276801933C182669002E08D04D4379198869002805D13568002D02DA03E00B4811E00B480FE0676801242500B4
:400BC0004B689D4013882D041D431560F2608C61BC40019BA4B24B62B460FEBD0007000804028A0007028A002C235843064B1B681818C369934204D9036A9200D1500020DD
:400C000000E002487047C046000700080A028A0073B5002642690400D56801962B0CB34221D01B0413601368194B00691B68B4331B68C3181B68B34215DA01A9FFF772FE21
:400C4000B0420CD10198E26903681E0C0378934205D2226A9B009B58002B00D0984731002069FFF741FEADB2002D0ED063691D6000251B68636AAB4202D09847656203E0B2
:400C8000A36A002B00D09847A56163691B6873BD040700082C2310B55843034B1B681818FFF7B6FF10BDC04600070008044B10301B6880021B69C0580F2318407047C04601
:400CC00004070008104B1B683C331B78834219D904290FD94B1EFF3B132B13D81F2319400A4B8000C018C02304229B00C1504033C25005E00723D0301940044B8000C1509F
:400D0000002000E002487047040700080000264001004A00F0B5B024244BE4001A59002A42DB02689203910BC279551EAA4112060A431A5102891E4D12042A4011008288D3
:400D4000C024D204D20C0A431A49A4055A50FF21C67A828936010E40174912020A400F213243867A31400A431600827B12072240110032000A43B121C9005A50E022877962
:400D8000D2003F02174039000C4E0D4A9C59144021439951018A9A5909040D40094900200A402A439A5100E00748F0BD000026400000FF018405000000FF1F008C050000E2
:400DC000FFF8FFFFFFFF00FE03004A00F7B580210600050004272F4B2F4C0906E2580A43E2500093B223DB00E3583B4206D1002D04D0012000F0E6F8013DF3E7B121802029
:400E0000C9006358254A80051340034363500192002E01D0002D06D0B0228021D200A35809060B43A3500127B223DB00E3583B4206D1002D13D0012000F0C4F8013DF3E76D
:400E4000002E01D0002D0CD0B122C0210020D200A35889050B43A350864217D119E0002EF2D0B122D200A35801990B40802189050B43A350083AA3585B005B08A350009BE3
:400E8000009AE3585B005B08A35001E0002D00D10348FEBD8C05000000002640FFFFFFCF02004A00134B30B51D6807222B0028331B78012B13D183081C00944319D19C009A
:400EC000021BD20091402B6820331B191C6861400800FF21914001406140196009E00240802000060243802080012B6809188900CA5030BD04070008064B10309A68064B2D
:400F00009A4203D183009858995002E0034B8000C058704700ED00E00000000800000010F7B5061E019142D00023C05E002804DBB178FFF7B7FF002400E01E4C0023F05ED1
:400F40007668B601002815DB0321FF250140C9008D40C027AC46184B82089200D218BF00D3591D0063469D43FF2333408B402B43D35113E00F2281B20A40083A0F4B920809
:400F80009200D218032319409940FC331D0033408D408B40D769AF433B43D361074B9A68074B9A4204D10199FFF7A6FF00E0014C2000FEBD0100560000E100E000ED00E0A9
:400FC0000000000810B5034B1B78584300F098F810BDC046D400000880220020034B12069A649B6C834200DA0148704700002740030046008022054B120198585B68DBB2B8
:40100000002B02D08023DB021843704700002640FEE7000002680A4B10B51A6042685A6082689A60C268DA6002691A6142695A6182699A61C269DA61FFF7EAFF10BDC046E2
:4010400010050008F0B51924002800D14B342A4B03261A688C42A4411300A8331F8813686442FD182B68B34323432B601368234DFF183B682B403B601300AA331B88156826
:401080005F193D68B5432C433C6014681B4D1B191C6825401D60002808D00023102924D921338B429B415B4201331EE0130055331C780300A14218D9130056331C78012313
:4010C000A14212D9130057331C780223A1420CD9130058331C783300A14206D9130059331B788B42404105231B1A0F2152681068884303431360F0BD04070008FFFCFFFF61
:401100000230800803D001300238FCD1C046C0467047EFF3108072B6704780F310887047B0235B055A782120002A01D05878C0B27047B0235B059A89002A02D0988980B235
:4011400001E080204000704770B5FFF7F2FF8022194B5200904215D119680F240B00022098330A681B68D3181A68A24302431A600A009C320B6812689A181368A34303430B
:40118000136017E0B0241B680C4A6405A5581A009832196812688A18C0211068890029430143116019009C311A680B68D318044AA2581A6070BDC046040700084818000000
:4011C0004418000070B5FFF7B4FF8022194B5200904215D119680F240B00032098330A681B68D3181A68A24302431A600A009C320B6812689A181368A3430343136017E07A
:401200001B68B0251A00983219681268C1248A18C0216D0564012E598900106831430143116019009C311A680B68D3182A591A6070BDC0460407000810B5FFF77AFF8022A8
:40124000104B52001B6890420CD1190098311A680B68D21811680C4B0B40C021C9010B4313600EE0B021094A49058858190098311A680B68D318C0221968920002430A43BE
:401280001A6010BD04070008FF8FFFFF1818000070B5FFF74EFF8022144B52001B6890420CD1190098311A680B68D2181168104B0B408021C9010B43136015E01A00983246
:4012C00019681268B0258A18C0210A4C6D052E598900106831430143116019009C311A680B68D3182A591A6070BDC04604070008FF8FFFFF4C18000010B50020FFF7D6FC7C
:401300000400FFF70DFF0123222801D863426341180010BD70B50400FFF702FF85B2FFF708FF06000020FFF7C1FC80235B00002811D19E4211D1222D35D880221D4B1E496E
:401340001B6824065D681D4B6E585204144033401C436C502CE09E4223D0164A1268156A9E4203D1002C05D1154A06E0002C03D1144A02E0144A00E0144A01212800FFF746
:40138000C5FA002813D10B4B1B68B4331B68EB181A68002AFCDBEB6800201B0EA02B06D106E0222D03D9034B1B681D6ADAE7084870BDC0460407000818F00000FFFFFFFE98
:4013C000010000300100000C010100300300000C04004200F7B50700FFF7ABFE80235B00984209D0FFF795FEB0230190234D244A5B05002F06D012E0FFF77EFF0028F1D1A6
:40140000204E38E0AF50E8220120D2009C5CFFF781FFE4B2061E20D1FFF796FE11E01A4903205958A9501F21184A9C5C184AE4B2AB588B4314390B43AB50FFF7C3FDFFF7C1
:4014400027FF1F2312491C406A589A4314436C50002F06D1FFF7F0FE3E000198FFF75DFE09E00720FFF7AEFDFFF7ACFE0020FFF751FF0600F1E73000FEBDC046000026409D
:40148000307F00000300420010180000410700001CFF000010B50C4B042803D11A68104318600FE0094A000612681400A034116822688A18C02189040840042110601A6828
:4014C0008A431A6010BDC04610E000E004070008C0228020064952008B58C0059B009B08034380208B508B58000603438B50704700002640014B18607047C046040700086A
:40150000002243088B4274D303098B425FD3030A8B4244D3030B8B4228D3030C8B420DD3FF22090212BA030C8B4202D31212090265D0030B8B4219D300E0090AC30B8B423A
:4015400001D3CB03C01A5241830B8B4201D38B03C01A5241430B8B4201D34B03C01A5241030B8B4201D30B03C01A5241C30A8B4201D3CB02C01A5241830A8B4201D38B02FB
:40158000C01A5241430A8B4201D34B02C01A5241030A8B4201D30B02C01A5241CDD2C3098B4201D3CB01C01A524183098B4201D38B01C01A524143098B4201D34B01C01A70
:4015C000524103098B4201D30B01C01A5241C3088B4201D3CB00C01A524183088B4201D38B00C01A524143088B4201D34B00C01A5241411A00D20146524110467047FFE7CC
:4016000001B5002000F006F802BDC0460029F7D076E770477047C04603008218934202D019700133FAE77047F8B5C046F8BC08BC9E467047F8B5C046F8BC08BC9E4670473B
:401640000300000001000000010000000000000005036000040000000100000000000000010000000604600008000000BC060008B1010010F4010000140004010A000905D3
:401680000800000063010000030000000000000000000000680000000000000000000000000000001212000000000000000000000000000000000000000000BA0000000075
:4016C00000000000000000000000000000001D1D0000204000002440000000400000000000002340000030400000314000009F4000002240000010400202020202020202C7
:401700000210101D800017007500FF030602063604102000000000007FC0000000040000000000000019324B647D00804000080B100000000000FF012002001F0080000482
:40174000FF081018001000140018001C4044484C50000000081000000800000004000000041000000012000004210000002100000016000040114002C41300138013A01311
:40178000200000001C0000000000214000002540000001400000344000002440000031400000324000001F4100002340000011400101010101010101011010108000190045
:4017C0005500F0000501053B04101C01010000000FC000000004000001010101011D3A57789600082000101208000000001F00000010000F002000023F06080E000800097A
:40180000000A000B24282C3034000000100000009000000088000000080000008000000004F0000000F00000400200002005A000D00100018001A0012000000010000000F8
:40184000000000000000001000000008C000000064180010C00000085004000030050008D80100000048E80100127A0000093D0000093D0000093D0004000000A00F000090
:401880000000D007E9000010C10000100000000080B230B5C00020D0104B07211C682300B0331B885943236ACB181A68002AFCDA3E220B4B06251A600A4A0B4B1A60A3223E
:4018C0000A4BD2009D500A4A98509858206A09180020486099580029FCDA30BD04070008040126401E1F000008012640000026401C05000010B54378FF2B11D100F0B2F980
:401900000400042000F07EF9C3685A68012311681943116011681942FCD1200000F0AAF910BDF7B507000020019100F06BF93C4B06001B681A005033B43215681B784519E6
:40194000002B27D000F09EF9009003283CD1062000F058F900F066F9041E5DD100F072F9304B984258D0304A230021001269012000F070F9041E4FD1002000F063F9294A44
:401980002A4B904203D09C4246D00134F4E79C421AD141E000F066F9234A04000121300000F080F9002808D1002F08D02B68002BFCDB00F02FF9050002E01D4D00E01D4D54
:4019C000200000F057F928E000F04CF91A4B1B4A0400D358002B06DA134A0121300000F061F9002801D0124D0CE00198FFF750FF002F06D02B68002BFCDB00F00BF9050098
:401A000000E00C4D009B032BDAD10121002000F011F90028F9D1D3E7054D2800FEBDC0460407000801018800DC060008F049020005005200010050001C05000000002640E5
:401A4000F0B5674C85B0236803905B68019300F021F9212846D1236807251A00B032128855431A6AAA1811680029FCDA0220D1680143D160D168C9072FD5D1681E00029190
:401A800008218C469C44614688361C683068C96F6118241868460F6824680089240A24060443FF203F020004074027439024D76008684C4A240110402043086030681968A5
:401AC000091808680240144362460C601968D26F8A18126832688A1812681B6AED1800236B606B680421404A13690B431361039B012B01D030BF00E020BF39490A680C0093
:401B00001300B033188807234343126A9B181A68002AFCDA00F0BEF8212830D1236807261A00B032128856431A6AB218D168C9071ED519000831CF6F1968CF193868D568B7
:401B4000FF22284912022D0A154008400400280020433860180088301C68006820181C6A05683419E4682940240C22400A43026002221B6AF618F3689343F36022E0019BC1
:401B8000FC331B69002B1DD1A323184A1849194E194FDB000D68D45830680F600627D7503E233360154B3E37D750D758002FFCDA019B134AFC331A61A3230C4ADB000D60FF
:401BC000D4503060064B1A681300B033198807234B43126A9B1800225A6005B0F0BDC04604070008FF00FFFF00ED00E00000264008012640040126401E1F00001C05000021
:401C0000AAAAAAAA01B40248844601BC604700BF0907001001B40248844601BC604700BFE507001001B40248844601BC604700BF2107001001B40248844601BC604700BFF8
:401C4000010A001001B40248844601BC604700BF790A001001B40248844601BC604700BF8D0B001001B40248844601BC604700BF1311001001B40248844601BC604700BF2A
:401C80001B11001001B40248844601BC604700BFE503001001B40248844601BC604700BF2111001001B40248844601BC604700BF0D090010000000000000000000000000C4
:401CC00000000000000000000000000000000000000000000000000000000000000000000000000000000000000000000000000000000000000000000000000000000000E4
:401D000000000000000000000000000000000000000000000000000000000000000000000000000000000000000000000000000000000000000000000000000000000000A3
:401D40000000000000000000000000000000000000000000000000000000000000000000000000000000000000000000000000000000000000000000000000000000000063
:401D80000000000000000000000000000000000000000000000000000000000000000000000000000000000000000000000000000000000000000000000000000000000023
:401DC00000000000000000000000000000000000000000000000000000000000000000000000000000000000000000000000000000000000000000000000000000000000E3
:020000041008E2
:40000000007804089B3508100D0000000136081001360810013608100136081000000000000000000000000000000000115A0810FD35081000000000A15A0810055B0810B3
:40004000FD350810FD350810FD350810FD350810FD350810FD350810FD350810FD350810FD350810FD350810FD350810FD350810FD350810FD350810FD350810FD350810E0
:40008000FD350810FD350810FD350810FD350810FD350810FD350810FD350810FD350810FD350810FD350810FD350810FD350810FD350810FD350810FD350810FD350810A0
:4000C000FD350810FD350810FD350810FD350810FD350810FD350810FD350810FD350810FD350810FD350810FD350810FD350810FD350810FD350810FD350810FD35081060
:40010000FD350810FD350810FD350810FD350810FD350810FD350810FD350810FD350810FD350810FD350810FD350810FD350810FD350810FD350810FD350810FD3508101F
:40014000FD350810FD350810FD350810FD350810FD350810FD350810FD350810FD350810FD350810FD350810FD350810FD350810FD350810FD350810FD350810FD350810DF
:40018000FD350810FD350810FD350810FD350810FD350810FD350810FD350810FD350810FD350810FD350810FD350810FD350810FD350810FD350810FD350810FD3508109F
:4001C000FD350810FD350810FD350810FD350810FD350810FD350810FD350810FD350810FD350810FD350810FD350810FD350810FD350810FD350810FD350810FD3508105F
:40020000FD350810FD350810FD350810FD350810FD350810FD350810FD350810FD350810FD350810FD350810FD350810FD350810FD350810FD350810FD350810FD3508101E
:40024000FD350810FD350810FD350810FD350810FD350810FD350810FD350810FD350810FD350810FD350810FD350810FD350810FD350810FD350810FD350810FD350810DE
:40028000FD350810FD350810FD35081010B5054C237833B9044B13B10448AFF300800123237010BDA8480208000000001C3E0910084B10B51BB108490848AFF3008008485A
:4002C000036803B910BD074B002BFBD0BDE81040184700BF00000000AC4802081C3E0910544302080000000030B599B05A2204460D4601A8002109F061FC294601A802F02C
:400300005BFD01A9204602F049FC19B030BD30B599B05A2204460D4601A8002109F04EFC294601A802F08EFC01A9204602F08CFD19B030BD802303804023438020238380AD
:400340001023C38008230381042343810223838170470023F0B5038001279CB2A24214D907FA03F60024A5B2B54204F101040ADA30F815C005EB060E31F813508CEA0505A4
:4003800020F81E50EFE70133E7E7F0BD2DE9F04FA3B010AE9346814622228846304600211F4609F00BFC2222002119A809F006FC10220021684609F001FC102200210DEBBB
:4003C000020009F0FBFB1022002108A809F0F6FB102200210CA809F0F1FB0125BB1E9D404FF0060A6C000AFB05BA51462246304609F0D9FB51462246301909F0D4FBAA00DC
:40040000594619A809F0CFFB19ABAAEB450A19190022AA420ED036F812003AF81230584031F8123080B226F81200584021F812000132EEE7013F3B46324604A9684600F06B
:400440001FF83B4619AA0CA908A800F019F8224608A9484609F0A7FB2246694609EB040009F0A1FB22460CA9404609F09CFB224604A908EB040009F096FB23B0BDE8F08F15
:4004800030B45C1E032C00F28180DFE804F07A6D4D02148A138B63400381148B938B63408381948BD38B6340C381D58A538B6B409DB24D81548B938B63408B81D38BCB8145
:4004C000148B938A63406B409BB24381558A548B6C4063400B8113880380D589D38AD48B6B4063409DB2CD809489938A6340948B63406B409BB2C3801589CC886540048928
:400500006C4063408380D5885389CC886B406340548A6340548B63409DB24D80D488C38863406B408B8016E01388038014899389634083809489D3896340C380D588538964
:40054000D4896B4063409DB24D805489938963408B80D389CB809388848863406B409BB24380528853400FE0138803809488D38863409BB24380508843400B80D3884B8031
:4005800007E01388038053880B8002E030BCFFF7FDBE30BC70472DE9F04FF7B0834603928946102200210EA800241D4608AE819F09F004FB1022002112A809F0FFFA802286
:4005C000214616A834607460B4600B940C940D9409F0F4FA8022214636A809F0EFFA8022214656A809F0EAFA809B06940DF11808012BC8F8044027D1AC4209D237F81400DF
:40060000B9F8021001F0E0FB28F814000134F3E7B9F80030ABF80030002101236FF00106A94280F0CB8058000BEB000238F811E017187343D45A8EEA040422F8024BBA427C
:40064000F8D103460131EBE705F10043013B07EB430837F81330012B09D1809B4A4612A90EA8FFF70DFF00240DF12C0A18E0809B012404FA03F2CA4623469442EDD218462D
:40068000B8F80010059201F09FFB3AF8021F049001F09AFB0134AAF80000059A049BECE704F101094D4516D937F81430B8F80000049301F0F9FB049B0146184601F084FB30
:4006C00026F8140001F0DCFB36F8143058402AF814004C46E4E7013D0DF15809AAB231464846FFF736FEEBB20493809B013B0593039B36AE5A1C0BAF059B00930197049BFC
:4007000052080EA93046FFF746FF039B012405F00F0504FA05F5032B05FA04F81DD83288BDF84830ABF8002053402BF81530D844AC4243D039F81400BDF8481036F814704F
:4007400001F042FBBDF84830784080B22BF81400584028F814000134EAE7039A059B01970DF5AC7A00935208049B12A950460BEB0807FFF710FF42465146384609F013FAA4
:400780003288ABF800203BF8153053402BF81530AC4213D03AF8141039F8140036F8148001F012FB88EA000080B22BF8140037F81430584027F814000134E9E777B0BDE833
:4007C000F08F2DE9F04FADF55B7D0DF108090D460DF1680800210446934648460E2209F0EDF94FF480720021404609F0E7F9202200210AA809F0E2F90DF1180A20220021D9
:4008000012A809F0DBF95AAF0E220021504609F0D5F99AAE4FF480720021384609F0CEF94FF480720021304609F0C8F94846FFF781FD072249464046FFF78BFD2A460523C2
:4008400012A90AA8FFF7A2FD002539F8150001F017FB39F8153058402AF815000135072DF3D14FF004090BF101022B4652080AA93846CDF804A0CDF80090FFF78CFE2B469F
:400880004FEA5B0212A930468DE80006FFF783FE4FF48072A018314609F085F93A88B4F8003122805340A4F80031012536F8151038F8150037F8159001F086FAB4F8023121
:4008C00089EA000080B201356080802D80EA0300A4F8020104F10204E8D10DF55B7DBDE8F08F0000F0B5C5B004460D460E22002104AE684609F062F94FF48072002130464A
:4009000009F05CF96846FFF715FD072269463046FFF71FFD2A8823781E48524283F00103C2F3C0325A402270B5F800315B42C3F3C03383F001035340237005F580710122F3
:4009400036F8127035F8123030F817E0CEF1FF0E5B4214F80EC0C3F3C03383F0010383EA0C0387F0010704F80E3030F8177031F8023FC7F1FF075B4214F807E0C3F3C03391
:4009800083F00103013283EA0E03802AE355D7D145B0F0BD4CC808102DE9F04FD0E90034ADF52F7DCDE90834D0E90234CDE90A34D0E90434CDE90C34D0E90634CDE90E3480
:4009C000D0E90834CDE91034D0E90A34CDE91234D0E90C34CDE91434D0E90E34CDE91634D0E91034CDE91834D0E91234CDE91A34D0E91434CDE91C34D0E91634CDE91E340F
:400A0000D0E91834CDE92034D0E91A34CDE92234D0E91C34CDE92434D0E91E34CDE92634D0E92034CDE92834D0E92234CDE92A34D0E92434CDE92C34D0E92634CDE92E34CE
:400A4000D0E92834CDE93034D0E92A34CDE93234D0E92C34CDE93434D0E92E34CDE93634D0E930340249CDE9383401F1D00C01E058CA08101031614500F0D287DDE91234F3
:400A8000DDE908AB8AEA030A8BEA040BDDE91C3483EA0A0384EA0B049A46A346DDE9263483EA0A0384EA0B049A46A346DDE9303483EA0A0384EA0B049A46A346DDE90A89BF
:400AC000DDE9143488EA030889EA0409DDE91E3483EA080384EA09049846A146DDE9283483EA080384EA09049846A146DDE9323483EA080384EA09049846A146DDE916235E
:400B0000DDE90C4554405D40DDE9202362406B4014461D46DDE92A2362406B4014461D46DDE9342362406B4014461D46DDE91867DDE90E2372407B40DDE9226756405F40E9
:400B400032463B46DDE92C6756405F4032463B46DDE9366756405F40CDE90067DDE91A23DDE9106756405F40DDE9242372407B4016461F46DDE92E2372407B4016461F464B
:400B8000DDE938234FEA490E7B401F464EEAD8734FEA480E9B934EEAD9739A9372409AAB1646D3E900234FEA450E72407B40CDE902234EEAD4734FEA440E9D934EEAD573B3
:400BC0009C939CABD3E9002382EA0A0283EA0B03CDE90423019B4FEA430E009B4EEAD3739F93009B4FEA430E019B4EEAD3739E939EABD3E900234FEA470E83EA09039946E1
:400C00004EEAD6737600A19346EAD773A09382EA0802A0AB9046D3E9002362406B404FEA4B04CDE9062344EADA734FEA4A04A39344EADB73A293A2ABD3E900ABDDE900341B
:400C400083EA0A0384EA0B049A46A346DDE90223DDE90845DDE9046754405D40DDE9142372407B40160D46EA03361B0D43EA02333B93DDE9202382EA080283EA09033A963E
:400C8000560D46EAC3265B0D43EAC2233C963D93DDE90667DDE92C237B4072405E0546EAD226520542EAD3233E93DDE9382383EA0B0382EA0A023F969E0346EA92469203EB
:400CC00042EA93434196409351E9062382EA040683EA0507CDE90067DDE93C23DDE93A6722EA060623EA0707DDE9002372407B40CDE90823DDE93C67DDE93E2322EA06023F
:400D000023EA0703DDE93A6756405F40CDE9206740AED6E90067DDE93E2326EA020227EA0303DDE93C675F4040AB5640D3E90023CDE93867DDE93E6724EA020225EA03030E
:400D400056405F40DDE93A2323EA05031D4622EA040240AB1446D3E9002362406B40CDE92C23DDE90645DDE90E236B4062401C0744EA1214120742EA13134293DDE91A230C
:400D800083EA0B0382EA0A0243941C0544EA1234120542EA133345944493DDE90245DDE91C236B406240DC0044EA5274D20042EA5373CDE9146746934794DDE92823DDE9EC
:400DC000044562406B40D40C44EA4334DB0C43EA42334993DDE9342382EA0802489483EA0903D40844EA4374DB0843EA42734A944B9346AC44ABD4E90045D3E9002324EA79
:400E0000020242AC25EA0303D4E9004554405D4048ABCDE92845D3E9004546ABD3E9002325EA030544AB24EA0204D3E9002362406B40CDE90E234AAC48ABD4E90045D3E9BD
:400E4000002324EA020246AC25EA0303D4E9004554405D4042ABCDE91C45D3E900454AABD3E9002325EA030548AB24EA0204D3E9002362406B40CDE9342344AC42ABD4E939
:400E80000045D3E9002324EA02024AAC25EA0303D4E9004554405D40CDE91A45DDE90A23DDE904456B4062405C0044EAD274520042EAD3734C93DDE9162383EA090382EA03
:400EC00008024D949C0144EA9264920142EA93634F944E93DDE90645DDE922236B4062405C0644EAD214520642EAD3135093DDE92E2383EA0B03519482EA0A021C0244EA66
:400F00001264120242EA136353945293DDE90245DDE930236B4062409C0444EA9234920442EA93335594549350AC4EABD4E90045D3E9002324EA02024CAC25EA0303D4E9A8
:400F4000004554405D40CDE9164552AB50ACD4E90045D3E9002322EA04024EAC23EA0503D4E9004554405D4052ABCDE92E45D3E9004554ABD3E9002323EA050550AB22EA99
:400F80000404D3E9002362406B40CDE90A2354AC4CABD4E90045D3E9002322EA040252AC23EA0503D4E9004554405D40CDE922454CAB4EACD4E90045D3E9002324EA0202E9
:400FC00054AC25EA0303D4E9004554405D40DDE9102383EA0B03CDE9304582EA0A02DC0644EA5214D20642EA53135794DDE902455693DDE9122362406B40140F44EA031421
:401000001B0F43EA021358945993DDE90445DDE91E236B4062409C0244EA9254920242EA93535A93DDE92A2383EA09035B9482EA0802DC0344EA5244D20342EA53435D94A8
:401040005C93DDE90645DDE9362362406B40140A44EA03641B0A43EA02635E945F935AAC58ABD4E90045D3E9002324EA020256AC25EA0303D4E9004554405D40CDE936453F
:401080005CAB5AACD4E90045D3E9002322EA040258AC23EA0503D4E9004554405D40CDE912455CAB5EACD4E90045D3E9002324EA02025AAC25EA0303D4E9004554405D4085
:4010C000CDE92A4556AB5EACD4E90045D3E9002322EA04025CAC23EA0503D4E9004554405D40CDE9104556AB58ACD3E90023D4E9004524EA02025EAC25EA0303D4E9004559
:4011000054405D40CDE91E45DDE90C3483EA080384EA090498469B0843EA84736093A30843EA88736193DDE91845DDE9062354405D40630A43EAC55362936B0A43EAC4536A
:401140006393DDE9242382EA0A0283EA0B03540E44EAC3145B0E43EAC21364946593DDE90245DDE9262362406B40D40D44EA4324DB0D43EA422366946793DDE90445DDE995
:4011800032236B4062409C0044EA9274920042EA93736994689364AC62ABD4E90045D3E9002324EA020260AC25EA0303D4E9004554405D40CDE9244566AB64ACD4E900455B
:4011C000D3E9002322EA040262AC23EA0503D4E9004554405D40CDE9324566AB68ACD4E90045D3E9002324EA020264AC25EA0303D4E9004554405D40CDE9184560AB68ACD9
:40120000D4E90045D3E9002322EA040266AC23EA0503D4E9004554405D40CDE9264560AB62ACD4E90045D3E9002324EA020268AC25EA0303D4E9004554405D40CDE90C45D1
:40124000DDE908ABDDE928348AEA030A8BEA040BDDE9163483EA0A0384EA0B049A46A346DDE9363483EA0A0384EA0B049A46A346DDE9243483EA0A0384EA0B049A46A34630
:40128000DDE92089DDE90E3488EA030889EA0409DDE92E3483EA080384EA09049846A146DDE9123483EA080384EA09049846A146DDE9323483EA080384EA09049846A14632
:4012C000DDE91C23DDE9384554405D40DDE90A2362406B4014461D46DDE92A2362406B4014461D46DDE9182362406B4014461D4632463B46DDE9346772407B40DDE922673A
:4013000056405F4032463B46DDE9106756405F4032463B46DDE9266756405F40CDE90067DDE93023DDE91A6756405F40DDE92C2372407B4016461F46DDE91E2372407B4023
:4013400016461F46DDE90C234FEA490E7B401F464EEAD8734FEA480EA5934EEAD973A4937240A4AB1646D3E900234FEA450E72407B40CDE902234EEAD4734FEA440EA793AE
:401380004EEAD573A693A6ABD3E9002382EA0A0283EA0B03CDE90423019B4FEA430E009B4EEAD373A993009B4FEA430E019B4EEAD373A893A8ABD3E900234FEA470E83EA52
:4013C000090399464EEAD6737600AB9346EAD773AA9382EA0802AAAB9046D3E9002362406B404FEA4B04CDE9062344EADA734FEA4A04AD9344EADB73AC93ACABD3E900AB27
:40140000DDE9003483EA0A0384EA0B049A46A346DDE90823DDE90245DDE9046762406B40DDE90E4574407D40260D46EA05362D0D45EA0434CDE900236A966B94DDE90A45C0
:4014400084EA080485EA0905660D46EAC5266D0D45EAC4246C966D94DDE90667DDE910457D4074406E0546EAD426640544EAD5246E94DDE90C4585EA0B056F9684EA0A044E
:40148000AE0346EA9446A40344EA9544709451E904456B401D466AAB71966240D3E900676CAB1446D3E9002322EA060623EA070784EA060285EA0703CDE908236EABD3E925
:4014C00000456CABD3E9002325EA03056AABD3E9006724EA02046EAB66406F40D3E9004570ABD3E9002323EA05056CABCDE90A67D3E9006722EA040470AB66406F40D3E92D
:401500000045DDE9002323EA05031D466EABCDE90C67D3E9006722EA04026AAB56406F40D3E90045DDE9002324EA020270AC25EA0303D4E9004554405D40CDE91045DDE903
:401540001423DDE906456B4062401C0744EA1214120742EA1313CDE90E6773947293DDE91A2383EA0B0382EA0A021C0544EA1234120542EA133375947493DDE90245DDE9C6
:4015800016236B406240DC0044EA5274D20042EA537377947693DDE90445DDE9122362406B40D40C44EA4334DB0C43EA42337993DDE9182382EA0802789483EA0903D408B4
:4015C00044EA4374DB0843EA42737A947B9376AC74ABD4E90045D3E9002324EA020272AC25EA0303D4E9004554405D40CDE9124578AB76ACD4E90045D3E9002322EA040246
:4016000074AC23EA0503D4E9004554405D40CDE9144578AB7AACD4E90045D3E9002324EA020276AC25EA0303D4E9004554405D4072ABCDE91645D3E900457AABD3E900235A
:4016400025EA030578AB24EA0204D3E9002362406B40CDE9182374AC72ABD3E90023D4E9004524EA02027AAC25EA0303D4E9004554405D40CDE91A45DDE92023DDE9044534
:401680006B4062405C0044EAD274520042EAD3737C93DDE91C2383EA09037D9482EA08029C0144EA9264920142EA93637F947E93DDE90645DDE922236B4062405C0644EAA2
:4016C000D214520642EAD3138093DDE91E2383EA0B03819482EA0A021C0244EA1264120242EA136383948293DDE90245DDE924236B4062409C0444EA9234920442EA933351
:401700008594849380AC7EABD4E90045D3E9002324EA02027CAC25EA0303D4E9004554405D40CDE91C4582AB80ACD4E90045D3E9002322EA04027EAC23EA0503D4E900451D
:4017400054405D40CDE91E4582AB84ACD4E90045D3E9002324EA020280AC25EA0303D4E9004554405D40CDE920457CAB84ACD4E90045D3E9002322EA040282AC23EA0503B3
:40178000D4E9004554405D40CDE922457CAB7EACD4E90045D3E9002324EA020284AC25EA0303D4E9004554405D40CDE92445DDE92C4585EA0B0584EA0A04EB0643EA541347
:4017C0008793E30643EA55138693DDE90245DDE9282362406B40140F44EA03141B0F43EA021388948993DDE90445DDE92E236B4062409C0244EA9254920242EA93538A93D9
:40180000DDE92A2383EA09038B9482EA0802DC0344EA5244D20342EA53438D948C93DDE90645DDE9262362406B40140A44EA03641B0A43EA02638E948F938AAC88ABD4E9CC
:401840000045D3E9002324EA020286AC25EA0303D4E9004554405D40CDE926458CAB8AACD4E90045D3E9002322EA040288AC23EA0503D4E9004554405D40CDE928458CAB61
:401880008EACD4E90045D3E9002324EA02028AAC25EA0303D4E9004554405D40CDE92A4586AB8EACD4E90045D3E9002322EA04028CAC23EA0503D4E9004554405D40CDE9C4
:4018C0002C4586AB88ACD4E90045D3E9002324EA02028EAC25EA0303D4E9004554405D40CDE92E45DDE9383483EA080384EA090498469B0843EA84739093A30843EA8873B4
:40190000DDE934459193DDE9062354405D40630A43EAC55392936B0A43EAC4539393DDE9302382EA0A0283EA0B03540E44EAC3145B0E43EAC21394949593DDE90245DDE96D
:40194000362362406B40D40D44EA4324DB0D43EA422396949793DDE90445DDE932236B4062409C0044EA9274920042EA93739994989394AC92ABD3E90023D4E9004524EAAE
:40198000020290AC25EA0303D4E9004554405D40CDE9304596AB94ACD4E90045D3E9002322EA040292AC23EA0503D4E9004554405D40CDE9324596AB98ACD4E90045D3E90A
:4019C000002324EA020294AC25EA0303D4E9004554405D40CDE9344590AB98ACD4E90045D3E9002322EA040296AC23EA0503D4E9004554405D40CDE9364590AB92ACD4E998
:401A00000045D3E9002324EA020298AC25EA0303D4E9004554405D40CDE93845FFF72AB8DDE90834C0E90034DDE90A34C0E90234DDE90C34C0E90434DDE90E34C0E9063445
:401A4000DDE91034C0E90834DDE91234C0E90A34DDE91434C0E90C34DDE91634C0E90E34DDE91834C0E91034DDE91A34C0E91234DDE91C34C0E91434DDE91E34C0E916347E
:401A8000DDE92034C0E91834DDE92234C0E91A34DDE92434C0E91C34DDE92634C0E91E34DDE92834C0E92034DDE92A34C0E92234DDE92C34C0E92434DDE92E34C0E926343E
:401AC000DDE93034C0E92834DDE93234C0E92A34DDE93434C0E92C34DDE93634C0E92E34DDE93834C0E930340DF52F7DBDE8F08F30B5A0F1080300F1C00200240025E3E9B8
:401B000002459342FBD100220023C0E9322330BD2DE9F74F15469A460A460023CDE9002304468B4600260027D4E93223DDE9000112EB0A024FF0000943EB09038B4208BF4A
:401B40008242D04603D2013D0026002725E0A946D4E93223C5EB0901C2EB0B00884212D9521822F0070802F00702A044D20019F8010B002107F006FCD8E90023504059407E
:401B8000C8E90001E4E7CBEB02030544C4E9326720469A44FEF700FFC6E7B245D4E9322317D9921922F0070B02F00702A344D20015F8010F002107F0E5FBDBE900230136CA
:401BC00080EA020081EA0301CBE9000147F10007E3E718EB020849EB0309C4E9328903B0BDE8F08FD0F8C83070B523F0070605460644D0B203F007020C46D200002107F06C
:401C0000C1FBD6E900235040621E594022F0070402F00702C6E900012C44D2008020002107F0B0FBD4E900235040594000220023C4E90001C5E9322370BD2DE9F74F9A4688
:401C400005468B461446431E00260027D0465E453246D4E932010AD3801B61F100011544C2EB0B07C4E932014FF0000823E08F4208BF8642F0D2B8EB0000801920F007019C
:401C800000F007022144D1E90001D200019307F06DFB019B013603F8010F47F10007D6E7B2450ED153461D44FF1AC3EB0A03C4F8C830C4F8CC80A7B12046FEF76DFE0026C8
:401CC000EEE726F00703234406F00702D3E90001D20007F04BFBA8550136B742E0D13B46E1E703B0BDE8F08F10B50446D02007F03BFF206010B96F2007F022FFBDE81040AA
:401D0000FFF7F6BE134600680A468821FFF700BF1F2288210068FFF765BF88231268FFF78CBF006807F028BF2DE9F74F012304460D464FF00209260A46EA05662F0A04F013
:401D4000FF04002574407D404FF0030B00224FF48E7A4FF000084FF6FF7E40464AFA00F101F0010C0FFA8EFE8CF001010EEA010C01304942E0440EEA01010E281FFA88F88D
:401D80001FFA81FEEAD1C2EB080292B230463946019307F0F7FA019B03FA08F282EA0A0ABBF1010B06460F4684EA000485EA01051FFA8AFA01D04246CBE7B9F10109BAD12A
:401DC000A0B203B0BDE8F08F2DE9F341C9B201F07F0253000024C7B2ADF804305340ADF80630ADF80040ADF8022007F003052346EA1A581B10433DF81320013322EAE07274
:401E00005440042BA4B2F3D14FF00008022647FA06FC00230CF0030C1D46CCEB050EC5EB0C024EEA02023DF815E001352EEAE27E83EA0E03042D9BB2EFD1C6F1080203FA6C
:401E400006F513416C4083EA0802023625B212B2082EACB21FFA82F8D9D141F3C01399B201EA570001EAC71150406940C9B2C0B241EA0020002102B0BDE8F041FFF754BFD2
:401E800010B40246022300F00100012404FA03F1520002331140102B80EA0100F6D100215DF8044BFFF740BF38B50446FFF7E8FF21460546FFF788FF04462846FFF7E0FF1A
:401EC00021460546FFF780FF044601462846FFF77BFF2946FFF778FFFFF7D2FFFFF7D0FFFFF7CEFF2146FFF76FFFBDE83840FFF7C7BF2DE9F04FB3B0012B07908846174617
:401F000040F06781D2E90034D1E900AB8022002112A8CDE9023407F051FEDDE9024525F07045221945EB050384EA020085EA0301CDE9162392185B41CDE9180100184941B3
:401F400084EA020885EA0309CDE91A2392185B41CDE91C8918EB080884EA000649EB0909CDE91E01001885EA0107CDE92223494162406B40CDE92067CDE92423B619CDE918
:401F80002A014FF0000280EA040081EA05014FF000037F41CDE91445CDE92C01CDE90423CDE92689CDE92E6788EA040889EA050966406F40CDE92889CDE930670AF00F083C
:401FC0004FF000090DF1400E6FF00F064FF0FF3718EB020449EB0305604265EB45012943C91708910991DDE90845FEE9020120EA040421EA050512F1FF3220462946DDE975
:40200000044543F1FF33BB4284EA000485EA010508BFB242CDE90445DAD100240023CDE90834042422465046594607F09FF9002300F00F02CDE90C234FF000084FF0000983
:4020400010AD46464F46DDE90C0110EB080041EB0901424261EB41030B43DB170A930B93DDE90A01F5E9022318F1FF3823EA010149F1FF394FF0FF3322EA000099456FF098
:402080000F0208BF904586EA000687EA0107DAD122463046394607F075F9DDE904234B404240CDE904233046C4F14002394607F05DF9DDE90823043442404B40402CCDE9AF
:4020C0000823AFD1039B039C180F00F0010252424FF0000363EB4303CDE90A23620F02F0010252424FF0000363EB4303CDE90C23A20F02F0010252424FF0000363EB4303CC
:40210000CDE90E23DDE90A67039B0021DC174FEA0A730E401F4032463B46DDE90C674FEA4A7907EA0907DDE90E895F404FEA8A730E4008EA010809EA030956404B46424614
:4021400072407B400E464FEACA772640274056405F40DDE904237B401F467240079B1646DDE90A01C3E900674FEA1A1646EA0B764FEA1B1730403940DDE90C674FEADA02C5
:4021800042EA4B724FEADB0316401F40DDE90E2346404FEA9A0040EA8B704F404FEA9B01254602400B405FEA5B0B4FEA3A0ADDE908017B4005EA0B056B40724004EA0A048B
:4021C000624059400B46504007990246C1E902239CE05E0801335C083C9B4FEAC40A03EB0A0909EB0A03029323010E93079B25015D19182303FB049304930093234601EBCB
:402200000A0B9244FFF775FE049B00935946334652462846FFF76DFEA8F1080308933C9BCDF830B0083B0A93A7F1080BA9F1080C4FF0000E764520D00C9BF3E802120C9378
:40224000089BCDE91012F3E90212089313460A46DDE9100159400B4650400A990246E1E90223FBE902230A91FAE8020142404B40ECE902230EF1010EDCE7A6420DD2F30069
:402280009844D8E900013C9A1A44C2E900011F44D7E900014B44C3E90001049B00934A4623463C990298FFF724FE029B079F083B2A469E46AF420AD0F7E80289FEE9020195
:4022C00080EA080081EA0901CEE90001F2E705EB0616B2420AD0F2E80289F3E9020180EA080081EA0901C3E90001F2E7029B0E9AA5EBC4041A449A4208D0F3E80267D4E92B
:40230000000170407940E4E80201F4E733B0BDE8F08F2DE9F04FADF58C3DE9B00DF56155203504460E46174600214EF24012284607F044FC43F65002002104A807F03EFC40
:40234000009540F285333A46314604A8FFF7D1FD0DF5E15004AB083003F5E15302AAA4F10805002140F2853E0830466853F8087F76090296002603965E684FEAC66B4BEADA
:40238000571B4FEAC76ADDE9026786EA0A0687EA0B07B046B946F2E90267013188EA060889EA070946464F467145E5E90267DBD104F5E154D4E9002303F01F03C4E90023F4
:4023C0000DF58C3D69B0BDE8F08F2DE9F041ADF5454D8AB041F6284406460D4617460021224604A8984607F0E9FB0DF5E15022460021183007F0E2FB0DF56150224600217F
:40240000203007F0DBFB0DF5A94022460021083007F0D4FB0DF5E14022460021303007F0CDFB0DF50C4022460021D83007F0C6FB224600210DF5294007F0C0FB03AB4146D0
:4024400018462822019300F018FF0DF5454340330DF5E1511A6804A8183100F00DFB0DF5615101989522203100F044FF0DF5A94101989522083100F03DFF0DF5E141019893
:402480009522303100F036FF0DF5A94104AA30460831FFF73EFF0DF56151324640F285333046203101F02BF839462846FDF71CFF0DF50C404FF461432A464EF22511D83053
:4024C00001F03EF80DF5E1520DF5A9410DF5294018320831FFF71DFF0DF529420DF5E141104640F28533303101F009F80DF529420DF50C41104640F28533D83100F0FFFF7D
:402500004EF225130DF529424FF46141284601F017F8019800F0EBFE0DF5454D0AB0BDE8F0812DE9F041ADF50C4DBEB041F628440546884616460021224602A81F4607F036
:402540003DFB0DF5E15022460021103007F036FB0DF5E14041F64D420021283007F02EFB0DF5615022460021183007F027FB224600210DF5A94007F021FB0DF50D431033C4
:402580000DF5E1511B6800930DF5E143424602A82833103100F048FA0DF561504FF461433A464EF22511183000F0CAFF0DF5E15132460DF5A9401031FFF7ABFE0DF5A942B6
:4025C0000DF56151104640F28533183100F097FF28460DF5A941FDF79AFE00200DF50C4D3EB0BDE8F081000020F04003802B02D0B0F5807F04D1044B01221A6000207047A7
:402600004FF0FF30704700BFC448020841F64D40704741F69540704743F65500704740207047000070B4084E36682EB138B131B12AB170BC00F022B84FF0FF3001E06FF0C5
:40264000010070BC704700BFC448020870B50A4E366856B160B159B152B100F0A5F8002814BF6FF00200002070BD4FF0FF3070BD6FF0010070BD00BFC44802082DE9F047E1
:40268000ADF50D4DA2B0144681468A464022002106A807F093FA0DF5E3504FF4E15841F628420021183007F089FA4246002116A807F084FA43F665070DF5AA403A460021E3
:4026C000203007F07BFA41F67D450DF562502A460021203007F072FA0DF5AA460DF562500D362021203000F025FA3046102100F021FA214641F64D420DF5635007F053FACC
:4027000005AB03930DF562520323009306A92B460398203200F094FD00940DF562520DF5E3500DF5625406AB16A9203218302034FFF74BFE0FCC0DF5AA4520350FC594E811
:402740000F0085E80F000DF5AA400DF5E352483040F28533183241F62541083800F047F90DF5AA40203000F5E25016AA41464FF46173053000F03BF904230DF5AA42009330
:4027800051463B460398203200F05AFD0DF5E3514846334616AA183100F089F900200DF50D4D22B0BDE8F0872DE9F047ADF5454DBCB080460DF5625014468A4641F6284279
:4027C0000021383007F0FAF906AF4FF4E15200211EA807F0F3F920220021384607F0EEF9402200210EA807F0E9F90DF5A94041F628420021603007F0E1F90DF5E4504FF419
:40280000E1520021183007F0D9F90DF50D43B033A3F1280643F665020021304607F0CEF90DF5E2437033A3F1680541F67D420021284607F0C3F90DF50D420DF562505346A6
:4028400075321EA9383000F053F90DF5625200941EAB383239462846FFF763FE0DF5E24304F148097033044641F64D424946A3F1480007F098F905AB0393032300932A4603
:4028800041F67D430EA9039800F0DAFC0DF5E4510DF5A9400EAB2A4618316030CDF80090FFF793FD0DF5A9410DF5625041F625426031383000F034FE0DF5E4512043C4B2A1
:4028C0004FF4E15218311EA800F02AFE2043441E04F0FF040023E043FA5C02EA0001EA5C22404A40F2540133202BF5D10DF50D400DF56252B03040F28533383241F6254163
:40290000083800F074F806F5E2501EAA4FF461734FF4E151053000F06AF804230093039843F665033246414600F08AFC04F0010001380DF5454D3CB0BDE8F087072B2DE976
:40294000F74F29D900294FD0A0F10804019400249646254605F1080C634543D37546002715F8076F4FEA072949EA16694FEA062815F8016D0027754546EA080647EA0907A0
:40298000F0D1019DE5E902670134A14201950EF1080E6546DED127E033B329B300242546D11800EBC40011F8016C0027C0E90067023B5B1B5BB2002B16DB90E812004FEA28
:4029C000042B4BEA116B4FEA012AC0E900ABD11800274E5D47EA0B0746EA0A06C0E90067013BE7E7AB42DBD803B0BDE8F08F2DE9F84300250746884691461E462C464445A9
:402A000010D0B5420ED209EBC50104F00702D1E90001D20006F0AAFC38550134630708BF0135ECE7BDE8F883F7B50E4608991D46074601F1280401F1480354F8040B42F8A2
:402A4000040B9C42F9D101A8282200F016FC394601A8832200F04EFC314601A8832200F049FC41F64D422146284607F09CF801A800F03DFC03B0F0BD73B5144606460D4630
:402A80002822214601A800F0F8FB314601A800F011FD41F6254304F1280240F285312846FFF74CFF01A800F022FC02B070BD70B51D46164640F285330A4641F625410446CB
:402AC000FFF795FF4FF4E15160184FF4617332460530FFF78CFF04F561502B46053005F1100253F8041B40F8041B9342F9D170BD70B51C460E46154641F62543224640F2C6
:402B00008531FFF71BFF4FF4E153E21805324FF461713046FFF712FF04F5615305332A4603F1100153F8040B42F8040B8B42F9D170BD00007FB5164D2B7804460E4683B9C0
:402B400062B61448291D03F0F3FA05F13001114803F0D6F903F024FA012003F0A5F901232B70A5190C4EAC420FD003AB07224FF0864100964FF0844003F02AFA012003F071
:402B800093F9039B04F8013BEDE704B070BD00BFC848020810CB0810244902082DE9F04F01390446002511F801CF4CF3000A4CF3C0130AF0AA3A4CF3400E8AEA030B0EF09E
:402BC000CC3E4CF380028EEA0B0A02F0F0324CF3C00382EA0A0E03F0FF2383EA0E024CF300131B0C1B0453404CF3401E83EA0E0200264CF3801C8CEA020C46EA030A934671
:402C0000E146C4E900AB8EEA0C0C46EA0C024B46C4E9022304F1100C01225319A64600EB03135EF804AB43F804ABE645F9D10132052AF2D10535B5F5E17F04F15004B2D13E
:402C4000BDE8F08F2DE9F04F01F5E355ADF5057D471E01F15004103544AE54E914894FF0000A52464046494606F080FB04AB00F0010023F81A000AF1010ABAF1400FF0D1D0
:402C800054E912890DF18E0B4FF0000A52464046494606F06BFB0AF1010A00F00100BAF1400F2BF8020FF1D1A4F1400AD3464FF00009FBE80223CDE9002304AB4FF0000855
:402CC0004B444246DDE90001039306F04FFB039B33F8182000F00100104423F8180008F10108B8F1400FECD109F18009B9F5807FDFD10AF1100AA245D8D14FF0070C04AA6B
:402D0000B6461146AEF10200002332F82390B1F80280C84420F8028F32F82380B1F802900133C9EB0808402BA0F8808001F10401EBD1BCF1010C1346724601D09E46E0E7C2
:402D40003388A3F5A0733380E6466246E04636F81C1008B24B42434003EAE07343409BB2C3EB080040F3C03080B2514001404A4083EA08038EEA0C0101400CF1010C184005
:402D800081EA0E0EBCF1800F80EA080192B21FFA8EFE1FFA81F8DAD1D20B013A02F0800250344EEA0203A54207F8013F7FF455AF0DF5057DBDE8F08F2DE9F047BCB0054621
:402DC0000F467622002168460DF1780806F0F6FE76221C49404606F0E6FE5A220021284606F0ECFE07F12004A14614F801AD95F8393000268AEA030A38F816105046FEF72C
:402E0000E3FF2DF8160001363B2EF5D105F139031DA913F8010D31F8022D9D4282EA00025A70F6D1BDF800302B70BC42DDD13A3554F8043B45F8043B4C45F9D13CB0BDE83A
:402E4000F08700BF40CB08102DE9F04FADF27C5D27AD059074228A462846002106F0AEFE4022002117A806F0A9FE4FF4807200219EA806F0A3FEB422002144A806F09EFEA5
:402E8000B422002171A806F099FEDFF8AC9300244FF0B20B57460BFB0498002638F8161017F8010FFEF790FF35F814300136584080B2592E25F81400F0D19AF8003058409C
:402EC00025F8140001343A2CE4D108AC3C220021204606F073FE3C220021DEA806F06EFE2B88039301271E464FF0000B4FF6FF73ADF87A73ADF85C70029500970193D84631
:402F000004940DF15C0EBEE80F00049C0FC4BEE80F000FC4BEE80F000FC49EE8070003C400982280FEF7C0FF01463046FEF74CFF07F1FF391FFA89F902460024DEAB013425
:402F4000A74211DB1E2C0FD033F81410079310460692FEF739FF17AB069A33F81410484023F81400079BEAE7019BC3EB0B044C44A4B2C4EB08027342134043F3C0339BB2FE
:402F800084EA08041C403A2F88EA040443D0019A89EA020903EA090982EA09020192009A56401E40724000920DF2B2300021DE43049A0A440239128F03EA020E30F8022D12
:402FC00032408EEA020211F13A0F4280F0D18BEA080803EA08038BEA030B029B33F8026F02934FF000086FF0010908F1010847450EDBB8F11E0F0BD009FB08F3029AD15AA9
:4030000017AB33F81800FEF7DFFE704086B2ECE70137A04675E74FF400720021DEA817AF06F0CCFD0DF51E781E223946DEA8FDF7C8FB44AEDEA94046FDF754FCE443012381
:403040003380A4B2E21842F3C03137F813200A4026F8132001331E2BF4D17388039A5A40728002270DF19A0204EB07096B8849F3C0391FFA89F909EA030136F817304B4048
:4030800026F81730AB460DF15E0333F8020B3BF80219019200930293FEF796FE36F81710019A009B09EA000048405A4526F81700EBD101371E2F05F10205D5D108AC3A22C3
:4030C0000021204606F07AFD3A220021DEA806F075FD0027DFF864C13D46204618F805203CF815B05242D217002192B20C4687EA04035B4222EAE37330F814E003EA0B096F
:40310000CE4420F814E003F00103013419441D2C89B2ECD101350F445A2DBFB2DED1002408AB012533F81400FEF7BEFEA94683462B4618465946FEF747FE36F81910009043
:40314000FEF742FE09F101096840B9F11E0F85B2009BEED1012399461D2204EB09000193B0FBF2F108AB02FB1101584633F811100092FEF729FE019B80F0010189B21846A9
:40318000FEF722FE09F10109B9F11D0F0346009AE3D1FEF789FE01462846FEF715FEDEADE31B00EAE33025F8140001341D2CB7D14FF0000E744671AF18F8040037F814C055
:4031C0004042C017002280B216468EEA060335F816105B4220EAE373194061441FFA81FC013603F001010A441D2E92B2EDD127F814C0013402EB0E035A2C1FFA83FEDBD1A8
:403200000AF1FF32002312F8010F17F81310013341405A2B1170F6D1059B0AF13A020AF15A0A52F8041B43F8041B5245F9D10DF27C5DBDE8F08F00BFB6CB08100AF40810AD
:40324000F8B504461F4616460D46FEF74DFD3A4631462046FEF756FD06A901222046FEF751FD2046FEF754FD284622464021FEF754FD2046FEF755FDF8BDF7B502AD0223D9
:4032800005F8013D04460E461746FEF72DFD3A4631462046FEF736FD012229462046FEF731FD2046FEF734FD03B0F0BDF7B50E4622F0070402F007050746024621463046A0
:4032C000FEF72BFD8DB13A4608216846FEF725FD34440023DAB2954203F1010305D902A9114411F8081CA154F4E703B0F0BDFEF718BD00002DE9F04FADF6BC3D05469146F7
:4033000088464FF41572002105A89AAC06F056FC0DF2BC4A4FF415720021204606F04EFC4FF415720021504606F048FC4FF4956200210DF5E26006F041FC5D4F4FEA890206
:40334000284605A9FFF7B2FF002505AA4D4502F104021FD212F8013C12F8021C57F825001B0643EA014312F8041C0B4312F8031CC5F5614643EA01232536A3FB000106FB77
:4033800011339B1B06EAE3762B44334444F825300135DBE704EB890109F1FF320439551ECAB100234A450CD254F8226051F8040C371A801B38430028A8BF43F00103013275
:4033C000F0E751F8042D5B4222EA03022B4053400B602A46E3E70DF5E16600219AAF494538D257F8213000249A0903F03F0E00230DF2BC40CDE9023440F821204FF0010B6B
:403400004FF0000C0020C0EB0E0254424FF0000363EB43051D43EB1700930193DDE90023DDE902452BEA02022CEA03031BEB0B0B00F1010044EA020445EA03054CEB0C0C7C
:403440004028CDE90245DED123462C46E6E902340131C4E7A8F108014FF0000E40F285380DF5E16C002000240025484512D25AF82020C2EB0E0253421A43D243FCE90267D0
:40348000D20F524263EB030332403B4014431D430130EAE7F1E902230EF1010E14431D43C645C1E90045DBD10DF6BC3DBDE8F08F10F6081070B5ADF5E15D82B041F625451D
:4034C00006460C462A460021684606F077FB2A4669463046FFF7EAFE2B466A46204640F2853104F5E154FFF729FAD4E9002303F01F03C4E900230DF5E15D02B070BDF0B5D5
:40350000083A083801EBC303994208D0F1E80267F2E9024574407D40E0E90245F4E7F0BD70B54FF480730024944205D0065D0D5D75402B430134F7E7581EC0F3072070BD8D
:4035400070B50D469D42044611461ED215F03F054FF4E15218BFC5F1400506F024FB04F5E05400261834B5420ED032464FF0FF306FF0004105F0FAFED4E90023104019404D
:40358000C4E900010136EEE770BD3F339A09D200BDE8704006F007BB7047FFF7FDFF72B6104C114DAC4209DA21686268A368043BA2BFC858D050FAE70C34F3E70B490C4AF1
:4035C00000209142BCBF41F8040BFAE709480A490860BFF34F8F00F0F9F800F0D3F800F0B1F9FEE7203E0910383E0910A848020858CD03080040020808ED00E0FEE7FEE764
:4036000000B504207146084202D0EFF3098001E0EFF30880043000F099FDFEE7012000F045BD7047514B524AD3F8800300F00F00810001F1804101F5181130B5D1F84033C6
:4036400003F00704032C07D0042C07D0494B4A49002C08BF0B460EE013680CE0D1F8003303F01F03112B01D0132B02D14FF4004301E04FF4FA433D4930BBD1F89045D1F891
:403680008805D1F8885515F0405FC0F3017005D0D1F88815C1F30171012901D1E40701D403283AD13149D1F88005D1F88445D1F88015C0F31100C1F30061C4F30C04013132
:4036C000B3FBF4F3434326E0012826D1D1F84046D1F80006D1F8005615F0405F05D0D1F80016C1F30171012901D1E10703D4C0F30171032911D11D48D0F80016D0F800468F
:40370000D0F8000601F07F014B43C4F30421B3FBF1F3C0F30441B3FBF1F31449D1F88013C1F30111CB4015495360D1F890000969090E0131B3FBF1F19160C0F30721013187
:40374000B3FBF1F303F57421D360136101F23F210B48B1FBF0F103F2E73311754FF47A71B3FBF1F39361DB03D36130BD000026408C42020800366E0100127A000000214038
:4037800040420F0008B50D4800F048FDFFF749FFFFF748FF00221146042000F01BFB084800F09CFB074B1B6893F8513013B1064800F0CCFBBDE8084000F0A6BA40340910C8
:4037C00034490208CCCC030864F8081008B500F014FD074AD2F8883043F47003C2F88830BFF34F8FBFF36F8FBDE8084000F009BD00ED00E0164B07B50022C3F8C82F0422B7
:40380000C3F8C02FD3F8C03F124BB3F90030002B09DB5A09012103F01F0301FA03F360320D4941F8223002A9002341F8043D0B4B186801F0C6F9019B3BB1094B4FF0805213
:403840001A60BFF34F8FBFF36F8F03B05DF804FB000066408033091000E100E0B44A020804ED00E0F8B503220021012001F076F82B4C2C4D206002F06FFA28682A4F40688C
:403880002A4E00231946022206F082FF284806F03BFF03220021012001F060F825493060384600F023FCB7F90030002B204608DB5909012203F01F0302FA03F31E4A42F816
:4038C00021301E4C00680423C4F8C83F00231A46194601F065F827464FF0FF31306801F063FAD4F80833C3F30803A3B1286841684B68013B002B4B6003DA06F00DFFC0B25E
:4039000003E00B685A1C0A6018783F28E9D10C4806F0FAFEE5E70423C7F8C83FDCE700BFC8CC03081043020880330910B44A020898F80810F537081000E100E00000664000
:40394000ABF8081007B562B6002402238DE818004FF4C87223460849084801F05FFB0123009344F62062234605490194054801F055FB01F019FCFEE7B9F80810653808105A
:40398000C3F80810E1390810A0F13003DBB2092B0CD9A0F14103052B01D8373804E0A0F16103052B04D85738C0B27047184670470020704738B50A440446914204F102046F
:4039C0000DD014F8020CFFF7DFFF054614F8010CFFF7DAFF40EA051001F8010BEDE738BD404B2DE9F0474FF0FF31186801F0DCF93D4806F089FE4FF48070FEF7F5FD10B152
:403A00003A4806F081FEFEF704FE0546FEF7FEFD0646FEF701FE0746FEF701FE82463448344C06F071FE3146334806F0FBFD2946324806F0F7FD3946314806F0F3FD51468B
:403A4000304806F0EFFD0121284606F071F8012120608146304606F06BF8012160608046384606F065F80121A0600746504606F05FF8E060B9F1000F04D0B8F1000F01D0A4
:403A800007B108B9204800E0204806F03DFE324661681F48FFF78EFF2A4621681D48FFF789FF1D4806F030FE63681C48197806F0B9FD6268E168A068FEF7B4FD10B11848CE
:403AC00006F022FE174806F01FFE2268A168E068FEF7BCFD10B1124806F016FE124806F013FEFEE7C8CC0308CDF80810F0F8081000F90810B84A02080CF9081030F9081053
:403B000054F9081078F908109EF90810B8F9081063FA0810D3F90810FE320910223309103C330910513309106733091010B504462146034800F0A0FB0028F9D010BD00BF6E
:403B400000006640054AD2F80833C3F30803002BF9D0024BD3F84003704700BF00006640034B1B681A68D3F88430D058000E7047CCCC0308044B1B681A68D3F88430D058C2
:403B8000C0F30720704700BFCCCC0308034B1B68B3F8B0201B6A00FB02307047CCCC0308034B1B68D3F8B430C058C00F704700BFCCCC03081D4B984236D00FD840282CD0A7
:403BC00005D800282FD010282BD119487047802825D0B0F5807F24D118467047154B984214D008D8B0F1204F1DD0134B984218D14FF4A0007047114B98420AD00133984256
:403C000009D0023B98420CD10D4870474FF4A40070470C4870470C4870470C4870470C4870470C4870470020704700BF0600520001005000010000F0090000A0040000F009
:403C40000100520002005200030052000200500005005200FF00520008B50120FFF796FFFFF79EFF60B9074B1868FFF7A3FF064B1B685B6801229A609A68002AFCD108BD5D
:403C8000024808BDC84A0208CCCC030802005000184B13B5186128B102230370FF23437000234380144A136893F850101446F1B11B8FADF80030114900236846019300F026
:403CC00015FABDF90030002B08DB5909012203F01F0302FA03F30A4A42F82130236893F8513023B102220749012000F08FF902B010BD00BFC84A0208CCCC0308E3430208B1
:403D000000E100E0B14302080148FFF7C1BF00BFDC4A0208054B1B68D3F8B430C358002BBDBF89B24160002001487047CCCC030801008A000368002BBBBF89B2C2600248F1
:403D40008160B8BF0020704701008A00054B1B68D3F8B430C358002BBDBFC3680B60002001487047CCCC030801008A00F8B5154B0C46196891F83130834221D904B3226897
:403D800012F01F071CD1B1F8B0300D6A0E4E00FB0355D20839466068356005F00FFF39462846FFF7B7FF394622463068FFF7C2FF014618B93068FFF7ADFF10B10348F8BDA4
:403DC0000348F8BDCCCC0308E04A020801018A0003018A0010B404465AB999B90B4B1A68B2F8B030106A04FB0300094B1860084609E039B1064B5DF8044B5960191D9A60B6
:403E0000FFF7B4BF03485DF8044B7047CCCC0308E04A020803018A001C4B1A682DE9F041D2F80C80D8F80020824204460D461E4624D919B900F0E1F9074600E0002730684E
:403E40000368002B01DB124C13E06209D8F804100123A4EB421403FA04F451F822301C420ED023EA040341F8223000240021FFF751FF3DB9384600F0C4F903E0054C01E0FB
:403E8000054CF3E72046BDE8F08100BFE04A02080301880004018A00020188000B4B1B68DB681A6882420ED942095968A0EB4210012303FA00F051F822301842044B0548EE
:403EC00018BF184670470448704700BFE04A0208010188000001880004018A00024B1A6802B91860704700BFEC4A0208F0B52C246043144C059F25685FFA83FE45F800E066
:403F00002C1811480668306AB6F8B060C3F307250EFB0606266105F1800665601B0C00EB461600EB451041F20805A36043EA0343666143510023E2612162A3610FB13B8830
:403F4000A381F0BDEC4A0208CCCC0308F0B5174B41691B688269DB8EC668076985B002AD00950B440446C16AADF808300392436A826A006AFFF7BAFF00223B46114600927A
:403F80003046FFF7B3FF216B284600F0AFF8BDF90830002B08DB5909012203F01F0302FA03F3034A42F8213005B0F0BDCCCC030800E100E0F0B5124C26682C2707FB0064E2
:403FC00025693DB107FB0161886928B92E68002E02DA03E00B48F0BD0B48F0BD4E68D4F804E0012404FA06F7168846EA07461660EA608C6104FA0EF4A4B24B62AC60F0BD82
:40400000EC4A020804028A0007028A00074B10B51C682C2303FB0040C369934283BF036A002043F82210024810BD00BFEC4A02080A028A0073B54369DD6800262A0C04464D
:4040400001961ED012041A601B68174B00691B68D3F8B430C358B34213DA01A9FFF776FE58B90198E26903681E0CDBB2934204D2226A52F8233003B1984731462069FFF726
:4040800049FEADB265B163691D601B68636A002513B19847656202E0A36A03B19847A56163691B6802B070BDCCCC0308034B1B682C2202FB0030FFF7BDBF00BFEC4A020806
:4040C000074B9A68074B9A4218BF074A00F1100306BF52F8230042F8231052F82300704700ED00E0004002080000081010B5F0B1B0F900304268002BA8BF03F160434FEAD5
:404100004212ADBF03F5614303F00F030A4CD2B2B6BFD2B283F80023E254084B9A68084B9A4206D1B0F90000FFF7CAFF01E0054810BD002010BD00BF14ED00E000ED00E05F
:404140000040020801005600FEE7000008B5234B02681A6042685A6082689A60C268DA6002691A6142695A6182699A61C269DA611B4A916A1962D16A5962516A9962516B23
:40418000D962926B1A63F1EE102A12F0900F21D0026A5A63426A9A63826ADA63C26A1A64026B5A64426B9A64826BDA64C26B1A65026C5A65426C9A65826CDA65C26C1A6698
:4041C000026D5A66426D9A66826DDA66C26D1A67026E5A67FFF7B8FF08BD00BF3048020800ED00E0000000000230800803D001300238FCD100BF00BF7047EFF3108072B6BD
:40420000704780F3108870474FF0B0535A7812B15878C0B27047212070470000014B1860704700BFCCCC0308D0F8003303F00F03072B02D901EB420201E00A4407E091423A
:4042400004D0D0F8403321F8023BF8E77047914204D0D0F8403301F8013BF8E7704710B5D0F80843C4F30804944228BF14462246FFF7DAFF204610BD036813F4006FD0F8D1
:40428000083214BF80224022C3F3080393421ABFC0F84012012000207047D0F8003203F00F03072B02D901EB420201E00A4407E0914204D031F8023BC0F84032F8E770475D
:4042C000914204D011F8013BC0F84032F8E77047036810B5D0F8084213F4006F14BF80234023C4F308041C1B944228BF14462246FFF7D3FF204610BD2DE9F043002800F0AC
:40430000D580002900F0D2800F78022F01D18C7F0CB14C68013C0B7F002B8B6804F00F0414BF4FF48036002644F00074092B34BF4FF40065002534432C4304603C0604F0BD
:40434000407404644C7F4E7B8D7B002C8C7C14BF4FF040094FF00009002C0C7C14BF4FF480684FF00008002C4C7C14BF4FF4807C4FF0000C002CCC6A04F1FF3406F1FF36AE
:404380004FEA044406F007064FEA051504F4702405F0300544EA060444EA050444EA090444EA080414BF4FF4007E4FF0000E44EA0C0C4CEA0E0491F80CE08464CC7BBEF1CA
:4043C000000F14BF4FF4807C4FF0000C2CB9022F14BF00244FF4007401E04FF40074013B03F00F034CEA030C4CEA0404C0F800438C6991F814C0240404F47F0444EA0C0403
:40440000C0F81043CC7F24B1012F0CBF4FF48074002435432C43BEF1000F446414BF4FF480740024012F43EA04030CBF4FF4803400242343C0F8003291F83030C0F804330E
:4044400091F8203091F8214091F82460002B14BF4FF000730023012C91F828400CBF4FF0807500253343012C0CBF4FF4803400242B43234303654C6B91F83830C0F80432FC
:4044800040F66D332340C96BC0F8C83F40F273730B40C0F8883F00205AB1506090601060D06010621063D062BDE8F0830248BDE8F0831046BDE8F0830160AA0008694B6954
:4044C00098422DBF4B69CB684A69C01A3CBFC018801A7047D0F8003E1A072DE9F04705460C4640F1BB80D0F8CC3F13F448730AD04A681A434A60C0F8C03FD0F8C03F0B6BC5
:404500000BB110209847D5F8CC3F1B0509D5636843F4006363604FF40063C5F8C03FD5F8C03FD5F8CC3FD80740F19880E269002A43D02B68A16913F4006F284614BF402642
:404540002026FFF78CFE236AE2690344121A2362E261EAB9A3687BB1E368D5F804239E4294BF06F1FF3303F1FF3322F0FF02DBB21343C5F804330123C5F8C83F636823F017
:4045800001036360236B002B63D00420984760E0D5F80033A16903F00F03072B88BF400008449642A06154D9D5F80433013A23F0FF031A43C5F804234BE0A368002B48D0DD
:4045C0002B6813F4006FD5F80833266914BF4FF040084FF02008C3F30809B9F1000F26D0E368676901369E4208BF0026B7420FD1236B0BB10820984763699F4208D10023F2
:40460000C5F8C83F0FB17E1E11E0E668013E0EE0D5F84023D5F8003303F00F03072BA36809F1FF3994BF9A5523F81620D5E7266121462846E668FFF741FF301A804508D92B
:4046400000B10138D5F8043323F0FF031843C5F804030123C5F8C03FD5F8C03FD5F8003E590776D5D5F88C3F13F4A0630AD022681A432260C5F8803FD5F8803F236B0BB17F
:4046800020209847D5F88C3FDA0750D52B68A26AD5F8006213F4006F14BF80274027012A06F00F0610D9D4F82480E2624146013A2846FFF70DFEA36A072EA3EB000388BFFA
:4046C00040004044A3626062D5F80832C3F30803BB4227D0A36A012B24D10023A362636A072E94BF1E781E88FFF787FD4FF40073C5F84062C5F8803FD5F8803FFFF781FD81
:40470000D5F8883F23F4007323F0010343F40073C5F8883F236843F002032360236B0BB1012098470123C5F8803FD5F8803FD5F88C3F9B050DD50022C5F8882F236823F00C
:4047400001032360236BE2621BB10220BDE8F0471847BDE8F08700F1080343604FF0FF32C3600361002382600360704700230361704743684B609A688A609A6851609960BA
:40478000036808610133036070470A68531C30B501D1036907E000F108035C682568AA4201D32346F9E75A684A6091608B605960036808610133036030BD4168826803693E
:4047C0008A60826851605968884208BF5A60002202611A68013A1A601868704710B5044601F028F9A46B01F047F9B4FA84F0400910BD70B51646026C856B0446FAB166B9A9
:40480000806805F0D0F9A268236C13446268A360934214D32368A36011E0C06805F0C3F9236CE26821685B421A448A42E2603EBF62689B18E360022E01D105B1013D0135AD
:40484000A563002070BD034610B41A6C084662B1D9685C681144A142D96024BF1968D960D9685DF8044B05F09EB95DF8044B704770B5044601F0DEF894F8455004F12406DA
:404880006DB2002D0ADD636A43B1304600F032FE08B100F0B1FE013D6DB2F2E7FF2384F8453001F0E9F801F0C5F894F8445004F110066DB2002D0ADD236943B1304600F009
:4048C00019FE08B100F098FE013D6DB2F2E7FF2384F84430BDE8704001F0CEB838B50D46044640B94FF03F0383F31188BFF36F8FBFF34F8FFEE701F09DF8206CE36B22682C
:40490000A2604343D1181B1A13446160E3600021FF23A16384F8443084F845307DB92369ABB104F1100000F0E5FD80B10A4B4FF080521A60BFF34F8FBFF36F8F07E004F12C
:404940001000FFF708FF04F12400FFF704FF01F093F8012038BD00BF04ED00E070B50D46064640B94FF03F0383F31188BFF36F8FBFF34F8FFEE74843483001F089F90446C4
:4049800058B10DB9206002E000F148030360E663256401212046FFF7A1FF204670BD00002DE9FF47894601921F46044640B94FF03F0383F31188BFF36F8FBFF34F8FFEE789
:4049C00051B9036C43B14FF03F0383F31188BFF36F8FBFF34F8FFEE7022F0BD1E36B012B08D04FF03F0383F31188BFF36F8FBFF34F8FFEE700F008FE10B9019E0EB172E012
:404A00000026DFF8FCA04FF0000801F013F8A26BE36B9A4201D3022F17D13A4649462046FFF7E7FE636A1BB104F1240000F062FD38B1334B4FF080521A60BFF34F8FBFF3F1
:404A40006F8F01F019F8012056E0019D1DB901F013F8284650E016B902A800F087FD01F00BF800F0DBFB00F0E5FF94F84430FF2B08BF84F8448094F84530FF2B08BF84F8B7
:404A8000458000F0F9FF01A902A800F079FD18BB00F0D0FFA66BE56B00F0EEFFAE4215D1019904F1100000F0EDFC2046FFF7E0FE00F030FC08B10126A7E74FF08053CAF8D9
:404AC0000030BFF34F8FBFF36F8FF4E72046FFF7CFFE00F01FFCEEE72046FFF7C9FE00F019FC002008E04FF03F0383F31188BFF36F8FBFF34F8FFEE704B0BDE8F08700BFEE
:404B000004ED00E02DE9F843884691461F46044640B94FF03F0383F31188BFF36F8FBFF34F8FFEE751B9036C43B14FF03F0383F31188BFF36F8FBFF34F8FFEE7022F0BD122
:404B4000E36B012B08D04FF03F0383F31188BFF36F8FBFF34F8FFEE701F066F8EFF311864FF03F0383F31188BFF36F8FBFF34F8FA26BE36B9A4201D3022F1DD194F845504B
:404B80003A466DB241462046FFF733FE6B1C0DD1636A7BB104F1240000F0ACFC50B1B9F1000F07D00120C9F8000006E001356DB284F84550012000E0002086F31188BDE89C
:404BC000F88370B50D46044640B94FF03F0383F31188BFF36F8FBFF34F8FFEE7036C43B14FF03F0383F31188BFF36F8FBFF34F8FFEE703680BB943684BBB01F015F8EFF3F2
:404C000011864FF03F0383F31188BFF36F8FBFF34F8FA26BE36B9A4217D294F8453001325BB2A2635A1C0AD1636A63B104F1240000F060FC38B135B10120286010E0013374
:404C40005BB284F8453001200AE0002008E04FF03F0383F31188BFF36F8FBFF34F8FFEE786F3118870BD00002DE9F04385B088460192044640B94FF03F0383F31188BFF3CB
:404C80006F8FBFF34F8FFEE751B9036C43B14FF03F0383F31188BFF36F8FBFF34F8FFEE700F0B2FC10B9019E0EB16FE00026DFF8F490002700F0BEFEA56BC5B14146204684
:404CC000013DFFF7C0FDA563236963B104F1100000F010FC38B1334B4FF080521A60BFF34F8FBFF36F8F00F0C7FE012057E0019D1DB900F0C1FE284651E016B902A800F0B0
:404D000035FC00F0B9FE00F089FA00F093FE94F84430FF2B08BF84F8447094F84530FF2B08BF84F8457000F0A7FE01A902A800F027FCF8B92046FFF751FDA8B1019904F124
:404D4000240000F09FFB2046FFF792FD00F0E2FA08B10126AEE74FF08053C9F80030BFF34F8FBFF36F8FF4E72046FFF781FD00F0D1FAEEE72046FFF77BFD00F0CBFA2046E2
:404D8000FFF72CFD0028E4D0002008E04FF03F0383F31188BFF36F8FBFF34F8FFEE705B0BDE8F08304ED00E02DE9FF410446019140B94FF03F0383F31188BFF36F8FBFF380
:404DC0004F8FFEE7056C45B14FF03F0383F31188BFF36F8FBFF34F8FFEE700F015FC10B9019D002D6AD1DFF8EC80002700F022FEA36BA3B1013BA363236963B104F1100041
:404E000000F078FB38B1334B4FF080521A60BFF34F8FBFF36F8F00F02FFE012057E0019E1EB900F029FE304651E015B902A800F09DFB00F021FE00F0F1F900F0FBFD94F8D7
:404E40004430FF2B08BF84F8447094F84530FF2B08BF84F8457000F00FFE01A902A800F08FFBF8B92046FFF7B9FCA8B1019904F1240000F007FB2046FFF7FAFC00F04AFA69
:404E800008B10125B2E74FF08053C8F80030BFF34F8FBFF36F8FF4E72046FFF7E9FC00F039FAEEE72046FFF7E3FC00F033FA2046FFF794FC0028E4D0002008E04FF03F037B
:404EC00083F31188BFF36F8FBFF34F8FFEE704B0BDE8F08104ED00E030B5084A002352F8335002EBC30425B9044A606042F8331030BD01330A2BF2D130BD00BFD0CC030833
:404F000070B504460D46164600F094FD94F84430FF2B04BF002384F8443094F84530FF2B04BF002384F8453000F0A6FDA36B2BB93246294604F1240000F0BEFA2046BDE898
:404F40007040FFF795BC0000064B9A6A126812B94FF0FF3203E09A6AD268D2685268DA62704700BF2C4B0208F8B5154D04462E6B686B04300F46FFF720FC631C2B4607D1C0
:404F800037B1696B28460431BDE8F840FFF7F1BB34445B6B0A4D5C60A64206D9A86B696BBDE8F8400431FFF7F0BBA86A696B0431FFF7EBFBEB6A9C4238BFEC62F8BD00BF7E
:404FC0002C4B020808B5134C2646636DABB100F031FDA36CDD68281DFFF7EFFB236D013B2365636D013B636500F046FD286B00F079FE284600F076FEE7E7B36D012BE4D9E7
:40500000054B4FF080521A60BFF34F8FBFF36F8FDBE700BF2C4B020804ED00E02DE9F84F95008146284688469A460B9F00F030FE0646002800F0AF80602000F029FE044671
:4050400088B106632A463046A52104F0B7FD266B043D2E4408F1FF3326F0070604F1330208F10F0805E0304600F03CFE93E0984506D013F8011F02F8011F19780029F6D1FD
:405080000A9B062B4FF0000528BF062304F10408E362404684F843509B46FFF767FB04F11800FFF763FBCBF10703A5652461A36164626564A564E5642565656584F85C509B
:4050C00052464946304600F089FC206007B13C60334D00F0AFFC2B6D01332B656F6B05F1580927BB6C632B6D012B29D109EB07001437FFF730FB8C2F294EF7D106F1E40A6D
:40510000504606F1F807FFF726FB3846FFF723FB06F11400FFF71FFB06F13C00FFF71BFB3046FFF718FBC6F828A0B76308E0D5F80C312BB96B6BDA6AE36A9A4298BF6C6382
:40514000D5F81031D5F814210133C5F81031E36A934288BF124A4FF0140000FB0390414688BFC2F81431FFF704FB00F085FCD5F80C316BB10A4B5B6BDA6AE36A9A4207D28D
:40518000084B4FF080521A60BFF34F8FBFF36F8F0120BDE8F88F4FF0FF30BDE8F88F00BF2C4B020804ED00E037B5194C19491A4804F58E730025019300952B468022FFF773
:4051C0002DFF012816D100F06FFA012812D14FF03F0383F31188BFF36F8FBFF34F8F4FF0FF33E362C4F80C01256303B0BDE8304000F0B8BC013008D14FF03F0383F3118871
:40520000BFF36F8FBFF34F8FFEE703B030BD00BF2C4B0208F8340910C54F0810034AD2F818310133C2F81831704700BF2C4B0208014B186B704700BF2C4B02082DE9F84F47
:40524000334BD3F818211C4662BB1E6B01361E63B6B99B6A1B6843B14FF03F0383F31188BFF36F8FBFF34F8FFEE7A36AA26BA262A363D4F820310133C4F82031FFF764FE72
:40528000E36A9E424FF000053AD3DFF884804FF0140B08F1580AA36A1D4A1B684BB94FF0FF330DE0D3F824310133C4F82431002526E0D8F82830DB68DF687B689E4201D2AB
:4052C000D3621DE007F104094846FFF776FABB6A1BB107F11800FFF770FAF86AD4F81431984288BFC8F8140149460BFB00A0FFF740FA636BFA6ADB6A9A4228BF0125CAE743
:40530000D4F82831002B18BF01252846BDE8F88F2C4B02082DE9F843314CD4F8183143B94FF03F0383F31188BFF36F8FBFF34F8FFEE700F07FFBD4F81831013BC4F81831B1
:40534000D4F818510DB1002445E0236D002BFAD0274604F158084FF014096369F3B13B6ADD682E1D05F11800FFF727FA3046FFF724FAE86AD7F81431984288BFC7F814019F
:40538000314609FB0080FFF7F4F9636BEA6ADB6A9A4224BF0123C7F82831DEE70DB1FFF7D3FDD4F824514DB10126FFF747FF08B1C4F82861013DF8D1C4F82451D4F8283167
:4053C000002BC0D0074B4FF080521A60BFF34F8FBFF36F8F012400F04FFB2046BDE8F8832C4B020804ED00E038B5244BD3F818211C461AB10122C3F8282138BDC3F82821F1
