:020000041008E2
:4000000000780408433708100D000000A9370810A9370810A9370810A937081000000000000000000000000000000000B1490810A537081000000000E1490810454A0810CE
:40004000A5370810A5370810A5370810A5370810A5370810A5370810A5370810A5370810A5370810A5370810A5370810A5370810A5370810A5370810A5370810A537081040
:40008000A5370810A5370810A5370810A5370810A5370810A5370810A5370810A5370810A5370810A5370810A5370810A5370810A5370810A5370810A5370810A537081000
:4000C000A5370810A5370810A5370810A5370810A5370810A5370810A5370810A5370810A5370810A5370810A5370810A5370810A5370810A5370810A5370810A5370810C0
:40010000A5370810A5370810A5370810A5370810A5370810A5370810A5370810A5370810A5370810A5370810A5370810A5370810A5370810A5370810A5370810A53708107F
:40014000A5370810A5370810A5370810A5370810A5370810A5370810A5370810A5370810A5370810A5370810A5370810A5370810A5370810A5370810A5370810A53708103F
:40018000A5370810A5370810A5370810A5370810A5370810A5370810A5370810A5370810A5370810A5370810A5370810A5370810A5370810A5370810A5370810A5370810FF
:4001C000A5370810A5370810A5370810A5370810A5370810A5370810A5370810A5370810A5370810A5370810A5370810A5370810A5370810A5370810A5370810A5370810BF
:40020000A5370810A5370810A5370810A5370810A5370810A5370810A5370810A5370810A5370810A5370810A5370810A5370810A5370810A5370810A5370810A53708107E
:40024000A5370810A5370810A5370810A5370810A5370810A5370810A5370810A5370810A5370810A5370810A5370810A5370810A5370810A5370810A5370810A53708103E
:40028000A5370810A5370810A537081010B5054C237833B9044B13B10448AFF300800123237010BDA048020800000000E4F00810084B10B51BB108490848AFF300800848EB
:4002C000036803B910BD074B002BFBD0BDE81040184700BF00000000A4480208E4F00810504302080000000030B599B05A2204460D4601A8002108F025FB294601A802F0FD
:400300002FFE01A9204602F01DFD19B030BD30B599B05A2204460D4601A8002108F012FB294601A802F062FD01A9204602F060FE19B030BD80230380402343802023838097
:400340001023C38008230381042343810223838170470023F0B5038001279CB2A24214D907FA03F60024A5B2B54204F101040ADA30F815C005EB060E31F813508CEA0505A4
:4003800020F81E50EFE70133E7E7F0BD2DE9F04FA3B010AE9346814622228846304600211F4608F0CFFA2222002119A808F0CAFA10220021684608F0C5FA102200210DEB78
:4003C000020008F0BFFA1022002108A808F0BAFA102200210CA808F0B5FA0125BB1E9D404FF0060A6C000AFB05BA51462246304608F09DFA51462246301908F098FAAA0012
:40040000594619A808F093FA19ABAAEB450A19190022AA420ED036F812003AF81230584031F8123080B226F81200584021F812000132EEE7013F3B46324604A9684600F0A9
:400440001FF83B4619AA0CA908A800F019F8224608A9484608F06BFA2246694609EB040008F065FA22460CA9404608F060FA224604A908EB040008F05AFA23B0BDE8F08F0D
:4004800030B45C1E032C00F28180DFE804F07A6D4D02148A138B63400381148B938B63408381948BD38B6340C381D58A538B6B409DB24D81548B938B63408B81D38BCB8145
:4004C000148B938A63406B409BB24381558A548B6C4063400B8113880380D589D38AD48B6B4063409DB2CD809489938A6340948B63406B409BB2C3801589CC886540048928
:400500006C4063408380D5885389CC886B406340548A6340548B63409DB24D80D488C38863406B408B8016E01388038014899389634083809489D3896340C380D588538964
:40054000D4896B4063409DB24D805489938963408B80D389CB809388848863406B409BB24380528853400FE0138803809488D38863409BB24380508843400B80D3884B8031
:4005800007E01388038053880B8002E030BCFFF7FDBE30BC70472DE9F04FF7B0834603928946102200210EA800241D4608AE819F08F0C8F91022002112A808F0C3F9802203
:4005C000214616A834607460B4600B940C940D9408F0B8F98022214636A808F0B3F98022214656A808F0AEF9809B06940DF11808012BC8F8044027D1AC4209D237F8140099
:40060000B9F8021001F0E0FB28F814000134F3E7B9F80030ABF80030002101236FF00106A94280F0CB8058000BEB000238F811E017187343D45A8EEA040422F8024BBA427C
:40064000F8D103460131EBE705F10043013B07EB430837F81330012B09D1809B4A4612A90EA8FFF70DFF00240DF12C0A18E0809B012404FA03F2CA4623469442EDD218462D
:40068000B8F80010059201F09FFB3AF8021F049001F09AFB0134AAF80000059A049BECE704F101094D4516D937F81430B8F80000049301F0F9FB049B0146184601F084FB30
:4006C00026F8140001F0DCFB36F8143058402AF814004C46E4E7013D0DF15809AAB231464846FFF736FEEBB20493809B013B0593039B36AE5A1C0BAF059B00930197049BFC
:4007000052080EA93046FFF746FF039B012405F00F0504FA05F5032B05FA04F81DD83288BDF84830ABF8002053402BF81530D844AC4243D039F81400BDF8481036F814704F
:4007400001F042FBBDF84830784080B22BF81400584028F814000134EAE7039A059B01970DF5AC7A00935208049B12A950460BEB0807FFF710FF42465146384608F0D7F8E3
:400780003288ABF800203BF8153053402BF81530AC4213D03AF8141039F8140036F8148001F012FB88EA000080B22BF8140037F81430584027F814000134E9E777B0BDE833
:4007C000F08F2DE9F04FADF55B7D0DF108090D460DF1680800210446934648460E2208F0B1F84FF480720021404608F0ABF8202200210AA808F0A6F80DF1180A2022002193
:4008000012A808F09FF85AAF0E220021504608F099F89AAE4FF480720021384608F092F84FF480720021304608F08CF84846FFF781FD072249464046FFF78BFD2A460523BA
:4008400012A90AA8FFF7A2FD002539F8150001F017FB39F8153058402AF815000135072DF3D14FF004090BF101022B4652080AA93846CDF804A0CDF80090FFF78CFE2B469F
:400880004FEA5B0212A930468DE80006FFF783FE4FF48072A018314608F049F83A88B4F8003122805340A4F80031012536F8151038F8150037F8159001F086FAB4F802315F
:4008C00089EA000080B201356080802D80EA0300A4F8020104F10204E8D10DF55B7DBDE8F08F0000F0B5C5B004460D460E22002104AE684608F026F84FF480720021304688
:4009000008F020F86846FFF715FD072269463046FFF71FFD2A8823781E48524283F00103C2F3C0325A402270B5F800315B42C3F3C03383F001035340237005F58071012231
:4009400036F8127035F8123030F817E0CEF1FF0E5B4214F80EC0C3F3C03383F0010383EA0C0387F0010704F80E3030F8177031F8023FC7F1FF075B4214F807E0C3F3C03391
:4009800083F00103013283EA0E03802AE355D7D145B0F0BDF8B308102DE9F04FD0E90034ADF52F7DCDE90834D0E90234CDE90A34D0E90434CDE90C34D0E90634CDE90E34E9
:4009C000D0E90834CDE91034D0E90A34CDE91234D0E90C34CDE91434D0E90E34CDE91634D0E91034CDE91834D0E91234CDE91A34D0E91434CDE91C34D0E91634CDE91E340F
:400A0000D0E91834CDE92034D0E91A34CDE92234D0E91C34CDE92434D0E91E34CDE92634D0E92034CDE92834D0E92234CDE92A34D0E92434CDE92C34D0E92634CDE92E34CE
:400A4000D0E92834CDE93034D0E92A34CDE93234D0E92C34CDE93434D0E92E34CDE93634D0E930340249CDE9383401F1D00C01E000B608101031614500F0D287DDE912345F
:400A8000DDE908AB8AEA030A8BEA040BDDE91C3483EA0A0384EA0B049A46A346DDE9263483EA0A0384EA0B049A46A346DDE9303483EA0A0384EA0B049A46A346DDE90A89BF
:400AC000DDE9143488EA030889EA0409DDE91E3483EA080384EA09049846A146DDE9283483EA080384EA09049846A146DDE9323483EA080384EA09049846A146DDE916235E
:400B0000DDE90C4554405D40DDE9202362406B4014461D46DDE92A2362406B4014461D46DDE9342362406B4014461D46DDE91867DDE90E2372407B40DDE9226756405F40E9
:400B400032463B46DDE92C6756405F4032463B46DDE9366756405F40CDE90067DDE91A23DDE9106756405F40DDE9242372407B4016461F46DDE92E2372407B4016461F464B
:400B8000DDE938234FEA490E7B401F464EEAD8734FEA480E9B934EEAD9739A9372409AAB1646D3E900234FEA450E72407B40CDE902234EEAD4734FEA440E9D934EEAD573B3
:400BC0009C939CABD3E9002382EA0A0283EA0B03CDE90423019B4FEA430E009B4EEAD3739F93009B4FEA430E019B4EEAD3739E939EABD3E900234FEA470E83EA09039946E1
:400C00004EEAD6737600A19346EAD773A09382EA0802A0AB9046D3E9002362406B404FEA4B04CDE9062344EADA734FEA4A04A39344EADB73A293A2ABD3E900ABDDE900341B
:400C400083EA0A0384EA0B049A46A346DDE90223DDE90845DDE9046754405D40DDE9142372407B40160D46EA03361B0D43EA02333B93DDE9202382EA080283EA09033A963E
:400C8000560D46EAC3265B0D43EAC2233C963D93DDE90667DDE92C237B4072405E0546EAD226520542EAD3233E93DDE9382383EA0B0382EA0A023F969E0346EA92469203EB
:400CC00042EA93434196409351E9062382EA040683EA0507CDE90067DDE93C23DDE93A6722EA060623EA0707DDE9002372407B40CDE90823DDE93C67DDE93E2322EA06023F
:400D000023EA0703DDE93A6756405F40CDE9206740AED6E90067DDE93E2326EA020227EA0303DDE93C675F4040AB5640D3E90023CDE93867DDE93E6724EA020225EA03030E
:400D400056405F40DDE93A2323EA05031D4622EA040240AB1446D3E9002362406B40CDE92C23DDE90645DDE90E236B4062401C0744EA1214120742EA13134293DDE91A230C
:400D800083EA0B0382EA0A0243941C0544EA1234120542EA133345944493DDE90245DDE91C236B406240DC0044EA5274D20042EA5373CDE9146746934794DDE92823DDE9EC
:400DC000044562406B40D40C44EA4334DB0C43EA42334993DDE9342382EA0802489483EA0903D40844EA4374DB0843EA42734A944B9346AC44ABD4E90045D3E9002324EA79
:400E0000020242AC25EA0303D4E9004554405D4048ABCDE92845D3E9004546ABD3E9002325EA030544AB24EA0204D3E9002362406B40CDE90E234AAC48ABD4E90045D3E9BD
:400E4000002324EA020246AC25EA0303D4E9004554405D4042ABCDE91C45D3E900454AABD3E9002325EA030548AB24EA0204D3E9002362406B40CDE9342344AC42ABD4E939
:400E80000045D3E9002324EA02024AAC25EA0303D4E9004554405D40CDE91A45DDE90A23DDE904456B4062405C0044EAD274520042EAD3734C93DDE9162383EA090382EA03
:400EC00008024D949C0144EA9264920142EA93634F944E93DDE90645DDE922236B4062405C0644EAD214520642EAD3135093DDE92E2383EA0B03519482EA0A021C0244EA66
:400F00001264120242EA136353945293DDE90245DDE930236B4062409C0444EA9234920442EA93335594549350AC4EABD4E90045D3E9002324EA02024CAC25EA0303D4E9A8
:400F4000004554405D40CDE9164552AB50ACD4E90045D3E9002322EA04024EAC23EA0503D4E9004554405D4052ABCDE92E45D3E9004554ABD3E9002323EA050550AB22EA99
:400F80000404D3E9002362406B40CDE90A2354AC4CABD4E90045D3E9002322EA040252AC23EA0503D4E9004554405D40CDE922454CAB4EACD4E90045D3E9002324EA0202E9
:400FC00054AC25EA0303D4E9004554405D40DDE9102383EA0B03CDE9304582EA0A02DC0644EA5214D20642EA53135794DDE902455693DDE9122362406B40140F44EA031421
:401000001B0F43EA021358945993DDE90445DDE91E236B4062409C0244EA9254920242EA93535A93DDE92A2383EA09035B9482EA0802DC0344EA5244D20342EA53435D94A8
:401040005C93DDE90645DDE9362362406B40140A44EA03641B0A43EA02635E945F935AAC58ABD4E90045D3E9002324EA020256AC25EA0303D4E9004554405D40CDE936453F
:401080005CAB5AACD4E90045D3E9002322EA040258AC23EA0503D4E9004554405D40CDE912455CAB5EACD4E90045D3E9002324EA02025AAC25EA0303D4E9004554405D4085
:4010C000CDE92A4556AB5EACD4E90045D3E9002322EA04025CAC23EA0503D4E9004554405D40CDE9104556AB58ACD3E90023D4E9004524EA02025EAC25EA0303D4E9004559
:4011000054405D40CDE91E45DDE90C3483EA080384EA090498469B0843EA84736093A30843EA88736193DDE91845DDE9062354405D40630A43EAC55362936B0A43EAC4536A
:401140006393DDE9242382EA0A0283EA0B03540E44EAC3145B0E43EAC21364946593DDE90245DDE9262362406B40D40D44EA4324DB0D43EA422366946793DDE90445DDE995
:4011800032236B4062409C0044EA9274920042EA93736994689364AC62ABD4E90045D3E9002324EA020260AC25EA0303D4E9004554405D40CDE9244566AB64ACD4E900455B
:4011C000D3E9002322EA040262AC23EA0503D4E9004554405D40CDE9324566AB68ACD4E90045D3E9002324EA020264AC25EA0303D4E9004554405D40CDE9184560AB68ACD9
:40120000D4E90045D3E9002322EA040266AC23EA0503D4E9004554405D40CDE9264560AB62ACD4E90045D3E9002324EA020268AC25EA0303D4E9004554405D40CDE90C45D1
:40124000DDE908ABDDE928348AEA030A8BEA040BDDE9163483EA0A0384EA0B049A46A346DDE9363483EA0A0384EA0B049A46A346DDE9243483EA0A0384EA0B049A46A34630
:40128000DDE92089DDE90E3488EA030889EA0409DDE92E3483EA080384EA09049846A146DDE9123483EA080384EA09049846A146DDE9323483EA080384EA09049846A14632
:4012C000DDE91C23DDE9384554405D40DDE90A2362406B4014461D46DDE92A2362406B4014461D46DDE9182362406B4014461D4632463B46DDE9346772407B40DDE922673A
:4013000056405F4032463B46DDE9106756405F4032463B46DDE9266756405F40CDE90067DDE93023DDE91A6756405F40DDE92C2372407B4016461F46DDE91E2372407B4023
:4013400016461F46DDE90C234FEA490E7B401F464EEAD8734FEA480EA5934EEAD973A4937240A4AB1646D3E900234FEA450E72407B40CDE902234EEAD4734FEA440EA793AE
:401380004EEAD573A693A6ABD3E9002382EA0A0283EA0B03CDE90423019B4FEA430E009B4EEAD373A993009B4FEA430E019B4EEAD373A893A8ABD3E900234FEA470E83EA52
:4013C000090399464EEAD6737600AB9346EAD773AA9382EA0802AAAB9046D3E9002362406B404FEA4B04CDE9062344EADA734FEA4A04AD9344EADB73AC93ACABD3E900AB27
:40140000DDE9003483EA0A0384EA0B049A46A346DDE90823DDE90245DDE9046762406B40DDE90E4574407D40260D46EA05362D0D45EA0434CDE900236A966B94DDE90A45C0
:4014400084EA080485EA0905660D46EAC5266D0D45EAC4246C966D94DDE90667DDE910457D4074406E0546EAD426640544EAD5246E94DDE90C4585EA0B056F9684EA0A044E
:40148000AE0346EA9446A40344EA9544709451E904456B401D466AAB71966240D3E900676CAB1446D3E9002322EA060623EA070784EA060285EA0703CDE908236EABD3E925
:4014C00000456CABD3E9002325EA03056AABD3E9006724EA02046EAB66406F40D3E9004570ABD3E9002323EA05056CABCDE90A67D3E9006722EA040470AB66406F40D3E92D
:401500000045DDE9002323EA05031D466EABCDE90C67D3E9006722EA04026AAB56406F40D3E90045DDE9002324EA020270AC25EA0303D4E9004554405D40CDE91045DDE903
:401540001423DDE906456B4062401C0744EA1214120742EA1313CDE90E6773947293DDE91A2383EA0B0382EA0A021C0544EA1234120542EA133375947493DDE90245DDE9C6
:4015800016236B406240DC0044EA5274D20042EA537377947693DDE90445DDE9122362406B40D40C44EA4334DB0C43EA42337993DDE9182382EA0802789483EA0903D408B4
:4015C00044EA4374DB0843EA42737A947B9376AC74ABD4E90045D3E9002324EA020272AC25EA0303D4E9004554405D40CDE9124578AB76ACD4E90045D3E9002322EA040246
:4016000074AC23EA0503D4E9004554405D40CDE9144578AB7AACD4E90045D3E9002324EA020276AC25EA0303D4E9004554405D4072ABCDE91645D3E900457AABD3E900235A
:4016400025EA030578AB24EA0204D3E9002362406B40CDE9182374AC72ABD3E90023D4E9004524EA02027AAC25EA0303D4E9004554405D40CDE91A45DDE92023DDE9044534
:401680006B4062405C0044EAD274520042EAD3737C93DDE91C2383EA09037D9482EA08029C0144EA9264920142EA93637F947E93DDE90645DDE922236B4062405C0644EAA2
:4016C000D214520642EAD3138093DDE91E2383EA0B03819482EA0A021C0244EA1264120242EA136383948293DDE90245DDE924236B4062409C0444EA9234920442EA933351
:401700008594849380AC7EABD4E90045D3E9002324EA02027CAC25EA0303D4E9004554405D40CDE91C4582AB80ACD4E90045D3E9002322EA04027EAC23EA0503D4E900451D
:4017400054405D40CDE91E4582AB84ACD4E90045D3E9002324EA020280AC25EA0303D4E9004554405D40CDE920457CAB84ACD4E90045D3E9002322EA040282AC23EA0503B3
:40178000D4E9004554405D40CDE922457CAB7EACD4E90045D3E9002324EA020284AC25EA0303D4E9004554405D40CDE92445DDE92C4585EA0B0584EA0A04EB0643EA541347
:4017C0008793E30643EA55138693DDE90245DDE9282362406B40140F44EA03141B0F43EA021388948993DDE90445DDE92E236B4062409C0244EA9254920242EA93538A93D9
:40180000DDE92A2383EA09038B9482EA0802DC0344EA5244D20342EA53438D948C93DDE90645DDE9262362406B40140A44EA03641B0A43EA02638E948F938AAC88ABD4E9CC
:401840000045D3E9002324EA020286AC25EA0303D4E9004554405D40CDE926458CAB8AACD4E90045D3E9002322EA040288AC23EA0503D4E9004554405D40CDE928458CAB61
:401880008EACD4E90045D3E9002324EA02028AAC25EA0303D4E9004554405D40CDE92A4586AB8EACD4E90045D3E9002322EA04028CAC23EA0503D4E9004554405D40CDE9C4
:4018C0002C4586AB88ACD4E90045D3E9002324EA02028EAC25EA0303D4E9004554405D40CDE92E45DDE9383483EA080384EA090498469B0843EA84739093A30843EA8873B4
:40190000DDE934459193DDE9062354405D40630A43EAC55392936B0A43EAC4539393DDE9302382EA0A0283EA0B03540E44EAC3145B0E43EAC21394949593DDE90245DDE96D
:40194000362362406B40D40D44EA4324DB0D43EA422396949793DDE90445DDE932236B4062409C0044EA9274920042EA93739994989394AC92ABD3E90023D4E9004524EAAE
:40198000020290AC25EA0303D4E9004554405D40CDE9304596AB94ACD4E90045D3E9002322EA040292AC23EA0503D4E9004554405D40CDE9324596AB98ACD4E90045D3E90A
:4019C000002324EA020294AC25EA0303D4E9004554405D40CDE9344590AB98ACD4E90045D3E9002322EA040296AC23EA0503D4E9004554405D40CDE9364590AB92ACD4E998
:401A00000045D3E9002324EA020298AC25EA0303D4E9004554405D40CDE93845FFF72AB8DDE90834C0E90034DDE90A34C0E90234DDE90C34C0E90434DDE90E34C0E9063445
:401A4000DDE91034C0E90834DDE91234C0E90A34DDE91434C0E90C34DDE91634C0E90E34DDE91834C0E91034DDE91A34C0E91234DDE91C34C0E91434DDE91E34C0E916347E
:401A8000DDE92034C0E91834DDE92234C0E91A34DDE92434C0E91C34DDE92634C0E91E34DDE92834C0E92034DDE92A34C0E92234DDE92C34C0E92434DDE92E34C0E926343E
:401AC000DDE93034C0E92834DDE93234C0E92A34DDE93434C0E92C34DDE93634C0E92E34DDE93834C0E930340DF52F7DBDE8F08F30B5A0F1080300F1C00200240025E3E9B8
:401B000002459342FBD100220023C0E9322330BD2DE9F74F15469A460A460023CDE9002304468B4600260027D4E93223DDE9000112EB0A024FF0000943EB09038B4208BF4A
:401B40008242D04603D2013D0026002725E0A946D4E93223C5EB0901C2EB0B00884212D9521822F0070802F00702A044D20019F8010B002106F0CAFAD8E9002350405940BD
:401B8000C8E90001E4E7CBEB02030544C4E9326720469A44FEF700FFC6E7B245D4E9322317D9921922F0070B02F00702A344D20015F8010F002106F0A9FADBE90023013608
:401BC00080EA020081EA0301CBE9000147F10007E3E718EB020849EB0309C4E9328903B0BDE8F08FD0F8C83070B523F0070605460644D0B203F007020C46D200002106F06D
:401C000085FAD6E900235040621E594022F0070402F00702C6E900012C44D2008020002106F074FAD4E900235040594000220023C4E90001C5E9322370BD2DE9F74F9A4603
:401C400005468B461446431E00260027D0465E453246D4E932010AD3801B61F100011544C2EB0B07C4E932014FF0000823E08F4208BF8642F0D2B8EB0000801920F007019C
:401C800000F007022144D1E90001D200019306F031FA019B013603F8010F47F10007D6E7B2450ED153461D44FF1AC3EB0A03C4F8C830C4F8CC80A7B12046FEF76DFE002606
:401CC000EEE726F00703234406F00702D3E90001D20006F00FFAA8550136B742E0D13B46E1E703B0BDE8F08F10B50446D02006F0FFFD206010B96F2006F0E6FDBDE8104066
:401D0000FFF7F6BE134600680A468821FFF700BF1F2288210068FFF765BF88231268FFF78CBF006806F0ECBD2DE9F74F012304460D464FF00209260A46EA05662F0A04F052
:401D4000FF04002574407D404FF0030B00224FF48E7A4FF000084FF6FF7E40464AFA00F101F0010C0FFA8EFE8CF001010EEA010C01304942E0440EEA01010E281FFA88F88D
:401D80001FFA81FEEAD1C2EB080292B230463946019306F0BBF9019B03FA08F282EA0A0ABBF1010B06460F4684EA000485EA01051FFA8AFA01D04246CBE7B9F10109BAD168
:401DC000A0B203B0BDE8F08F2DE9F341C9B201F07F0253000024C7B2ADF804305340ADF80630ADF80040ADF8022007F003052346EA1A581B10433DF81320013322EAE07274
:401E00005440042BA4B2F3D14FF00008022647FA06FC00230CF0030C1D46CCEB050EC5EB0C024EEA02023DF815E001352EEAE27E83EA0E03042D9BB2EFD1C6F1080203FA6C
:401E400006F513416C4083EA0802023625B212B2082EACB21FFA82F8D9D141F3C01399B201EA570001EAC71150406940C9B2C0B241EA0020002102B0BDE8F041FFF754BFD2
:401E800010B40246022300F00100012404FA03F1520002331140102B80EA0100F6D100215DF8044BFFF740BF38B50446FFF7E8FF21460546FFF788FF04462846FFF7E0FF1A
:401EC00021460546FFF780FF044601462846FFF77BFF2946FFF778FFFFF7D2FFFFF7D0FFFFF7CEFF2146FFF76FFFBDE83840FFF7C7BF2DE9F04FB3B0012B07908846174617
:401F000040F06781D2E90034D1E900AB8022002112A8CDE9023406F015FDDDE9024525F07045221945EB050384EA020085EA0301CDE9162392185B41CDE9180100184941F1
:401F400084EA020885EA0309CDE91A2392185B41CDE91C8918EB080884EA000649EB0909CDE91E01001885EA0107CDE92223494162406B40CDE92067CDE92423B619CDE918
:401F80002A014FF0000280EA040081EA05014FF000037F41CDE91445CDE92C01CDE90423CDE92689CDE92E6788EA040889EA050966406F40CDE92889CDE930670AF00F083C
:401FC0004FF000090DF1400E6FF00F064FF0FF3718EB020449EB0305604265EB45012943C91708910991DDE90845FEE9020120EA040421EA050512F1FF3220462946DDE975
:40200000044543F1FF33BB4284EA000485EA010508BFB242CDE90445DAD100240023CDE90834042422465046594606F063F8002300F00F02CDE90C234FF000084FF00009C1
:4020400010AD46464F46DDE90C0110EB080041EB0901424261EB41030B43DB170A930B93DDE90A01F5E9022318F1FF3823EA010149F1FF394FF0FF3322EA000099456FF098
:402080000F0208BF904586EA000687EA0107DAD122463046394606F039F8DDE904234B404240CDE904233046C4F14002394606F021F8DDE90823043442404B40402CCDE92B
:4020C0000823AFD1039B039C180F00F0010252424FF0000363EB4303CDE90A23620F02F0010252424FF0000363EB4303CDE90C23A20F02F0010252424FF0000363EB4303CC
:40210000CDE90E23DDE90A67039B0021DC174FEA0A730E401F4032463B46DDE90C674FEA4A7907EA0907DDE90E895F404FEA8A730E4008EA010809EA030956404B46424614
:4021400072407B400E464FEACA772640274056405F40DDE904237B401F467240079B1646DDE90A01C3E900674FEA1A1646EA0B764FEA1B1730403940DDE90C674FEADA02C5
:4021800042EA4B724FEADB0316401F40DDE90E2346404FEA9A0040EA8B704F404FEA9B01254602400B405FEA5B0B4FEA3A0ADDE908017B4005EA0B056B40724004EA0A048B
:4021C000624059400B46504007990246C1E902239CE05E0801335C083C9B4FEAC40A03EB0A0909EB0A03029323010E93079B25015D19182303FB049304930093234601EBCB
:402200000A0B9244FFF775FE049B00935946334652462846FFF76DFEA8F1080308933C9BCDF830B0083B0A93A7F1080BA9F1080C4FF0000E764520D00C9BF3E802120C9378
:40224000089BCDE91012F3E90212089313460A46DDE9100159400B4650400A990246E1E90223FBE902230A91FAE8020142404B40ECE902230EF1010EDCE7A6420DD2F30069
:402280009844D8E900013C9A1A44C2E900011F44D7E900014B44C3E90001049B00934A4623463C990298FFF724FE029B079F083B2A469E46AF420AD0F7E80289FEE9020195
:4022C00080EA080081EA0901CEE90001F2E705EB0616B2420AD0F2E80289F3E9020180EA080081EA0901C3E90001F2E7029B0E9AA5EBC4041A449A4208D0F3E80267D4E92B
:40230000000170407940E4E80201F4E733B0BDE8F08F2DE9F04FADF58C3DE9B00DF56155203504460E46174600214EF24012284606F008FB43F65002002104A806F002FBBC
:40234000009540F285333A46314604A8FFF7D1FD0DF5E15004AB083003F5E15302AAA4F10805002140F2853E0830466853F8087F76090296002603965E684FEAC66B4BEADA
:40238000571B4FEAC76ADDE9026786EA0A0687EA0B07B046B946F2E90267013188EA060889EA070946464F467145E5E90267DBD104F5E154D4E9002303F01F03C4E90023F4
:4023C0000DF58C3D69B0BDE8F08F2DE9F041ADF5E24D88B02824064620278846224600210CA806F0AFFA3A46002104A806F0AAFA2246002116A806F0A5FA41F6284520ABCA
:4024000018462A460021009306F09CFA0DF5E5502A460021083006F095FA0DF563502A460021103006F08EFA0DF5A9402A460021783006F087FA21460CA800F04FFC394695
:4024400004A800F04BFC22460CA902A800F0E9FF214616A800F042FC0DEB0703143B1846224616A9019300F0DCFF009902A8832201F014F80DF5E551832202A8083101F0BC
:402480000DF80DF563510198103101F0E7F80DF563520DF5E5510DF5A940103208317830FFF737FF0DF5A942783240F285330099104601F0F8F80DF5A94216A93046783271
:4024C00000F09CFB334604AA0CA9404600F053FB019800F0E0FF02A800F0DDFF0DF5E24D08B0BDE8F0812DE9F041ADF5454D8AB041F6284406460D4617460021224604A84F
:40250000984606F01FFA0DF5E15022460021183006F018FA0DF5615022460021203006F011FA0DF5A94022460021083006F00AFA0DF5E14022460021303006F003FA0DF56E
:402540000C4022460021D83006F0FCF9224600210DF5294006F0F6F903AB414618462822019300F05EFF0DF5454340330DF5E1511A6804A8183100F053FB0DF561510198C9
:402580009522203100F08AFF0DF5A94101989522083100F083FF0DF5E14101989522303100F07CFF0DF5A94104AA30460831FFF7B0FE0DF56151324640F2853330462031A9
:4025C00001F071F839462846FDF78EFE0DF50C404FF461432A464EF22511D83001F084F80DF5E1520DF5A9410DF5294018320831FFF78FFE0DF529420DF5E141104640F2D9
:402600008533303101F04FF80DF529420DF50C41104640F28533D83101F045F84EF225130DF529424FF46141284601F05DF8019800F031FF0DF5454D0AB0BDE8F0812DE965
:40264000F041ADF50C4DBEB041F628440546884616460021224602A81F4606F073F90DF5E15022460021103006F06CF90DF5E14041F64D420021283006F064F90DF56150EF
:4026800022460021183006F05DF9224600210DF5A94006F057F90DF50D4310330DF5E1511B6800930DF5E143424602A82833103100F07CFA0DF561504FF461433A464EF2B0
:4026C0002511183001F010F80DF5E15132460DF5A9401031FFF71DFE0DF5A9420DF56151104640F28533183100F0DDFF28460DF5A941FDF70CFE00200DF50C4D3EB0BDE81E
:40270000F081000020F04003802B02D0B0F5807F04D1044B01221A60002070474FF0FF30704700BFBC48020841F64D40704741F69540704743F65500704740207047000090
:4027400010B4084C24682CB138B131B15DF8044B00F036B84FF0FF3001E06FF001005DF8044B7047BC48020870B4084E36682EB138B131B12AB170BC00F027B84FF0FF306D
:4027800001E06FF0010070BC704700BFBC48020870B50A4E366856B160B159B152B100F0AAF8002814BF6FF00200002070BD4FF0FF3070BD6FF0010070BD00BFBC480208B8
:4027C00008B5FFF702FE002008BD2DE9F047ADF50D4DA2B0144681468A464022002106A806F0B0F80DF5E3504FF4E15841F628420021183006F0A6F84246002116A806F03A
:40280000A1F843F665070DF5AA403A460021203006F098F841F67D450DF562502A460021203006F08FF80DF5AA460DF562500D362021203000F052FA3046102100F04EFA57
:40284000214641F64D420DF5635006F070F805AB03930DF562520323009306A92B460398203200F0C1FD00940DF562520DF5E3500DF5625406AB16A9203218302034FFF71D
:4028800032FE0FCC0DF5AA4520350FC594E80F0085E80F000DF5AA400DF5E352483040F28533183241F62541083800F047F90DF5AA40203000F5E25016AA41464FF461734F
:4028C000053000F03BF904230DF5AA42009351463B460398203200F087FD0DF5E3514846334616AA183100F0B6F900200DF50D4D22B0BDE8F0872DE9F047ADF5454DBCB022
:4029000080460DF5625014468A4641F628420021383006F017F806AF4FF4E15200211EA806F010F820220021384606F00BF8402200210EA806F006F80DF5A94041F6284221
:402940000021603005F0FEFF0DF5E4504FF4E1520021183005F0F6FF0DF50D43B033A3F1280643F665020021304605F0EBFF0DF5E2437033A3F1680541F67D420021284658
:4029800005F0E0FF0DF50D420DF56250534675321EA9383000F080F90DF5625200941EAB383239462846FFF74AFE0DF5E24304F148097033044641F64D424946A3F1480033
:4029C00005F0B5FF05AB0393032300932A4641F67D430EA9039800F007FD0DF5E4510DF5A9400EAB2A4618316030CDF80090FFF77AFD0DF5A9410DF5625041F625426031CD
:402A0000383000F061FE0DF5E4512043C4B24FF4E15218311EA800F057FE2043441E04F0FF040023E043FA5C02EA0001EA5C22404A40F2540133202BF5D10DF50D400DF5B2
:402A40006252B03040F28533383241F62541083800F074F806F5E2501EAA4FF461734FF4E151053000F06AF804230093039843F665033246414600F0B7FC04F00100013867
:402A80000DF5454D3CB0BDE8F087072B2DE9F74F29D900294FD0A0F10804019400249646254605F1080C634543D37546002715F8076F4FEA072949EA16694FEA062815F849
:402AC000016D0027754546EA080647EA0907F0D1019DE5E902670134A14201950EF1080E6546DED127E033B329B300242546D11800EBC40011F8016C0027C0E90067023B7B
:402B00005B1B5BB2002B16DB90E812004FEA042B4BEA116B4FEA012AC0E900ABD11800274E5D47EA0B0746EA0A06C0E90067013BE7E7AB42DBD803B0BDE8F08F2DE9F8437B
:402B400000250746884691461E462C46444510D0B5420ED209EBC50104F00702D1E90001D20005F0C7FA38550134630708BF0135ECE7BDE8F88370B4044601F1280551F83C
:402B8000046B44F8046BA942F9D100F1280102F1200452F8045B41F8045BA242F9D141F64D421946483070BC05F0C1BEF7B50E4608991D46074601F1280401F1480354F8F1
:402BC000040B42F8040B9C42F9D101A8282200F028FC394601A8832200F060FC314601A8832200F05BFC41F64D422146284605F09EFE01A800F04FFC03B0F0BD30B403460C
:402C000001F1280451F8045B43F8045BA142F9D140F2853341F62541283030BCFFF78EBF73B5144606460D462822214601A800F0F8FB314601A800F011FD41F6254304F169
:402C4000280240F285312846FFF71FFF01A800F022FC02B070BD70B51D46164640F285330A4641F625410446FFF768FF4FF4E15160184FF4617332460530FFF75FFF04F5CA
:402C800061502B46053005F1100253F8041B40F8041B9342F9D170BD70B51C460E46154641F62543224640F28531FFF7EEFE4FF4E153E21805324FF461713046FFF7E5FE15
:402CC00004F5615305332A4603F1100153F8040B42F8040B8B42F9D170BD00007FB5164D2B7804460E4683B962B61448291D02F0E3F805F13001114801F0C6FF02F014F844
:402D0000012001F095FF01232B70A5190C4EAC420FD003AB07224FF0864100964FF0844002F01AF8012001F083FF039B04F8013BEDE704B070BD00BFC0480208B8B6081059
:402D40001C4902082DE9F04F01390446002511F801CF4CF3000A4CF3C0130AF0AA3A4CF3400E8AEA030B0EF0CC3E4CF380028EEA0B0A02F0F0324CF3C00382EA0A0E03F0E2
:402D8000FF2383EA0E024CF300131B0C1B0453404CF3401E83EA0E0200264CF3801C8CEA020C46EA030A9346E146C4E900AB8EEA0C0C46EA0C024B46C4E9022304F1100CD3
:402DC00001225319A64600EB03135EF804AB43F804ABE645F9D10132052AF2D10535B5F5E17F04F15004B2D1BDE8F08F2DE9F04F01F5E355ADF5057D471E01F15004103583
:402E000044AE54E914894FF0000A52464046494605F070F904AB00F0010023F81A000AF1010ABAF1400FF0D154E912890DF18E0B4FF0000A52464046494605F05BF90AF133
:402E4000010A00F00100BAF1400F2BF8020FF1D1A4F1400AD3464FF00009FBE80223CDE9002304AB4FF000084B444246DDE90001039305F03FF9039B33F8182000F00100BC
:402E8000104423F8180008F10108B8F1400FECD109F18009B9F5807FDFD10AF1100AA245D8D14FF0070C04AAB6461146AEF10200002332F82390B1F80280C84420F8028F7B
:402EC00032F82380B1F802900133C9EB0808402BA0F8808001F10401EBD1BCF1010C1346724601D09E46E0E73388A3F5A0733380E6466246E04636F81C1008B24B4243409E
:402F000003EAE07343409BB2C3EB080040F3C03080B2514001404A4083EA08038EEA0C0101400CF1010C184081EA0E0EBCF1800F80EA080192B21FFA8EFE1FFA81F8DAD11E
:402F4000D20B013A02F0800250344EEA0203A54207F8013F7FF455AF0DF5057DBDE8F08F2DE9F047BCB005460F467622002168460DF1780805F0E6FC76221C49404605F032
:402F8000D6FC5A220021284605F0DCFC07F12004A14614F801AD95F8393000268AEA030A38F816105046FEF70FFF2DF8160001363B2EF5D105F139031DA913F8010D31F843
:402FC000022D9D4282EA00025A70F6D1BDF800302B70BC42DDD13A3554F8043B45F8043B4C45F9D13CB0BDE8F08700BFE8B608102DE9F04FADF27C5D27AD059074228A46AE
:403000002846002105F09EFC4022002117A805F099FC4FF4807200219EA805F093FCB422002144A805F08EFCB422002171A805F089FCDFF8AC9300244FF0B20B57460BFBC1
:403040000498002638F8161017F8010FFEF7BCFE35F814300136584080B2592E25F81400F0D19AF80030584025F8140001343A2CE4D108AC3C220021204605F063FC3C2259
:403080000021DEA805F05EFC2B88039301271E464FF0000B4FF6FF73ADF87A73ADF85C70029500970193D84604940DF15C0EBEE80F00049C0FC4BEE80F000FC4BEE80F00FC
:4030C0000FC49EE8070003C400982280FEF7ECFE01463046FEF778FE07F1FF391FFA89F902460024DEAB0134A74211DB1E2C0FD033F81410079310460692FEF765FE17AB84
:40310000069A33F81410484023F81400079BEAE7019BC3EB0B044C44A4B2C4EB08027342134043F3C0339BB284EA08041C403A2F88EA040443D0019A89EA020903EA09091C
:4031400082EA09020192009A56401E40724000920DF2B2300021DE43049A0A440239128F03EA020E30F8022D32408EEA020211F13A0F4280F0D18BEA080803EA08038BEA86
:40318000030B029B33F8026F02934FF000086FF0010908F1010847450EDBB8F11E0F0BD009FB08F3029AD15A17AB33F81800FEF70BFE704086B2ECE70137A04675E74FF41A
:4031C00000720021DEA817AF05F0BCFB0DF51E781E223946DEA8FDF7F4FA44AEDEA94046FDF780FBE44301233380A4B2E21842F3C03137F813200A4026F8132001331E2B29
:40320000F4D17388039A5A40728002270DF19A0204EB07096B8849F3C0391FFA89F909EA030136F817304B4026F81730AB460DF15E0333F8020B3BF8021901920093029333
:40324000FEF7C2FD36F81710019A009B09EA000048405A4526F81700EBD101371E2F05F10205D5D108AC3A220021204605F06AFB3A220021DEA805F065FB0027DFF864C170
:403280003D46204618F805203CF815B05242D217002192B20C4687EA04035B4222EAE37330F814E003EA0B09CE4420F814E003F00103013419441D2C89B2ECD101350F44BE
:4032C0005A2DBFB2DED1002408AB012533F81400FEF7EAFDA94683462B4618465946FEF773FD36F819100090FEF76EFD09F101096840B9F11E0F85B2009BEED10123994626
:403300001D2204EB09000193B0FBF2F108AB02FB1101584633F811100092FEF755FD019B80F0010189B21846FEF74EFD09F10109B9F11D0F0346009AE3D1FEF7B5FD014669
:403340002846FEF741FDDEADE31B00EAE33025F8140001341D2CB7D14FF0000E744671AF18F8040037F814C04042C017002280B216468EEA060335F816105B4220EAE373D7
:40338000194061441FFA81FC013603F001010A441D2E92B2EDD127F814C0013402EB0E035A2C1FFA83FEDBD10AF1FF32002312F8010F17F81310013341405A2B1170F6D1A3
:4033C000059B0AF13A020AF15A0A52F8041B43F8041B5245F9D10DF27C5DBDE8F08F00BF5EB70810B2DF0810F8B504461F4616460D46FEF779FC3A4631462046FEF782FC9D
:4034000006A901222046FEF77DFC2046FEF780FC284622464021FEF780FC2046FEF781FCF8BDF7B502AD022305F8013D04460E461746FEF759FC3A4631462046FEF762FC2A
:40344000012229462046FEF75DFC2046FEF760FC03B0F0BDF7B50E4622F0070402F007050746024621463046FEF757FC8DB13A4608216846FEF751FC34440023DAB2954245
:4034800003F1010305D902A9114411F8081CA154F4E703B0F0BDFEF744BC00002DE9F04FADF6BC3D0546914688464FF41572002105A89AAC05F046FA0DF2BC4A4FF4157221
:4034C0000021204605F03EFA4FF415720021504605F038FA4FF4956200210DF5E26005F031FA5D4F4FEA8902284605A9FFF7B2FF002505AA4D4502F104021FD212F8013CE7
:4035000012F8021C57F825001B0643EA014312F8041C0B4312F8031CC5F5614643EA01232536A3FB000106FB11339B1B06EAE3762B44334444F825300135DBE704EB8901E4
:4035400009F1FF320439551ECAB100234A450CD254F8226051F8040C371A801B38430028A8BF43F001030132F0E751F8042D5B4222EA03022B4053400B602A46E3E70DF53A
:40358000E16600219AAF494538D257F8213000249A0903F03F0E00230DF2BC40CDE9023440F821204FF0010B4FF0000C0020C0EB0E0254424FF0000363EB43051D43EB1757
:4035C00000930193DDE90023DDE902452BEA02022CEA03031BEB0B0B00F1010044EA020445EA03054CEB0C0C4028CDE90245DED123462C46E6E902340131C4E7A8F108013E
:403600004FF0000E40F285380DF5E16C002000240025484512D25AF82020C2EB0E0253421A43D243FCE90267D20F524263EB030332403B4014431D430130EAE7F1E9022313
:403640000EF1010E14431D43C645C1E90045DBD10DF6BC3DBDE8F08FB8E1081070B5ADF5E15D82B041F6254506460C462A460021684605F067F92A4669463046FFF7EAFE91
:403680002B466A46204640F2853104F5E154FFF7FCF9D4E9002303F01F03C4E900230DF5E15D02B070BDF0B5083A083801EBC303994208D0F1E80267F2E9024574407D403D
:4036C000E0E90245F4E7F0BD70B54FF480730024944205D0065D0D5D75402B430134F7E7581EC0F3072070BD70B50D469D42044611461ED215F03F054FF4E15218BFC5F154
:40370000400505F014F904F5E05400261834B5420ED032464FF0FF306FF0004104F0EAFCD4E9002310401940C4E900010136EEE770BD3F339A09D200BDE8704005F0F7B81E
:403740007047FFF7FDFF72B6104C114DAC4209DA21686268A368043BA2BFC858D050FAE70C34F3E70B490C4A00209142BCBF41F8040BFAE709480A490860BFF34F8F00F0E7
:40378000F9F800F0D3F800F043F9FEE7E8F0081000F10810A0480208304D02080040020808ED00E0FEE7FEE700B504207146084202D0EFF3098001E0EFF30880043000F06B
:4037C0000BFDFEE7012000F0B7BC7047514B524AD3F8800300F00F00810001F1804101F5181130B5D1F8403303F00704032C07D0042C07D0494B4A49002C08BF0B460EE044
:4038000013680CE0D1F8003303F01F03112B01D0132B02D14FF4004301E04FF4FA433D4930BBD1F89045D1F88805D1F8885515F0405FC0F3017005D0D1F88815C1F30171D7
:40384000012901D1E40701D403283AD13149D1F88005D1F88445D1F88015C0F31100C1F30061C4F30C040131B3FBF4F3434326E0012826D1D1F84046D1F80006D1F800564E
:4038800015F0405F05D0D1F80016C1F30171012901D1E10703D4C0F30171032911D11D48D0F80016D0F80046D0F8000601F07F014B43C4F30421B3FBF1F3C0F30441B3FB6A
:4038C000F1F31449D1F88013C1F30111CB4015495360D1F890000969090E0131B3FBF1F19160C0F307210131B3FBF1F303F57421D360136101F23F210B48B1FBF0F103F2B9
:40390000E73311754FF47A71B3FBF1F39361DB03D36130BD000026408C42020800366E0100127A000000214040420F0008B50D4800F0B8FCFFF749FFFFF748FF0022114629
:40394000042000F08DFA084800F00EFB074B1B6893F8513013B1064800F03EFBBDE8084000F018BA1CE708102C490208F44C02080CE4081008B500F084FC074AD2F88830AC
:4039800043F47003C2F88830BFF34F8FBFF36F8FBDE8084000F079BC00ED00E0174A70B5174C184E1546D4F808331549C3F308037BB1D4F8400313885188013303F07F03A4
:4039C00089B28B42EFD0298889B2C0B270542B80E9E70423C1F8C03FD1F8C03F0A4BB3F90030002B09DB5A09012103F01F0301FA03F36032054941F8223070BDAC4A020859
:403A000000006640744C02085CE6081000E100E02DE9F04162B6504C5049204600F0ACFBB4F90030002B08DB5909012203F01F0302FA03F34A4A42F821304A4B0422C3F85E
:403A4000C82F01F04DF8484B1868002302221946406805F035FD454805F01AFD444805F017FD444805F014FD4FF48070FEF74AFE10B1414805F00CFDFEF759FE0446FEF78E
:403A800053FE0646FEF756FE0546FEF756FE80463A4805F0FDFC3146394805F087FC2146384805F083FC2946374805F07FFC4146364805F07BFC0121204604F0FDFE344CC5
:403AC000012160600746304604F0F6FE0121A0600646284604F0F0FE0121E0600546404604F0EAFE206117B10EB105B108B9294820E0294805F0CCFC6168A068FEF720FE6A
:403B000008B1264800E0264805F0C2FCA2682169E068FEF729FE08B1224800E0224805F0B7FC6268E1682069FEF732FE08B11F4800E01F4805F0ACFC606804F0E1FEA068E8
:403B400004F0DEFEE06804F0DBFE206904F0D8FE184805F09DFCFEE75CE608109D39081000E100E0000066400C43020840E4081064E4081042E4081085E4081096E4081045
:403B8000A2E40810C4E40810E6E4081008E50810AC4A02082CE5081078E5081098E50810B3E50810D2E50810E8E5081002E6081018E6081032E6081010B504462146034822
:403BC00000F09EFB0028F9D010BD00BF00006640054AD2F80833C3F30803002BF9D0024BD3F84003704700BF00006640034B1B681A68D3F88430D058000E7047F44C020890
:403C0000044B1B681A68D3F88430D058C0F30720704700BFF44C0208034B1B68B3F8B0201B6A00FB02307047F44C0208034B1B68D3F8B430C058C00F704700BFF44C0208C9
:403C40001D4B984236D00FD840282CD005D800282FD010282BD119487047802825D0B0F5807F24D118467047154B984214D008D8B0F1204F1DD0134B984218D14FF4A00017
:403C80007047114B98420AD00133984209D0023B98420CD10D4870474FF4A40070470C4870470C4870470C4870470C4870470C4870470020704700BF060052000100500042
:403CC000010000F0090000A0040000F00100520002005200030052000200500005005200FF00520008B50120FFF796FFFFF79EFF60B9074B1868FFF7A3FF064B1B685B682A
:403D000001229A609A68002AFCD108BD024808BDC04A0208F44C020802005000184B13B5186128B102230370FF23437000234380144A136893F850101446F1B11B8FADF80A
:403D40000030114900236846019300F015FABDF90030002B08DB5909012203F01F0302FA03F30A4A42F82130236893F8513023B102220749012000F08FF902B010BD00BF40
:403D8000C04A0208F44C0208DF43020800E100E0AD4302080148FFF7C1BF00BFD44A0208054B1B68D3F8B430C358002BBDBF89B24160002001487047F44C020801008A0003
:403DC0000368002BBBBF89B2C26002488160B8BF0020704701008A00054B1B68D3F8B430C358002BBDBFC3680B60002001487047F44C020801008A00F8B5154B0C461968A3
:403E000091F83130834221D904B3226812F01F071CD1B1F8B0300D6A0E4E00FB0355D20839466068356004F08DFD39462846FFF7B7FF394622463068FFF7C2FF014618B9B9
:403E40003068FFF7ADFF10B10348F8BD0348F8BDF44C0208D84A020801018A0003018A0010B404465AB999B90B4B1A68B2F8B030106A04FB0300094B1860084609E039B179
:403E8000064B5DF8044B5960191D9A60FFF7B4BF03485DF8044B7047F44C0208D84A020803018A001C4B1A682DE9F041D2F80C80D8F80020824204460D461E4624D919B907
:403EC00000F0DFF9074600E0002730680368002B01DB124C13E06209D8F804100123A4EB421403FA04F451F822301C420ED023EA040341F8223000240021FFF751FF3DB907
:403F0000384600F0C2F903E0054C01E0054CF3E72046BDE8F08100BFD84A02080301880004018A00020188000B4B1B68DB681A6882420ED942095968A0EB4210012303FAB8
:403F400000F051F822301842044B054818BF184670470448704700BFD84A0208010188000001880004018A00024B1A6802B91860704700BFE44A0208F0B52C246043144C9C
:403F8000059F25685FFA83FE45F800E02C1811480668306AB6F8B060C3F307250EFB0606266105F1800665601B0C00EB461600EB451041F20805A36043EA034366614351F8
:403FC0000023E2612162A3610FB13B88A381F0BDE44A0208F44C0208F0B5174B41691B688269DB8EC668076985B002AD00950B440446C16AADF808300392436A826A006A26
:40400000FFF7BAFF00223B46114600923046FFF7B3FF216B284600F0AFF8BDF90830002B08DB5909012203F01F0302FA03F3034A42F8213005B0F0BDF44C020800E100E0C9
:40404000F0B5124C26682C2707FB006425693DB107FB0161886928B92E68002E02DA03E00B48F0BD0B48F0BD4E68D4F804E0012404FA06F7168846EA07461660EA608C6173
:4040800004FA0EF4A4B24B62AC60F0BDE44A020804028A0007028A00074B10B51C682C2303FB0040C369934283BF036A002043F82210024810BD00BFE44A02080A028A00E0
:4040C00073B54369DD6800262A0C044601961ED012041A601B68174B00691B68D3F8B430C358B34213DA01A9FFF776FE58B90198E26903681E0CDBB2934204D2226A52F8C3
:40410000233003B1984731462069FFF749FEADB265B163691D601B68636A002513B19847656202E0A36A03B19847A56163691B6802B070BDF44C0208034B1B682C2202FBA3
:404140000030FFF7BDBF00BFE44A0208074B9A68074B9A4218BF074A00F1100306BF52F8230042F8231052F82300704700ED00E0004002080000081010B5F0B1B0F90030C7
:404180004268002BA8BF03F160434FEA4212ADBF03F5614303F00F030A4CD2B2B6BFD2B283F80023E254084B9A68084B9A4206D1B0F90000FFF7CAFF01E0054810BD00200D
:4041C00010BD00BF14ED00E000ED00E00040020801005600FEE7000008B5234B02681A6042685A6082689A60C268DA6002691A6142695A6182699A61C269DA611B4A916A4C
:404200001962D16A5962516A9962516BD962926B1A63F1EE102A12F0900F21D0026A5A63426A9A63826ADA63C26A1A64026B5A64426B9A64826BDA64C26B1A65026C5A65BC
:40424000426C9A65826CDA65C26C1A66026D5A66426D9A66826DDA66C26D1A67026E5A67FFF7B8FF08BD00BF2848020800ED00E00230800803D001300238FCD100BF00BF0D
:404280007047EFF3108072B6704780F3108870474FF0B0535A7812B15878C0B27047212070470000014B1860704700BFF44C0208D0F8003303F00F03072B02D901EB4202AB
:4042C00001E00A4407E0914204D0D0F8403321F8023BF8E77047914204D0D0F8403301F8013BF8E7704710B5D0F80843C4F30804944228BF14462246FFF7DAFF204610BD11
:40430000036813F4006FD0F8083214BF80224022C3F3080393421ABFC0F84012012000207047D0F8003203F00F03072B02D901EB420201E00A4407E0914204D031F8023BF3
:40434000C0F84032F8E77047914204D011F8013BC0F84032F8E77047036810B5D0F8084213F4006F14BF80234023C4F308041C1B944228BF14462246FFF7D3FF204610BDCC
:404380002DE9F043002800F0D580002900F0D2800F78022F01D18C7F0CB14C68013C0B7F002B8B6804F00F0414BF4FF48036002644F00074092B34BF4FF4006500253443E5
:4043C0002C4304603C0604F0407404644C7F4E7B8D7B002C8C7C14BF4FF040094FF00009002C0C7C14BF4FF480684FF00008002C4C7C14BF4FF4807C4FF0000C002CCC6A79
:4044000004F1FF3406F1FF364FEA044406F007064FEA051504F4702405F0300544EA060444EA050444EA090444EA080414BF4FF4007E4FF0000E44EA0C0C4CEA0E0491F8BF
:404440000CE08464CC7BBEF1000F14BF4FF4807C4FF0000C2CB9022F14BF00244FF4007401E04FF40074013B03F00F034CEA030C4CEA0404C0F800438C6991F814C0240471
:4044800004F47F0444EA0C04C0F81043CC7F24B1012F0CBF4FF48074002435432C43BEF1000F446414BF4FF480740024012F43EA04030CBF4FF4803400242343C0F80032AD
:4044C00091F83030C0F8043391F8203091F8214091F82460002B14BF4FF000730023012C91F828400CBF4FF0807500253343012C0CBF4FF4803400242B43234303654C6B83
:4045000091F83830C0F8043240F66D332340C96BC0F8C83F40F273730B40C0F8883F00205AB1506090601060D06010621063D062BDE8F0830248BDE8F0831046BDE8F08324
:404540000160AA0008694B6998422DBF4B69CB684A69C01A3CBFC018801A7047D0F8003E1A072DE9F04705460C4640F1BB80D0F8CC3F13F448730AD04A681A434A60C0F850
:40458000C03FD0F8C03F0B6B0BB110209847D5F8CC3F1B0509D5636843F4006363604FF40063C5F8C03FD5F8C03FD5F8CC3FD80740F19880E269002A43D02B68A16913F49C
:4045C000006F284614BF40262026FFF78CFE236AE2690344121A2362E261EAB9A3687BB1E368D5F804239E4294BF06F1FF3303F1FF3322F0FF02DBB21343C5F80433012323
:40460000C5F8C83F636823F001036360236B002B63D00420984760E0D5F80033A16903F00F03072B88BF400008449642A06154D9D5F80433013A23F0FF031A43C5F8042333
:404640004BE0A368002B48D02B6813F4006FD5F80833266914BF4FF040084FF02008C3F30809B9F1000F26D0E368676901369E4208BF0026B7420FD1236B0BB108209847A1
:4046800063699F4208D10023C5F8C83F0FB17E1E11E0E668013E0EE0D5F84023D5F8003303F00F03072BA36809F1FF3994BF9A5523F81620D5E7266121462846E668FFF732
:4046C00041FF301A804508D900B10138D5F8043323F0FF031843C5F804030123C5F8C03FD5F8C03FD5F8003E590776D5D5F88C3F13F4A0630AD022681A432260C5F8803FA5
:40470000D5F8803F236B0BB120209847D5F88C3FDA0750D52B68A26AD5F8006213F4006F14BF80274027012A06F00F0610D9D4F82480E2624146013A2846FFF70DFEA36AB0
:40474000072EA3EB000388BF40004044A3626062D5F80832C3F30803BB4227D0A36A012B24D10023A362636A072E94BF1E781E88FFF787FD4FF40073C5F84062C5F8803FF3
:40478000D5F8803FFFF781FDD5F8883F23F4007323F0010343F40073C5F8883F236843F002032360236B0BB1012098470123C5F8803FD5F8803FD5F88C3F9B050DD500229E
:4047C000C5F8882F236823F001032360236BE2621BB10220BDE8F0471847BDE8F08743684B609A688A609A6851609960036808610133036070474168826803698A60826826
:4048000051605968884208BF5A60002202611A68013A1A6018687047064B9A6A126812B94FF0FF3203E09A6AD268D2685268DA62704700BF244B02082DE9F84F334BD3F8D8
:4048400018211C4662BB1E6B01361E63B6B99B6A1B6843B14FF03F0383F31188BFF36F8FBFF34F8FFEE7A36AA26BA262A363D4F820310133C4F82031FFF7CEFFE36A9E422D
:404880004FF000053AD3DFF884804FF0140B08F1580AA36A1D4A1B684BB94FF0FF330DE0D3F824310133C4F82431002526E0D8F82830DB68DF687B689E4201D2D3621DE0B0
:4048C00007F104094846FFF796FFBB6A1BB107F11800FFF790FFF86AD4F81431984288BFC8F8140149460BFB00A0FFF778FF636BFA6ADB6A9A4228BF0125CAE7D4F82831D3
:40490000002B18BF01252846BDE8F88F244B020838B5244BD3F818211C461AB10122C3F8282138BDC3F828215B6B1B6B1A68B2F1A53F0BD15A68B2F1A53F07D19A68B2F198
:40494000A53F03D1DB68B3F1A53F04D0606B616B343100F08DF8D4F81431142000FB03F56219916D59B943B94FF03F0383F31188BFF36F8FBFF34F8FFEE7013BEEE7D16DAC
:4049800009484968D1652844814204BF4968D165142202FB0342D26DD2686263C4F8143138BD00BF244B0208844B020800000000074B19680868B0E8F04F80F30988BFF359
:4049C0006F8F4FF0000080F311887047AFF30080584B0208000000000000000000000000EFF30980BFF36F8F154B1A681EF0100F08BF20ED108A20E9F04F10602DE9090079
:404A00004FF03F0080F31188BFF34F8FBFF36F8FFFF77EFF4FF0000080F3118809BC19680868B0E8F04F1EF0100F08BFB0EC108A80F30988BFF36F8F704700BFAFF30080EB
:404A4000584B020808B54FF03F0383F31188BFF36F8FBFF34F8FFFF7EFFE18B1034B4FF080521A60002383F3118808BD04ED00E04FF03F0383F31188BFF36F8FBFF34F8FDF
:404A8000FEE770B516460C4659B10D462B1BB34204DA15F8010BFFF78FF8F7E726EAE67070BD084670BD70B516460D4609B90C460CE00024B44209DAFFF78AF8C0B20A2859
:404AC000285504F1010401D00D28F3D1204670BD01490248FFF742BDF84C02080000664010B5114C237853B9104A11491148FFF747FC11491148FFF73FFB012323700F4B62
:404B0000B3F90030002B08DB5909012203F01F0302FA03F30A4A42F82130064A136843F00043136010BD00BF504C0208F84C0208D4E7081000006640D14A08105CE60810E6
:404B400000E100E00B4B10B519680B4B0C691A688B69126A80335B019B180122D868A24080B2824205D11A601B68CB69002B00D0984710BD544C0208F44C0208084B1A68A7
:404B80004369126A80335B019B189A68036901209840120C801A43425841C0B27047C046F44C0208074B1A681300116AB0321288B43350431B685B1818180068C043C00F9D
:404BC0007047C046F44C0208134B10B51C682000FFF7D4FF00281BD02069FFF7E3FF002818D001210D4B62691B6891401A00B032108822691B6A50432200C018FFF7E0F802
:404C000043425841064B40421840064BC01810BD0548FCE70548FAE7544C0208F44C0208FCFFCDFF040032000600320007003000114B70B51C680500002C16D02378002B95
:404C400013D02000FFF79AFF002810D0002D06D12069FFF7A7FF00280BD0606870BD2069FFF7A0FF0028FAD0F7E70448F6E70448F4E70448F2E7C046544C0208080032002C
:404C80000600320007003000F7B505006B6800684B61AB6808618B616B691E4FCB614B1C01932B7B4A1CD3773B680C001A000126B03212881B6A50430021C018FFF770F8EC
:404CC00026702000FFF75AFF002820D0E369002B19D0280010490C30FFF74EFAA3693A688033126A5B019B18320021698A4092B29A60A319DB7F5BB2002B04DB1F221340CB
:404D00009E40064B1E600020054B1C60FEBD0548FCE7C046F44C0208454B081000E100E0544C020806003200094B10B51B68002B0BD0012400221C709A62FFF745FF002881
:404D400002D12000FFF774FF10BD0248FCE7C046544C02080800320070B5074D049C2D68002D06D00626AC622E700FC4FFF72CFF70BD0248FCE7C046544C02080800320032
:404D8000002807DB1F23C02218401E3B8340024952008B507047C04600E100E030B5F8250F4B104A18681468436A226C6D039A181168294010D01160226C9B181B680A4B00
:404DC0001A68531CD97F002907D1416A086A496A506291620122DA7730BD0022FBE7C046F44C0208644C0208584C02080022F8B5060004000368471C0B60436828364B6011
:404E000083690D008B60C369CB604B1CDA77FB7F0B7433780B7603F06DF8A169002900D11F4920002030FFF7A7F91F23FB56002B06DB1F2213401E3A9A401300194A136042
:404E4000194F63683A688033126A5B019B188022216852028A40E1699A60002900D113493000FFF789F900203056FFF789FF0023F356002B06DB1F2213401E3A9A4013001F
:404E8000084A13600A4A3B6812685B6A926C00209B18F82252031A60064B1D60F8BDC0461D52081000E100E0F44C02089D4D0810644C0208584C020810B5084B084A1B68CB
:404EC00029331B78012B05D1064B60335360FFF78DFF10BD044B3833F8E7C046F44C0208584C020814E9081094E90810F0B5BA4D87B0AC68002C1CD0B84BB94E6360326824
:404F00002378506A012B16D103F006F860600023AB603368E1691A00B032108822691B6A5043C018002902D00121A3699940FEF737FF07B0F0BD0268002AE8DAA94A62609A
:404F40006A68002A11D00E2B00D1EAE04CD8082B00D1ACE02DD8042B00D194E01BD8022B00D182E0032B00D183E06368002BCED12A68511CC87F002800D045E13268526A4F
:404F8000106A526AD70F012F01D1974BCF77A060E2606360BBE7062B00D17DE0072BE4D1D768002FE1D0A16A4A7D0B008969B8475DE00B2B00D194E006D8092B00D181E0D5
:404FC0000A2BD2D197697EE00C2B00D19AE00D2BCBD1576A002FC8D0A16A0B7B00938B684A680968B84742E0142B00D1D2E025D8112B00D1B2E00FD80F2B00D1A1E0102B36
:40500000B3D1176B002FB0D0A16ACB680A699BB2D2B28968B8479EE0122B00D1ADE0132BA3D1D76B002FA0D0A16A0B6A0193CB6900938B694A69C968B84718E0172B00D1E0
:40504000BFE006D8152B00D1B0E0162B8DD1976CADE0192B00D1C9E000D2B4E0552B00D083E7A06A02F0E2FF01E002F0E3FF60607BE71768002F00D177E7A16A8B684A68C4
:405080000968B847F3E75368002B00D16DE7A16A0A69C9689847EAE79768002F00D164E7A16ACB6800938B684A6809687CE01769002F00D159E7A26A117D0092136BD26A09
:4050C000B847D4E75769002F00D14EE7A26A117D0292136B0193D36A0093536AD269B847C5E7D769002F00D13FE7A16A03910B6B0293CB6A01938B6A00934B6A0A6AC96992
:40510000B847B4E7176A002F00D12EE7A16A0291CB6A01934B7D00938B69CA69096BB847A5E7976A002F00D11FE7A16A0B7B02934B6901930B6900934B680A688968B847C6
:4051400095E7D76A002F00D10FE7A16ACB680A689BB28968B8470023636006E7576B002F00D102E7A16A8B684A680593CB6809689BB2B847059B1860EDE7976B002F00D1EB
:40518000F3E6A16ACB689BB200934B680A688968B847E0E7176C002F00D1E6E6A16A0B6900934B680A688968B84760E7576C002F00D1DAE6A26AD3681178009393685268C4
:4051C0007EE7D76C69E7136D002B00D1CDE6A26A116898474BE7C046584C020809003200F44C02080A00320001003200576D002F00D1BAE6A16A0B690A790193CB6800938A
:405200008B680968B84732E7506A926A002A00DA014B0027CF77BAE60100320070B5124C124B22681E68106853680122356A80335B01EB18D9688240090C8A4212D12100CD
:4052400012041A60B0361B683388083158434019FEF7C2FD002805D123689B68002B01D1FFF744FE70BDC046584C0208F44C020837B505001400012A18D149682800069A1B
:40528000013C02F079F80C236142614100932800083B4431002202F0D7F8054B1B681B68ED1801232A681A42FCD137BD0968E5E7644C020813B519001300049A040002F0D7
:4052C0005BF80823200000930022043B482102F0BBF8044B1B681B68E418012322681A42FCD113BD644C0208F8B504000327134E080031681A721D004B693A40E3181A6033
:40530000096D020061180B0080336B6020002023E960296001F04EFF06CD200002F012F8082320000022462102F078F833681B68E418012320681840FCD1F8BD644C020801
:40534000F0B50500160085B01A000A9B0391DC681023671CFF3711343900FF3401F02AFF2300039A0A9928000097FFF781FF280010232200310001F01DFF002005B0F0BD15
:40538000F0B5160087B0040004911A0033076AD10E9B3500DB681F00591C31371133FF31FF33FF37039102933900102301F002FF049B012B4BD00C9B9B195B1B05930D9B5C
:4053C0009A19521B002D4BD010230399200001F0F1FE039B3A000E9920000097FFF76AFF029B049A0E9920000097FFF741FF1023029A3900200001F0DDFE1023029A0599B1
:40540000200001F0D7FE103DD5E710230399200001F0D0FE039B012200930E99029B2000FFF726FF029B029A00930E993B002000FFF740FF1023039A3900200001F0BAFE27
:405440001023029A0499200001F0B4FE103D0C9B9B195B1B04930D9B9A19521B002DD4D1002007B0F0BD0148FBE7C04602003200F0B5170089B006000C001A003B0747D14A
:40548000109BDD682B003133FF3303930399102301F090FE0E9B0593012C01D10F9B05933C006B1CFF3311350493FF35059BDB191B1B07930E9BDB191B1B06930F9BDA1962
:4054C000121B002C02D1200009B0F0BD10230499300001F06FFE039B0022009310992B003000FFF7C5FE049B2A00109930000095FFF7E0FE10232A000699300001F05AFE0C
:405500001023079A0399300001F054FE103CCDE70048D9E702003200F0B58DB00793159B0691DD680B922B003133FF3302936B1CFF3303931033049310330593079A102379
:405540000299040001F036FE2B00F8331A6C5B6C17BA1BBA0893069B089E1B090A93089B1399F31A1A018918099114998A180A998B420ED3029A20001023079901F01AFE91
:405580000F23069A00201A4013000B9A13600DB0F0BD03992000102301F00CFE029B159900932000059B0022FFF762FE01220023B6185F412B0032BA39BAF83319645A64E6
:4055C000059B049A00931599039B2000FFF772FE1023049A0999200001F0ECFDBFE70200002310B50F32441E1178013A49000B4353701B0A9442F7D1002B04D07923C27BAF
:405600005B425340C37310BDF7B505000F009668546831001023002201F0E8FD39002800009623000022FFF723FE2000FFF7D7FFF7BDF0B585B003939368166802930F00E1
:40564000102300220299050001F0D0FD0A9C039B0A9A9A18121B102C07D83C61A3B23100280001F0A7FD05B0F0BD10233100280001F0A0FD029B3200009339003300280043
:40568000FFF718FE0096029B002239002800FFF7EFFD103CDBE7F0B587B0059393680C690393536806000F00156804930F2C0DD81800FFF794FF80232B55713B1B1B611C97
:4056C0009BB269180022300001F090FD039B2A00009339002B003000FFF7ECFD049B2A00009339002B003000FFF7E4FD039B3900300000950022FFF7BBFD1023039A05999D
:40570000300001F057FD07B0F0BD0000F0B585B0039119000AAB17001A78134B05001B681C6D0C9B4134FF340419FFF7DDFD230026001033303623631033A36332000C9968
:4057400028006463FFF760FF039B32000C9928000097FFF76EFF28000B9B32000C99FFF79AFF002005B0F0BD644C0208F0B58BB0069312AB09921A78604B08911B680400B0
:405780001F6D5F4BC719FD188D3BFF3BFB180493F0239B00FB1805938823DB00FB1801923A0003933B00C0328033009229003A00119E01F0C9FB9823049ADB00FA50059A67
:4057C000FB185A60039A9A60AB689E4200D86FE02900200001F01EFC3300109A2900200001F020FC3300039A2900200001F034FC296AAB68039A5B1A9BB2511800222000BA
:4058000001F0F4FC3E4A0023BE1836225C209446B268934264D32900200001F0FBFB049A2900200001F072FB069B099A2900200001F0F8FBB268069B944629006344049A49
:40584000200001F009FC2900200001F0E3FB059A2900200001F05AFB336A049A2900200001F0E0FBB268336A29009B182000089A01F0F2FB9821C900795820008023002211
:4058800001F0B4FC9823DB00FE18716820008023002201F0ABFC80230022B168200001F0A5FC2000290001F032FC00200BB0F0BDB2B207929E420CD213000399109A200091
:4058C00001F078FCAB68B2B29B1A039A9BB2911994E7079B109A0399200001F06BFC91E76146039AD25C4A400499CA54039A0599D25C4240CA5401338AE7C046644C02080B
:40590000CC040000034B1B689B68C0180F23006818407047644C0208F8B504000D0017001E002000FFF7EEFF0C28FAD8082D04D00C4AA358002BFCDB04E086225201A35856
:40594000002BFCDBE221084BC9051B680D43DA68A2181560DA68A2181760DB68E4182660F8BDC046D0100000644C0208F8B507000C0016001D003800FFF7C4FF0E28FAD844
:40598000064B24031B682D04D8688023DB051E43344338182C430460F8BDC046644C020870B505000C0016002800FFF7ABFF0E28FAD8054B24021B68DB68ED18D023DB0558
:4059C0001E4334432C6070BD644C020810B504002000FFF797FF0E28FAD8044B1B68DB68E418A023DB05236010BDC046644C020810B504002000FFF785FF0E28FAD8044B61
:405A00001B68DB68E418A223DB05236010BDC046644C020870B504000E0015002000FFF771FF0C28FAD8064B06491B68DA68A2181160DA68A2181660DB68E418256070BD24
:405A4000644C02080C00007070B505000C7A0A680234E40023000821FFF75EFF1023082204212800FFF782FF2300103B002B04D0082205212800FFF779FF70BD70B505004A
:405A80000B7A0233DC00FFF7DFFF2800FFF79EFF1023062204212800FFF768FF2300103B002B04D0072205212800FFF75FFF70BDF8B51E0004000F001500310014230022DA
:405AC00002F0E8F8054B35721B6837605B690020E41803231D402560F8BDC046644C0208F8B50D00040016001F000699002D1FD1FFF7AAFF10233A0008212000FFF70CFF61
:405B0000102231002000FFF785FF2000102308220021FFF72BFF2000002D0CD1FFF756FF2000102301220C21FFF720FF0020F8BDFFF7A4FFDEE7FFF75BFFF1E7F8B5040071
:405B40000E0015001F0013075CD10899002E1ED1FFF77AFF10233A0009212000FFF7DCFE2B00079A08212000FFF7D6FE2A0006992000FFF74FFF10230922002E20D101213D
:405B80002000FFF7F3FE002D04D10020F8BDFFF775FFDFE72000FFF7B5FE0E28FAD81A4B1A4A1B682000DB68103DE3181A60FFF70DFF102301220C212000FFF7D7FEE2E75C
:405BC00002212000FFF7D2FE002DDED02000102308220021FFF7CAFE2000FFF709FF2000FFF790FE0E28FAD8074B094A1B680221DB682000E3181A6010230022FFF7B6FE79
:405C0000103DE1E70348C1E7644C02081800104121C0104102003200F7B50F260400019115001F0016404DD10A99FFF70DFF10233A0009212000FFF76FFE10230922310066
:405C40002000FFF793FE2B00099A08212000FFF763FE2A0008992000FFF7DCFE019B002B2CD0002D2CD02000FFF7B0FE1023082200212000FFF77AFE2000FFF743FE0E280B
:405C8000FAD8114B114A1B68103DDB68E3181A60E7E72000FFF79AFE2000FFF733FE0E28FAD8094B0A4A1B680C21DB682000E3181A6010230022FFF759FE103D002DE8D103
:405CC0000020FEBD0348FCE7644C020801C010411800104102003200F0B51D008BB004926A781B7812021A43AB7804001B041A43EB782E7A1B0613436A7906932B79120260
:405D00001A43AB7902911B041A43EB7913991B06134307936B7A6A7B1B023343AE7A120236043343EE7A36061E432B7B08961A43AB7B1B041A43EB7B1B061343099332BABC
:405D40001BBA05920193FFF77FFE102306AA09212000FFF7E1FD1023092200212000FFF705FE019B0C211A0E2000FFF719FE019B0D211A0CD2B22000FFF712FE019B0E2194
:405D80001A0AD2B22000FFF70BFE6B460F211A792000FFF705FE2000FFF718FE029B129A08212000FFF7B8FD029A11992000FFF731FE029B019E1B09059F0393019B039AC8
:405DC000F31A93420ED306AA20001023290001F025FF0F23029A00201A401300049A13600BB0F0BD2000FFF7F1FD01220023B6185F413ABA33BA08920C21320E200009936F
:405E0000FFF7CEFD320CD2B20D212000FFF7C8FD320AD2B20E212000FFF7C2FDF2B20F212000FFF7BDFD2000FFF76CFD0E28FAD8084B094A1B68DB68E3181A602000FFF7F0
:405E400061FD0E28FAD8034B044A1B68DB68E3181A60B3E7644C02081010006610100067034B1B689B68C0180F23006818407047644C020810B504002000FFF7F1FF0E2870
:405E8000FAD8044B1B68DB68E418A023DB05236010BDC046644C02080200002310B50F32441E1178013A49000B4353701B0A9442F7D1002B04D07923C27B5B425340C373A0
:405EC00010BD000070B504000E0015002000FFF7C7FF0C28FAD886225201A358002BFCDB064B07491B68DA68A2181160DA68A2181660DB68E418256070BDC046644C0208FB
:405F00000800007170B504000D002000FFF7A8FF0C28FAD8064B07491B68DA68A2181160DA68A2181560DB68E4181023236070BD644C02080C000070002370B504000E003B
:405F40000B602000FFF78CFF0E28FAD8144D154A2B682000DB68E3181A60FFF78BFF71682000FFF7CFFF2000FFF77AFF0E28FAD82A680D49D368E31819601368E3181A687F
:405F8000002AFCD17068FFF787FF2000FFF768FF0E28FAD82B68DB68E418044B236070BD644C02080000104101C010401110104170B50E001100326805009C181A00FFF70B
:405FC00081FF102C01D8346070BD2800FFF748FF0E28FAD8054B064A1B682800DB68103CEB181A60FFF746FFEBE7C046644C020818001041F0B5102587B00F00040001929A
:4060000000212A0002A802F09DFC80237E683F6802AA137002A9EA1B2000FFF753FF2000FFF71EFF0E28FAD8184D194A2B68DB68E3181A600F2F02D83000FFF72DFF10227F
:4060400031002000FFF73EFF2000FFF709FF0E28FAD82B680F4ADB682000E3181A60FFF709FF01992000FFF74DFF2000FFF7F8FE0E28FAD82A680849D368E3181960136897
:40608000E4182368002BFCD107B0F0BD644C0208180010410800104101C0104070B504000D00160086B019000AAB1A780C9BFFF7FFFC0C992000FFF7C7FC02AB69462000FC
:4060C0000193FFF739FF33002A0069462000FFF76FFF20000B9A6946FFF78CFF002006B070BDF0B5F3B005937AAB0391049269A91A78040001F0EAFBC02306AA5B0006A90C
:40610000D250043326AACA5046AE0433CE500833CF581033CB58BDB2019300222B003100200001F0B7FD799BBB4254D969A9200001F02AFC799B789A69A9200001F040FCB9
:40614000320069A9200001F06DFC019B019AEB1A9BB2B1182000002201F09CFD3622002394465C269F424ED169A9200001F00CFC3B0006AA69A9200001F022FC059B049AD7
:4061800069A9200001F01CFC06AA69A9200001F049FC69A9200001F0F7FB3B0026AA69A9200001F00DFC019B06AA69A9200001F007FC039A69A9200001F034FC0C2300228D
:4061C00066A9200001F066FD200069A901F0A0FC002073B0F0BD799B9BB20293799BBB420AD2029B789A3100200001F017FD029B799AED1AABB2ACE7029B789A31002000DE
:4062000001F00CFDAAE7654606A95A18501CFF3001788032694006ADE95401780133714011709FE7034B1B681B68C0180368002BFCD17047644C020810B5064C2468293443
:406240002478012C02D100F0EDFF10BD01F05CFDFBE7C046F44C020810B51300064A146829342278012A03D1002200F0BFFF10BD002201F00FFDFAE7F44C020810B5094BC3
:406280001B6829331B78012B0AD0A023064C090324689B05E468114300191943016010BDB023F3E7F44C0208644C02080B03094912010968C968401807490968293109781C
:4062C000012905D19421890511431943016070470249F9E7644C0208F44C02080F00002410B50A4B0C241B6829331B78012B00D00434074BA1401B68DB68C018531E90224D
:4063000052051A431143016010BDC046F44C0208644C020810B50A4B89061B6829331B78013B5C1EA3410C339A408023054C1B0624681943E4680A430019026010BDC0466B
:40634000F44C0208644C0208F7B504001D005F1C0E00019200213A00FFF7C2FF3A0001212000FFF7BDFF3A0002212000FFF7B8FF2A0003212000FFF7CDFFD022204F92059E
:406380003B680021DB682000E3181A600322FFF775FF3A681B49D368E3181960D023D26831039B050B43A21813603601164B0E431E433A68D368E318002D02DA134A1A607F
:4063C000F7BD1349019801431960D3681149E3181960D368E3181E600F4B1B6829331978D368E318012909D1842292051A60022220001100FFF75AFF013DDAE7074AF5E7EF
:40640000644C0208002000300200303A070000130010003701003003F44C02080F000021F7B5060015001C00099B01915F003A000221FFF755FF3A0003213000FFF750FFE5
:40644000099A00213000FFF765FF2C4F2D013A68D368F1182A4B23432B430B60294B1B6829331B78012B47D08C2327499B051943D3680898F3181960D3682449F3180143F1
:406480001960D368224AF31815431D60099B30009C1C22000021FFF723FF3A681D49D3683000F3181960D3681B4AF3181A6001212200FFF715FF3B680898DA681749B218DC
:4064C00001431160DA681649B2181160DA681549B21801431160019AD96813481203711810430860D9681148711802430A60DB680F4AF3181A60F7BD9023B6E7644C0208AB
:4065000000200033F44C0208203000003020003300300020320000370C000013001000371000400310000037010040300000303003000013F8B5040080274A4D1E002B68AB
:406540007F05D86820180760E027D8683F023943201801609021DB680902E3180A431A600B2132002000FFF7BBFE32000C212000FFF7B6FE32000D212000FFF7B1FE2B684C
:406580003949DA680227A2181160DA683749A2181160DB68364AE3181A60721E04260A212000FFF7B7FE0A220B212000FFF766FE2B68304ADB68E3181A602000FFF732FE11
:4065C0002B682D4ADB682000E3181A60FFF72AFE2B68DA6BA2181268324238D10B2220001100FFF763FE2B68244ADB682000E3181A60FFF717FE2B68DA6BA21812683A42F1
:406600000AD00D2220001100FFF750FE0E2220001100FFF74BFED0E7DA681949A2181160184ADB681268E31829321278012A0CD1154A1A600E2220001100FFF737FE0A221E
:406640000E212000FFF71AFEB7E7104AF1E7DA680F49A2181160DB68E41888235B052360F8BDC046644C020800D0003500E0003400B0003409C000300B00003F0D00003F5A
:40668000DCD00036F44C0208D0D00026DFD0002500380013F7B504001500089F00917E007A1C01210193FFF71BFE320002212000FFF716FE320003212000FFF711FE3A00BF
:4066C00000212000FFF726FE3A4E3B4933680198DA6801432D010D43A2181560DA683749374DA21811602A68DB6829321278E318012A5AD1334A1A60012220001100FFF70F
:40670000D5FD33683049DA68A2181160DA682F49A2181160DA682E49A21811602A6829321278012A43D08C222A4992051143DA682000A2181160DB68274AE3181A600022A4
:406740001100FFF7E7FD200000220121FFF796FD3A0020000021FFF7DDFD32681F49D3682000E3181960D3681D4AE3181A60FFF759FD33681B49DA681B48A2181160DA68B1
:406780001A49A2181160DA68A2181060DA68A21811600099DA6808031549A21801431160DB68E418134B2360F7BD134AA3E79022BAE7C046644C0208003000333A10003311
:4067C000F44C020810100021182000332320003600400005202000000010003410100020040000042130003A2830003723003003020000300E0000131F100021F0B585B02C
:4068000006000F0002930A9D0B98062A37D8214C93001959A31823341B7FA45C01223A701A190B32824232D82A78002A2FD16A78012A2CD1021B0092D21A9446AA18501E81
:4068400000780192002822D162462800033A0392421B9446039A624515D89BB2019A3000FFF7EAFC002812D1009AA3B2AA1802993000FFF7E1FC002809D1387007E00024E5
:4068800023002100CAE701304278FF2AE0D0002005B0F0BD24EA0810F0B504008BB009938B68B74E0593CB68089206930B684F6807930B697D1C02934B6903938B690493C6
:4068C000B04B1B68DA6C33689200196D92B24118FFF7C2FC3A0005212000FFF701FD3A0006212000FFF7FCFC3A0007212000FFF7F7FC3A0008212000FFF7F2FC2A000A21C6
:406900002000FFF7EDFC3A000B212000FFF7E8FC3A0009212000FFF7E3FC3B00079A0821200001F0B5FB069B059A0721200001F0AFFB099B089ADB000621200001F0A8FBBA
:40694000029B002B00D0CBE020003B0008220A21FFF7FAFC2000FFF765FC049B002B00D0C5E03368884ADB682000E3181A60082301970093092202330B21FFF751FD2000F7
:40698000FFF750FC039B002B00D0B7E020003B0008220921FFF7CEFD2000FFF743FC802133684905DA682000A2181160DA687749A2181160DA687649A2181160DA68754930
:4069C000A2181160DA687449A2181160DA687349A2181160DA687249A2181160DB68714AE3181A6009213A00FFF77AFC3A000D212000FFF775FC3A000B212000FFF770FCD7
:406A0000082306220D210093200004330197FFF707FD2000FFF706FC32686349D3682000E3181960D3686149E3181960554BD2681B68A218029329331B78013B591E8B41B9
:406A4000A0215B4289055B065B1859490B431360FFF7E8FB33680E211B692000E3189A6BDD6A9200ED04ED0C920C0135AD1AFFF751FC33684F4ADB68E3181A603368DB6841
:406A8000E318002D41DC404A20001A600522092311000097FFF7FEFD33684749DA68A21811608821DA684905A2181160354A1B681268E31829321278012A5DD17F3219689E
:406AC0001142FCD13B0020000522109901F0F3FA00203368DB68E418384B23600BB0F0BD2B00029A0A21200001F0D2FA35E73B00049A0B21200001F0CBFA43E73B00039A3D
:406B00000921200001F0C4FA49E71E4A1268029229321278012A21D1294A1A602000FFF781FB01223368DB6BE3181B680097134216D004320D2311002000FFF7ABFD20008C
:406B4000FFF770FB0D2300971A0019002000FFF7A1FD2000FFF766FB013D8FE7194ADCE70D23052219002000FFF794FD2000FFF759FB00970523E7E71A68002AFCDBA1E79C
:406B8000644C0208F44C0208009000350660000005500000077000000880000009A000000AC000000B50003007B0003000900034B9E00000BEB00020002A0013E00F001343
:406BC000B0B00021BFB00021F0B504000B6887B002930B69344E03934B694D6804938B696F1C0593314B1B68DA6C33689200196D92B24118FFF730FB2A0020000B21FFF7D7
:406C00006FFB3A0020000D21FFF76AFB2A0020000C21FFF765FB2A0020000E21FFF760FB2B00029A20000B2101F032FA2B000B220D212000FFF788FB2000FFF7F3FA3B00E3
:406C40000B27039920000D2201F035FA3368184ADB680E21E3181A6020000D230C2201950097FFF7DDFB2000FFF7DCFA2B00059920000E2201F01FFA2B003A000C212000B9
:406C8000FFF758FC2000FFF7CDFA2B0020000C22049901F010FA00203368DB68E418054B236007B0F0BDC046644C0208F44C020800C0003500780013F0B580270C4C7F00BE
:406CC0002568DBB22C6A0619059C24023C40FF3F3A40224332606A6A82181360AB6AC3181960EB6AC018069B03600020F0BDC046644C020870B50D00110086220400049840
:406D0000D200A0501A00200000F01CFB042300225821200000F082FB0821064B1A681368E31818680840FCD1136BE41823682B6070BDC046644C02087FB50D0019000E4BCA
:406D400016000393099A089B040000F015FB03AB690059180823895D200000930022043B00F072FB054B1B681B68E418022322681A42FCD17FBDC04670717273644C020827
:406D8000F0B5040016000025082787B005931B4B04911B681B6DC3180393194BE900C9183A00300001F0B4FD002825D00135102DF3D10025039F3200103739002000082328
:406DC00000F0F8F90C9A03992000082300F0F2F9039E039B08360193049A3B00200000960021FFF7A9FF200008233200059900F0E1F9280007B0F0BD024DDBE7644C0208AF
:406E0000D0EA081003003100F0B589B00593274B04001B6816001B6D0027C3180393130008330693083304910793214BFD00ED1808222900300001F06BFD002833D00822B7
:406E40002900069801F064FD00282CD008222900079801F05DFD002825D00137102FE4D10025039F3200103739002000182300F0A1F90E9A03992000082300F09BF9039E3D
:406E8000039B08360193049A3B00200000960121FFF752FF200008233200059900F08AF9280009B0F0BD034DDBE7C046644C0208D0EA08100300310010B58024A400015117
:406EC000812152005208890042508222DB00DB0892008350002010BD70B50400150000F01BFA00225C21200000F086FA2021064B1A681368E31818680840FCD19369E418EC
:406F000023682B6070BDC046644C02080B0013B51100DA68040000925B6900F04BFA0C230193043B00932000043B00224C2100F0A5FA044B1B681B68E418042322681A4229
:406F4000FCD113BD644C0208F0B5050005A840C804780220062C11D82000402701F0C0F80416222B394A410027488F6048621420086108622D30FF3088610020CB60C02395
:406F80009B004E610C704A60E850F0BD1E488F60143048622020086104380862E4308861FF38EBE718488F6034304862202008610862E030F3E71448543048628020886078
:406FC0004038086110380862A020800088610220D4E70E48143048628020886040380861F1E70A485430486280208860403808612438E8E706481430486280208860403823
:4070000008612038DFE7C04650EB0810D0EB081050EC081010B50B694A6A9BB2C96800F0C9F810BDF7B50E0017001C008D680190F361AC4208D26B1E23403A0071689BB285
:40704000019800F0B7F8F7BD3A0031000198FFF75DFF7F19641BECE7F0B589B007938B6816000193013B0493049ACB6903901340029370230693019B0C00CF684D68802B44
:4070800001D0382306938023029A0398AB546B469B88511C0593013B9B1A9BB20022691800F0A4F8069B029A93420AD82A0021000398FFF72BFF059B00222900039800F07C
:4070C00095F8079BDA00019B100EEB18191F0870D91E100C0870023B110A1970049B2100EA5403982A00FFF711FF236A9B08002B01D109B0F0BDFA78013B3270BA787270EE
:407100007A78B2703A780437F2700436EFE770B50C0005008B6800229BB2496800F066F823692800E1689BB2002200F05FF8A36928009BB20022616900F058F870BD0000B8
:40714000F0B587B004930CAB1B7817000593184B03911B6800221E6DD02386199B00F51829002823040000F041F8059A330001923200C03280330092290032002000FFF762
:40718000E3FE29002000FFF745FF3B00039A29002000FFF747FF3B00049A29002000FFF75BFF20002900FFF7B2FF002007B0F0BD644C020813B50400080011000200200067
:4071C00000F0DAF80823200000930022043B502100F03AF9044B1B681B68E418102322681A42FCD113BDC046644C020813B5040010001A000300200000F0BEF80C23200025
:4072000000930022043B512100F01EF9044B1B681B68E418102322681A42FCD113BDC046644C020813B5040000F0A6F80823002200935221043B200000F006F91022054B9D
