:020000041008E2
:4000000000780408EB0208100D0000005103081051030810510308105103081000000000000000000000000000000000715708104D030810000000001158081075580810CC
:400040004D0308104D0308104D0308104D0308104D0308104D0308104D0308104D0308104D0308104D0308104D0308104D0308104D0308104D0308104D0308104D03081000
:400080004D0308104D0308104D0308104D0308104D0308104D0308104D0308104D0308104D0308104D0308104D0308104D0308104D0308104D0308104D0308104D030810C0
:4000C0004D0308104D0308104D0308104D0308104D0308104D0308104D0308104D0308104D0308104D0308104D0308104D0308104D0308104D0308104D0308104D03081080
:400100004D0308104D0308104D0308104D0308104D0308104D0308104D0308104D0308104D0308104D0308104D0308104D0308104D0308104D0308104D0308104D0308103F
:400140004D0308104D0308104D0308104D0308104D0308104D0308104D0308104D0308104D0308104D0308104D0308104D0308104D0308104D0308104D0308104D030810FF
:400180004D0308104D0308104D0308104D0308104D0308104D0308104D0308104D0308104D0308104D0308104D0308104D0308104D0308104D0308104D0308104D030810BF
:4001C0004D0308104D0308104D0308104D0308104D0308104D0308104D0308104D0308104D0308104D0308104D0308104D0308104D0308104D0308104D0308104D0308107F
:400200004D0308104D0308104D0308104D0308104D0308104D0308104D0308104D0308104D0308104D0308104D0308104D0308104D0308104D0308104D0308104D0308103E
:400240004D0308104D0308104D0308104D0308104D0308104D0308104D0308104D0308104D0308104D0308104D0308104D0308104D0308104D0308104D0308104D030810FE
:400280004D0308104D0308104D03081010B5054C237833B9044B13B10448AFF300800123237010BD9449020800000000ACDA0810084B10B51BB108490848AFF300800848E8
:4002C000036803B910BD074B002BFBD0BDE81040184700BF0000000098490208ACDA081060430208000000007047FFF7FDFF72B6104C114DAC4209DA21686268A368043B80
:40030000A2BFC858D050FAE70C34F3E70B490C4A00209142BCBF41F8040BFAE709480A490860BFF34F8F02F0ABFC02F085FC02F0E1FDFEE7B8DA0810D0DA08109449020830
:40034000580E03080040020808ED00E0FEE7FEE700B504207146084202D0EFF3098001E0EFF30880043003F0EBFAFEE72DE9F041844688469CF800000021012413E01CF810
:400380000460E500A5F1200EC5F12007002306FA0EFE43EA0E0326FA07F73B4306FA05F21043194301344445E9DBBDE8F08100BF2DE9F84305460E46002432E004EB4400F4
:4003C00003213044FFF7D2FF0022134605E020FA02F7164939400B440132022AF7DD03F0070EC3F3C209C3F38217C3F34228C3F30230C3F3C23CC3F38241E200C9EB0E0E12
:4004000025F834E002F1020EC8EB070725F80E70171DCCEB0000E8530632A1EB5353AB5201343F2CCADDBDE8F88300BF499224002DE9F04300240025A046A94616E0065DBA
:40044000E100A1F1200EC1F12007002306FA0EFE43EA0E0326FA07F73B4306FA01F248EA020849EA0309013445F10005002D08BF082CE4D340464946BDE8F083002105E009
:400480004254120A42EA03621B0A01310729F7D9704700BF2DE9F04FADF5337DB190D0E90034CDE92E34D0E90212CDE93812D0E90434CDE93A34D0E90634CDE93C34D0E98B
:4004C0000812CDE93E12D0E90A3440A9C1E90034D0E90C3442A9C1E900340346D0E90E1244A8C0E900121A46D3E9103446A9C1E90034D2E9123448A9C1E900341346D2E982
:4005000014124AA8C0E900121A46D3E916344CA9C1E90034D2E918344EA9C1E900341346D2E91A1250A8C0E900121A46D3E91C3452A9C1E90034D2E91E3454A9C1E90034B3
:400540001346D2E9201256A8C0E900121A46D3E9223458A9C1E90034D2E924345AA9C1E900341346D2E926125CA8C0E900121A46D3E928345EA9C1E90034D2E92A3460A9AD
:40058000C1E900341346D2E92C1262A8C0E900121A46D3E92E3464A9C1E90034D2E930344FF0000C66AAC2E9003401F057B8DDE92E8940ABD3E9003488EA030889EA04092F
:4005C0004AABD3E9003483EA080384EA0904984654ABD3E9002382EA08026340904699465EABD3E9001281EA080182EA090288469146DDE9386742ABD3E9000146404F400E
:400600004CABD3E900017040794056ABD3E9004544404D40264660ABD3E9003473406C401E462746DDE93A0144ABD3E90045604069404EABD3E9004544404D40204658AB45
:40064000D3E9003443406C401846214662ABD3E9004544404D4020462946DDE93C2346ACD4E9004562406B4050ACD4E9004554405D4022462B465AACD4E9004554405D40FB
:4006800022462B4664ACD4E9004554405D40CDE90645DDE93E3448AAD2E900AB83EA0A0384EA0B0425461C4652ABD3E9002362406B4014461D465CABD3E9002362406B40B0
:4006C00014461D4666ABD3E9002362406B4014461D464FEA470E4EEAD67ECDF8A4E14FEA460E4EEAD77ECDF8A0E168ABD3E9002362406B40CDE900234FEA410E4EEAD07E59
:40070000CDF8ACE14FEA400E4EEAD17ECDF8A8E16AABD3E9002382EA080283EA0903CDE90223DDE906AB4FEA4B0E4EEADA7ECDF8B4E14FEA4A0E4EEADB7ECDF8B0E16CABCB
:40074000D3E900AB8AEA060A8BEA070BCDE904AB4FEA450E4EEAD47ECDF8BCE1640044EAD57ECDF8B8E16EABD3E9004544404D402E4625464FEA490141EAD87ECDF8C4E16F
:400780004FEA480141EAD97ECDF8C0E170ABD3E9009ADDE9062382EA090283EA0A039B469246DDE92E89DDE9003488EA030889EA040972ABC3E9008942ABD3E90089DDE907
:4007C000022388EA020889EA030940464946040D44EA093ECDF8D0E1090D41EA083ECDF8D4E14EABD3E90001DDE9043443404C4021465C0D44EAC12ECDF8D8E1490D41EA18
:40080000C32ECDF8DCE15AABD3E90001CDE92E56684071404C0544EAD02ECDF8E4E1400540EAD12ECDF8E0E166ABD3E90045CDE906AB52465B4654405D40A90341EA944E59
:40084000CDF8ECE1A10341EA954ECDF8E8E174ABD3E900AB76ABD3E9002322EA0A0023EA0B0172ACD4E9005645404E402846DFF894EB0EEBCC04D4E9004580EA040886EA38
:40088000050942A9C1E9008978A9D1E9006726EA020027EA030154465D4644404D404EA9C1E900457AACD4E9008928EA060029EA070142404B4066A9C1E9002372ABD3E90E
:4008C000002322EA080423EA090566406F405AA9C1E9006711462AEA01012BEA030293460A465B46404649465040594072ABC3E90001DDE93CABDDE92E568AEA050A8BEAF1
:40090000060B52465B46190741EA1A1BCDF8F4B1120742EA131BCDF8F0B148ABD3E900ABDDE9062382EA0A0283EA0B03190541EA123BCDF824B0120542EA133BCDF820B019
:400940004AABD3E90078DDE90045674088EA05084346D90041EA577BCDF82CB0FA0042EA587BCDF828B056ABD3E90089DDE9021288EA010889EA020942464B46D10C41EA4D
:40098000493BCDF8F8B1DB0C43EA483BCDF8FCB162ABD3E90089DDE9040180EA080081EA090189460B46C10841EA497BCDF830B0DB0843EA407BCDF834B0DDE90812DDE9A1
:4009C0000A7827EA010128EA020213460A467CA9D1E9009A4F4657408AEA030856ABC3E900787EABD3E90067DDE90A0126EA000227EA0103DDE9080150405940CDE93C012B
:400A0000DDE90C0120EA060221EA0703DDE90A01504059404AABC3E90001C846D146DDE90CAB28EA0A0129EA0B02084686EA000A87EA020B62ABC3E900AB41464A46DDE9BA
:400A4000088928EA010129EA02021346DDE90C8988EA010889EA030948ABC3E90089DDE93867DDE9028986EA080687EA0907790041EAD67BCDF8C4B0720042EAD77BCDF84C
:400A8000C0B044ABD3E9009ADDE9041281EA090182EA0A02894692460A465346990141EA996BCDF83CB0920142EA9A6BCDF838B050ABD3E90067DDE92E9A86EA090687EAA1
:400AC0000A07790641EAD61BCDF804B2720642EAD71BCDF800B25CABD3E900ABDDE9066786EA0A0687EA0B07390241EA166BCDF80CB2320242EA176BCDF808B25EABD3E98E
:400B000000782E46674088EA06084346990441EA973BCDF814B2BA0442EA983BCDF810B2DDE90E9A80A9D1E9006726EA090227EA0A03DDE930015040594044ABC3E9000103
:400B400082ABD3E9004524EA060225EA070389EA02098AEA030A5CABC3E9009A84ABD3E900AB2AEA04012BEA050213464E405F40CDE93867DDE9307827EA0A0228EA0B037B
:400B8000204629465040594050ABC3E900013A464346DDE90E8928EA020229EA03038AEA02088BEA03095EABC3E90089DDE93E56DDE9060168407140CB0643EA501BCDF80F
:400BC0001CB2C30643EA511BCDF818B240ABD3E900ABDDE900568AEA050A8BEA060B52465B46110F41EA0B1BCDF820B21B0F43EA0A1BCDF824B24CABD3E90012DDE9028951
:400C000081EA080182EA090213460A46990241EA925BCDF844B0920242EA935BCDF840B058ABD3E90078DDE904347B4084EA08041F46E10341EA574BCDF82CB2FA0342EA05
:400C4000544BCDF828B264ABD3E90078DDE92E45674088EA05084346390A41EA086BCDF848B01B0A43EA076BCDF84CB088ABD3E900ABDDE9107827EA0A0228EA0B0386A994
:400C8000D1E900010746574081EA030864ABC3E900788AABD3E90067DDE9108926EA080227EA09038AEA02088BEA030940ABC3E90089DDE9122322EA060823EA0709424625
:400CC0004B46DDE9108988EA020889EA030958ABC3E9008980468946DDE9120128EA000229EA01033046394650405940CDE92E0142464B462AEA02022BEA0303DDE9129A77
:400D000089EA02098AEA030A4CABC3E9009ADDE93A67DDE9042372407B401F46930843EA877BCDF830B2BB0843EA827BCDF834B246ABD3E90078674088EA050841467B0AF1
:400D400043EAC85BCDF850B04B0A43EAC75BCDF854B052ABD3E90012DDE906344B40544019460A46490E41EAC41BCDF838B2630E43EAC21BCDF83CB254ABD3E90023DDE976
:400D800000566A407340D10D41EA432BCDF858B0DB0D43EA422BCDF85CB060ABD3E90023DDE902566A407340990041EA92759195920042EA93759095DDE914AB8EA9D1E932
:400DC000005625EA0A0226EA0B038CA9D1E9000180EA020881EA030952ABC3E90089DDE9168928EA050229EA06038AEA020A8BEA030B60ABC3E900AB90ABD3E900AB2AEAA2
:400E000008082BEA090942464B4655405E4046ABC3E900568046894655465E4620EA0A0221EA0B03DDE916015040594054ABC3E9000142464B46DDE9148928EA020229EAE2
:400E4000030355405E40CDE93A5642ABD3E9009A56ABD3E9001289EA01098AEA020AC84644ABD3E9001281EA080182EA0A0264ABD3E900AB8AEA010A8BEA020B52ABD3E9FD
:400E8000001281EA0A0182EA0B02884691464EABD3E90067DDE93C4566406F405CABD3E9003473407C401E46274640ABD3E9004574407D4060ABD3E900AB8AEA040A8BEAD7
:400EC000050B56465F4666ABD3E900344AAAD2E900124B405440DDE938AB8AEA030A8BEA040B5046594658ABD3E9002342404B40194646ABD3E9003453404C4018462146CA
:400F00005AABD3E9002362ACD4E9004562406B4050ACD4E9004554405D4022462B46DDE92E4554405D40224654ACD4E900AB8AEA020A8BEA050BCDE900AB72ABD3E90034BB
:400F400048AAD2E900AB83EA0A0384EA0B0425461C465EABD3E900AB8AEA040A8BEA050B54465D464CABD3E900AB8AEA040A8BEA050B54465D46DDE93AAB8AEA040A8BEA5D
:400F8000050B54465D464FEA470A4AEAD67BCDF84CB24FEA460A4AEAD77BCDF848B292ABD3E9002362406B40CDE902234FEA410A4AEAD07BCDF854B24FEA400A4AEAD17B2F
:400FC000CDF850B294ABD3E900AB8AEA080A8BEA090BCDE904AB019B4FEA430A009B4AEAD37BCDF85CB2009B4FEA430A019B4AEAD37BCDF858B296ABD3E900AB8AEA060AC4
:401000008BEA070B6E0046EAD4779997640044EAD577989798ABD3E9005645404E40CDE906564FEA490141EAD8779B974FEA480141EAD9779A979AABD3E90089DDE90034A8
:4010400083EA080384EA0904A1461F46A04642ABD3E90056DDE9020145404E4028463146DDE93C45DDE9042354405D4022462B46240D44EA053518951B0D43EA02351995CD
:40108000DDE9384584EA0A0485EA0B0522462B46640D44EAC52532955B0D43EAC2253395DDE92E34DDE906565D4066402A46740544EAD5251B95520542EAD6251A95DDE944
:4010C0003A45CDE900783E464F4666406F40BC0344EA96459D95B20342EA97459C95DDE91845DDE9327827EA040428EA050522462B4642404B400CF101040EEBC40EDEE9AB
:40110000004582EA040883EA0509CDE92E89DDE91A45DDE9327824EA070425EA080522462B46DDE9184554405D40CDE93845DDE91A349CAAD2E9005625EA030326EA040448
:401140001A46574088EA0408CDE93A782F46B04620EA050521EA06062A46DDE91A4554407540CDE93C45DDE9184524EA000425EA010529463D46464665404E40CDE93E56A2
:401180005AABD3E90023DDE90601504059400B0743EA10153595030743EA1115349548ABD3E90045DDE90001604069400B46090541EA10359F95020542EA13359E9544AB5D
:4011C000D3E90023DDE9020142404B40D90041EA52751D95D20042EA53751C9540ABD3E90045DDE9042354405D402B46E10C41EA45351E95DB0C43EA44351F9546ABD3E998
:40120000000180EA0A0081EA0B010B46C10841EA43752095DB0843EA407521959EABD3E90089DDE91C0120EA080521EA09062A46DDE934455440754040ABC3E90045DDE959
:401240001E34DDE91C5623EA050024EA060146464F4688EA000889EA010942AAC2E90089DDE9208928EA030129EA04021346DDE91C8988EA010889EA030944ABC3E9008905
:40128000DDE93445DDE9208924EA080025EA0901DDE91E2342404B4046A9C1E9002326EA040427EA0505DDE9208988EA040889EA050948ABC3E900894EABD3E90001DDE93C
:4012C0000445604069404B0043EAD075A195430043EAD175A0954AABD3E9000180EA0A0081EA0B010B46890141EA9065A395820142EA9365A29550ABD3E90023DDE90656D4
:4013000055405E402A46710641EAD5152395520642EAD61522954CABD3E90045DDE9002362406B40190241EA12652595120242EA1365249552ABD3E90012DDE90245614011
:401340006A4013460A46990441EA92352795920442EA93352695A2ABD3E90089DDE9220120EA080521EA09062A46A0A9D1E9004520462946504071404AABC3E90001DDE9A8
:401380002401DDE9226720EA060021EA070146464F4646404F404CABC3E90067DDE92401DDE9262322EA000023EA0101DDE9226746404F404EA9C1E9006724EA020025EAB6
:4013C000030102460B46DDE924015040594050ABC3E9000128EA040029EA0501DDE9266746404F4052ABC3E9006772ABD3E90034DDE90001584061400C46C90641EA50152F
:40140000A59501E088CA0810C20642EA5415A49556ABD3E90012DDE9024561406A4013460A46090F41EA0311A6911B0F43EA0215A7955CABD3E90034DDE904124B40544097
:401440001A46A10241EA92552995920242EA9455289558ABD3E9001281EA0A0182EA0B0213460A46D90341EA52412B91D20342EA53452A9554ABD3E90023DDE90645544099
:401480005D40210A41EA05612C912B0A43EA04652D95A6ABD3E90089DDE9281221EA080522EA09062A46A4A9D1E90045204629465040714054ABC3E90001DDE92A12DDE97A
:4014C000286721EA060122EA0702134646464F464E405F4056ABC3E90067DDE92A12DDE92C6726EA010127EA02021346DDE928674E405F4058ABC3E90067DDE92C6724EAA1
:40150000060125EA070213460A46DDE92A01504059405AABC3E9000128EA040129EA05021346DDE92C674E405F405CABC3E9006766ABD3E9003483EA0A0384EA0B049A4615
:401540009B0843EA8473A893A30843EA8A73A99362ABD3E90001DDE9063443404C4018465B0A43EAC453AA93630A43EAC053AB935EABD3E90034DDE90012594062401446EA
:401580000A46490E41EAC411AC91630E43EAC213AD9364ABD3E90023DDE9024562406B40D10D41EA4321AE91DB0D43EA4223AF9360ABD3E90023DDE9044562406B40990005
:4015C00041EA92713791920042EA93733693AAABD3E90067ACA9D1E9008928EA060229EA0703A8A9D1E900AB50465946504059405EABC3E90001AEABD3E9000120EA08022D
:4016000021EA090334463D4654405D4060ABC3E90045DDE9364524EA000225EA010344464D4654405D4062ABC3E90045DDE936892AEA08022BEA09035040594064ABC3E911
:40164000000126EA0A0A27EA0B0B88EA0A0489EA0B0566ABC3E900450CF1020CBCF1170F7EF7A5AF66ABD3E900ABB19A1346DDE92E01C2E90001DDE93812C3E902121A4685
:401680001946DDE93A34C2E90434DDE93C23C1E906230B46DDE93E12C3E908121A46194640ABD3E90034C2E90A3442ABD3E90023C1E90C230B4644AAD2E90012C3E90E128F
:4016C0001A46194646ABD3E90034C2E9103448ABD3E90023C1E912230B464AAAD2E90012C3E914121A4619464CABD3E90034C2E916344EABD3E90023C1E918230B4650AA23
:40170000D2E90012C3E91A121A46194652ABD3E90034C2E91C3454ABD3E90023C1E91E230B4656AAD2E90012C3E920121A46194658ABD3E90034C2E922345AABD3E9002301
:40174000C1E924230B465CAAD2E90012C3E926121A4619465EABD3E90034C2E9283460ABD3E90023C1E92A230B4662AAD2E90012C3E92C121A4664ABD3E90034C2E92E3450
:4017800053465C46C2E930340DF5337DBDE8F08F2DE9F04FB3B083468A46154623E0F4002819FEF745FE5C44D4E9002350405940C4E90001013647F1000701E000260027F2
:4017C0004FEADA0200239F4208BF9642E7D35846FEF760FEDDE93C34B3EB080364EB0904CDE93C345544D0464FF00009DDE93C344C4508BF5345E1D20022002306E00DEB32
:40180000020100200870013243F100034B4508BF4245F4D30022002307E0A91808780DEB02010870013243F10003DDE93C018B4208BF8242F1D36A449DF8F83013700AF1AC
:40184000FF3332AA134413F8C82C62F07F0203F8C82C002600270EE0F4000DEB0400FEF7E7FD5C44D4E9002350405940C4E90001013647F100074FEADA0200239F4208BF91
:401880009642E9D333B0BDE8F08F00BF2DE9F843804616461F46DDF82090099D15E04846FEF7F8FD002408E0E00009EB0003D3E900234044FEF7E2FD0134B4EBD50FF3D3C6
:4018C000A84416F1FF3647F1FF3756EA0703E6D1BDE8F8832DE9F047E0B0814616461F46A82200233046394608F0B6F804460D46002307E060AA02EBC3020020002142E975
:4019000032010133182BF5D90DF1B80A1F2302936AABD3E90023CDE90023689AA8215046FFF736FF4FF0A808CDF80480CDF800A022462B464846FFF7A9FF08FB04F8221963
:4019400045EB0503A4185D41EB0043EA5473E200141B63EB0505EB0043EA5473E200B61A67EB030756EA070316D0A82301932EAB00930122002304A8FFF788FF002306E02D
:4019800003EB080204A9C95C09F8021001330021B94208BFB342F3D360B0BDE8F08700BF2DE97043D8B0064690469946002307E058AA02EBC3000024002540E93245013362
:4019C000182BF5D926AC06230293CDE900890A4688212046FFF7DCFE8823019300940122002304A8FFF752FF002303E004AAD25CF25401331F2BF9D958B0BDE8708300BFF5
:401A00002DE9F043C9B0044690469946002307E048AA02EBC3000026002740E932670133182BF5D916AD06230293CDE900890A4648212846FFF7ACFE4823019300950122A7
:401A4000002304A8FFF722FF002303E004AAD25CE25401333F2BF9D949B0BDE8F08300BF38B505460C4600F075FE002304E003F5D062E95CA1540133B3F5A46FF7DB4FF4CC
:401A8000A4620023294604F53A60FFF789FF202104F53C6000F03EFE002038BD70B5A0B004460E4615462021684600F033FE2022002369466846FFF773FF4FF4A462002352
:401AC000294608A8FFF76CFF40220023694610A8FFF796FF23462A4618A9684600F09EFE4FF4B8620023214618A8FFF759FF4022002310A93046FFF753FF002020B070BD0D
:401B0000F0B5ADF2446D06460D46144602F5D06710AA204600F0F2FE002307E003F1200203F53A61605C10A9885401331F2BF5DD4022002310A96846FFF762FF20AB3A46A7
:401B400008A910A800F06AFE4FF4B86220A9284600F074FF07464FF4B8620023294608A8FFF71EFFFBB2202204F53C61684600F083FF4022002369463046FFF711FF002039
:401B80000DF2446DF0BD00BFF0B5002471E004EB440304EB8303E20025014E5BC6545F1C4D5B561C31F816E0C5F3042545EA4E15C5559F1C31F81650ED08C555DF1C31F8BB
:401BC0001650961C31F816E0C5F3C12545EA8E05C5551F1D31F81650D61C31F816E0C5F3861545EACE15C5555F1D31F816506D08C5559F1D31F81650161D31F816E0C5F3EA
:401C0000432545EA0E15C555DF1D31F816502D09C55503F1080731F81650561D31F816E0C5F3003545EA4E05C55503F1090731F81650961D31F816E0C5F3C51545EA8E157F
:401C4000C55503F10A0731F81650AD08C55503F10B0731F81650073231F81260C5F3822545EAC605C5550C3331F812205209C25401341F2C8BD9F0BD2DE9F04100247BE0A9
:401C800004EB440304EB8303E2004FEA041EC65C5F1CC55D2D0205F4F855354321F80E5002F1010CC75DC61896F8028003F1030E10F80E50ED027F0947EAC80705F4C05517
:401CC0003D4321F81C5002F1020C10F80EE01F1DC55DAD0105F4FE5545EA9E0521F81C5002F1030CC75D96F8058003F1060E10F80E506D02FF0947EA480705F4F0553D43DD
:401D000021F81C5002F1040C10F80E7096F8078003F1080E10F80E502D033F0947EA081705F480553D4321F81C5002F1050C10F80EE003F10907C55DED0105F4FC5545EAEE
:401D40005E0521F81C5002F1060EC75D96F80AC00B33C55CAD02BF0947EA8C0705F4E0553D4321F81E500732C35C357BDB0843EA451321F8123001341F2C81D9BDE8F0816E
:401D8000F0B500242BE0A200131931F83450C5545F1C31F83450561C31F816E0C5F3012545EA8E05C5559F1C31F81650961C31F816E0C5F3831545EA0E15C555DF1C31F84D
:401DC0001650033231F81260C5F3051545EA8615C555043331F812209208C25401343F2CD1D9F0BDF0B500252CE0AC006319C65C5F1CC25D120202F44072324321F8352065
:401E000004F1010EC75D9E1C825D920102F4707242EA970221F81E20A71C10F806E0DE1C825D120102F47C7242EA1E1221F817200334825D03441E79930943EA860321F8CE
:401E4000143001353F2DD0D9F0BD00BFF0B5002223E002EB4204930031F813505E1C31F8167005F03F0545EA87150555671C31F816509E1C31F816E0C5F3830545EA0E1547
:401E8000C555023431F81650033331F81360C5F3011343EA8603035501323F2AD9D9F0BDF0B5002424E004EB4403A500C25C02F03F0221F834206F1C10F803E05E1C825D67
:401EC000920002F03C0242EA9E1221F81720AF1C865D0233C25C120102F0300242EA161221F817200335C35C9B0821F8153001343F2CD8D9F0BD00BF70B506460D4600241B
:401F000008E005EB44214FF4D07000FB0460FFF73BFE0134032CF4D970BD00BF70B506460D46002408E005EB44214FF4D07000FB0460FFF7A1FE0134032CF4D970BD00BF7D
:401F400070B506460D46002408E004EB8403980105EB44213044FFF713FF0134032CF4D970BD00BF70B506460D46002408E004EB8403980105EB44213044FFF733FF01348F
:401F8000032CF4D970BD00BF30B400240DE002EBC405035D134103F0010321F81530013200E00022072AF2D901341F2CF9D930BC704700BF38B504460D462022002107F0BC
:401FC000F9FE00210FE0605C02EBC10335F8133003F00103934003436354013200E00022072AF0D901311F29F9D938BD2DE9F8438146884617461E4600251BE0012E09D1F6
:4020000009EBC4206B02FA1808EB4421184400F039FB09E009EBC520630207EB452208EB0301184400F02EFB013400E00024032CE4DD0135032DF9DDBDE8F883F8B5074606
:402040000E461546002406E060022A463118384400F018FB0134032CF6DDF8BD30B5ADF5D05D85B0054620220023CDE9022300914FF4D052002304A8FFF72CFC002409E0BD
:4020800005EBC4214FF4D06004AB00FB0430FFF745FF0134032CF3DD0DF5D05D05B030BD30B5ADF5457D054620220023CDE9022300914FF44072002304A8FFF70BFC002471
:4020C00009E004EB4403990104AB194405EB4420FEF76EF90134032CF3D90DF5457D30BD2DE9F04FD7B00590894690467E22002106A807F05FFE3E242246002146A807F0E1
:4021000059FE2246002136A807F054FE2246002126A807F04FFEFE220021404607F04AFE002304939EE0059A049832F810B003461033114632F81330019300F1200331F879
:40214000133002930346303331F8133003934FF0000E80E039F81E700EF1100339F81360049B03EB0E0138F811201BFB07F312FA83F328F8113001F1200538F815200198B2
:4021800010FB06F312FA83F328F81530BC190BEB000356AA02EB410030F8402C14FB03F312FA83F320F8403C0EF1200339F813200EF1300339F8133001F1400C38F81CA033
:4021C000BDF8084014FB02F41AFA84F428F81C4001F1600C38F81CA0BDF80C4014FB03F41AFA84F428F81C40029CA446039CA444D41830F8C0AC1CFB04F41AFA84F420F83A
:40220000C04C3A4492B2029C5C44A4B206AF37F811C012FB04F71CFA87F70DF1180C2CF8117033449BB20199039E314489B23CF8157013FB01F617FA86F62CF815601A4433
:40224000214430F8803C12FB01F413FA84F420F8804C0EF1010EBEF10F0F7FF77BAF049B01330493049B0F2B7FF75DAF002029E056AB03EB400333F8801C06AA32F810203E
:4022800000F1200406AD35F814508A1A521B23F8802C33F8401C38F8102038F814408A1A121B23F8402C33F8C01C00F1400238F8122000F1600438F814408A1A121B23F8C9
:4022C000C02C01301E28D3DD00231EE003F1100206A931F8124056A901EB430131F8800C204406AC24F8120038F8124031F8400C204428F8120003F1500038F8104031F8D8
:40230000C02C224428F8102001331E2BDEDD00200EE006AB33F8102038F8103000F1400138F81110D31A5B1A06AA22F8103001303E28EEDD00210AE001F1200238F8120087
:4023400006AB33F81130034428F8123001313E29F2DD57B0BDE8F08F2DE9F043ADF6046D06460D461446FE273A4600210DF5C06007F020FD3A4600210DF5A06007F01AFD01
:402380003A4600210DF5806007F014FD3A460021C0A807F00FFD3A46002180A807F00AFD3A46002140A807F005FD3A460021684607F000FD002247E0500036F812E000F150
:4023C000800336F803C000F58073F35A00F5C071775A0EEB030189B20CEB07081FFA88F801EB0809C8EB01010DF5486828F812900DF5406828F8121003EB8E01490089B253
:4024000007EB8C081FFA88F801EB0809C8EB01010DF5386828F812900DF5306828F812109B0003EBC70303EB4C0373440DF5506121F812300DF5286323F812E00DF56063D7
:40244000184420F8807C01323F2AB5DD002344E0590035F8136001F18002AF5A01F58072AA5A01F5C071685AB11889B207EB000E1FFA8EFE01EB0E0CCEEB01010DF5106E42
:402480002EF813C00DF5086E2EF8131002EB8601490089B200EB870E1FFA8EFE01EB0E0CCEEB01010DF5006E2EF813C00DF5F06E2EF81310920002EBC00202EB4702324485
:4024C0000DF5186121F813200DF5E06222F813600DF5206222F8130001333F2BB8DD0DF5C0620DF520610DF55860FFF7F9FD0DF5A0620DF518610DF55060FFF7F1FD0DF5FC
:4025000080620DF510610DF54860FFF7E9FDC0AA0DF508610DF54060FFF7E2FD80AA0DF500610DF53860FFF7DBFD40AA0DF5F0610DF53060FFF7D4FD6A460DF5E0610DF5F4
:402540002860FFF7CDFD002193E00DF5C06333F811700DF5A06333F811C00DF5806333F81130C0AA32F8116080AA32F8112040A830F811003DF811E094441FFA8CFC801A78
:4025800080B2F61A7610B5B2D21B92B2A2EB8E1292B2520092B2024492B22B449BB2ACEB83181FFA88F8C3EB0808CEEB03039BB2DB1B9BB203EB430CCCEB0C1C1CFA88FCE0
:4025C0001FFA8CFCA2EBC3024AF6AB2808FB02F2C2F3CF02604480B2DFF8A48008EA0616B44448F6396606FB0CFCCCF34F063544ADB2C6EB06184FEA480CC0EB0C004EF658
:40260000EF6C0CFB00F0C0F38F009B1A361A34F811C0E64424F811E001F1400C34F81CE0704424F81C0001F1800E34F81E00024424F81E2001F1C00034F81020551B24F877
:40264000105001F5807234F8120010FA83F324F8123001F5A07334F8132012FA86F624F8136001F5C07234F812301F4424F8127001317E297FF769AF0DF6046DBDE8F083ED
:40268000F0FF0F0070B5ADF5806D05460E4614464FF480620021684607F08CFB6A4631462846FFF759FE4FF4807310E003F10042A2F58072A3F580713DF811103DF813000F
:4026C000081A34F81210014424F812100133B3F5007FEBDB0DF5806D70BD00BF38B50B4B1B7893B962B6094C094D211D284603F0CBFC04F13001284603F0AEFB03F0FCFB86
:40270000012003F07DFB0123237038BDB049020848CB081070B584B006460D46FFF7DEFF002410E00A4B009303AB07224FF086414FF0844003F0F8FB012003F061FB9DF8A1
:402740000C3033550134AC42ECD304B070BD00BF0C4A020870B5ADF5415D84B004460D464FF40062002114A807F024FB0CAE20213046FFF7CFFF20220023CDE902230096DA
:402780003046FFF7A7F8202104A8FFF7C3FF31460DF582501030FFF761FC04A90DF50560FFF77EFC012314AA0DF505610DF582501030FFF71BFC00260EE014A902EB0620B8
:4027C00031F810300433DB1021F81030013200E00022FF2AF1DD0136032EF9DD0DF505612846FFF789FB14A92046FFF7A9FB0CAD0FCDC4F80005C4F80415C4F80825C4F8AE
:402800000C350FCDC4F81005C4F81415C4F81825C4F81C350DF5415D04B070BDF0B5ADF5705D81B006460F4615461C464FF4006200210DF5406007F0BDFA4FF400720021AF
:402840000DF5206007F0B6FA05F5A0610DF5E050FFF704FC39460DF5A050FFF721FC00230DF540620DF5A0510DF5E050FFF7BEFB00270FE00DF5406102EB072031F81030B7
:402880000433DB1021F81030013200E00022FF2AF0DD0137032FF9DD0DF540612046FFF74FFB69462846FFF75DFB0DF520620DF5A0516846FFF7C2FB0DF500613046FFF7D7
:4028C00063FB00220EE00DF5206131F812300DF5006030F81200A3EB402304331B1121F812300132FF2AEEDD0DF5206104F5A060FFF7ACFA0DF5705D01B0F0BD70B5ADF5FE
:40290000A05D06460D4614464FF4007200210DEB020007F04FFA0DF540613046FFF7FEFA0DF580612846FFF71DFB80AA0DF540610DF58060FFF782FB694605F5A060FFF76A
:40294000AFFA00220BE080A931F81230FC333DF81200A3EB00135B1221F812300132FF2AF1DD80A92046FFF725FB0DF5A05D70BD831EDBB2022B06D8042807D10122054B83
:402980001A60002070474FF0FF3070476FF00100704700BF1C4A02084FF4A460704700BF4FF43E60704700BF4FF4B860704700BF2020704708B5084B1B6823B130B141B145
:4029C000FFF74EF808BD4FF0FF3008BD6FF0010008BD6FF0010008BD1C4A020808B50A4B1B682BB138B149B15AB1FFF757F808BD4FF0FF3008BD6FF0010008BD6FF00100C8
:402A000008BD6FF0010008BD1C4A020808B50A4B1B682BB138B149B15AB1FFF771F808BD4FF0FF3008BD6FF0010008BD6FF0010008BD6FF0010008BD1C4A02082DE970031E
:402A400000264FF000084FF0000909E0845D8B5D5C40E4B2002548EA040849EA050901369642F3D3D8F1000869EB49094FEAD970BDE87003704700BF70B45B42DBB200254A
:402A800006E04C5D465D74401C407440445501359542F6D370BC704708B5012000F0CAFE08BD00BF704700BF5C4AD2F8803303F00F0303F1D00152F8212002F00702032A9E
:402AC00004D0042A05D092B9554914E0554A116811E003F1C002514951F8222002F01F02112A06D0132A04D04FF4FA4103E04E4901E04FF400418BBB484BD3F8902502F061
:402B00000100D3F88825C2F30172D3F8883513F0405F07D0414BD3F88835C3F30173012B02D102E0012300E0002303B108B9032A46D13A48D0F88025C2F31103D0F88425CB
:402B4000C2F30C02D0F88005C0F300600130B1FBF2F202FB03F2B2FBF0F131E0012B2FD12E4BD3F8402602F00100D3F80026C2F30172D3F8003613F0405F07D0274BD3F847
:402B80000036C3F30173012B02D102E0012300E0002303B108B9032A12D12048D0F8002602F07F02D0F80036C3F30423D0F80006C0F3044002FB01F2B2FBF3F2B2FBF0F1AF
:402BC000164BD3F88033C3F3011321FA03F215494A601648D0F89030C3F3072301330069000E0130B2FBF0F08860B2FBF3F3CB600B6103F5742202F23F220D48A0FB0202FC
:402C0000C2F387420A7503F2E7330A4AA2FB03239B098B61DB03CB61704700BF0000264000127A008C42020800366E010000214083DE1B43D34D621008B50D4800F0E4FE5C
:402C4000FFF730FFFFF730FF00221146042000F0B9FB084800F04CFC074B1B6893F8513013B1064800F0B4FC00F0F6FA08BD00BFB4CF0810204A0208C80D030878CB081000
:402C800008B500F0BAFE074AD2F8883043F47003C2F88830BFF34F8FBFF36F8F00F0B1FE08BD00BF00ED00E0074B19680A6842F080720A605A68002111609A68136843F0B9
:402CC00001031360704700BFAC420208054B5868054B1B68054AA2FB03239B0CB0FBF3F0704700BF001000E09842020883DE1B4310B582B00446002002F0F6FA0090C0F534
:402D000000534FF400522146024807F039FD02B010BD00BFACCB08102DE9F04784B04FF0FF31624B186801F0F7FD614807F09AFD0420FFF71DFE10B15E4807F093FDFFF7AE
:402D40002FFE0446FFF728FE0646FFF72DFE0546FFF72EFE80460121204607F009F80746554C20600121304607F002F8064660600121284606F0FCFF0546A0600121404629
:402D800006F0F6FFE06017B10EB105B118B94B4807F068FD02E04A4807F064FDFFF784FF4FF0000A55464FF000084FF00009CDE9028946464F4672E001352946414807F05A
:402DC000DFFCFFF783FF04463B4B19685868FFF7F1FD10B13C4807F045FDFFF777FF041B361947F100072A46EB17CDE900233046394606F031FE02462146344807F0C0FCB1
:402E00003348FFF775FFFFF761FF04462A4B5A68D9689868FFF7E2FD10B12E4807F022FDFFF754FF041BDDE90223121943F1000310461946CDE90201DDE9002306F00CFE67
:402E400002462146244807F09BFC2448FFF750FFFFF73CFF0446184B1A689968D868FFF7D5FD10B11E4807F0FDFCFFF72FFF041B18EB040849F10009DDE9002340464946E5
:402E800006F0EAFD02462146164807F079FC1648FFF72EFF154807F0E5FC0AF1010ABAF1630F89DD124807F0DDFCFEE7C40D0308F0CB081014CC0810A04B02082CCC0810C2
:402EC00048CC081064CC081080CC081090CC0810B8CC0810C0CC0810D0CC0810F8CC081000CD081010CD081038CD081040CD08106CCD081000B583B062B60024019402236B
:402F0000009323464FF4C8720849094801F044FF01940123009323464FF400520549064801F03AFF01F06AFFFEE700BF74CD0810B12F081080CD0810192D081000B583B038
:402F4000164B0022C3F8C82F0422C3F8C02FD3F8C03F134BB3F90030002B09DB5A0903F01F03012101FA03F360320E4941F8223002A9002341F8043D0B4B186801F0C2FB6E
:402F8000019B43B13BB14FF08052084B1A60BFF34F8FBFF36F8F03B05DF804FB00006640B0CD081000E100E0B04B020804ED00E010B503220021012001F044FA2E4B186052
:402FC00002F076FE2D4B1868002302221946406807F08CFC2A4807F045FC03220021012001F030FA274B1860274C2849204600F05BFCB4F90030002B08DB590903F01F039D
:40300000012202FA03F3224A42F821300422214BC3F8C82F00231A4619461748006801F037FA4FF0FF31174B186801F075FC16E0124B186842685368013B5360002B04DA92
:40304000416807F017FCC0B204E042681368591C116018783F2802D10F4807F003FC0D4BD3F80833C3F30803002BE1D10422094BC3F8C82FD5E700BFC40D03081C4302083D
:403080008CCD0810B04B0208B0CD08103D2F081000E100E000006640A0CD081010B504462146034800F0E0FC0028F9D010BD00BF00006640054BD3F80833C3F30803002BA3
:4030C000F8D0024BD3F84003704700BF000066401F4B98422DD00CD840282ED003D8E8B1102828D02FE0802829D0B0F5807F28D029E0184B984228D006D8B0F1204F0DD00D
:40310000154B984212D01EE0144B98420AD00133984209D0023B984215D101E0002070470F4870470F4870470F4870474FF4A0007047074870470D4870470D4870470D488F
:403140007047034870470C4870474FF4A400704706005200010000F0090000A0040000F0010052000200520003005200010050000200500005005200FF00520038B5124B76
:403180001B6893F83130012B04D840F2C3110F4800F0C6FB0C4B1D682A6AB5F8B03013442C46D5F8B420D358002B0BDB084B1868FFF78EFF6B6801229A6063689B68002BA8
:4031C000FBD138BD034838BDC80D0308B8CD0810B44B0208020050001A4B186128B102230370FF23437000234380174B1B6893F850202AB300B583B0B3F93830ADF800305E
:40320000002301931149684600F04EFBBDF90030002B08DB590903F01F03012202FA03F30B4A42F82130084B1B6893F8513023B102220849012000F077FA03B05DF804FB82
:40324000704700BFB44B0208C80D0308D143020800E100E08944020808B50248FFF7BCFF08BD00BFC84B020838B50B4B1B68D3F8B4301B58002B0DDA0D4604460B0C1B0413
:4032800023B140F2D521054800F04AFBA9B26160002038BD024838BDC80D0308F8CD081001008A0038B50368002B01DA002300E0094B73B90D460446C2600B0C1B0423B12E
:4032C00040F2BB21054800F02BFBA9B2A160002038BD014838BD00BF01008A00F8CD081038B504460D4619B99921084800F018FB074B1B68D3F8B4301B59002B03DAE368D3
:403300002B60002038BD034838BD00BF38CE0810C80D030801008A00254B1B6893F8313083423AD900293AD00B6813F01F0F38D170B50D4604461E4B1B6893F8313098425A
:4033400004D340F2C3111B4800F0EAFA184B1B68186AB3F8B03004FB0304174E34602A68D2080021686806F025FD00212046FFF77BFF346825B940F293310E4800F0D0FA5B
:403380002A4600212046FFF78DFF60B900210A4B1868FFF769FF40B970BD084870470748704706487047064870BD054870BD00BFC80D0308F8CD0810CC4B020803018A00CF
:4033C00001018A0010B504461346B2B9A9B9124B1B6893F83130984204D340F2C3110F4800F09EFA0C4B1B681A6AB3F8B03004FB03240B4B1C60002010BD43B149B1084A9C
:4034000051609360111D2046FFF786FF10BD054810BD044810BD00BFC80D0308F8CD0810CC4B020803018A002DE9F0411B4B1B68DC68236883422CD90D464609A0EB461062
:40344000012303FA00F819B900F0D7FA074600E00027124B18680368002B01DA002300E00F4B83B9626852F8263018EA030F05D023EA080342F82630002400E0094C0021F0
:40348000FFF7F2FE00E0084C25B9384600F0B9FA00E0064C2046BDE8F08100BFCC4B020801008A00020188000301880004018A000B4B1B68DB681A6882420CD94109A0EB18
:4034C0004110012202FA00F05B6853F82130184203D004487047044870470448704700BFCC4B02080101880004018A0000018800024B1B680BB9014B18607047D84B020819
:403500002DE9F8430446884691461D46089F2C4B1B681BB9B5212B4800F002FA284B1B682C2000FB04F01C18EEB21E50C5F3072363602D0CA560244B1B6893F831309E422A
:4035400004D340F2C311214800F0EAF91E4B1B68196AB3F8B02006FB02162661666893F832309E4204D340F2DF11184800F0D8F9154B1B681D6A803605EB46156561A668B4
:40358000330C1B0423B14FF4FF71104800F0C8F9330C1B0423B140F2FF110C4800F0C0F9B3B243EA0646AE60C4F81C90C4F820800023A36117B1B7F90030A381BDE8F883E9
:4035C000D84B020878CE0810C80D0308F8CD0810F0B58FB0044618B95221274800F0A0F9A369072B03D95621234800F099F9E36A1BB95821204800F093F9236B1BB9592141
:403600001D4800F08DF907AD04F114060FCE0FC537682F6002AD26460FCE0FC533682B60164B1B68B3F93620079B1344ADF83030089B0D93A26AE16A0CAD00953B460A982C
:40364000FFF75EFF00210091069B0A460598FFF757FF216B284600F027F9BDF93030002B08DB590903F01F03012202FA03F3044A42F821300FB0F0BD78CE0810C80D03082E
:4036800000E100E0F8B506460F461D4614461AB9FD211F4800F044F91E4B1B681BB9FE211B4800F03DF91B4B1B682C2101FB063001FB07314B68012202FA03F31B04466820
:4036C00002FA06F60269EAB18F69EFB91268002A01DA002200E0104AC2B92288134323600369DC6001238B614D620469330C1B0423B140F2BB21094800F012F9B2B2A2608D
:403700000020F8BD0648F8BD0648F8BD0548F8BD78CE0810D84B020801008A00F8CD081004028A0007028A00F8B505460F4616460E4B1B6823B94FF4AF710D4800F0F0F8A5
:403740000A4B1B682C2404FB0534236A23B94FF4B171074800F0E4F8E369B34204D9236A43F826700020F8BD0248F8BDD84B020878CE08100A028A0070B582B00023019381
:40378000044620B940F2D111284800F0C9F8236923B94FF4E971254800F0C2F8636923B940F2D311214800F0BBF8236A23B94FF4EA711E4800F0B4F86369DD682A0C20D08B
:4037C00012041A601B682069194B1B68D3F8B430C358002B15DA01A9FFF782FD60B9019803681E0CDBB2E269934206D2226A52F8233013B1984700E0002631462069FFF7AF
:4038000033FDADB275B16369ADB21D601B68636A1BB198470023636202E0A36A03B198470023A36163691B6802B070BD78CE0810C80D030810B50446074B1B6823B940F241
:40384000B111064800F06CF8034B1B682C2000FB0430FFF791FF10BDD84B020878CE081038B50D4B9A680D4B9A420FD10D46044621B940F237110A4800F052F804F11003DA
:40388000064A52F8230042F8235038BD1030054B53F8200038BD00BF00ED00E000400208B8CE08100000081048B338B504460D464368072B03D93221134800F031F8B4F97B
:4038C00000306268002B08DB5201D2B203F1604303F5614383F8002305E003F00F035201D2B20A49CA540A4B9A680A4B9A4208D12946B4F90000FFF7B3FF002038BD06485E
:403900007047002038BD00BFB8CE081014ED00E000ED00E0004002080100560001BEFEE738B50D46044C18220146204607F090F8A5610020FFF7F2FF00490208FEE700BF71
:4039400008B50268254BDA6142681A6282685A62C2689A620269DA6242691A6382695A63C2699A631E4A916AD963D16A1964516A5964516B9964926BDA64F1EE103A13F0F5
:40398000900F27D0026A154B1A65426A5A65826A9A65C26ADA65026B1A66426B5A66826B9A66C26BDA66026C1A67426C5A67826C9A67C26CDA67026DC3F88020426DC3F8C1
:4039C0008420826DC3F88820C26DC3F88C20026EC3F89020FFF7B2FF08BD00BF0049020800ED00E0000000000230800803D001300238FCD100BF00BF7047EFF3108072B681
:403A0000704780F310887047014B1860704700BFC80D030810B4D0F8003303F00F03072B06D900230DE0D0F84043CC54013300E000239342F7D306E0D0F8404321F8134030
:403A400001339342F8D35DF8044B704710B51446D0F80833C3F308039A4200D31C462246FFF7D8FF204610BD036813F4006F01D0802200E04022D0F80832C3F3080393428D
:403A800003D0C0F84012012070470020704700BF10B4D0F8003203F00F03072B06D900230DE0CC5CC0F84042013300E000239342F7D306E031F81340C0F8404201339342FA
:403AC000F8D35DF8044B704710B51446036813F4006F01D0802200E04022D0F80832C3F30803D31AA34200D81C462246FFF7D0FF204610BD2DE9F84305460C46036813F45C
:403B0000006F02D04FF0800801E04FF04008D5F8007207F00F07A26A012A19D9D4F82490E262561EB9F1000F00D026B940F273512548FFF7F5FE324649462846FFF7C4FF86
:403B4000A36A1B1AA362072F00D9400048446062D5F80832C3F30803984533D0A36A012B30D10023A362072F02D8636A1E7801E0636A1E88FFF741FFC5F840624FF4007345
:403B8000C5F8803FD5F8803FFFF73BFFD5F8883F23F4007222F0010242F4007623F4EE6323F0030323B140F236410848FFF7B8FEC5F8886F236843F002032360236B0BB1B1
:403BC00001209847BDE8F8836CD00810ACD008102DE9F04105460C46036813F4006F01D0802600E040267608A769D4F81C8017B1B8F1000F04D14FF499613148FFF790FEB6
:403C0000424639462846FFF721FF236A03442362E3691B1AE36173BBA368FBB1E3689E4201D8013E00E05E1E2B6813F4006F01D0802300E040239E4204D34FF423712148A0
:403C4000FFF76EFED5F8043323F0FF03F6B21E43C5F804630123C5F8C83F02E00023C5F8C83F636823F001036360236B33B304209847BDE8F081A169D5F8002302F00F02BC
:403C8000072A00D940000844A0619E4216D95C1E2B6813F4006F01D0802300E040239C4204D34FF423710748FFF73AFED5F8043323F0FF02E3B21343C5F80433BDE8F0814E
:403CC0006CD00810ACD00810002800F0A48170B50546002900F0A18116460C460B78022B03D93F21A248FFF71BFE637B023BDBB2062B03D940219E48FFF712FEA37B3BB155
:403D0000022B05D0032B03D041219948FFF708FE94F82130012B03D942219548FFF700FE94F82830012B03D943219148FFF7F8FD2378012B06D86368083B082B94BF0023B8
:403D4000012307E0A37F2BB16368013B062B94BF002301231BB145218548FFF7E1FDA368053B042B03D946218148FFF7D9FD6369FF2B03D947217E48FFF7D2FDA369FF2B48
:403D800003D948217A48FFF7CBFDA37C6BB1237833B9A368092B05D1A37B2BB1012304E0012302E0012300E000231BB14A217048FFF7B6FD636B23F4366323F00D031BB133
:403DC0004C216B48FFF7ACFDE36B23F4EE6323F003031BB14D216648FFF7A2FD2378022B01D1A37F13B16268013A00E00022237F13B14FF4803100E00021A368082B02D8BE
:403E00004FF4006300E000230B4302F00F02134343F000732B60226B2B6813F4006F01D0802300E040239A4203D362215048FFF777FDA26B2B6813F4006F01D0802300E013
:403E400040239A4203D363214948FFF769FD626A2B6813F4006F01D0802300E040239A4203D364214248FFF75BFD23781B0603F040732B64637F0BB1402200E00022A37C0F
:403E800013B14FF4806300E000231343227C12B14FF4807200E000221343627C12B14FF4007200E000221A43E36A013B1B0403F470231343627B013A02F007021343A27B0E
:403EC000120102F030021343AB64237B13B14FF4807200E00022E37B23B92378022B03D1012302E0012300E0002313B14FF4007300E000231A43A368013B03F00F0313430E
:403F0000C5F80033227DA3691B0403F47F031343C5F81033E26AD5F8003303F00F0303339A4201D3102A03D97A211148FFF7F8FCE37F23B12378012B03D0002302E00023D5
:403F400000E0012313B14FF4807200E00022637B013B03F007031A43A37B1B0103F0300313436B64237B2BB14FF4807203E000BFF0D008100022A368013B03F00F0313435C
:403F80002278012A02D14FF4803200E000221343C5F8003294F83030C5F8043394F8203013B14FF0007200E0002294F82130012B02D14FF0807300E00023134394F82820BF
:403FC000012A02D14FF4803200E00022134394F8242013432B6594F83830C5F80432636B23F4926323F002031B051B0DC5F8C83FE36B23F08C035B055B0DC5F8883F76B178
:40400000002070603060B060F0603062F0623063044B736370BD04487047034870BD002070BD00BFEFCDAB000160AA000B694A69934202D34869181A7047CA684869101A66
:40404000184470472DE9F04107460D46036813F4006F02D04FF0800801E04FF040084FEA5808D7F80863C6F308062C6926E00134EB689C4200D100246B699C420FD12B6BAC
:404080000BB1082098476B699C4208D10023C7F8C83F0CB1013C13E0EC68013C10E0D7F84023D7F8003303F00F03072B02D8AB681A5502E0AB6823F81420013E002ED6D13C
:4040C0002C61EC6829463846FFF7B0FF201A804519D908B1441E00E000243B6813F4006F01D0802300E040239C4204D34FF423710648FFF715FCD7F8040320F0FF03E0B212
:404100001843C7F80403BDE8F08100BFACD0081038B504460D46D0F8003E13F0080F35D0D0F8CC3F13F448730AD04A681A434A60C0F8C03FD0F8C03F0B6B0BB1102098475F
:40414000D4F8CC3F13F4006F09D06B6843F400636B604FF40063C4F8C03FD4F8C03FD4F8CC3F13F0010F11D0EB6923B129462046FFF72EFD05E0AB681BB129462046FFF73D
:4041800061FF0123C4F8C03FD4F8C03FD4F8003E13F0040F2ED0D4F88C3F13F4A0630AD02A681A432A60C4F8803FD4F8803F2B6B0BB120209847D4F88C3F13F0010F08D0EA
:4041C00029462046FFF796FC0123C4F8803FD4F8803FD4F88C3F13F4007F0BD00022C4F8882F2B6823F001032B60EA622B6B0BB10220984738BD00BF00F1080343604FF045
:40420000FF328260C360036100230360704700BF00230361704700BF43684B609A688A609A68516099600861036801330360704730B40D68B5F1FF3F01D1026907E000F189
:40424000080200E01A4653681C68A542FAD253684B6099608A605160086103680133036030BC704703694268816891608268416851605A68904201D182685A600022026137
:404280001A68013A1A601868704700BF10B5044601F080FAA26BE36B9A4201D1012400E0002401F099FA204610BD00BF10B5044601F070FAA36B0BB9012400E0002401F059
:4042C0008BFA204610BD00BF70B504461646856B026CFAB166B9806805F061FDA268236C1344A3606268934214D32368A36011E0C06805F054FD236C5B42E2681A44E2609D
:4043000021688A4202D262681344E360022E01D105B1013D0135A563002070BD026C72B110B50346C4681444C4604068844201D31868D8600846D96805F031FD10BD7047F8
:4043400038B5054601F026FA95F8454064B20AE06B6A53B105F1240000F030FF08B100F0BBFF013C64B2002CF2DCFF2385F8453001F032FA01F00EFA95F8444064B20AE0E5
:404380002B6953B105F1100000F018FF08B100F0A3FF013C64B2002CF2DCFF2385F8443001F01AFA38BD00BF38B540B94FF03F0383F31188BFF36F8FBFF34F8FFEE704460F
:4043C0000D4601F0E7F92168E26B236C03FB021060600020A063A160013A02FB0313E360FF2384F8443084F845307DB92369ABB104F1100000F0E2FE80B14FF08052094B23
:404400001A60BFF34F8FBFF36F8F07E004F11000FFF7F2FE04F12400FFF7EEFE01F0DCF9012038BD04ED00E010B5029B0C4609B91B6000E01A60D8631C6401211846FFF7CC
:40444000B3FF10BD40B94FF03F0383F31188BFF36F8FBFF34F8FFEE7F0B583B0034611B101FB00F000E000201D4617460C46483001F02AFB064638B100903B4600F148021F
:4044800021462846FFF7D0FF304603B0F0BD00BFF0B585B0019240B94FF03F0383F31188BFF36F8FBFF34F8FFEE7044619B9026C1AB9012202E0012200E0002242B94FF0F1
:4044C0003F0383F31188BFF36F8FBFF34F8FFEE7022B03D1E26B012A02D102E0012200E0002242B94FF03F0383F31188BFF36F8FBFF34F8FFEE71D460E4600F001FF18B9CB
:40450000019B1BB9012302E0012300E0002343B94FF03F0383F31188BFF36F8FBFF34F8FFEE7002701F036F9A26BE36B9A4201D3022D21D12A4631462046FFF7C5FE636AE7
:404540006BB104F1240000F039FE88B14FF08052324B1A60BFF34F8FBFF36F8F08E038B14FF080522D4B1A60BFF34F8FBFF36F8F01F032F901204EE0019B1BB901F02CF959
:40458000002048E01FB902A800F05CFE012701F023F900F071FC01F0FDF894F844305BB2B3F1FF3F02D1002384F8443094F845305BB2B3F1FF3F02D1002384F8453001F0D2
:4045C0000BF901A902A800F047FEF0B92046FFF75DFEA0B1019904F1100000F0B7FD2046FFF7AEFE00F0D6FC00289BD14FF080520A4B1A60BFF34F8FBFF36F8F92E72046DD
:40460000FFF79EFE00F0C6FC8CE72046FFF798FE00F0C0FC002005B0F0BD00BF04ED00E02DE9F84340B94FF03F0383F31188BFF36F8FBFF34F8FFEE7044619B9006C18B9BB
:40464000012002E0012000E0002040B94FF03F0383F31188BFF36F8FBFF34F8FFEE7022B03D1E06B012802D102E0012000E0002040B94FF03F0383F31188BFF36F8FBFF332
:404680004F8FFEE71F469046894601F087F9EFF311864FF03F0383F31188BFF36F8FBFF34F8FA26BE36B9A4201D3022F1ED194F845506DB23A4649462046FFF705FEB5F1F4
:4046C000FF3F0DD1636A9BB104F1240000F076FD80B1B8F1000F0FD00120C8F800000CE06B1C5BB284F84530012006E0002004E0012002E0012000E0012086F31188BDE808
:40470000F88300BF40B94FF03F0383F31188BFF36F8FBFF34F8FFEE770B50446036C43B14FF03F0383F31188BFF36F8FBFF34F8FFEE703681BB943681BB9012302E0012322
:4047400000E0002343B94FF03F0383F31188BFF36F8FBFF34F8FFEE70E4601F01FF9EFF311854FF03F0383F31188BFF36F8FBFF34F8FA26BE36B9A4218D294F845305BB2B1
:404780000132A263B3F1FF3F0AD1636A83B104F1240000F013FD68B176B1012030600CE001335BB284F84530012006E0002004E0012002E0012000E0012085F3118870BD6D
:4047C000F0B585B0019240B94FF03F0383F31188BFF36F8FBFF34F8FFEE7044619B9036C1BB9012302E0012300E0002343B94FF03F0383F31188BFF36F8FBFF34F8FFEE761
:404800000E4600F07DFD18B9019B1BB9012302E0012300E0002343B94FF03F0383F31188BFF36F8FBFF34F8FFEE7002700F0B2FFA56BC5B131462046FFF770FD013DA563C7
:40484000236963B104F1100000F0B8FC38B14FF08052304B1A60BFF34F8FBFF36F8F00F0BBFF012053E0019B1BB900F0B5FF00204DE01FB902A800F0E5FC012700F0ACFF4B
:4048800000F0FAFA00F086FF94F844305BB2B3F1FF3F02D1002384F8443094F845305BB2B3F1FF3F02D1002384F8453000F094FF01A902A800F0D0FCF0B92046FFF7F6FC69
:4048C000A0B1019904F1240000F040FC2046FFF737FD00F05FFB0028A8D14FF080520D4B1A60BFF34F8FBFF36F8F9FE72046FFF727FD00F04FFB99E72046FFF721FD00F0C0
:4049000049FB2046FFF7D2FC00288FD0002005B0F0BD00BF04ED00E030B585B0019140B94FF03F0383F31188BFF36F8FBFF34F8FFEE70446036C43B14FF03F0383F31188D9
:40494000BFF36F8FBFF34F8FFEE700F0D9FC18B9019B1BB9012302E0012300E0002343B94FF03F0383F31188BFF36F8FBFF34F8FFEE7002500F00EFFA36BA3B1013BA36368
:40498000236963B104F1100000F018FC38B14FF08052304B1A60BFF34F8FBFF36F8F00F01BFF012053E0019B1BB900F015FF00204DE01DB902A800F045FC012500F00CFF2E
:4049C00000F05AFA00F0E6FE94F844305BB2B3F1FF3F02D1002384F8443094F845305BB2B3F1FF3F02D1002384F8453000F0F4FE01A902A800F030FCF0B92046FFF756FC4A
:404A0000A0B1019904F1240000F0A0FB2046FFF797FC00F0BFFA0028ACD14FF080520D4B1A60BFF34F8FBFF36F8FA3E72046FFF787FC00F0AFFA9DE72046FFF781FC00F038
:404A4000A9FA2046FFF732FC002893D0002005B030BD00BF04ED00E000230BE0074A52F8332032B9054A42F8331002EBC303586070470133092BF1D9704700BFCC0D0308CB
:404A800070B504460D46164600F084FE94F844305BB2B3F1FF3F02D1002384F8443094F845305BB2B3F1FF3F02D1002384F8453000F092FEA36B2BB93246294604F1240048
:404AC00000F05EFB2046FFF73BFC70BD002301E0013001330278A52AFAD0C3F38F007047094B9B6A1B680BB9012300E0002323B14FF0FF32044BDA627047034B9A6AD2685C
:404B0000D2685268DA627047184C020810B50446006B01F05FF8204601F05CF810BD00BF2DE9F0478246894615469846089F099E0A9C9200A521206B05F03CF9236B05F185
:404B40008042013A03EB820525F00705002308E019F80310E21882F8341019F8032012B101330F2BF4D9002384F84330062F00D90627E762201DFFF74BFB04F11800FFF777
:404B800047FB2461C7F10703A3616462002306E003F1100204EB8202002151600133042BF6D90023A36584F85C3042465146284600F0C8FD206006B13460BDE8F08700BF01
:404BC00070B5002407E004EB8402930010481844FFF712FB0134062CF5D90E4C04F1BC063046FFF709FB04F1D0052846FFF704FB04F11400FFF700FB04F1E400FFF7FCFA24
:404C00002046FFF7F9FAA662C4F8F85070BD00BF484C0208184C020838B5044600F0BAFD264BD3F8FC200132C3F8FC20D3F800314BB9224BC3F80041D3F8FC30012B10D174
:404C4000FFF7BEFF0DE01D4BD3F804314BB91B4BD3F80031DA6AE36A9A4202D8174BC3F80041164AD2F808310133C2F80831E36AD2F80C21934202D9104AC2F80C310F4DF6
:404C800005F1300003EB83039A00211D1044FFF7C3FA00F0A1FDD5F804316BB1D5F80031DA6AE36A9A4207D24FF08052044B1A60BFF34F8FBFF36F8F38BD00BF184C02084F
:404CC00004ED00E038B517E000F064FD0D4CD4F8F030DD68281DFFF7C5FAD4F8FC30013BC4F8FC30D4F81031013BC4F8103100F073FD2846FFF70AFF024BD3F81031002B77
:404D0000E2D138BD184C020808B5FFF7DBFF064B1B6B012BF9D94FF08052044B1A60BFF34F8FBFF36F8FF0E7184C020804ED00E070B504460E46174BD3F81451D3F80001AA
:404D40000430FFF78FFAB4F1FF3F07D136B11148D0F800110431FFF75FFA70BD2C440D4BD3F800315C60A54208D90A4BD3F8F800D3F800110431FFF75BFA70BD054DA86AAE
:404D8000D5F800110431FFF753FAEB6A9C4200D2EC6270BD184C02082DE9F04385B006460F4615469846900000F08EFE60B18146602000F089FE044610B1C0F8309004E015
:404DC000484600F007FF00E000248CB10023039302940D9B01930C9B009343462A4639463046FFF79DFE2046FFF716FF012001E04FF0FF3005B0BDE8F08300BF00B583B055
:404E0000194B019300230093802218491848FFF7C3FF012801D100F0D9FA012814D14FF03F0383F31188BFF36F8FBFF34F8F114B4FF0FF32DA620122C3F804210022C3F825
:404E4000142100F049FD0BE0B0F1FF3F08D14FF03F0383F31188BFF36F8FBFF34F8FFEE703B05DF804FB00BF344D020830D10810094D0810184C0208034AD2F81831013395
:404E8000C2F81831704700BF184C0208014BD3F814017047184C02082DE9F0413C4BD3F81831002B65D13A4BD3F814410134C3F81441CCB99B6A1B6843B14FF03F0383F395
:404EC0001188BFF36F8FBFF34F8FFEE7304B9A6AD3F8F8109962C3F8F820D3F820210132C3F82021FFF7FCFD294BDB6A9C4203D2002645E0012600E00026254B9B6A1B68CE
:404F00000BB9012300E0002323B14FF0FF32204BDA6235E01E4B9B6ADB68DD686B689C4202D21B4AD3622BE005F104084046FFF799F9AB6A1BB105F11800FFF793F9EB6A90
:404F4000134AD2F80C21934202D9114AC2F80C310F4F07F1300003EB83039A0041461044FFF75AF9EA6AD7F80031DB6A9A42C1D2C3E7074AD2F824310133C2F82431002698
:404F8000034BD3F8283103B101263046BDE8F081184C0208394BD3F8183143B94FF03F0383F31188BFF36F8FBFF34F8FFEE770B500F0F0FB314BD3F81821013AC3F81821B2
:404FC000D3F81831002B52D12C4BD3F8FC303BBB00244FE0294D2B6ADC6804F11800FFF741F9261D3046FFF73DF9E36AD5F80C21934201D9C5F80C31204D05F1300003EBB6
:4050000083039A0031461044FFF706F9E26AD5F80031DB6A9A4204D30122C5F8282100E00024164B5B69002BD4D10CB1FFF758FD124BD3F8244164B1FFF72EFF18B1012273
:405040000E4BC3F82821013CF6D100220B4BC3F824210A4BD3F828315BB14FF08052084B1A60BFF34F8FBFF36F8F012402E0002400E0002400F0B0FB204670BD184C0208E9
:4050800004ED00E0304BD3F8183123B101222E4BC3F82821704710B52B4B0022C3F82821D3F800311B6B1A68B2F1A53F0BD15A68B2F1A53F07D19A68B2F1A53F03D1DB68DC
:4050C000B3F1A53F07D0204BD3F80001D3F80011343100F08FFC1C4BD3F80C310AE043B94FF03F0383F31188BFF36F8FBFF34F8FFEE7013B03EB83018A0013490A44126BF5
:40510000002AECD008469900CC18A2000244546B64685463303019448A0008320244944206D1606803EB83018A0007490A445063054903EB830082000A44526BD268C1F8CC
:405140000021C1F80C3110BD184C020840B94FF03F0383F31188BFF36F8FBFF34F8FFEE710B50C46054BD3F800111831FFF760F801212046FFF7DCFD10BD00BF184C020804
:4051800038B540B94FF03F0383F31188BFF36F8FBFF34F8FFEE70C461546074AD2F800111831FFF739F80DB14FF0FF3429462046FFF7BEFD38BD00BF184C020838B5C3681B
:4051C000DC6844B94FF03F0383F31188BFF36F8FBFF34F8FFEE704F118052846FFF742F8154BD3F81831ABB9251D2846FFF73AF8E36A114AD2F80C21934202D90E4AC2F8F8
:405200000C3103EB83039A0029460C481044FFF703F803E029460A48FEF7FEFFE26A064BD3F80031DB6A9A4204D90120024BC3F8280138BD002038BD184C0208484C020886
:405240002C4C0208034BD3F820210260D3F8143143607047184C0208F8B540B94FF03F0383F31188BFF36F8FBFF34F8FFEE7054641B94FF03F0383F31188BFF36F8FBFF386
:405280004F8FFEE70C4600F085FA124BD3F814016968421A2368B3F1FF3F14D02F680D4ED6F82061B74201D088420ED29A4206D29B1A23602846FFF7C5FF002406E00023B9
:4052C0002360012402E0002400E0012400F084FA2046F8BD184C02080122024BC3F82821704700BF184C020808B5034610B9034BD3F80031186BFFF7E9FB08BD184C020803
:40530000064BD3F804312BB1044BD3F818311BB9022070470120704700207047184C0208064B1A681368B3FA83F35B09036013B9D368186870470020704700BF444D02086C
:4053400008B54160006191420AD8D21A83699A4211D2011D0A4B5868FEF76AFF002008BD9A4201D2994208D2011D054B1868FEF75FFF002008BD012008BD012008BD00BF97
:40538000444D020870B500F005FA0E4B9B68B3B90C4C04F10C063046FEF72EFF04F120052846FEF729FF2660656000220C210A20FFF748F8A06010B10349FFF74DFB00F0A5
:4053C0000BFA70BD444D020838D1081000B583B0FFF7D8FF0D4B9B6853B10D4B019303230093002380220B490B48FFF7D5FC00E0002040B94FF03F0383F31188BFF36F8F9A
:40540000BFF34F8FFEE703B05DF804FB444D0208784D020840D10810B156081040B94FF03F0383F31188BFF36F8FBFF34F8FFEE730B585B015460446124A9068F0B11A467C
:40544000019102950394052913DCFFF759FF022807D10023089A01A90A488068FFF718F80DE000231A4601A906488068FFF710F805E0002301A9FFF7D3F800E0002005B0DA
:4054800030BD00BF444D020870B582B029E0DB681E68DC68251D2846FEF7E4FE636A20469847E369012B1CD1A36933449E4207D2636024612946104B1868FEF7B9FE10E0D0
:4054C000002100910B4632462046FFF7A7FF40B94FF03F0383F31188BFF36F8FBFF34F8FFEE7054B1B681A68002AD0D1024A51681160536002B070BD444D020838B5054686
:40550000FFF7C4FC0446074B9B6B984204D2FFF7BBFF01232B6001E000232B60014B9C63204638BD444D020870B582B005460E46134B1B68DB68DC68201DFEF793FEE369C7
:40554000012B18D1A1692B46324629442046FFF7F7FE80B1002100910B462A462046FFF75DFF40B94FF03F0383F31188BFF36F8FBFF34F8FFEE7636A2046984702B070BD6A
:40558000444D020870B582B006460C46FFF774FC01A8FFF7B3FF019B1BBB054644B9B04206D3FFF7F7FC29463046FFF7BDFF1AE02CB10E4B5B681C68B4FA84F4640922462D
:4055C000711B0A4B9868FFF75BFAFFF7E3FC50B94FF08052064B1A60BFF34F8FBFF36F8F01E0FFF7D7FC02B070BD00BF444D020804ED00E030B587B04DE0039B002B4ADB9A
:40560000059C636913B1201DFEF72CFE02A8FFF775FF039B092B3ED8DFE803F00505053D273A05053D270499A5690B46024629442046FFF785FE70B3636A20469847E369FB
:40564000012B28D1A269002100910B46049802442046FFF7E3FEF0B94FF03F0383F31188BFF36F8FBFF34F8FFEE70499A16141B94FF03F0383F31188BFF36F8FBFF34F8F11
:40568000FEE70346024601442046FFF759FE02E0204600F09FFA002203A9044B9868FFF78FF80028A9D107B030BD00BF444D020800B583B001A8FFF733FE0199FFF762FFC8
:4056C000FFF798FFF6E700BF82B0002301930D4B1B68B3F1FF3F08D04FF03F0383F31188BFF36F8FBFF34F8FFEE74FF03F0383F31188BFF36F8FBFF34F8F019B002BFCD0EB
:4057000002B07047B842020808480068006880F308884FF0000080F3148862B661B6BFF34F8FBFF36F8F00DF00BF000008ED00E0DFF80C00016841F470010160704700009F
:4057400088ED00E04FF0807340F8043C21F0010140F8081C054B40F80C3C40F8202C6FF0020340F8243C4438704700BFC9560810074B19680868B0E8F04F80F30988BFF372
:405780006F8F4FF0000080F311887047AFF30080184D02084FF03F0383F31188BFF36F8FBFF34F8F0A4A136801331360012B0DD1084B1B6813F0FF0F08D04FF03F0383F352
:4057C0001188BFF36F8FBFF34F8FFEE7704700BFB842020804ED00E0094B1B6843B94FF03F0383F31188BFF36F8FBFF34F8FFEE7013B034A13600BB983F31188704700BFD3
:40580000B8420208000000000000000000000000EFF30980BFF36F8F154B1A681EF0100F08BF20ED108A20E9F04F10602DE909004FF03F0080F31188BFF34F8FBFF36F8F2B
:40584000FFF720FC4FF0000080F3118809BC19680868B0E8F04F1EF0100F08BFB0EC108A80F30988BFF36F8F704700BFAFF30080184D020808B54FF03F0383F31188BFF35A
:405880006F8FBFF34F8FFFF707FB18B14FF08052024B1A60002383F3118808BD04ED00E0084A0023136008490B60084B1B680849A1FB03139B09013B06490B600723136045
:4058C000704700BF10E000E018E000E098420208D34D621014E000E010B582B02A4B1A78D2B20192FF221A701B78DBB28DF803309DF80330254A03F03F03137007235360DC
:4059000009E0224A5368013B53609DF803305B00DBB28DF803309DF8033013F0800FF0D11A4B5B68042B08D04FF03F0383F31188BFF36F8FBFF34F8FFEE71B0203F4E063AA
:40594000124A5360019BDBB20F4A1370104B1A6842F47F021A601A6842F07F421A60FFF79FFF00240B4B1C60FFF7E2FE0A4A136843F040431360FFF7C7FEFFF783FBFFF799
:40598000A3FE204602B010BD00E400E0804D020820ED00E0B842020834EF00E0EFF305830F2B0FD9104A9B5CDBB2104A1278934208D24FF03F0383F31188BFF36F8FBFF3E3
:4059C0004F8FFEE70A4B1B6803F4E063074A5268934208D94FF03F0383F31188BFF36F8FBFF34F8FFEE77047F0E300E0804D02080CED00E008B54FF03F0383F31188BFF343
:405A00006F8FBFF34F8F4FF441710248FDF788FFFEE700BF48D10810134A12F0070F07D0D11D21F00701C1F5404313440A4601E04FF440430D49C1F858250020C1F85C05A9
:405A40001344083B23F00703C1F8603558601860981A50601360C1F86405C1F868054FF00043C1F86C357047884D020830080308134B00E013461A688242FBD310B45C68EC
:405A80001919884203D14168214459601846446801198A420DD10B49D1F860158A4206D05268224442601A681268026002E0016000E00260984200D018605DF8044B70472B
:405AC000880D03083008030870B50446FFF7D4F93F4BD3F860350BB9FFF79EFF3C4BD3F86C351C425CD194B1083414F0070F0ED024F00704083404F0070343B14FF03F038B
:405B000083F31188BFF36F8FBFF34F8FFEE7002C48D02F4BD3F868359C4245D82C4BD3F8585503F5AB6301E02B4615466A68944202D92A68002AF7D1254AD2F860259542D2
:405B400034D01E6808362A681A606B681B1B102B10D9281910F0070F08D04FF03F0383F31188BFF36F8FBFF34F8FFEE743606C60FFF77EFF6A681649D1F868359B1AC1F859
:405B80006835D1F864158B4202D21149C1F864350F4BD3F86C351A436A6000232B6006E0002604E0002602E0002600E00026FFF7F1F916F0070F08D04FF03F0383F3118896
:405BC000BFF36F8FBFF34F8FFEE7304670BD00BF30080308B8B338B50346A0F1080550F8042C1949D1F86C1512EA010408D14FF03F0383F31188BFF36F8FBFF34F8FFEE7E9
:405C000050F8080C40B14FF03F0383F31188BFF36F8FBFF34F8FFEE7A4B198B91C4622EA010243F8042CFFF727F954F8043C064AD2F868150B44C2F868352846FFF718FF86
:405C4000FFF7A8F938BD70473008030870B539B900240AE015F8010BFDF720FA013402E016460D460024B442F4DB204670BD00BF70B561B900240FE0FDF71CFAC0B22870EB
:405C800001340A2808D00D2806D0013502E016460D460024B442EFDB204670BD08B502490248FEF735FA08BD1C0E03080000664008B5114B1B785BB9104A11491148FEF784
:405CC00003F811491148FDF7EFFD01220A4B1A700E4BB3F90030002B08DB590903F01F03012202FA03F30A4A42F82130054A136843F00043136008BDA00D03081C0E030801
:405D000098D10810000066409D5C0810B0CD081000E100E00B4B10B519680B4B0C691A688B69126A80335B019B180122D868A24080B2824205D11A601B68CB69002B00D07D
:405D4000984710BDA40D0308C80D0308084B1A684369126A80335B019B189A68036901209840120C801A43425841C0B27047C046C80D0308074B1A681300116AB0321288F2
:405D8000B43350431B685B1818180068C043C00F7047C046C80D0308134B10B51C682000FFF7D4FF00281BD02069FFF7E3FF002818D001210D4B62691B6891401A00B032C3
:405DC000108822691B6A50432200C018FDF76AFA43425841064B40421840064BC01810BD0548FCE70548FAE7A40D0308C80D0308FCFFCDFF04003200060032000700300071
:405E0000114B70B51C680500002C16D02378002B13D02000FFF79AFF002810D0002D06D12069FFF7A7FF00280BD0606870BD2069FFF7A0FF0028FAD0F7E70448F6E7044862
:405E4000F4E70448F2E7C046A40D0308080032000600320007003000F7B505006B6800684B61AB6808618B616B691E4FCB614B1C01932B7B4A1CD3773B680C001A00012609
:405E8000B03212881B6A50430021C018FDF7ECF926702000FFF75AFF002820D0E369002B19D0280010490C30FDF7FEFCA3693A688033126A5B019B18320021698A4092B29E
:405EC0009A60A319DB7F5BB2002B04DB1F2213409E40064B1E600020054B1C60FEBD0548FCE7C046C80D0308155D081000E100E0A40D030806003200094B10B51B68002B77
:405F00000BD0012400221C709A62FFF745FF002802D12000FFF774FF10BD0248FCE7C046A40D03080800320070B5074D049C2D68002D06D00626AC622E700FC4FFF72CFF86
:405F400070BD0248FCE7C046A40D030808003200002807DB1F23C02218401E3B8340024952008B507047C04600E100E030B5F8250F4B104A18681468436A226C6D039A1824
:405F80001168294010D01160226C9B181B680A4B1A68531CD97F002907D1416A086A496A506291620122DA7730BD0022FBE7C046C80D0308B40D0308A80D03080022F8B530
:405FC000060004000368471C0B60436828364B6083690D008B60C369CB604B1CDA77FB7F0B7433780B7603F06DF8A169002900D11F4920002030FDF757FC1F23FB56002B59
:4060000006DB1F2213401E3A9A401300194A1360194F63683A688033126A5B019B188022216852028A40E1699A60002900D113493000FDF739FC00203056FFF789FF00233A
:40604000F356002B06DB1F2213401E3A9A401300084A13600A4A3B6812685B6A926C00209B18F82252031A60064B1D60F8BDC046ED63081000E100E0C80D03086D5F0810C7
:40608000B40D0308A80D030810B5084B084A1B6829331B78012B05D1064B60335360FFF78DFF10BD044B3833F8E7C046C80D0308A80D0308D8D2081058D30810F0B5BA4DA0
:4060C00087B0AC68002C1CD0B84BB94E636032682378506A012B16D103F006F860600023AB603368E1691A00B032108822691B6A5043C018002902D00121A3699940FDF7A5
:40610000B3F807B0F0BD0268002AE8DAA94A62606A68002A11D00E2B00D1EAE04CD8082B00D1ACE02DD8042B00D194E01BD8022B00D182E0032B00D183E06368002BCED11D
:406140002A68511CC87F002800D045E13268526A106A526AD70F012F01D1974BCF77A060E2606360BBE7062B00D17DE0072BE4D1D768002FE1D0A16A4A7D0B008969B84745
:406180005DE00B2B00D194E006D8092B00D181E00A2BD2D197697EE00C2B00D19AE00D2BCBD1576A002FC8D0A16A0B7B00938B684A680968B84742E0142B00D1D2E025D8B5
:4061C000112B00D1B2E00FD80F2B00D1A1E0102BB3D1176B002FB0D0A16ACB680A699BB2D2B28968B8479EE0122B00D1ADE0132BA3D1D76B002FA0D0A16A0B6A0193CB6937
:4062000000938B694A69C968B84718E0172B00D1BFE006D8152B00D1B0E0162B8DD1976CADE0192B00D1C9E000D2B4E0552B00D083E7A06A02F0E2FF01E002F0E3FF60606C
:406240007BE71768002F00D177E7A16A8B684A680968B847F3E75368002B00D16DE7A16A0A69C9689847EAE79768002F00D164E7A16ACB6800938B684A6809687CE017696E
:40628000002F00D159E7A26A117D0092136BD26AB847D4E75769002F00D14EE7A26A117D0292136B0193D36A0093536AD269B847C5E7D769002F00D13FE7A16A03910B6BDB
:4062C0000293CB6A01938B6A00934B6A0A6AC969B847B4E7176A002F00D12EE7A16A0291CB6A01934B7D00938B69CA69096BB847A5E7976A002F00D11FE7A16A0B7B029318
:406300004B6901930B6900934B680A688968B84795E7D76A002F00D10FE7A16ACB680A689BB28968B8470023636006E7576B002F00D102E7A16A8B684A680593CB680968EF
:406340009BB2B847059B1860EDE7976B002F00D1F3E6A16ACB689BB200934B680A688968B847E0E7176C002F00D1E6E6A16A0B6900934B680A688968B84760E7576C002F61
:4063800000D1DAE6A26AD36811780093936852687EE7D76C69E7136D002B00D1CDE6A26A116898474BE7C046A80D030809003200C80D03080A00320001003200576D002F34
:4063C00000D1BAE6A16A0B690A790193CB6800938B680968B84732E7506A926A002A00DA014B0027CF77BAE60100320070B5124C124B22681E68106853680122356A803376
:406400005B01EB18D9688240090C8A4212D1210012041A60B0361B683388083158434019FCF75EFF002805D123689B68002B01D1FFF744FE70BDC046A80D0308C80D030850
:4064400037B505001400012A18D149682800069A013C02F079F80C236142614100932800083B4431002202F0D7F8054B1B681B68ED1801232A681A42FCD137BD0968E5E7B5
:40648000B40D030813B519001300049A040002F05BF80823200000930022043B482102F0BBF8044B1B681B68E418012322681A42FCD113BDB40D0308F8B504000327134EE8
:4064C000080031681A721D004B693A40E3181A60096D020061180B0080336B6020002023E960296001F04EFF06CD200002F012F8082320000022462102F078F833681B687F
:40650000E418012320681840FCD1F8BDB40D0308F0B50500160085B01A000A9B0391DC681023671CFF3711343900FF3401F02AFF2300039A0A9928000097FFF781FF28000A
:4065400010232200310001F01DFF002005B0F0BDF0B5160087B0040004911A0033076AD10E9B3500DB681F00591C31371133FF31FF33FF37039102933900102301F002FF6C
:40658000049B012B4BD00C9B9B195B1B05930D9B9A19521B002D4BD010230399200001F0F1FE039B3A000E9920000097FFF76AFF029B049A0E9920000097FFF741FF102316
:4065C000029A3900200001F0DDFE1023029A0599200001F0D7FE103DD5E710230399200001F0D0FE039B012200930E99029B2000FFF726FF029B029A00930E993B0020002F
:40660000FFF740FF1023039A3900200001F0BAFE1023029A0499200001F0B4FE103D0C9B9B195B1B04930D9B9A19521B002DD4D1002007B0F0BD0148FBE7C04602003200EC
:40664000F0B5170089B006000C001A003B0747D1109BDD682B003133FF3303930399102301F090FE0E9B0593012C01D10F9B05933C006B1CFF3311350493FF35059BDB19EE
:406680001B1B07930E9BDB191B1B06930F9BDA19121B002C02D1200009B0F0BD10230499300001F06FFE039B0022009310992B003000FFF7C5FE049B2A00109930000095AA
:4066C000FFF7E0FE10232A000699300001F05AFE1023079A0399300001F054FE103CCDE70048D9E702003200F0B58DB00793159B0691DD680B922B003133FF3302936B1CB0
:40670000FF3303931033049310330593079A10230299040001F036FE2B00F8331A6C5B6C17BA1BBA0893069B089E1B090A93089B1399F31A1A018918099114998A180A99B4
:406740008B420ED3029A20001023079901F01AFE0F23069A00201A4013000B9A13600DB0F0BD03992000102301F00CFE029B159900932000059B0022FFF762FE01220023AC
:40678000B6185F412B0032BA39BAF83319645A64059B049A00931599039B2000FFF772FE1023049A0999200001F0ECFDBFE70200002310B50F32441E1178013A49000B435D
:4067C00053701B0A9442F7D1002B04D07923C27B5B425340C37310BDF7B505000F009668546831001023002201F0E8FD39002800009623000022FFF723FE2000FFF7D7FFF3
:40680000F7BDF0B585B003939368166802930F00102300220299050001F0D0FD0A9C039B0A9A9A18121B102C07D83C61A3B23100280001F0A7FD05B0F0BD102331002800B4
:4068400001F0A0FD029B32000093390033002800FFF718FE0096029B002239002800FFF7EFFD103CDBE7F0B587B0059393680C690393536806000F00156804930F2C0DD864
:406880001800FFF794FF80232B55713B1B1B611C9BB269180022300001F090FD039B2A00009339002B003000FFF7ECFD049B2A00009339002B003000FFF7E4FD039B3900AB
:4068C000300000950022FFF7BBFD1023039A0599300001F057FD07B0F0BD0000F0B585B0039119000AAB17001A78134B05001B681C6D0C9B4134FF340419FFF7DDFD230009
:4069000026001033303623631033A36332000C9928006463FFF760FF039B32000C9928000097FFF76EFF28000B9B32000C99FFF79AFF002005B0F0BDB40D0308F0B58BB0A5
:40694000069312AB09921A78604B08911B6804001F6D5F4BC719FD188D3BFF3BFB180493F0239B00FB1805938823DB00FB1801923A0003933B00C0328033009229003A00C8
:40698000119E01F0C9FB9823049ADB00FA50059AFB185A60039A9A60AB689E4200D86FE02900200001F01EFC3300109A2900200001F020FC3300039A2900200001F034FC17
:4069C000296AAB68039A5B1A9BB251180022200001F0F4FC3E4A0023BE1836225C209446B268934264D32900200001F0FBFB049A2900200001F072FB069B099A29002000AF
:406A000001F0F8FBB268069B944629006344049A200001F009FC2900200001F0E3FB059A2900200001F05AFB336A049A2900200001F0E0FBB268336A29009B182000089A6E
:406A400001F0F2FB9821C900795820008023002201F0B4FC9823DB00FE18716820008023002201F0ABFC80230022B168200001F0A5FC2000290001F032FC00200BB0F0BDDD
:406A8000B2B207929E420CD213000399109A200001F078FCAB68B2B29B1A039A9BB2911994E7079B109A0399200001F06BFC91E76146039AD25C4A400499CA54039A059938
:406AC000D25C4240CA5401338AE7C046B40D0308CC040000034B1B689B68C0180F23006818407047B40D0308F8B504000D0017001E002000FFF7EEFF0C28FAD8082D04D05B
:406B00000C4AA358002BFCDB04E086225201A358002BFCDBE221084BC9051B680D43DA68A2181560DA68A2181760DB68E4182660F8BDC046D0100000B40D0308F8B507006B
:406B40000C0016001D003800FFF7C4FF0E28FAD8064B24031B682D04D8688023DB051E43344338182C430460F8BDC046B40D030870B505000C0016002800FFF7ABFF0E2822
:406B8000FAD8054B24021B68DB68ED18D023DB051E4334432C6070BDB40D030810B504002000FFF797FF0E28FAD8044B1B68DB68E418A023DB05236010BDC046B40D03083F
:406BC00010B504002000FFF785FF0E28FAD8044B1B68DB68E418A223DB05236010BDC046B40D030870B504000E0015002000FFF771FF0C28FAD8064B06491B68DA68A2185B
:406C00001160DA68A2181660DB68E418256070BDB40D03080C00007070B505000C7A0A680234E40023000821FFF75EFF1023082204212800FFF782FF2300103B002B04D0CF
:406C4000082205212800FFF779FF70BD70B505000B7A0233DC00FFF7DFFF2800FFF79EFF1023062204212800FFF768FF2300103B002B04D0072205212800FFF75FFF70BD48
:406C8000F8B51E0004000F00150031001423002202F0E8F8054B35721B6837605B690020E41803231D402560F8BDC046B40D0308F8B50D00040016001F000699002D1FD156
:406CC000FFF7AAFF10233A0008212000FFF70CFF102231002000FFF785FF2000102308220021FFF72BFF2000002D0CD1FFF756FF2000102301220C21FFF720FF0020F8BD81
:406D0000FFF7A4FFDEE7FFF75BFFF1E7F8B504000E0015001F0013075CD10899002E1ED1FFF77AFF10233A0009212000FFF7DCFE2B00079A08212000FFF7D6FE2A00069937
:406D40002000FFF74FFF10230922002E20D101212000FFF7F3FE002D04D10020F8BDFFF775FFDFE72000FFF7B5FE0E28FAD81A4B1A4A1B682000DB68103DE3181A60FFF7CA
:406D80000DFF102301220C212000FFF7D7FEE2E702212000FFF7D2FE002DDED02000102308220021FFF7CAFE2000FFF709FF2000FFF790FE0E28FAD8074B094A1B6802213B
:406DC000DB682000E3181A6010230022FFF7B6FE103DE1E70348C1E7B40D03081800104121C0104102003200F7B50F260400019115001F0016404DD10A99FFF70DFF102322
:406E00003A0009212000FFF76FFE1023092231002000FFF793FE2B00099A08212000FFF763FE2A0008992000FFF7DCFE019B002B2CD0002D2CD02000FFF7B0FE10230822FF
:406E400000212000FFF77AFE2000FFF743FE0E28FAD8114B114A1B68103DDB68E3181A60E7E72000FFF79AFE2000FFF733FE0E28FAD8094B0A4A1B680C21DB682000E31844
:406E80001A6010230022FFF759FE103D002DE8D10020FEBD0348FCE7B40D030801C010411800104102003200F0B51D008BB004926A781B7812021A43AB7804001B041A43E3
:406EC000EB782E7A1B0613436A7906932B7912021A43AB7902911B041A43EB7913991B06134307936B7A6A7B1B023343AE7A120236043343EE7A36061E432B7B08961A433C
:406F0000AB7B1B041A43EB7B1B061343099332BA1BBA05920193FFF77FFE102306AA09212000FFF7E1FD1023092200212000FFF705FE019B0C211A0E2000FFF719FE019B84
:406F40000D211A0CD2B22000FFF712FE019B0E211A0AD2B22000FFF70BFE6B460F211A792000FFF705FE2000FFF718FE029B129A08212000FFF7B8FD029A11992000FFF72F
:406F800031FE029B019E1B09059F0393019B039AF31A93420ED306AA20001023290001F025FF0F23029A00201A401300049A13600BB0F0BD2000FFF7F1FD01220023B618DF
:406FC0005F413ABA33BA08920C21320E20000993FFF7CEFD320CD2B20D212000FFF7C8FD320AD2B20E212000FFF7C2FDF2B20F212000FFF7BDFD2000FFF76CFD0E28FAD8D2
:40700000084B094A1B68DB68E3181A602000FFF761FD0E28FAD8034B044A1B68DB68E3181A60B3E7B40D03081010006610100067034B1B689B68C0180F2300681840704754
:40704000B40D030810B504002000FFF7F1FF0E28FAD8044B1B68DB68E418A023DB05236010BDC046B40D03080200002310B50F32441E1178013A49000B4353701B0A9442F1
:40708000F7D1002B04D07923C27B5B425340C37310BD000070B504000E0015002000FFF7C7FF0C28FAD886225201A358002BFCDB064B07491B68DA68A2181160DA68A2184A
:4070C0001660DB68E418256070BDC046B40D03080800007170B504000D002000FFF7A8FF0C28FAD8064B07491B68DA68A2181160DA68A2181560DB68E4181023236070BDC1
:40710000B40D03080C000070002370B504000E000B602000FFF78CFF0E28FAD8144D154A2B682000DB68E3181A60FFF78BFF71682000FFF7CFFF2000FFF77AFF0E28FAD89A
:407140002A680D49D368E31819601368E3181A68002AFCD17068FFF787FF2000FFF768FF0E28FAD82B68DB68E418044B236070BDB40D03080000104101C01040111010413F
:4071800070B50E001100326805009C181A00FFF781FF102C01D8346070BD2800FFF748FF0E28FAD8054B064A1B682800DB68103CEB181A60FFF746FFEBE7C046B40D03082F
:4071C00018001041F0B5102587B00F000400019200212A0002A802F0EDFD80237E683F6802AA137002A9EA1B2000FFF753FF2000FFF71EFF0E28FAD8184D194A2B68DB684E
:40720000E3181A600F2F02D83000FFF72DFF102231002000FFF73EFF2000FFF709FF0E28FAD82B680F4ADB682000E3181A60FFF709FF01992000FFF74DFF2000FFF7F8FEC9
