:020000041000EA
:4000000000400208230100100D00000085010010000000000000000000000000000000000000000000000000000000008101001000000000000000008101001081010010E9
:400040008101001081010010810100108101001081010010810100108101001081010010810100108101001081010010810100108101001081010010810100108101001060
:400080008101001081010010810100108101001081010010810100108101001081010010810100108101001081010010810100108101001081010010810100108101001020
:4000C00010B5064C2378002B07D1054B002B02D0044800E000BF0123237010BD3C060008000000006C210010084B10B5002B03D00749084800E000BF07480368002B00D19D
:4001000010BD064B002BFBD09847F9E700000000400600086C210010E8000008000000007047FFF7FDFF72B60F4C104DAC4209DA21686268A368043B02DBC858D050FAE71C
:400140000C34F3E70A490B4A0020521A02DD043A8850FCDC084809490860BFF34F8F00F005F900F01DF8FEE770210010882100103C060008140800080000000808ED00E04D
:40018000FEE7FEE700B504207146084202D0EFF3098001E0EFF30880043001F0B7F9FEE710B562B6014800F067F9FEE70000081010B5002000F026FF10BDC04670B5624949
:4001C000E0239B00CB580F2213401A00D0329200525807210A40032A05D0042A06D0002A12D15A4814E05A4A106811E01A00C0329200554952581F210A40112A06D0132A7C
:4002000004D0FA20C00103E0524801E080200002002B36D14C4BB222D2009A5801211140B125ED005A59120F032422405B591B0F1C4207D0444C63591B0F03242340012BDC
:4002400002D102E0012300E00023002B01D0002901D1032A4BD13C4BB022D2009D58AD03AD0B3D495958C904C90C9C58240E01231C40013401F054FC6843210001F050FCDC
:4002800035E0012B33D1304BC822D2009A5801251540C024E4001A59120F03210A401B591B0F194207D028490B591B0F03210B40012B02D102E0012300E00023002B01D049
:4002C000002D01D1032A12D11F4DC022D200AB587F210B40A958090A1F263140AC58240C3440584301F01CFC210001F019FCE0239B00154AD3581B0903221340D840144C68
:400300006060164B1D692D0AFC32154001351969090E013101F004FCA060290001F000FC0500E06020610E4BC0180E4901F0F8FB20750D4BE818FA21890001F0F1FBA061B3
:40034000C003E06170BDC0460000264000127A00C000000800366E0184050000000021403F420F0040420F00E703000010B5284801F0D0FB274CB022D200A3585B005B0831
:40038000A350E0218900635830208343635080235B04A350204A214BE250A02292010433E250FF221E4BE25001F0A2FBC0225200A35801218B43A35000F08CF9FFF7FEFEBE
:4003C000B0235B055B78002B04D0B0235B055B78DBB200E02123212B03D1124B0022DA605A60114C22008021042000F0B1FB2000103000F045FC0D4B1A685123D35C002B95
:4004000002D00B4800F0B2FC00F07AFA10BDC046B42000100000264001000200840500008C050000E00023405806000810080008881C00108023024AD35803201840704792
:400440000000214010B501F0F4F8084980228C58074B2340074C23438B508823034AD358DB06FAD501F0E9F810BDC04600002140FCFF00000100FA0570B50500830504D0FF
:40048000E821FF310F4801F013F801F0D2F80400FFF7D0FF032801D1FFF7D4FF0A4AB0239B00D55080215058084B03400848034353508823044AD358DB06FAD5200001F082
:4004C000BCF870BDBC1C001000002140FCFF00000300FA05FEE7C04630B587B06E49A022D2008B58032083438B506C4A116808688823CB58C3181868694908401860136827
:40050000186884241B59C01803681B021B0A80256D042B430360106805680359EB1818680140196013683E229A5C002A06D05A48E02189004258753CA24342503E229A5C20
:40054000002A06D05448E021890042583024A24342503E229B5C002B07D04F49E02292008B588020000603438B500021012000F07BFD0021022000F077FD0021032000F03C
:4005800073FD0021042000F06FFD0021002000F06BFD01A8434903000A0032CA32C312CA12C300F08FFD002802D00420FFF792FF39493D4A8B588020000603438B503B4856
:4005C00000F03CFE002802D00420FFF783FF324C374BE158374A0A40E250E158364A0A40E250E25880252D062A43E250043BE158324A0A40E250E158314A0A408021890186
:400600000A43E250E258802109020A43E2502D4A11682D4B0B40802149000B431360002001F048FA294BE2581543E550E158012291430A43E2506421002000F07FFF174BC6
:400640001B683F229A5C052A03D90021204A986881509A6874215B5AD2181168104B0B408C2189010B4313600C4B1A687323D15C703B8B4019007023D35C7220105C83403E
:400680000B43802109060B438021C9009068435093685B5807B030BD0000264010080008FF00FFFFD41C0010087F0000400D030004050000FEFCFFFFFFFF00FFFFF0FFFF62
:4006C000FF8FFFFF00002740FFFCFFFF0C050000140C000070B58AB09621002000F02EFF00F004FF002814D100F0F0FEC0235B00244AD358DB0705D41100234A8B585B005E
:400700005B088B501F49204A8B588020000603438B50012001F066F91C4A516C1C4B0B40E82189010B435364536C1B0AFF2213403A2B07D1154A516C164B0B40E821890131
:400740000B435364FFF7C8FE01AD134C2A002300143343CB43C243CB43C243CB43C229000E4800F0D5F82A002300383313CB13C213CB13C213CB13C22900094800F0C8F8A7
:400780000AB070BD000026400C05000000002740FF00FFFFFFC5FFDFD41C00108002324000033240214B984230D00ED8402831D004D800281FD010282AD031E080282BD0FE
:4007C00080235B00984229D02AE0194B984229D007D8A0231B0698420DD0164B984212D01EE0154B98420AD0144B984209D0144B984215D101E0002016E0124814E012486E
:4008000012E0124810E0A020C0030DE007480BE00F4809E00F4807E00F4805E0034803E00E4801E0A420C0037047C04606005200010000F0090000A0040000F0050000F094
:40084000030000F0010052000200520003005200010050000200500005005200FF00520070B5124B1A683123D35C002B04D1C421FF310F4800F01CFE0C4B1D682C00B42362
:40088000EB582A6A944663441B68002B0BDB094B1868FFF787FF6B6801229A6063689B68002BFBD100E0044870BDC04610080008301D0010E80700080200500010B50D4B05
:4008C0001861002805D002230370FD33437000234380094B1B6850229A5C002A08D051229B5C002B04D04F3A0449002000F0F8FA10BDC046E807000810080008610100084B
:4009000010B502481430FFF7D9FF10BDE807000870B505000C0000285DD000295DD0FF230A689A4303D099212D4800F0C1FDFF2322699A4303D09A21294800F0B9FDA36896
:400940005B0D03D09B21264800F0B2FD63685B0A03D09C21224800F0ABFDE3695B0F03D09D211F4800F0A4FD236A5B0F03D09E211B4800F09DFD1B4A11688B69EB1ADB0941
:4009800049691B01CB18216829607D211068415C6918E06808607E211068415C6918206908607F211068415C6918606908607C211068415C6918A06808606168A961116814
:4009C00080228A5CAD18A2692A60E2691A60226A5A60002002E0044800E0034870BDC046701D00101008000801005A0070B504000D000A4B1A68B423D3581B181B68002B56
:400A00000ADA0B0C03D00649064800F051FD2D042D0C6560002000E0034870BD10080008D5020000F01D001001008A0070B505000C000368002B01DA002300E0084B002B9F
:400A40000BD1EA60230C03D00649074800F030FD2404240CAC60002000E0014870BDC04601008A00BB020000F01D001070B505000C1E03D19921084800F01AFD074B1A6841
:400A8000B423D3585B191B68002B03DAEB682360002000E0024870BD301E00101008000801008A0070B504000D00234B1A683123D35C834236D9002936D00B68DB0635D1D9
:400AC0003123D35C984204D3C421FF311B4800F0EFFC194B1B681A6AB0215B5A5C431419174E34602B68DA080021686801F0A4F800212000FFF77AFF3468002D03D111491F
:400B00000E4800F0D5FC2A0000212000FFF78EFF00280DD10A4B18680021FFF767FF002808D108E0084806E0074804E0064802E0064800E0054870BD10080008F01D0010F1
:400B4000000800089303000003018A0001018A0010B50400002A17D1002915D1124B1A683123D35C984204D3C421FF310F4800F09FFC0D4B1B681A6AB0215B5A5C43141910
:400B80000B4B1C6000200EE0002A09D0002909D0074B59609A60191D2000FFF783FF02E0044800E0034810BD10080008F01D00100008000803018A00F0B583B00D001C4B30
:400BC0001B68DC68236883422DD947097B01C01A012383401E00002903D100F02AFD019001E000230193124B18680368002B01DA002300E00F4B002B0ED16368BF00DF19B9
:400C00003B68334203D0B3433B60002400E00A4C0021FFF7EBFE00E0084C002D04D1019800F00BFD00E0064C200003B0F0BDC0460008000801008A000201880003018800AD
:400C400004018A000A4B1B68DA68136883420BD943095901401A0121814052689B009B580B4203D0034802E0034800E003487047000800080101880004018A000001880050
:400C8000034B1B68002B01D1014B18607047C0460C080008F0B5474680B404000F0090461E002D4B1B68002B03D1B5212B4800F0FFFB294B1B682C2060431C18FF221500DF
:400CC00035402560330A13406360360CA660244B1A683123D35C9D4204D3C421FF31214800F0E6FB1E4B1A68B023D35A6B43116A8C466344236166683223D35C9E4204D3CC
:400D0000E021FF31174800F0D3FB154B1B681D6A80367601AD196561A668330C04D0FF214900104800F0C4FB330C03D00E490D4800F0BEFB3604330C1E43AE604346E36195
:400D400027620023A361069B002B02D000229B5EA38104BC9046F0BD0C080008701E001010080008F01D0010FF010000F0B58FB0041E03D15221294800F09AFB6368032B70
:400D800003D95421254800F093FBE36A002B03D15821224800F08CFB236B002B03D159211E4800F085FB07AA1300210061C961C321C921C302AD290023001433C1CBC1C123
:400DC00041CB41C10821535E0CAE3380144B1B6836215B5E07998C466344B370089B0D930B9B0A980096A26AE16AFFF753FF2B69E868002200920021FFF74CFF216B3000FA
:400E000000F0E8FA0023F25E002A05DB1F231A401E3B9340034A13600FB0F0BD701E00101008000800E100E0F8B505000F0016001C00002A03D1FD21224800F039FB224BE6
:400E40001B68002B03D1FE211E4800F031FB1E4B1B682C2128004843181879435918012213004D68AB401B044568AA4015000269002A20D08F69002F1FD11268002A01DA4A
:400E8000002200E0114A002A19D132681204120C134333600369DE6001238B614C6204692B0C03D00A490B4800F002FB2A04120CA260002004E0084802E0084800E0074895
:400EC000F8BDC046701E00100C08000801008A00BB020000F01D001004028A0007028A0070B504000D0016000F4B1B68002B04D1AF2149000D4800F0DBFA0B4B1B682C2074
:400F000060431C18236A002B04D1B1214900074800F0CEFAE369B34204D9236AB6009D51002000E0024870BD0C080008701E00100A028A0070B582B00400002301930028DB
:400F400004D1D221FF312D4800F0B2FA2369002B04D1E9214900294800F0AAFA6369002B04D1D421FF31254800F0A2FA236A002B04D1EA214900214800F09AFA6269D568C4
:400F80002B0C24D01B041360136820691C4B1A68B423D358C3181B68002B18DA01A9FFF765FD00280ED1019803681E0CFF221340E269934207D29B00226AD358002B02D017
:400FC000984700E0002631002069FFF70FFD2D042D0C0FD063691D601B68636A002B03D098470023636203E0A36A002B00D098470023A36163691B6802B070BD701E0010EC
:401000001008000810B50400084B1B68002B04D1B221FF31064800F04BFA044B1B682C2060431818FFF786FF10BDC0460C080008701E001010B50400094B1B689B6CC340C8
:40104000DB0703D4BE21074800F032FA044B1B681B691034A402E3580F20184010BDC04610080008B01E0010134B1A683C23D35C83421DD9042904D94B1EFF3B9BB2132B39
:4010800018D8FF290CD91F2319400C4A0300C0339B009950D03080000423835000200AE007231940D0308000044BC150002002E0034800E00248704710080008000026402D
:4010C00001004A0070B5041E03D14A494A4800F0EFF9B023DB00494AD358002B00DA87E0474B22689A4203D94649434800F0E0F923689B039B0BE279002A02D080225204E0
:4011000000E000221343B022D2003C498B50A2883D4B9A4204D98C218900374800F0C8F922893A4B9A4203D93949334800F0C0F9A388DB04D90C23891B04364A13400B4319
:40114000354A2E498B50A37A0F2B04D98E218900294800F0ADF9E37A0F2B03D92F49264800F0A6F9A289284B9A4203D92C49224800F09EF9A37A0F211940E27A1201FF2350
:4011800013400B43A289120226490A401343A27B1207C02189050A401343B122D20017498B50A379042B03D91F49134800F080F9228A164B9A4204D9912189000E4800F081
:4011C00077F90E4819494558194B1D40A3791B02E022D20013402B4343504558154B1D40238A1B040B4A13402B434350002000E0114870BD1F020000F01E0010000026400E
:40120000FFFF030029020000FF1F0000FF010000310200000000FF0184050000390200003A02000000FF1F00430200008C050000FFF8FFFFFFFF00FE03004A0070B50500D5
:401240003149324A8B588020000603438B502C0003E0012000F020F9013CB223DB002A4AD3585B0701D4002CF3D12749B122D2008858274B03408020800503438B50002DC5
:4012800001D0002C0CD02049B022D2008B588020000603438B5003E0012000F0FDF8013CB223DB00184AD358DB0701D4002CF3D1002D01D0002C08D01349B122D2008B58AE
:4012C000C020800503438B5013E00F4BB121C90058580F4A02408020800502435A5008395A58520052085A5008495A58520052085A50002D03D0002C03D0002002E000205E
:4013000000E0044870BDC046000026408C050000FFFFFFCF02004A0070B505000C001A4B1B6828229A5C012A15D1820807211000884327D19200AD1AED00FF20A8401B687B
:4013400020339A181168AC4023004B40184004004C40146016E03A229B5EDBB2994203D176210A4800F0A4F8074B1B681B680722154080221206154380229201944664445E
:40138000A400E55070BDC04610080008781F001070B504000D000B4B9A680B4B9A420CD1002904D13821FF31084800F081F81034054BA400E058E55003E01034A400044BBE
:4013C000E05870BD00ED00E000000008781F001000000010F0B5474680B482B0061E01914AD04368032B03D93221264800F060F80023F05E002804DBB178FFF78DFF00248F
:4014000000E0214C0023F15E7368002912DB88081E4FC0308000C55903221140C900FC3290468A4095439A01434613408B402B43C35116E089B20F220A40083A9208063208
:40144000920013481018476803221140C900FF252A008A4097439A012B0013408B403B4343600B4B9A680B4B9A4206D10023F05E0199FFF78DFF00E0034C200002B004BCC3
:401480009046F0BD781F00100100560000E100E000ED00E00000000810B5034B1B78584300F0BEF810BDC046D400000801BEFEE770B50D00044C18220100200000F0C4FB4F
:4014C000A5610020FFF7F2FF00060008054B802212069A649B6C002B01DB002000E002487047C0460000274003004600054B8022120198585B68FF221A4202D08023DB027D
:401500001843704700002640FEE7C04610B50A4B0268DA6142681A6282685A62C2689A620269DA6242691A6382695A63C2699A63FFF7EAFF10BDC04600060008F0B5474606
:4015400080B4002801D0192300E064238B429B415B42304D2C682268A826A45BA41822680327BA433B401A4322602C682268A45BA2181668284CA046264016602C68266879
:40158000AA229446A25A96193268BA43134333602A6813686546525BD3181A68444614401C60002805D010291BD921291BD8012024E0184B1B6855229A5C914215D9562216
:4015C0009A5C914213D957229A5C914211D958229A5C91420FD959229B5C99420DD804200CE000200AE0022008E0002006E0012004E0022002E0032000E00520054A126889
:40160000526813680F218B430343136004BC9046F0BDC04610080008FFFCFFFF000000000230800803D001300238FCD1C046C0467047EFF3108072B6704780F310887047C1
:4016400010B5B0235B059B899BB2002B04D0B0235B059B899BB201E080235B0080225200934215D1184C23681968683A9B58C9180B680F208343963A13430B6021680C68F4
:401680009C23CB58E318196881430A431A6019E00D4C2368196898229B58C918B02040050A4BC2580A4B13400A681343C022920013430B60226811689C23D358CB18054A0D
:4016C00082581A6010BDC0461008000848180000FFFCFFFF4418000030B5B0235B059B899BB2002B04D0B0235B059B899BB201E080235B0080225200934215D1184C236845
:401700001968683A9B58C9180B680F208343953A13430B6021680C689C23CB58E318196881430A431A6019E00D4D2B68196898229B58C918B0246405C12040012258094BB2
:4017400013400A681343C022920013430B602A6811689C23D358CB1822581A6030BDC04610080008FFFCFFFFB0235B059B899BB2002B04D0B0235B059B899BB201E0802376
:401780005B008022520093420DD1104B1B681A6898215B58D21811680D4B0B40C021C9010B43136011E0094B1B68196898229B58C918084BB0225205D258074B13400A6855
:4017C0001343C022920013430B60704710080008FF8FFFFF18180000FFFCFFFF30B5B0235B059B899BB2002B04D0B0235B059B899BB201E080235B008022520093420DD120
:40180000134B1B681A6898215B58D2181168114B0B408021C9010B43136018E00C4D2B68196898229B58C918B02464050A4822580A4B13400A681343C022920013430B6002
:401840002A6811689C23D358CB1822581A6030BD10080008FF8FFFFF4C180000FFFCFFFF10B5B0235B059B899BB2002B04D0B0235B059B899BB201E080235B0080225200C7
:40188000934217D10020FFF7D5FBB0235B055B78002B04D0B0235B055B78DBB200E02123222B03D8002803D1013004E0012002E0002000E0012010BDF8B50700012803D9E6
:4018C0003D493E48FFF7F4FDB0235B055B78002B04D0B0235B055B78DBB200E021239DB2B0235B059B899BB2002B04D0B0235B059E89B6B201E0802676000020FFF79AFBDD
:40190000002814D180235B009E4212D1222D12D82B4B1B685C682B4821582B4B19403B068022520413400B432350002404E0274C02E0264C00E0254C80235B009E4201D10B
:40194000222D03D880235B009E4232D01C4B1A683123D35C002B04D1C421FF311C48FFF7A7FD174B1B681D6A80235B009E4203D1002F05D0174A06E0002F03D0164A02E031
:40198000164A00E0164A01212800FFF74FF800280FD10B4B1A68B423D3585B191B68002BF7DBEB681B0E1B06A0221206934200D100242000F8BDC0464C0A0000BC1F0010CD
:4019C0001008000818F00000FFFFFFFE04004200301D0010010100300300000C010000300100000CF8B50500012804D9822109012948FFF75DFDFFF733FF002849D0FFF71D
:401A000018FE0700002D11D10021244B244AD150E823DB00B0225205D65CF6B20120FFF74BFF041E19D1FFF70BFE16E0B02252051C4BD0581A4B194958501B49565CF6B22B
:401A40001A481A581F218A4314390A431A500320FFF722FDFFF7C2FE0024002C15D11049124A8B581F20834306401E438E50002D02D1FFF779FE08E00720FFF70DFDFFF7C9
:401A80002BFE0020FFF718FF04003800FFF7D5FD00E0074C2000F8BDBC1F0010307F00000000264010180000410700001CFF000003004200042805D10B4A116804230B43AF
:401AC00013600FE0094B1A681168A023D358CB180006C022920410401860034A136804218B4313607047C04610E000E0100800080749C02252008B589B009B088020C00539
:401B000003438B508B588020000603438B50704700002640014B18607047C04610080008002243088B4274D303098B425FD3030A8B4244D3030B8B4228D3030C8B420DD30D
:401B4000FF22090212BA030C8B4202D31212090265D0030B8B4219D300E0090AC30B8B4201D3CB03C01A5241830B8B4201D38B03C01A5241430B8B4201D34B03C01A524120
:401B8000030B8B4201D30B03C01A5241C30A8B4201D3CB02C01A5241830A8B4201D38B02C01A5241430A8B4201D34B02C01A5241030A8B4201D30B02C01A5241CDD2C309F0
:401BC0008B4201D3CB01C01A524183098B4201D38B01C01A524143098B4201D34B01C01A524103098B4201D30B01C01A5241C3088B4201D3CB00C01A524183088B4201D349
:401C00008B00C01A524143088B4201D34B00C01A5241411A00D20146524110467047FFE701B5002000F006F802BDC0460029F7D076E770477047C04603008218934202D080
:401C400019700133FAE77047030030B5002A0DD00C7801335D1E013A2C700131002CF5D19A189A4202D01C700133FAE730BD0000F8B5C046F8BC08BC9E467047F8B5C0468B
:401C8000F8BC08BC9E4670470300000001000000010000000000000005036000040000000100000000000000010000000604600008000000C8070008B101001073797374C0
:401CC000656D5F70736F63365F636D30706C75732E630000F4010000140004010A000905080000006301000003000000000000000000000068000000000000000000000017
:401D0000000000001212000000000000000000000000000000000000000000BA0000000000000000000000000000000000001D1D47656E6572617465645F536F757263652C
:401D40005C50536F43365C70646C5C647269766572732F7065726970686572616C2F6970632F63795F6970635F6472762E68000047656E6572617465645F536F7572636579
:401D80005C50536F43365C70646C5C647269766572735C7065726970686572616C5C6770696F5C63795F6770696F2E630000000047656E6572617465645F536F757263657C
:401DC0005C50536F43365C70646C5C647269766572735C7065726970686572616C5C6770696F5C63795F6770696F2E680000000047656E6572617465645F536F7572636537
:401E00005C50536F43365C70646C5C647269766572735C7065726970686572616C5C6970635C63795F6970635F6472762E68000047656E6572617465645F536F7572636531
:401E40005C50536F43365C70646C5C647269766572735C7065726970686572616C5C6970635C63795F6970635F6472762E63000047656E6572617465645F536F75726365F6
:401E80005C50536F43365C70646C5C647269766572735C7065726970686572616C5C6970635C63795F6970635F706970652E630047656E6572617465645F536F7572636554
:401EC0005C50536F43365C70646C5C647269766572735C7065726970686572616C5C70726F745C63795F70726F742E630000000047656E6572617465645F536F757263650F
:401F00005C50536F43365C70646C5C647269766572735C7065726970686572616C5C737973636C6B5C63795F737973636C6B2E630000000047656E6572617465645F536FD5
:401F4000757263655C50536F43365C70646C5C647269766572735C7065726970686572616C5C737973636C6B5C63795F737973636C6B2E680000000047656E657261746566
:401F8000645F536F757263655C50536F43365C70646C5C647269766572735C7065726970686572616C5C737973696E745C63795F737973696E742E630000000047656E6530
:401FC00072617465645F536F757263655C50536F43365C70646C5C647269766572735C7065726970686572616C5C737973706D5C63795F737973706D2E630000000020403F
:4020000000002440000000400000000000002340000030400000314000009F40000022400000104002020202020202020210101D800017007500FF03060206360410200052
:40204000000000007FC0000000040000000000000019324B647D00804000080B100000000000FF012002001F00800004FF081018001000140018001C4044484C500000000F
:40208000081000000800000004000000041000000012000004210000002100000016000040114002C41300138013A013200000001C00000000002140000025400000014074
:4020C0000000344000002440000031400000324000001F410000234000001140010101010101010101101010800019005500F0000501053B04101C01010000000FC00000B3
:402100000004000001010101011D3A57789600082000101208000000001F00000010000F002000023F06080E00080009000A000B24282C303400000010000000900000002B
:4021400088000000080000008000000004F0000000F00000400200002005A000D00100018001A0012000000010000000000000000000001000000008C000000090210010A7
:40218000C0000008400500003C060008D80100000048E80100127A0000093D0000093D0000093D0004000000A00F00000000D007E9000010C10000100000000010B5000443
:4021C000400B27D0144B1A68146AB023D15ACA00531AE3181B68002BF4DA3E220F4B1A600F4A104B1A60104B0621A322D20099500E4A98509B58084B1A68106AB023D15AAE
:40220000CA00531AC31800225A60084B064AD358002BFADA10BDC04610080008040126401E1F000008012640000026401C05000010B54378FF2B20D100F032FA04000F4B3D
:402240001A683123D35C042B04D8C421FF310C4800F0FEF9094B1A68116AB023D35A9B00CB18DB685A68116801230B4313601368DB07FCD4200000F0E3F910BD10080008C6
:40228000301D0010F0B585B001900291544B1A683123D35C002B04D1C421FF31514800F0D7F94F4B1B681E6AB4229A58971950229B5C002B77D000F003FA050003283CD18F
:4022C000474B1A683123D35C062B04D8C421FF31444800F0BDF9424B1968B023CB5A5A00D21853000A6A94466344B4228A58D3181B68002B23DB002000F0B2F93A4B9842F8
:402300001FD03A4B1A6900230021012000F0C0F9002803D0364C17E0013400E00024002000F09EF9304B984202D0324B9C42F3D9304B9C4207D92E4C06E0002404E02C4CDD
:4023400002E02B4C00E00024002C46D100F0A8F90390294B294AD358002B13DA234A0121300000F08DF900280ED10298FFF726FF019B002B0AD03B68002BFCDB00F078F9D7
:40238000040004E01A4C02E0194C00E01C4C032D05D10121002000F08BF90028F9D1039800F04EF919E000F07BF905000F4A0121300000F065F9002809D1019B002B08D0C4
:4023C0003B68002BFCDB00F053F9040002E0084C00E00B4C280000F033F9200005B0F0BD10080008301D001001018800E807000805005200EF4902001C05000000002640AF
:4024000001005000F0B54F464646C0B4824B1A685468B0235B055B78002B04D0B0235B055B78DBB200E02123212B67D1B023D15ACB005B1A116A8C46634419680029F5DA1B
:40244000DD6802212943D960B023D15ACB005B1A116A8C466344D968C9073ED5D9680904090C8C4684271168D559A84641440968090A0904FF26360431400D00882611686A
:40248000894691598846C14449460968090A0906294365462943D9601168D359C9180A685E4B98461A4090252D012A430A605A4B99461A6813689C46925962441368414629
:4024C00019400B002B4313604B461A681568D15969180B689359EB181B684F4B1A68B021555AEB005B1B156AAC46634400255D60156A515ACA00531AEB185B68484A11694D
:4025000004230B431361012801D030BF00E020BF414B1A68B023D15ACB005B1A116A8C46634419680029F3DAB02149054978002904D0B02149054978C9B200E021212129AF
:4025400032D1D968C90722D510688421525880180468324A1440DB681B0C1B02FF2109020B40234303602C4B19688823C8580B689C46604403681A400D6AB023CC5AE1001D
:402580000B1BEB18DB681B0E1B021A430260224B1A68106AB023D15ACA00531AC318DA6802218A43DA6028E086235B00E358002B23D11C4807681C4BA321C9005E581B4A7D
:4025C000904615681A4A0260062058503E21424611600631174A9950164B134AD358002BFADA154A86235B00E2500E4B1F60A323DB000D4AD6500D4B1D60074B1A68106A85
:40260000B023D15ACA00531AC31800225A600CBC90469946F0BDC04610080008FF00FFFF00ED00E00801264000002640040126401E1F00001C050000AAAAAAAA000000004E
:4026400001B40248844601BC604700BF3B16001001B40248844601BC604700BFB114001001B40248844601BC604700BF450C001001B40248844601BC604700BF610800109A
:4026800001B40248844601BC604700BF2D0A001001B40248844601BC604700BF290E001001B40248844601BC604700BF3316001001B40248844601BC604700BFB90B0010AF
:4026C00001B40248844601BC604700BF35040010000000000000000000000000000000000000000000000000000000000000000000000000000000000000000000000000A5
:402700000000000000000000000000000000000000000000000000000000000000000000000000000000000000000000000000000000000000000000000000000000000099
:402740000000000000000000000000000000000000000000000000000000000000000000000000000000000000000000000000000000000000000000000000000000000059
:402780000000000000000000000000000000000000000000000000000000000000000000000000000000000000000000000000000000000000000000000000000000000019
:4027C00000000000000000000000000000000000000000000000000000000000000000000000000000000000000000000000000000000000000000000000000000000000D9
:020000041008E2
:4000000000780408EB0208100D0000005103081051030810510308105103081000000000000000000000000000000000115308104D03081000000000B153081015540810F9
:400040004D0308104D0308104D0308104D0308104D0308104D0308104D0308104D0308104D0308104D0308104D0308104D0308104D0308104D0308104D0308104D03081000
:400080004D0308104D0308104D0308104D0308104D0308104D0308104D0308104D0308104D0308104D0308104D0308104D0308104D0308104D0308104D0308104D030810C0
:4000C0004D0308104D0308104D0308104D0308104D0308104D0308104D0308104D0308104D0308104D0308104D0308104D0308104D0308104D0308104D0308104D03081080
:400100004D0308104D0308104D0308104D0308104D0308104D0308104D0308104D0308104D0308104D0308104D0308104D0308104D0308104D0308104D0308104D0308103F
:400140004D0308104D0308104D0308104D0308104D0308104D0308104D0308104D0308104D0308104D0308104D0308104D0308104D0308104D0308104D0308104D030810FF
:400180004D0308104D0308104D0308104D0308104D0308104D0308104D0308104D0308104D0308104D0308104D0308104D0308104D0308104D0308104D0308104D030810BF
:4001C0004D0308104D0308104D0308104D0308104D0308104D0308104D0308104D0308104D0308104D0308104D0308104D0308104D0308104D0308104D0308104D0308107F
:400200004D0308104D0308104D0308104D0308104D0308104D0308104D0308104D0308104D0308104D0308104D0308104D0308104D0308104D0308104D0308104D0308103E
:400240004D0308104D0308104D0308104D0308104D0308104D0308104D0308104D0308104D0308104D0308104D0308104D0308104D0308104D0308104D0308104D030810FE
:400280004D0308104D0308104D03081010B5054C237833B9044B13B10448AFF300800123237010BD4C4902080000000068A90810084B10B51BB108490848AFF300800848A5
:4002C000036803B910BD074B002BFBD0BDE81040184700BF000000005049020868A908101C430208000000007047FFF7FDFF72B6104C114DAC4209DA21686268A368043B81
:40030000A2BFC858D050FAE70C34F3E70B490C4A00209142BCBF41F8040BFAE709480A490860BFF34F8F02F043FB02F01DFB02F073FCFEE76CA9081084A908104C490208B3
:40034000000E03080040020808ED00E0FEE7FEE700B504207146084202D0EFF3098001E0EFF30880043003F0CDF8FEE70378427843EA0223827843EA0243C07843EA006090
:40038000704700BFF8B505460E4600241EE006EB8400FFF7EBFF00F05533400800F05530184400210FE08B0020FA03F202F00302023320FA03F303F0030301EBC407D31AF0
:4003C00025F8173001310729EDD901341F2CDED9F8BD00BF08B5FFF7D5FF08BD08B5FFF7D1FF08BD2DE9F0034FF000084FF00009002113E0465CCC00A4F12007C4F1200582
:40040000002306FA07F73B4326FA05F52B4306FA04F248EA020849EA030901310729E9D940464946BDE8F003704700BF70B400240EE0E100C1F12006A1F1200522FA01F129
:4004400003FA06F6314323FA05F5294301550134072CEED970BC70472DE9F04FADF5337DB190D0E90034CDE92E34D0E90212CDE93812D0E90434CDE93A34D0E90634CDE9AC
:400480003C34D0E90812CDE93E12D0E90A3440A9C1E90034D0E90C3442A9C1E900340346D0E90E1244A8C0E900121A46D3E9103446A9C1E90034D2E9123448A9C1E90034AD
:4004C0001346D2E914124AA8C0E900121A46D3E916344CA9C1E90034D2E918344EA9C1E900341346D2E91A1250A8C0E900121A46D3E91C3452A9C1E90034D2E91E3454A9BE
:40050000C1E900341346D2E9201256A8C0E900121A46D3E9223458A9C1E90034D2E924345AA9C1E900341346D2E926125CA8C0E900121A46D3E928345EA9C1E90034D2E976
:400540002A3460A9C1E900341346D2E92C1262A8C0E900121A46D3E92E3464A9C1E90034D2E930344FF0000C66AAC2E9003401F057B8DDE92E8940ABD3E9003488EA030888
:4005800089EA04094AABD3E9003483EA080384EA0904984654ABD3E9002382EA08026340904699465EABD3E9001281EA080182EA090288469146DDE9386742ABD3E90001E3
:4005C00046404F404CABD3E900017040794056ABD3E9004544404D40264660ABD3E9003473406C401E462746DDE93A0144ABD3E90045604069404EABD3E9004544404D40DA
:40060000204658ABD3E9003443406C401846214662ABD3E9004544404D4020462946DDE93C2346ACD4E9004562406B4050ACD4E9004554405D4022462B465AACD4E9004503
:4006400054405D4022462B4664ACD4E9004554405D40CDE90645DDE93E3448AAD2E900AB83EA0A0384EA0B0425461C4652ABD3E9002362406B4014461D465CABD3E900230C
:4006800062406B4014461D4666ABD3E9002362406B4014461D464FEA470E4EEAD67ECDF8A4E14FEA460E4EEAD77ECDF8A0E168ABD3E9002362406B40CDE900234FEA410ED2
:4006C0004EEAD07ECDF8ACE14FEA400E4EEAD17ECDF8A8E16AABD3E9002382EA080283EA0903CDE90223DDE906AB4FEA4B0E4EEADA7ECDF8B4E14FEA4A0E4EEADB7ECDF82E
:40070000B0E16CABD3E900AB8AEA060A8BEA070BCDE904AB4FEA450E4EEAD47ECDF8BCE1640044EAD57ECDF8B8E16EABD3E9004544404D402E4625464FEA490141EAD87E71
:40074000CDF8C4E14FEA480141EAD97ECDF8C0E170ABD3E9009ADDE9062382EA090283EA0A039B469246DDE92E89DDE9003488EA030889EA040972ABC3E9008942ABD3E92C
:400780000089DDE9022388EA020889EA030940464946040D44EA093ECDF8D0E1090D41EA083ECDF8D4E14EABD3E90001DDE9043443404C4021465C0D44EAC12ECDF8D8E18A
:4007C000490D41EAC32ECDF8DCE15AABD3E90001CDE92E56684071404C0544EAD02ECDF8E4E1400540EAD12ECDF8E0E166ABD3E90045CDE906AB52465B4654405D40A90326
:4008000041EA944ECDF8ECE1A10341EA954ECDF8E8E174ABD3E900AB76ABD3E9002322EA0A0023EA0B0172ACD4E9005645404E402846DFF894EB0EEBCC04D4E9004580EAE7
:40084000040886EA050942A9C1E9008978A9D1E9006726EA020027EA030154465D4644404D404EA9C1E900457AACD4E9008928EA060029EA070142404B4066A9C1E90023AB
:4008800072ABD3E9002322EA080423EA090566406F405AA9C1E9006711462AEA01012BEA030293460A465B46404649465040594072ABC3E90001DDE93CABDDE92E568AEADC
:4008C000050A8BEA060B52465B46190741EA1A1BCDF8F4B1120742EA131BCDF8F0B148ABD3E900ABDDE9062382EA0A0283EA0B03190541EA123BCDF824B0120542EA133B6B
:40090000CDF820B04AABD3E90078DDE90045674088EA05084346D90041EA577BCDF82CB0FA0042EA587BCDF828B056ABD3E90089DDE9021288EA010889EA020942464B4600
:40094000D10C41EA493BCDF8F8B1DB0C43EA483BCDF8FCB162ABD3E90089DDE9040180EA080081EA090189460B46C10841EA497BCDF830B0DB0843EA407BCDF834B0DDE9B9
:400980000812DDE90A7827EA010128EA020213460A467CA9D1E9009A4F4657408AEA030856ABC3E900787EABD3E90067DDE90A0126EA000227EA0103DDE90801504059407E
:4009C000CDE93C01DDE90C0120EA060221EA0703DDE90A01504059404AABC3E90001C846D146DDE90CAB28EA0A0129EA0B02084686EA000A87EA020B62ABC3E900AB41465E
:400A00004A46DDE9088928EA010129EA02021346DDE90C8988EA010889EA030948ABC3E90089DDE93867DDE9028986EA080687EA0907790041EAD67BCDF8C4B0720042EA4D
:400A4000D77BCDF8C0B044ABD3E9009ADDE9041281EA090182EA0A02894692460A465346990141EA996BCDF83CB0920142EA9A6BCDF838B050ABD3E90067DDE92E9A86EA4A
:400A8000090687EA0A07790641EAD61BCDF804B2720642EAD71BCDF800B25CABD3E900ABDDE9066786EA0A0687EA0B07390241EA166BCDF80CB2320242EA176BCDF808B213
:400AC0005EABD3E900782E46674088EA06084346990441EA973BCDF814B2BA0442EA983BCDF810B2DDE90E9A80A9D1E9006726EA090227EA0A03DDE930015040594044AB2C
:400B0000C3E9000182ABD3E9004524EA060225EA070389EA02098AEA030A5CABC3E9009A84ABD3E900AB2AEA04012BEA050213464E405F40CDE93867DDE9307827EA0A022E
:400B400028EA0B03204629465040594050ABC3E900013A464346DDE90E8928EA020229EA03038AEA02088BEA03095EABC3E90089DDE93E56DDE9060168407140CB0643EA5F
:400B8000501BCDF81CB2C30643EA511BCDF818B240ABD3E900ABDDE900568AEA050A8BEA060B52465B46110F41EA0B1BCDF820B21B0F43EA0A1BCDF824B24CABD3E90012B2
:400BC000DDE9028981EA080182EA090213460A46990241EA925BCDF844B0920242EA935BCDF840B058ABD3E90078DDE904347B4084EA08041F46E10341EA574BCDF82CB21E
:400C0000FA0342EA544BCDF828B264ABD3E90078DDE92E45674088EA05084346390A41EA086BCDF848B01B0A43EA076BCDF84CB088ABD3E900ABDDE9107827EA0A0228EAE8
:400C40000B0386A9D1E900010746574081EA030864ABC3E900788AABD3E90067DDE9108926EA080227EA09038AEA02088BEA030940ABC3E90089DDE9122322EA060823EAC0
:400C8000070942464B46DDE9108988EA020889EA030958ABC3E9008980468946DDE9120128EA000229EA01033046394650405940CDE92E0142464B462AEA02022BEA030391
:400CC000DDE9129A89EA02098AEA030A4CABC3E9009ADDE93A67DDE9042372407B401F46930843EA877BCDF830B2BB0843EA827BCDF834B246ABD3E90078674088EA0508CC
:400D000041467B0A43EAC85BCDF850B04B0A43EAC75BCDF854B052ABD3E90012DDE906344B40544019460A46490E41EAC41BCDF838B2630E43EAC21BCDF83CB254ABD3E993
:400D40000023DDE900566A407340D10D41EA432BCDF858B0DB0D43EA422BCDF85CB060ABD3E90023DDE902566A407340990041EA92759195920042EA93759095DDE914AB7A
:400D80008EA9D1E9005625EA0A0226EA0B038CA9D1E9000180EA020881EA030952ABC3E90089DDE9168928EA050229EA06038AEA020A8BEA030B60ABC3E900AB90ABD3E9B0
:400DC00000AB2AEA08082BEA090942464B4655405E4046ABC3E900568046894655465E4620EA0A0221EA0B03DDE916015040594054ABC3E9000142464B46DDE9148928EA7B
:400E0000020229EA030355405E40CDE93A5642ABD3E9009A56ABD3E9001289EA01098AEA020AC84644ABD3E9001281EA080182EA0A0264ABD3E900AB8AEA010A8BEA020BDF
:400E400052ABD3E9001281EA0A0182EA0B02884691464EABD3E90067DDE93C4566406F405CABD3E9003473407C401E46274640ABD3E9004574407D4060ABD3E900AB8AEAE1
:400E8000040A8BEA050B56465F4666ABD3E900344AAAD2E900124B405440DDE938AB8AEA030A8BEA040B5046594658ABD3E9002342404B40194646ABD3E9003453404C404C
:400EC000184621465AABD3E9002362ACD4E9004562406B4050ACD4E9004554405D4022462B46DDE92E4554405D40224654ACD4E900AB8AEA020A8BEA050BCDE900AB72AB27
:400F0000D3E9003448AAD2E900AB83EA0A0384EA0B0425461C465EABD3E900AB8AEA040A8BEA050B54465D464CABD3E900AB8AEA040A8BEA050B54465D46DDE93AAB8AEA30
:400F4000040A8BEA050B54465D464FEA470A4AEAD67BCDF84CB24FEA460A4AEAD77BCDF848B292ABD3E9002362406B40CDE902234FEA410A4AEAD07BCDF854B24FEA400A6C
:400F80004AEAD17BCDF850B294ABD3E900AB8AEA080A8BEA090BCDE904AB019B4FEA430A009B4AEAD37BCDF85CB2009B4FEA430A019B4AEAD37BCDF858B296ABD3E900AB08
:400FC0008AEA060A8BEA070B6E0046EAD4779997640044EAD577989798ABD3E9005645404E40CDE906564FEA490141EAD8779B974FEA480141EAD9779A979AABD3E900895F
:40100000DDE9003483EA080384EA0904A1461F46A04642ABD3E90056DDE9020145404E4028463146DDE93C45DDE9042354405D4022462B46240D44EA053518951B0D43EAF8
:4010400002351995DDE9384584EA0A0485EA0B0522462B46640D44EAC52532955B0D43EAC2253395DDE92E34DDE906565D4066402A46740544EAD5251B95520542EAD62514
:401080001A95DDE93A45CDE900783E464F4666406F40BC0344EA96459D95B20342EA97459C95DDE91845DDE9327827EA040428EA050522462B4642404B400CF101040EEB0F
:4010C000C40EDEE9004582EA040883EA0509CDE92E89DDE91A45DDE9327824EA070425EA080522462B46DDE9184554405D40CDE93845DDE91A349CAAD2E9005625EA030308
:4011000026EA04041A46574088EA0408CDE93A782F46B04620EA050521EA06062A46DDE91A4554407540CDE93C45DDE9184524EA000425EA010529463D46464665404E4014
:40114000CDE93E565AABD3E90023DDE90601504059400B0743EA10153595030743EA1115349548ABD3E90045DDE90001604069400B46090541EA10359F95020542EA133575
:401180009E9544ABD3E90023DDE9020142404B40D90041EA52751D95D20042EA53751C9540ABD3E90045DDE9042354405D402B46E10C41EA45351E95DB0C43EA44351F9563
:4011C00046ABD3E9000180EA0A0081EA0B010B46C10841EA43752095DB0843EA407521959EABD3E90089DDE91C0120EA080521EA09062A46DDE934455440754040ABC3E9F8
:401200000045DDE91E34DDE91C5623EA050024EA060146464F4688EA000889EA010942AAC2E90089DDE9208928EA030129EA04021346DDE91C8988EA010889EA030944AB6F
:40124000C3E90089DDE93445DDE9208924EA080025EA0901DDE91E2342404B4046A9C1E9002326EA040427EA0505DDE9208988EA040889EA050948ABC3E900894EABD3E90E
:401280000001DDE90445604069404B0043EAD075A195430043EAD175A0954AABD3E9000180EA0A0081EA0B010B46890141EA9065A395820142EA9365A29550ABD3E900236F
:4012C000DDE9065655405E402A46710641EAD5152395520642EAD61522954CABD3E90045DDE9002362406B40190241EA12652595120242EA1365249552ABD3E90012DDE918
:40130000024561406A4013460A46990441EA92352795920442EA93352695A2ABD3E90089DDE9220120EA080521EA09062A46A0A9D1E9004520462946504071404AABC3E9C7
:401340000001DDE92401DDE9226720EA060021EA070146464F4646404F404CABC3E90067DDE92401DDE9262322EA000023EA0101DDE9226746404F404EA9C1E9006724EA40
:40138000020025EA030102460B46DDE924015040594050ABC3E9000128EA040029EA0501DDE9266746404F4052ABC3E9006772ABD3E90034DDE90001584061400C46C906EE
:4013C00041EA5015A59501E0C8990810C20642EA5415A49556ABD3E90012DDE9024561406A4013460A46090F41EA0311A6911B0F43EA0215A7955CABD3E90034DDE9041258
:401400004B4054401A46A10241EA92552995920242EA9455289558ABD3E9001281EA0A0182EA0B0213460A46D90341EA52412B91D20342EA53452A9554ABD3E90023DDE999
:40144000064554405D40210A41EA05612C912B0A43EA04652D95A6ABD3E90089DDE9281221EA080522EA09062A46A4A9D1E90045204629465040714054ABC3E90001DDE9DD
:401480002A12DDE9286721EA060122EA0702134646464F464E405F4056ABC3E90067DDE92A12DDE92C6726EA010127EA02021346DDE928674E405F4058ABC3E90067DDE980
:4014C0002C6724EA060125EA070213460A46DDE92A01504059405AABC3E9000128EA040129EA05021346DDE92C674E405F405CABC3E9006766ABD3E9003483EA0A0384EAA4
:401500000B049A469B0843EA8473A893A30843EA8A73A99362ABD3E90001DDE9063443404C4018465B0A43EAC453AA93630A43EAC053AB935EABD3E90034DDE90012594037
:40154000624014460A46490E41EAC411AC91630E43EAC213AD9364ABD3E90023DDE9024562406B40D10D41EA4321AE91DB0D43EA4223AF9360ABD3E90023DDE9044562408D
:401580006B40990041EA92713791920042EA93733693AAABD3E90067ACA9D1E9008928EA060229EA0703A8A9D1E900AB50465946504059405EABC3E90001AEABD3E900013D
:4015C00020EA080221EA090334463D4654405D4060ABC3E90045DDE9364524EA000225EA010344464D4654405D4062ABC3E90045DDE936892AEA08022BEA090350405940F9
:4016000064ABC3E9000126EA0A0A27EA0B0B88EA0A0489EA0B0566ABC3E900450CF1020CBCF1170F7EF7A5AF66ABD3E900ABB19A1346DDE92E01C2E90001DDE93812C3E97E
:4016400002121A461946DDE93A34C2E90434DDE93C23C1E906230B46DDE93E12C3E908121A46194640ABD3E90034C2E90A3442ABD3E90023C1E90C230B4644AAD2E9001227
:40168000C3E90E121A46194646ABD3E90034C2E9103448ABD3E90023C1E912230B464AAAD2E90012C3E914121A4619464CABD3E90034C2E916344EABD3E90023C1E91823E2
:4016C0000B4650AAD2E90012C3E91A121A46194652ABD3E90034C2E91C3454ABD3E90023C1E91E230B4656AAD2E90012C3E920121A46194658ABD3E90034C2E922345AABD6
:40170000D3E90023C1E924230B465CAAD2E90012C3E926121A4619465EABD3E90034C2E9283460ABD3E90023C1E92A230B4662AAD2E90012C3E92C121A4664ABD3E90034BE
:40174000C2E92E3453465C46C2E930340DF5337DBDE8F08F2DE9F043B3B080460F4616469946C8220021684607F0C0FA002306E008EBC30200200021C2E900010133182BAB
:40178000F6D916E0EC003019FEF72CFE4444D4E9002350405940C4E90001013500E00025B5EBD70FEED34046FEF756FEC7EB09093E44B945F3D2002305E0F15C32AA1A44E8
:4017C00002F8C81C01339945F7D832AA13449DF8E82003F8C82C7B1E32AA134413F8C82C62F07F0203F8C82C00250CE0EC000DEB0400FEF7F7FD4444D4E90023504059406B
:40180000C4E900010135B5EBD70FEFD333B0BDE8F08300BF2DE9F0410646884617461D4612E03846FEF718FE002407E0E0003B18D3E900233044FEF7F9FD0134B4EBD50FF2
:40184000F4D32E4408F1FF38B8F1000FE9D1BDE8F08100BF00B583B01F23009313460A46A821FFF777FF03B05DF804FB08B5A823FFF7D0FF08BD00BF00B583B01F23009388
:4018800013460A468821FFF765FF03B05DF804FB08B58823FFF7BEFF08BD00BF70B5D4B005460C461146124EA6FB0426F6091A466846FFF7E1FF6A4631462846FFF7E8FFB9
:4018C00006EB0616F300E41A10D01E466A46012132A8FFF7DDFF002306E09A1954A9194411F8881CA9540133A342F6D354B070BDF1F0F0F010B5D6B00446062300931346EA
:401900000A46882124A8FFF725FF882324AA012102A8FFF77FFF002303E002AAD25CE25401331F2BF9D956B010BD00BF10B5C6B004460623009313460A46482114A8FFF712
:4019400009FF482314AA012102A8FFF763FF002303E002AAD25CE25401333F2BF9D946B010BD00BFF0B586460024204619E0165D1444657846EA0526C6F30B06A4782D09F7
:4019800045EA0415B6F5506F02D82EF810600130884205D2B5F5506F02D82EF8105001303C46884202D2E71C9F42E0D9F0BD00BF08B500F063FD08BD38B50546144600F0BC
:4019C0005DFD002304E003F5C062E15CA95401331F2BF8D938BD00BF38B50D461446114600F05EFD002304E0E21892F80026EA5401331F2BF8D938BD08B500F051FD08BD00
:401A000038B50446154600F0ABFD294604F5B06000F01CFC38BD00BF38B50D461446114600F0CCFC04F5B061284600F015FB38BD2DE9F04FADF5357D8346019192464FF017
:401A4000000856E0BAF1000F08D05FFA89F35FFA88F2019902A800F061FE07E05FFA88F35FFA89F2019902A800F058FE02AA032135A8FFF7FBFE0BEBC82707EB49274FF41C
:401A8000FC7335AA4FF480713846FFF76BFF06464FF4FC7521E01A4CA4FB0534640804EB44042C1B002305E02A1B1A4435A98A5CCA540133A342F7D302AA012135AB18194E
:401AC000FFF7D4FE04F1A8052B4635AAC6F5807107EB4600FFF746FF0644FF2EDBD909F1010901E04FF00009B9F1030FAAD908F10108B8F1030FF5D90DF5357DBDE8F08F13
:401B0000ABAAAAAAF0B5ADF5615D81B006460F4620210DF5605000F0B3FD20220DF560510846FFF703FF00220DF560510DF5C050FFF77EFF002214460AE0551CEDB20DF585
:401B4000605120310DEB442000F000FB01342A46032CF2D900240CE0551CEDB20DF5605120310DF5805303EB442000F0EFFA01342A46032CF0D9684600F0A4FC0DF58050AC
:401B800000F0A0FC00240FE00DF5006303EB44256A460DF5C05303EBC421284600F0AAFC284600F01DFB0134032CEDD90DF580520DF50061084600F037FD0DF5006000F093
:401BC000B7FC69463846FFF7F3FE0DF560520DF500613046FFF7F0FE0DF5615D01B0F0BDF0B5ADF58C4D89B006460C461F460DF58C410DF55850FFF7EFFE214680A800F058
:401C00008BFA01220DF58C410DF56060FFF710FF002214460AE0551CEDB239460DF5785303EB442000F092FA01342A46032CF2D900240AE0551CEDB239460DF5385303EB1F
:401C4000442000F093FA01342A46032CF2D93946684600F08BFA0DF5785000F033FC00240CE00DF578520DF5606303EBC4210DF5C06303EB442000F03DFC0134032CF0D918
:401C80000DF578520DF558510DF5806000F032FC0DF5C06000F022FC0DF5806000F076FA0DF538520DF5C061084600F0BDFC6A460DF58061084600F061FB80AA0DF580615B
:401CC000084600F05BFB0DF5C06000F031FC0DF5806000F097FA0DF580620DF5C0613046FFF78EFE0DF58C4D09B0F0BD30B5ADF5A05D81B0044615460A4680A90DF54060F9
:401D0000FFF78AFE29460DF58060FFF775FE0DF5406000F0D7FB0DF540620DF58061684600F0E8FB684600F031FA6A4680A9684600F034FB684600F065FA6946204600F08E
:401D4000F3FA0DF5A05D01B030BD00BF38B505460C46FFF7D7FE002304E003F5C062E95CA1540133B3F5C46FF7D34FF4C462294604F54260FFF7BEFD202104F5446000F09F
:401D80007FFC002038BD00BF70B5A0B004460E461546202110A800F073FC202210A90846FFF7A8FD4FF4C462294618A8FFF7A2FD40220DEB02016846FFF7B8FD08AB2A4624
:401DC00010A92046FFF70CFF4FF4C462214608A8FFF790FD40236A4620213046FFF75EFD002020B070BD00BFF0B5ADF2A46D06460D46144602F5C0670DF5CC60FFF776FFC4
:401E000000230AE003F12002E11891F8201C0DF5D460024402F8401C01331F2BF2D940220DF5CC610DF5C460FFF780FD0DF5C8633A460DF5CC616846FFF7D2FE4FF4C462C3
:401E40006946284600F09CFC07464FF4C46229460DF5C860FFF74EFDFBB2202204F544610DF5C46000F0A0FC40230DF5C46220213046FFF713FD00200DF2A46DF0BD00BF0A
:401E80000238C0B2022804D80122034B1A60002070474FF0FF307047684902084FF4C460704700BF4FF44660704700BF4FF4C460704700BF2020704708B5044B1B6813B16B
:401EC000FFF744FF08BD4FF0FF3008BD6849020808B5044B1B6813B1FFF756FF08BD4FF0FF3008BD6849020808B5044B1B6813B1FFF77AFF08BD4FF0FF3008BD6849020830
:401F000008B500FB01F000F0DBFB08BD2DE9F04705460123802623E003F10109124A32F913803C4612E006EB040A35F91A104046FFF7E6FF35F9143080B21B1A25F81A3084
:401F400035F91430184425F814000134F3199C42E9D337194B4600E00027FF2FDCD97608012EF9D8BDE8F087889A08102DE9F84F064600224FF002082FE002F1010B204B5B
:401F800003EB4203B3F900A14D4617E008EB050736F9170036F81540204400B200F0A0FB26F8150036F91710611A09B226F817105046FFF7A5FF26F81700013509EB080310
:401FC0009D42E3D308EB05095A4601E04FF00009B9F1FF0FD1D94FEA4808B8F1800FF5D9002408E040F2A15136F91400FFF788FF26F814000134FF2CF4D9BDE8F88F00BF57
:40200000889A0810F8B504460D4616461F46B2F90210B5F90200FFF773FF20803946FFF76FFF2080B6F90010B5F90000FFF768FF238818442080B6F90210B5F90000FFF78D
:402040005FFF6080B6F90010B5F90200FFF758FF638818446080F8BD70B483B000263AE00A788DF800204B78520942EAC3028DF801209A088DF802208A78DB0943EA420376
:402080008DF80330CB78120942EA03128DF804205A088DF805200A799B0943EA82038DF80630D2088DF807200531002410E004EBC60502AB234413F8083C03F01F0340F648
:4020C000015202FB03F310335B0920F815300134072CECD901361F2EC2D903B070BC7047F0B4002514E06B005C190A5D661C8F5D42EA0722C2F30B0220F8132001338A5DC5
:402100000C44A478120942EA041220F8132001357F2DE8D9F0BC704730B4002411E00B5D134143F3000302EBC40523F4BF735B055B0D20F81530013200E00022072AEED946
:4021400001341F2CF9D930BC704700BF10B5A0B0044613460A468021684600F0FBFA69462046FEF737F920B010BD00BF10B5A0B0044613460A468021684600F0EBFA6946FE
:402180002046FEF72BF920B010BD00BF08B5FFF7EDFE08BD2DE9F843814688461746002518E0AC0005F140020C4B33F91260E80033463A1808EB00014844FFF723FFA01CA1
:4021C000734240001BB23A1808EB00014844FFF719FF01353F2DE4D9BDE8F883889A081038B5054600240AE035F9143040F2495000FB03F000F064FA25F814000134FF2C34
:40220000F2D938BD38B50546002406E035F9140000F066FA25F814000134FF2CF6D938BD10B50446FFF772FE2046FFF7EBFF10BD38B50546002406E035F9140000F060FA5F
:4022400025F814000134FF2CF6D938BD30B583B005460C460846FFF7EBFF002040E001EBC00334F91320520102F5D0621E4BA3FB02E3D21A03EB520302AA0A44C3F3C423A9
:4022800002F8083C013100E000210729E7D99DF800209DF8013042EA43122A709DF802109DF80320DB0843EA810343EAC2136B709DF80430520842EA0312AA709DF805102F
:4022C0009DF806201B0943EA410343EA8213EB709DF80730920842EAC3022A71053501301F28D1D903B030BD8176FB3A70B504460D460846FFF79CFF002111E04B0035F92B
:402300001320581C35F810000B44E2545E1CC2F3072242EA0012A25502330009E05401317F29EBD970BD00BF70B505460C460846FFF77EFF00261BE0A8190021A95514E033
:4023400001EBC60334F813305B0003F5D0630A4A82FB03E21A44DB17C3EBE22303F001038B4002781343037001310729E8D901361F2EE1D970BD00BF41BB7D9D30B400238B
:4023800007E031F9135032F913402C4420F813400133FF2BF5D930BC704700BF30B4002307E031F9134032F91350641B20F813400133FF2BF5D930BC704700BFF0B484B079
:4023C000002755E00B784A7843EA0223ADF800308B78D20842EA4312ADF80220CA780C799B0943EA820343EA8423ADF804304A79640844EAC214ADF806408B79120942EABD
:402400000312ADF80820CC790A7ADB0943EA440343EA4223ADF80A304B7A920842EA8312ADF80C208A7A5B0943EAC203ADF80E300B31002414E004EBC60504AB03EB440308
:4024400033F8103CC3F30A0340F6015202FB03F303F58063DB0A05EB072220F812300134072CE8D9013600E000261F2EAAD90137032FF9D904B0F0BC704700BF70B50646BA
:402480000D46002408E004EB4403D80105EB44213044FFF72BFF0134032CF4D970BD00BF70B506460D46002408E004EB4403D901294406EB4420FFF713FE0134032CF4D9CE
:4024C00070BD00BF38B50546002404E005EB4420FFF7A6FE0134032CF8D938BD38B50546002404E005EB4420FFF750FE0134032CF8D938BDF0B5ADF5017D05460F461646D5
:40250000FFF748FE01240BE06102721839446846FFF740FE6A4629462846FFF72FFF0134032CF1D92846FFF76DFE0DF5017DF0BD38B50546002404E005EB4420FFF762FE3E
:402540000134032CF8D938BD38B50546002404E005EB4420FFF76CFE0134032CF8D938BD70B584B004460D460846FFF7EDFF002654E001EBC00303EB062335F91320D20298
:4025800002F5D062274BA3FB02E3D21A03EB520304AA02EB4102C3F3CA2322F8103C013100E000210729E4D9BDF800302370BDF802201B0A43EAC2036370BDF8043052094A
:4025C00042EA8312A2709A08E270BDF806109B0A43EA41032371BDF80820C90941EA02116171BDF80A30120942EAC312A2715A08E271BDF80C205B0A43EA82032372BDF8CB
:402600000E30920942EA43126272DB08A3720B34013000E000201F28C3D90136032EF9D904B070BD8176FB3AF8B507460E461546002406E060022A1831183844FFF79EFE2C
:402640000134032CF6D9F8BD38B50B4B1B7893B962B6094C094D211D284603F007FA04F13001284603F0EAF803F038F9012003F0B9F80123237038BD6C490208889C0810F4
:4026800070B584B006460D46FFF7DEFF002410E00A4B009303AB07224FF086414FF0844003F034F9012003F09DF89DF80C3033550134AC42ECD304B070BD00BFC8490208B4
:4026C00000EB400303EBC30303EBC30300EB03231BB240F6015202FB13000014704700BF44F6BF6303FB00F39B1603EB430203EB820203EB02239BB2C01A00B2704700BF3E
:40270000A0F6015080B240F3C03323F43F7323F002031B051B0D184400B2704770B58AB0002405E00E5D0AAD254405F8246C01341F2CF7D9611C0AAD2C4404F8242C2A463C
:402740000A4402F8243C222201A9FFF783F80AB070BD00BF70B58AB0002405E0165D0AAD254405F8246C01341F2CF7D90AAA144404F8243C212301AAFFF790F80AB070BD18
:4027800070B400252B4604E0C65CCC5C7440254301339342F8D3EAB20023524263EB4303D80F70BC704700BF70B45B42DBB2002506E0465D4C5D74401C4074404455013599
:4027C0009542F6D370BC704708B5012000F014FE08BD00BF704700BF5C4AD2F8803303F00F0303F1D00152F8212002F00702032A04D0042A05D092B9554914E0554A116810
:4028000011E003F1C002514951F8222002F01F02112A06D0132A04D04FF4FA4103E04E4901E04FF400418BBB484BD3F8902502F00100D3F88825C2F30172D3F8883513F0C3
:40284000405F07D0414BD3F88835C3F30173012B02D102E0012300E0002303B108B9032A46D13A48D0F88025C2F31103D0F88425C2F30C02D0F88005C0F300600130B1FBBA
:40288000F2F202FB03F2B2FBF0F131E0012B2FD12E4BD3F8402602F00100D3F80026C2F30172D3F8003613F0405F07D0274BD3F80036C3F30173012B02D102E0012300E0C5
:4028C000002303B108B9032A12D12048D0F8002602F07F02D0F80036C3F30423D0F80006C0F3044002FB01F2B2FBF3F2B2FBF0F1164BD3F88033C3F3011321FA03F21549A0
:402900004A601648D0F89030C3F3072301330069000E0130B2FBF0F08860B2FBF3F3CB600B6103F5742202F23F220D48A0FB0202C2F387420A7503F2E7330A4AA2FB0323B2
:402940009B098B61DB03CB61704700BF0000264000127A008C42020800366E010000214083DE1B43D34D621008B50D4800F02CFEFFF730FFFFF730FF00221146042000F023
:4029800003FB084800F096FB074B1B6893F8513013B1064800F0FEFB00F040FA08BD00BFD09F0810D8490208700D0308B89C081008B500F002FE074AD2F8883043F47003EE
:4029C000C2F88830BFF34F8FBFF36F8F00F0F9FD08BD00BF00ED00E000B583B0164B0022C3F8C82F0422C3F8C02FD3F8C03F134BB3F90030002B09DB5A0903F01F03012154
:402A000001FA03F360320E4941F8223002A9002341F8043D0B4B186801F054FC019B43B13BB14FF08052084B1A60BFF34F8FBFF36F8F03B05DF804FB00006640CC9D08100A
:402A400000E100E0584B020804ED00E010B503220021012001F0D6FA2E4B186002F01AFE2D4B1868002302221946406806F050FA2A4806F009FA03220021012001F0C2FA2A
:402A8000274B1860274C2849204600F0EFFCB4F90030002B08DB590903F01F03012202FA03F3224A42F821300422214BC3F8C82F00231A4619461748006801F0C9FA4FF0B9
:402AC000FF31174B186801F007FD16E0124B186842685368013B5360002B04DA416806F0DBF9C0B204E042681368591C116018783F2802D10F4806F0C7F90D4BD3F8083396
:402B0000C3F30803002BE1D10422094BC3F8C82FD5E700BF6C0D030810430208EC9C0810584B0208CC9D0810D929081000E100E000006640009D08102DE9F0414FF0FF31B5
:402B40002D4B186801F0C8FC2C4806F09DF90420FFF796F910B12A4806F096F9FFF7A2F90446FFF79BF90646FFF7A0F90546FFF7A1F980460121204606F096F80746214CA0
:402B800020600121304606F08FF8064660600121284606F089F80546A0600121404606F083F8E06017B10EB105B118B9164806F06BF902E0154806F067F9124B19685868D0
:402BC000FFF77AF910B1124806F05EF90D4B5A68D9689868FFF77CF910B10E4806F054F9084B1A689968D868FFF77EF910B1094806F04AF9FEE700BF6C0D0308109D081029
:402C0000349D08105C4B0208489D0810649D0810809D08109C9D081000B583B062B6002401940223009323464FF4C8720849094801F088FE01940123009323464FF40052A4
:402C40000549064801F07EFE01F0AEFEFEE700BFB49D08104D2A0810C09D0810392B081010B504462146034800F0DEFC0028F9D010BD00BF00006640054BD3F80833C3F367
:402C80000803002BF8D0024BD3F84003704700BF000066401F4B98422DD00CD840282ED003D8E8B1102828D02FE0802829D0B0F5807F28D029E0184B984228D006D8B0F167
:402CC000204F0DD0154B984212D01EE0144B98420AD00133984209D0023B984215D101E0002070470F4870470F4870470F4870474FF4A0007047074870470D4870470D4894
:402D000070470D487047034870470C4870474FF4A400704706005200010000F0090000A0040000F0010052000200520003005200010050000200500005005200FF005200F8
:402D400038B5124B1B6893F83130012B04D840F2C3110F4800F0C6FB0C4B1D682A6AB5F8B03013442C46D5F8B420D358002B0BDB084B1868FFF78EFF6B6801229A606368D0
:402D80009B68002BFBD138BD034838BD700D0308D49D08106C4B0208020050001A4B186128B102230370FF23437000234380174B1B6893F850202AB300B583B0B3F93830FD
:402DC000ADF80030002301931149684600F04EFBBDF90030002B08DB590903F01F03012202FA03F30B4A42F82130084B1B6893F8513023B102220849012000F077FA03B046
:402E00005DF804FB704700BF6C4B0208700D03088D43020800E100E04544020808B50248FFF7BCFF08BD00BF804B020838B50B4B1B68D3F8B4301B58002B0DDA0D460446A9
:402E40000B0C1B0423B140F2D521054800F04AFBA9B26160002038BD024838BD700D0308149E081001008A0038B50368002B01DA002300E0094B73B90D460446C2600B0C9A
:402E80001B0423B140F2BB21054800F02BFBA9B2A160002038BD014838BD00BF01008A00149E081038B504460D4619B99921084800F018FB074B1B68D3F8B4301B59002B5F
:402EC00003DAE3682B60002038BD034838BD00BF549E0810700D030801008A00254B1B6893F8313083423AD900293AD00B6813F01F0F38D170B50D4604461E4B1B6893F81E
:402F00003130984204D340F2C3111B4800F0EAFA184B1B68186AB3F8B03004FB0304174E34602A68D2080021686805F0DFFE00212046FFF77BFF346825B940F293310E4864
:402F400000F0D0FA2A4600212046FFF78DFF60B900210A4B1868FFF769FF40B970BD084870470748704706487047064870BD054870BD00BF700D0308149E0810844B02089A
:402F800003018A0001018A0010B504461346B2B9A9B9124B1B6893F83130984204D340F2C3110F4800F09EFA0C4B1B681A6AB3F8B03004FB03240B4B1C60002010BD43B19E
:402FC00049B1084A51609360111D2046FFF786FF10BD054810BD044810BD00BF700D0308149E0810844B020803018A002DE9F0411B4B1B68DC68236883422CD90D464609EF
:40300000A0EB4610012303FA00F819B900F0D5FA074600E00027124B18680368002B01DA002300E00F4B83B9626852F8263018EA030F05D023EA080342F82630002400E0CB
:40304000094C0021FFF7F2FE00E0084C25B9384600F0B7FA00E0064C2046BDE8F08100BF844B020801008A00020188000301880004018A000B4B1B68DB681A6882420CD905
:403080004109A0EB4110012202FA00F05B6853F82130184203D004487047044870470448704700BF844B02080101880004018A0000018800024B1B680BB9014B18607047FD
:4030C000904B02082DE9F8430446884691461D46089F2C4B1B681BB9B5212B4800F002FA284B1B682C2000FB04F01C18EEB21E50C5F3072363602D0CA560244B1B6893F8CB
:4031000031309E4204D340F2C311214800F0EAF91E4B1B68196AB3F8B02006FB02162661666893F832309E4204D340F2DF11184800F0D8F9154B1B681D6A803605EB46158B
:403140006561A668330C1B0423B14FF4FF71104800F0C8F9330C1B0423B140F2FF110C4800F0C0F9B3B243EA0646AE60C4F81C90C4F820800023A36117B1B7F90030A38179
:40318000BDE8F883904B0208949E0810700D0308149E0810F0B58FB0044618B95221274800F0A0F9A369072B03D95621234800F099F9E36A1BB95821204800F093F9236B7A
:4031C0001BB959211D4800F08DF907AD04F114060FCE0FC537682F6002AD26460FCE0FC533682B60164B1B68B3F93620079B1344ADF83030089B0D93A26AE16A0CAD009546
:403200003B460A98FFF75EFF00210091069B0A460598FFF757FF216B284600F027F9BDF93030002B08DB590903F01F03012202FA03F3044A42F821300FB0F0BD949E081043
:40324000700D030800E100E0F8B506460F461D4614461AB9FD211F4800F044F91E4B1B681BB9FE211B4800F03DF91B4B1B682C2101FB063001FB07314B68012202FA03F3A9
:403280001B04466802FA06F60269EAB18F69EFB91268002A01DA002200E0104AC2B92288134323600369DC6001238B614D620469330C1B0423B140F2BB21094800F012F96A
:4032C000B2B2A2600020F8BD0648F8BD0648F8BD0548F8BD949E0810904B020801008A00149E081004028A0007028A00F8B505460F4616460E4B1B6823B94FF4AF710D48CB
:4033000000F0F0F80A4B1B682C2404FB0534236A23B94FF4B171074800F0E4F8E369B34204D9236A43F826700020F8BD0248F8BD904B0208949E08100A028A0070B582B000
:4033400000230193044620B940F2D111284800F0C9F8236923B94FF4E971254800F0C2F8636923B940F2D311214800F0BBF8236A23B94FF4EA711E4800F0B4F86369DD683E
:403380002A0C20D012041A601B682069194B1B68D3F8B430C358002B15DA01A9FFF782FD60B9019803681E0CDBB2E269934206D2226A52F8233013B1984700E0002631464C
:4033C0002069FFF733FDADB275B16369ADB21D601B68636A1BB198470023636202E0A36A03B198470023A36163691B6802B070BD949E0810700D030810B50446074B1B6881
:4034000023B940F2B111064800F06CF8034B1B682C2000FB0430FFF791FF10BD904B0208949E081038B50D4B9A680D4B9A420FD10D46044621B940F237110A4800F052F874
:4034400004F11003064A52F8230042F8235038BD1030054B53F8200038BD00BF00ED00E000400208D49E08100000081048B338B504460D464368072B03D93221134800F0A1
:4034800031F8B4F900306268002B08DB5201D2B203F1604303F5614383F8002305E003F00F035201D2B20A49CA540A4B9A680A4B9A4208D12946B4F90000FFF7B3FF00200F
:4034C00038BD06487047002038BD00BFD49E081014ED00E000ED00E0004002080100560001BEFEE738B50D46044C18220146204605F0B8FDA5610020FFF7F2FFB848020849
:40350000FEE700BF08B50268254BDA6142681A6282685A62C2689A620269DA6242691A6382695A63C2699A631E4A916AD963D16A1964516A5964516B9964926BDA64F1EEE2
:40354000103A13F0900F27D0026A154B1A65426A5A65826A9A65C26ADA65026B1A66426B5A66826B9A66C26BDA66026C1A67426C5A67826C9A67C26CDA67026DC3F8802022
:40358000426DC3F88420826DC3F88820C26DC3F88C20026EC3F89020FFF7B2FF08BD00BFB848020800ED00E00230800803D001300238FCD100BF00BF7047EFF3108072B6A4
:4035C000704780F310887047014B1860704700BF700D030810B4D0F8003303F00F03072B06D900230DE0D0F84043CC54013300E000239342F7D306E0D0F8404321F81340CD
:4036000001339342F8D35DF8044B704710B51446D0F80833C3F308039A4200D31C462246FFF7D8FF204610BD036813F4006F01D0802200E04022D0F80832C3F308039342D1
:4036400003D0C0F84012012070470020704700BF10B4D0F8003203F00F03072B06D900230DE0CC5CC0F84042013300E000239342F7D306E031F81340C0F84042013393423E
:40368000F8D35DF8044B704710B51446036813F4006F01D0802200E04022D0F80832C3F30803D31AA34200D81C462246FFF7D0FF204610BD2DE9F84305460C46036813F4A0
:4036C000006F02D04FF0800801E04FF04008D5F8007207F00F07A26A012A19D9D4F82490E262561EB9F1000F00D026B940F273512548FFF7F7FE324649462846FFF7C4FFC9
:40370000A36A1B1AA362072F00D9400048446062D5F80832C3F30803984533D0A36A012B30D10023A362072F02D8636A1E7801E0636A1E88FFF741FFC5F840624FF4007389
:40374000C5F8803FD5F8803FFFF73BFFD5F8883F23F4007222F0010242F4007623F4EE6323F0030323B140F236410848FFF7BAFEC5F8886F236843F002032360236B0BB1F3
:4037800001209847BDE8F88388A00810C8A008102DE9F04105460C46036813F4006F01D0802600E040267608A769D4F81C8017B1B8F1000F04D14FF499613148FFF792FE20
:4037C000424639462846FFF721FF236A03442362E3691B1AE36173BBA368FBB1E3689E4201D8013E00E05E1E2B6813F4006F01D0802300E040239E4204D34FF423712148E5
:40380000FFF770FED5F8043323F0FF03F6B21E43C5F804630123C5F8C83F02E00023C5F8C83F636823F001036360236B33B304209847BDE8F081A169D5F8002302F00F02FE
:40384000072A00D940000844A0619E4216D95C1E2B6813F4006F01D0802300E040239C4204D34FF423710748FFF73CFED5F8043323F0FF02E3B21343C5F80433BDE8F08190
:4038800088A00810C8A00810002800F0A48170B50546002900F0A18116460C460B78022B03D93F21A248FFF71DFE637B023BDBB2062B03D940219E48FFF714FEA37B3BB1BD
:4038C000022B05D0032B03D041219948FFF70AFE94F82130012B03D942219548FFF702FE94F82830012B03D943219148FFF7FAFD2378012B06D86368083B082B94BF0023F7
:40390000012307E0A37F2BB16368013B062B94BF002301231BB145218548FFF7E3FDA368053B042B03D946218148FFF7DBFD6369FF2B03D947217E48FFF7D4FDA369FF2B86
:4039400003D948217A48FFF7CDFDA37C6BB1237833B9A368092B05D1A37B2BB1012304E0012302E0012300E000231BB14A217048FFF7B8FD636B23F4366323F00D031BB173
:403980004C216B48FFF7AEFDE36B23F4EE6323F003031BB14D216648FFF7A4FD2378022B01D1A37F13B16268013A00E00022237F13B14FF4803100E00021A368082B02D8FE
:4039C0004FF4006300E000230B4302F00F02134343F000732B60226B2B6813F4006F01D0802300E040239A4203D362215048FFF779FDA26B2B6813F4006F01D0802300E056
:403A000040239A4203D363214948FFF76BFD626A2B6813F4006F01D0802300E040239A4203D364214248FFF75DFD23781B0603F040732B64637F0BB1402200E00022A37C4F
:403A400013B14FF4806300E000231343227C12B14FF4807200E000221343627C12B14FF4007200E000221A43E36A013B1B0403F470231343627B013A02F007021343A27B52
:403A8000120102F030021343AB64237B13B14FF4807200E00022E37B23B92378022B03D1012302E0012300E0002313B14FF4007300E000231A43A368013B03F00F03134352
:403AC000C5F80033227DA3691B0403F47F031343C5F81033E26AD5F8003303F00F0303339A4201D3102A03D97A211148FFF7FAFCE37F23B12378012B03D0002302E0002318
:403B000000E0012313B14FF4807200E00022637B013B03F007031A43A37B1B0103F0300313436B64237B2BB14FF4807203E000BF0CA108100022A368013B03F00F031343B3
:403B40002278012A02D14FF4803200E000221343C5F8003294F83030C5F8043394F8203013B14FF0007200E0002294F82130012B02D14FF0807300E00023134394F8282003
:403B8000012A02D14FF4803200E00022134394F8242013432B6594F83830C5F80432636B23F4926323F002031B051B0DC5F8C83FE36B23F08C035B055B0DC5F8883F76B1BC
:403BC000002070603060B060F0603062F0623063044B736370BD04487047034870BD002070BD00BFEFCDAB000160AA000B694A69934202D34869181A7047CA684869101AAB
:403C0000184470472DE9F04107460D46036813F4006F02D04FF0800801E04FF040084FEA5808D7F80863C6F308062C6926E00134EB689C4200D100246B699C420FD12B6BF0
:403C40000BB1082098476B699C4208D10023C7F8C83F0CB1013C13E0EC68013C10E0D7F84023D7F8003303F00F03072B02D8AB681A5502E0AB6823F81420013E002ED6D180
:403C80002C61EC6829463846FFF7B0FF201A804519D908B1441E00E000243B6813F4006F01D0802300E040239C4204D34FF423710648FFF717FCD7F8040320F0FF03E0B254
:403CC0001843C7F80403BDE8F08100BFC8A0081038B504460D46D0F8003E13F0080F35D0D0F8CC3F13F448730AD04A681A434A60C0F8C03FD0F8C03F0B6B0BB110209847B8
:403D0000D4F8CC3F13F4006F09D06B6843F400636B604FF40063C4F8C03FD4F8C03FD4F8CC3F13F0010F11D0EB6923B129462046FFF72EFD05E0AB681BB129462046FFF781
:403D400061FF0123C4F8C03FD4F8C03FD4F8003E13F0040F2ED0D4F88C3F13F4A0630AD02A681A432A60C4F8803FD4F8803F2B6B0BB120209847D4F88C3F13F0010F08D02E
:403D800029462046FFF796FC0123C4F8803FD4F8803FD4F88C3F13F4007F0BD00022C4F8882F2B6823F001032B60EA622B6B0BB10220984738BD00BF00F1080343604FF089
:403DC000FF328260C360036100230360704700BF00230361704700BF43684B609A688A609A68516099600861036801330360704730B40D68B5F1FF3F01D1026907E000F1CE
:403E0000080200E01A4653681C68A542FAD253684B6099608A605160086103680133036030BC704703694268816891608268416851605A68904201D182685A60002202617B
:403E40001A68013A1A601868704700BF10B5044601F070FAA26BE36B9A4201D1012400E0002401F089FA204610BD00BF10B5044601F060FAA36B0BB9012400E0002401F0CD
:403E80007BFA204610BD00BF70B504461646856B026CFAB166B9806804F01DFFA268236C1344A3606268934214D32368A36011E0C06804F010FF236C5B42E2681A44E26077
:403EC00021688A4202D262681344E360022E01D105B1013D0135A563002070BD026C72B110B50346C4681444C4604068844201D31868D8600846D96804F0EDFE10BD704781
:403F000038B5054601F016FA95F8454064B20AE06B6A53B105F1240000F026FF08B100F0B1FF013C64B2002CF2DCFF2385F8453001F022FA01F0FEF995F8444064B20AE06E
:403F40002B6953B105F1100000F00EFF08B100F099FF013C64B2002CF2DCFF2385F8443001F00AFA38BD00BF38B540B94FF03F0383F31188BFF36F8FBFF34F8FFEE7044677
:403F80000D4601F0D7F92168E26B236C03FB021060600020A063A160013A02FB0313E360FF2384F8443084F845307DB92369ABB104F1100000F0D8FE80B14FF08052094B81
:403FC0001A60BFF34F8FBFF36F8F07E004F11000FFF7F2FE04F12400FFF7EEFE01F0CCF9012038BD04ED00E010B5029B0C4609B91B6000E01A60D8631C6401211846FFF721
:40400000B3FF10BD40B94FF03F0383F31188BFF36F8FBFF34F8FFEE7F0B583B0034611B101FB00F000E000201D4617460C46483001F0C2FA064638B100903B4600F14802CC
:4040400021462846FFF7D0FF304603B0F0BD00BFF0B585B0019240B94FF03F0383F31188BFF36F8FBFF34F8FFEE7044619B9026C1AB9012202E0012200E0002242B94FF035
:404080003F0383F31188BFF36F8FBFF34F8FFEE7022B03D1E26B012A02D102E0012200E0002242B94FF03F0383F31188BFF36F8FBFF34F8FFEE71D460E4600F0EBFE18B926
:4040C000019B1BB9012302E0012300E0002343B94FF03F0383F31188BFF36F8FBFF34F8FFEE7002701F026F9A26BE36B9A4201D3022D21D12A4631462046FFF7C5FE636A3C
:404100006BB104F1240000F02FFE88B14FF08052324B1A60BFF34F8FBFF36F8F08E038B14FF080522D4B1A60BFF34F8FBFF36F8F01F022F901204EE0019B1BB901F01CF9C7
:40414000002048E01FB902A800F052FE012701F013F900F067FC01F0EDF894F844305BB2B3F1FF3F02D1002384F8443094F845305BB2B3F1FF3F02D1002384F8453001F04A
:40418000FBF801A902A800F03DFEF0B92046FFF75DFEA0B1019904F1100000F0ADFD2046FFF7AEFE00F0CCFC00289BD14FF080520A4B1A60BFF34F8FBFF36F8F92E7204650
:4041C000FFF79EFE00F0BCFC8CE72046FFF798FE00F0B6FC002005B0F0BD00BF04ED00E02DE9F84340B94FF03F0383F31188BFF36F8FBFF34F8FFEE7044619B9006C18B914
:40420000012002E0012000E0002040B94FF03F0383F31188BFF36F8FBFF34F8FFEE7022B03D1E06B012802D102E0012000E0002040B94FF03F0383F31188BFF36F8FBFF376
:404240004F8FFEE71F469046894601F077F9EFF311864FF03F0383F31188BFF36F8FBFF34F8FA26BE36B9A4201D3022F1ED194F845506DB23A4649462046FFF705FEB5F148
:40428000FF3F0DD1636A9BB104F1240000F06CFD80B1B8F1000F0FD00120C8F800000CE06B1C5BB284F84530012006E0002004E0012002E0012000E0012086F31188BDE856
:4042C000F88300BF40B94FF03F0383F31188BFF36F8FBFF34F8FFEE770B50446036C43B14FF03F0383F31188BFF36F8FBFF34F8FFEE703681BB943681BB9012302E0012367
:4043000000E0002343B94FF03F0383F31188BFF36F8FBFF34F8FFEE70E4601F00FF9EFF311854FF03F0383F31188BFF36F8FBFF34F8FA26BE36B9A4218D294F845305BB205
:404340000132A263B3F1FF3F0AD1636A83B104F1240000F009FD68B176B1012030600CE001335BB284F84530012006E0002004E0012002E0012000E0012085F3118870BDBB
:40438000F0B585B0019240B94FF03F0383F31188BFF36F8FBFF34F8FFEE7044619B9036C1BB9012302E0012300E0002343B94FF03F0383F31188BFF36F8FBFF34F8FFEE7A5
:4043C0000E4600F067FD18B9019B1BB9012302E0012300E0002343B94FF03F0383F31188BFF36F8FBFF34F8FFEE7002700F0A2FFA56BC5B131462046FFF770FD013DA56332
:40440000236963B104F1100000F0AEFC38B14FF08052304B1A60BFF34F8FBFF36F8F00F0ABFF012053E0019B1BB900F0A5FF00204DE01FB902A800F0DBFC012700F09CFFD3
:4044400000F0F0FA00F076FF94F844305BB2B3F1FF3F02D1002384F8443094F845305BB2B3F1FF3F02D1002384F8453000F084FF01A902A800F0C6FCF0B92046FFF7F6FCE1
:40448000A0B1019904F1240000F036FC2046FFF737FD00F055FB0028A8D14FF080520D4B1A60BFF34F8FBFF36F8F9FE72046FFF727FD00F045FB99E72046FFF721FD00F022
:4044C0003FFB2046FFF7D2FC00288FD0002005B0F0BD00BF04ED00E030B585B0019140B94FF03F0383F31188BFF36F8FBFF34F8FFEE70446036C43B14FF03F0383F3118828
:40450000BFF36F8FBFF34F8FFEE700F0C3FC18B9019B1BB9012302E0012300E0002343B94FF03F0383F31188BFF36F8FBFF34F8FFEE7002500F0FEFEA36BA3B1013BA363D3
:40454000236963B104F1100000F00EFC38B14FF08052304B1A60BFF34F8FBFF36F8F00F00BFF012053E0019B1BB900F005FF00204DE01DB902A800F03BFC012500F0FCFEB7
:4045800000F050FA00F0D6FE94F844305BB2B3F1FF3F02D1002384F8443094F845305BB2B3F1FF3F02D1002384F8453000F0E4FE01A902A800F026FCF0B92046FFF756FCC2
:4045C000A0B1019904F1240000F096FB2046FFF797FC00F0B5FA0028ACD14FF080520D4B1A60BFF34F8FBFF36F8FA3E72046FFF787FC00F0A5FA9DE72046FFF781FC00F09B
:404600009FFA2046FFF732FC002893D0002005B030BD00BF04ED00E000230BE0074A52F8332032B9054A42F8331002EBC303586070470133092BF1D9704700BF740D030871
:4046400070B504460D46164600F074FE94F844305BB2B3F1FF3F02D1002384F8443094F845305BB2B3F1FF3F02D1002384F8453000F082FEA36B2BB93246294604F12400AC
:4046800000F054FB2046FFF73BFC70BD094B9B6A1B680BB9012300E0002323B14FF0FF32044BDA627047034B9A6AD268D2685268DA627047D04B020810B50446006B00F0AC
:4046C000ABFF204600F0A8FF10BD00BF2DE9F0478246894615469846089F099E0A9C9200A521206B04F002FB236B05F18042013A03EB820525F00705002308E019F803105C
:40470000E21882F8341019F8032012B101330F2BF4D9002384F84330062F00D90627E762201DFFF755FB04F11800FFF751FB2461C7F10703A3616462002306E003F1100207
:4047400004EB8202002151600133042BF6D90023A36584F85C3042465146284600F0BCFD206006B13460BDE8F08700BF70B5002407E004EB8402930010481844FFF71CFBBA
:404780000134062CF5D90E4C04F1BC063046FFF713FB04F1D0052846FFF70EFB04F11400FFF70AFB04F1E400FFF706FB2046FFF703FBA662C4F8F85070BD00BF004C020886
:4047C000D04B020838B5044600F0B4FD264BD3F8FC200132C3F8FC20D3F800314BB9224BC3F80041D3F8FC30012B10D1FFF7BEFF0DE01D4BD3F804314BB91B4BD3F800317F
:40480000DA6AE36A9A4202D8174BC3F80041164AD2F808310133C2F80831E36AD2F80C21934202D9104AC2F80C310F4D05F1300003EB83039A00211D1044FFF7CDFA00F035
:404840009BFDD5F804316BB1D5F80031DA6AE36A9A4207D24FF08052044B1A60BFF34F8FBFF36F8F38BD00BFD04B020804ED00E038B517E000F05EFD0D4CD4F8F030DD68C1
:40488000281DFFF7CFFAD4F8FC30013BC4F8FC30D4F81031013BC4F8103100F06DFD2846FFF70AFF024BD3F81031002BE2D138BDD04B020808B5FFF7DBFF064B1B6B012BEA
:4048C000F9D94FF08052044B1A60BFF34F8FBFF36F8FF0E7D04B020804ED00E070B504460E46174BD3F81451D3F800010430FFF799FAB4F1FF3F07D136B11148D0F800114D
:404900000431FFF769FA70BD2C440D4BD3F800315C60A54208D90A4BD3F8F800D3F800110431FFF765FA70BD054DA86AD5F800110431FFF75DFAEB6A9C4200D2EC6270BD85
:40494000D04B02082DE9F04385B006460F4615469846900000F030FE60B18146602000F02BFE044610B1C0F8309004E0484600F053FE00E000248CB10023039302940D9B2D
:4049800001930C9B009343462A4639463046FFF79DFE2046FFF716FF012001E04FF0FF3005B0BDE8F08300BF00B583B0194B019300230093802218491848FFF7C3FF012863
:4049C00001D100F0CDFA012814D14FF03F0383F31188BFF36F8FBFF34F8F114B4FF0FF32DA620122C3F804210022C3F8142100F043FD0BE0B0F1FF3F08D14FF03F0383F369
