:020000041000EA
:4000000000400208230100100D00000085010010000000000000000000000000000000000000000000000000000000008101001000000000000000008101001081010010E9
:400040008101001081010010810100108101001081010010810100108101001081010010810100108101001081010010810100108101001081010010810100108101001060
:400080008101001081010010810100108101001081010010810100108101001081010010810100108101001081010010810100108101001081010010810100108101001020
:4000C00010B5064C2378002B07D1054B002B02D0044800E000BF0123237010BD300500080000000040180010084B10B5002B03D00749084800E000BF07480368002B00D1DF
:4001000010BD064B002BFBD09847F9E7000000003405000840180010E8000008000000007047FFF7FDFF72B60F4C104DAC4209DA21686268A368043B02DBC858D050FAE75E
:400140000C34F3E70A490B4A0020521A02DD043A8850FCDC084809490860BFF34F8F00F0E3F800F01DF8FEE7441800105C18001030050008080700080000000808ED00E0F4
:40018000FEE7FEE700B504207146084202D0EFF3098001E0EFF30880043000F03BFFFEE710B562B6014800F03FF9FEE70000081010B5002000F06EFD10BD0000F8B5E023C8
:4001C000504C9B00E2580F231340D022990092000919885807224C4D0240032A05D0042A05D0002A0FD0494811E028680FE0C022920089581F220A40112A01D0132A04D1D9
:400200008020000203E0424801E0FA20C001002B27D1B223B1210322DB00C900E658635867581B0F3F0F1340174205D0354F7958090F0A40012A01D1F20701D4032B3AD1F4
:40024000B023344ADB00E658A158E758C904C90C01F056F9B603F901B60BC90F7043013127E0012B27D1C823C0210322DB00C900E658635867583F0F174205D0214F795894
:40028000090F0A40012A01D1F20703D49B009B0F032B10D1C0227F23D200A758A1583B401F27A658090A3940584301F029F9310C394001F025F9E0239B00E3589B069B0F8B
:4002C000D840154B68601C691969240A090E013101F016F9E1B2A860013101F011F90F4BE860286104000E49C01801F009F9FA210C4B28758900E01801F002F9A861C003DF
:40030000E861F8BD00002640C000000800366E0100127A0084050000000021403F420F0040420F00E703000010B5254801F0E2F8B022E0213020234CD200A35889005B002B
:400340005B08A35063588343635080235B04A3501D4A1E4BE250A02204339201E250FF221B4BE25001F0B4F8C02201215200A3588B43A35000F082F8FFF720FFB0235B0524
:400380005A78002A02D05B78212B03D10022114BDA605A60104C80212200042000F00EFB2000103000F084FB0C4B1B6851331B78002B02D00A4800F0B7FB00F053FA10BD13
:4003C000881700100000264001000200840500008C050000E00023404C0500080407000840160010024BD86F032318407047C0460400214010B500F08CFE074A074BD16F60
:400400000B4007490B43D367102306490A681A42FCD000F082FE10BD04002140FCFF00000100FA058800214070B50F4C060000F070FEE36F0500DB439B0701D1FFF7DAFF5B
:40044000B0230A4A9B00D650E26F094B09491340094A1343E36710230A681A42FCD0280000F05BFE70BDC0460400214000002140FCFF0000880021400300FA05F0B59621DE
:400480008FB0002000F0DEFD00F0B4FD8C4E002810D100F0A1FDC0235B00F358894ADB0703D4B3585B005B08B3508021B35809060B43B350012000F08DFFE821824F8348D1
:4004C0007B6C890103400B437B647A6C0190120AD2B23A2A04D17B6C7D4A13400B437B64A0220321D200B3587A4C8B43B350236801981A001D0088321968126808358A1854
:4005000011680140802011601A68E96F400451180A681202120A02430A601968EA6F01988A1811683E33014011601A780394002A07D0E0210F24624A890052586048A2439D
:4005400042501A78002A05D0E021302089007258824372501B78002B06D0E02280219200B35809060B43B3500021012000F0AAFB0021022000F0A6FB0021032000F0A2FB7D
:400580000021042000F09EFB002105AD080000F099FB2B00504A13CA13C303CA03C3280000F0B8FB4C4B0293002800D0FEE780214A4A0906B3584A480B43B35000F006FC0B
:4005C0003F4C061E00D0FEE7464B474AE1580A40E250E158454A0A408021E250E25809060A43E250043BE158414A0A40E250E158404A0A40802189010A438021E250E25802
:4006000009020A43E2503A683B4B13408022520013433B6000F03EFF80212A4B0906E25830000A43E2500122E1580A43E250642100F008FD039B1B681A003F3211789A6809
:40064000052901D92D495650190074310988019889180A6802408C20800102430A601800190072307031007809789A68733381401878032383400B43802109060B43802101
:40068000C900535053582A00029B143313CB13C213CB13C213CB13C22900194800F0EAF82B00029C383407CC07C307CC07C307CC07C32900134800F0DDF80FB0F0BDC046D9
:4006C000000026400C05000000002740FF00FFFFFFC5FFDF0407000874160010087F0000400D030004050000FEFCFFFFFFFF00FFFFF0FFFFFF8FFFFFFFFCFFFF140C000069
:400700008002324000033240044B1B681A00B03212881B6A5043C0187047C04604070008034B1B68B4331B68C0180068C00F7047040700081E4A0300904238D010D840287F
:400740002ED005D8002831D010282DD119482EE0802827D08021100049008B4227D023E0154A904214D008D8A022120690421DD0124AA020934211D016E0114A904209D014
:40078000104A904208D0104A90420DD10F480EE0A42003E00E480AE00E4808E0C00306E00D4804E00D4802E00D4800E0002070470600520001005000010000F0090000A059
:4007C000040000F0050000F0030000F00100520002005200030052000200500005005200FF00520010B50020FFF78EFFFFF798FF00280CD1074B1868FFF79CFF0122064B56
:400800001B685B689A609A68002AFCD100E0034810BDC046DC06000804070008020050000D4B10B51861002805D002230370FD33437000234380094B1B681A005032127841
:40084000002A08D051331B78002B04D002220449002000F0C9F910BDDC060008040700085101000810B502481430FFF7D9FF10BDDC06000830B5002830D000292ED0184B8A
:40088000CD681B689A695C69821AD209120112190C6804601C007D342478241825601C007E3424780D69241825601C007F3424784D69241825601C007C3424788D682418E5
:4008C00025604C68803384611B7818188B690360CB69002013600B6A536000E0014830BD0407000801005A00064B1B68B4331B68C3181B68002B03DA89B24160002000E01A
:40090000014870470407000801008A000368002B01DB034803E089B2C26081600020704701008A00064B1B68B4331B68C3181B68002B03DAC36800200B6000E0014870479F
:400940000407000801008A00F8B5184B0D001B681A0031321278824224D9002922D01F240A6814401ED11900B0310E88104F70431E6AD2088619210068683E6000F04CFEF2
:4009800021003000FFF7B0FF21002A003868FFF7BDFF011E04D13868FFF7A6FF031E02D0044B00E0044B1800F8BDC04604070008F406000801018A0003018A0010B5002A13
:4009C0000DD1002914D10B4B1A681300B0331B885843136AC018084B1860080009E0002906D0054B5960191D9A60FFF7ADFF00E0024810BD04070008F406000803018A007A
:400A0000194BF7B51A680193D76804003B680E00834223D90025A94202D100F07AFB0500019B18680368002B01DB104C10E063095A01A41A0122A24079689B00CB1819684A
:400A400011420DD00024914319600021FFF74CFF002E07D1280000F060FB03E0044C01E0044CF2E72000FEBDF40600080301880004018A00020188000A4B1B68DA681368A5
:400A800083420DD9430999005B01C31A0120984052688B581840431E9841034BC01800E002487047F40600080001880004018A00024B1A68002A00D118607047000700081C
:400AC000F0B52C246043154C1F0024681E0A2018FF2427403440124E1B0C356807602E6A44608360B0352D886F43BF190761270080377F01F71964010A4D476134191F047C
:400B00003B436419236000238361059BC2610162002B01D01B888381F0BDC046000700080407000808100000F0B5038985B002AD2B80144B02681B68066ADB8E476A9B1831
:400B4000AB7043680095826AC16A040003930369C068FFF7B5FF00213B000A0000913000FFF7AEFF216B280000F0DAF90023EA5E002A05DB1F231A401E3B9340024A1360EE
:400B800005B0F0BD0407000800E100E0F7B52C25124C6843276801933C182669002E08D04D4379198869002805D13568002D02DA03E00B4811E00B480FE0676801242500B4
:400BC0004B689D4013882D041D431560F2608C61BC40019BA4B24B62B460FEBD0007000804028A0007028A002C235843064B1B681818C369934204D9036A9200D1500020DD
:400C000000E002487047C046000700080A028A0073B5002642690400D56801962B0CB34221D01B0413601368194B00691B68B4331B68C3181B68B34215DA01A9FFF772FE21
:400C4000B0420CD10198E26903681E0C0378934205D2226A9B009B58002B00D0984731002069FFF741FEADB2002D0ED063691D6000251B68636AAB4202D09847656203E0B2
:400C8000A36A002B00D09847A56163691B6873BD040700082C2310B55843034B1B681818FFF7B6FF10BDC04600070008044B10301B6880021B69C0580F2318407047C04601
:400CC00004070008104B1B683C331B78834219D904290FD94B1EFF3B132B13D81F2319400A4B8000C018C02304229B00C1504033C25005E00723D0301940044B8000C1509F
:400D0000002000E002487047040700080000264001004A00F0B5B024244BE4001A59002A42DB02689203910BC279551EAA4112060A431A5102891E4D12042A4011008288D3
:400D4000C024D204D20C0A431A49A4055A50FF21C67A828936010E40174912020A400F213243867A31400A431600827B12072240110032000A43B121C9005A50E022877962
:400D8000D2003F02174039000C4E0D4A9C59144021439951018A9A5909040D40094900200A402A439A5100E00748F0BD000026400000FF018405000000FF1F008C050000E2
:400DC000FFF8FFFFFFFF00FE03004A00F7B580210600050004272F4B2F4C0906E2580A43E2500093B223DB00E3583B4206D1002D04D0012000F0E6F8013DF3E7B121802029
:400E0000C9006358254A80051340034363500192002E01D0002D06D0B0228021D200A35809060B43A3500127B223DB00E3583B4206D1002D13D0012000F0C4F8013DF3E76D
:400E4000002E01D0002D0CD0B122C0210020D200A35889050B43A350864217D119E0002EF2D0B122D200A35801990B40802189050B43A350083AA3585B005B08A350009BE3
:400E8000009AE3585B005B08A35001E0002D00D10348FEBD8C05000000002640FFFFFFCF02004A00134B30B51D6807222B0028331B78012B13D183081C00944319D19C009A
:400EC000021BD20091402B6820331B191C6861400800FF21914001406140196009E00240802000060243802080012B6809188900CA5030BD04070008064B10309A68064B2D
:400F00009A4203D183009858995002E0034B8000C058704700ED00E00000000800000010F7B5061E019142D00023C05E002804DBB178FFF7B7FF002400E01E4C0023F05ED1
:400F40007668B601002815DB0321FF250140C9008D40C027AC46184B82089200D218BF00D3591D0063469D43FF2333408B402B43D35113E00F2281B20A40083A0F4B920809
:400F80009200D218032319409940FC331D0033408D408B40D769AF433B43D361074B9A68074B9A4204D10199FFF7A6FF00E0014C2000FEBD0100560000E100E000ED00E0A9
:400FC0000000000810B5034B1B78584300F098F810BDC046D400000880220020034B12069A649B6C834200DA0148704700002740030046008022054B120198585B68DBB2B8
:40100000002B02D08023DB021843704700002640FEE7000002680A4B10B51A6042685A6082689A60C268DA6002691A6142695A6182699A61C269DA61FFF7EAFF10BDC046E2
:4010400010050008F0B51924002800D14B342A4B03261A688C42A4411300A8331F8813686442FD182B68B34323432B601368234DFF183B682B403B601300AA331B88156826
:401080005F193D68B5432C433C6014681B4D1B191C6825401D60002808D00023102924D921338B429B415B4201331EE0130055331C780300A14218D9130056331C78012313
:4010C000A14212D9130057331C780223A1420CD9130058331C783300A14206D9130059331B788B42404105231B1A0F2152681068884303431360F0BD04070008FFFCFFFF61
:401100000230800803D001300238FCD1C046C0467047EFF3108072B6704780F310887047B0235B055A782120002A01D05878C0B27047B0235B059A89002A02D0988980B235
:4011400001E080204000704770B5FFF7F2FF8022194B5200904215D119680F240B00022098330A681B68D3181A68A24302431A600A009C320B6812689A181368A34303430B
:40118000136017E0B0241B680C4A6405A5581A009832196812688A18C0211068890029430143116019009C311A680B68D318044AA2581A6070BDC046040700084818000000
:4011C0004418000070B5FFF7B4FF8022194B5200904215D119680F240B00032098330A681B68D3181A68A24302431A600A009C320B6812689A181368A3430343136017E07A
:401200001B68B0251A00983219681268C1248A18C0216D0564012E598900106831430143116019009C311A680B68D3182A591A6070BDC0460407000810B5FFF77AFF8022A8
:40124000104B52001B6890420CD1190098311A680B68D21811680C4B0B40C021C9010B4313600EE0B021094A49058858190098311A680B68D318C0221968920002430A43BE
:401280001A6010BD04070008FF8FFFFF1818000070B5FFF74EFF8022144B52001B6890420CD1190098311A680B68D2181168104B0B408021C9010B43136015E01A00983246
:4012C00019681268B0258A18C0210A4C6D052E598900106831430143116019009C311A680B68D3182A591A6070BDC04604070008FF8FFFFF4C18000010B50020FFF7D6FC7C
:401300000400FFF70DFF0123222801D863426341180010BD70B50400FFF702FF85B2FFF708FF06000020FFF7C1FC80235B00002811D19E4211D1222D35D880221D4B1E496E
:401340001B6824065D681D4B6E585204144033401C436C502CE09E4223D0164A1268156A9E4203D1002C05D1154A06E0002C03D1144A02E0144A00E0144A01212800FFF746
:40138000C5FA002813D10B4B1B68B4331B68EB181A68002AFCDBEB6800201B0EA02B06D106E0222D03D9034B1B681D6ADAE7084870BDC0460407000818F00000FFFFFFFE98
:4013C000010000300100000C010100300300000C04004200F7B50700FFF7ABFE80235B00984209D0FFF795FEB0230190234D244A5B05002F06D012E0FFF77EFF0028F1D1A6
:40140000204E38E0AF50E8220120D2009C5CFFF781FFE4B2061E20D1FFF796FE11E01A4903205958A9501F21184A9C5C184AE4B2AB588B4314390B43AB50FFF7C3FDFFF7C1
:4014400027FF1F2312491C406A589A4314436C50002F06D1FFF7F0FE3E000198FFF75DFE09E00720FFF7AEFDFFF7ACFE0020FFF751FF0600F1E73000FEBDC046000026409D
:40148000307F00000300420010180000410700001CFF000010B50C4B042803D11A68104318600FE0094A000612681400A034116822688A18C02189040840042110601A6828
:4014C0008A431A6010BDC04610E000E004070008C0228020064952008B58C0059B009B08034380208B508B58000603438B50704700002640014B18607047C046040700086A
:40150000002243088B4274D303098B425FD3030A8B4244D3030B8B4228D3030C8B420DD3FF22090212BA030C8B4202D31212090265D0030B8B4219D300E0090AC30B8B423A
:4015400001D3CB03C01A5241830B8B4201D38B03C01A5241430B8B4201D34B03C01A5241030B8B4201D30B03C01A5241C30A8B4201D3CB02C01A5241830A8B4201D38B02FB
:40158000C01A5241430A8B4201D34B02C01A5241030A8B4201D30B02C01A5241CDD2C3098B4201D3CB01C01A524183098B4201D38B01C01A524143098B4201D34B01C01A70
:4015C000524103098B4201D30B01C01A5241C3088B4201D3CB00C01A524183088B4201D38B00C01A524143088B4201D34B00C01A5241411A00D20146524110467047FFE7CC
:4016000001B5002000F006F802BDC0460029F7D076E770477047C04603008218934202D019700133FAE77047F8B5C046F8BC08BC9E467047F8B5C046F8BC08BC9E4670473B
:401640000300000001000000010000000000000005036000040000000100000000000000010000000604600008000000BC060008B1010010F4010000140004010A000905D3
:401680000800000063010000030000000000000000000000680000000000000000000000000000001212000000000000000000000000000000000000000000BA0000000075
:4016C00000000000000000000000000000001D1D0000204000002440000000400000000000002340000030400000314000009F4000002240000010400202020202020202C7
:401700000210101D800017007500FF030602063604102000000000007FC0000000040000000000000019324B647D00804000080B100000000000FF012002001F0080000482
:40174000FF081018001000140018001C4044484C50000000081000000800000004000000041000000012000004210000002100000016000040114002C41300138013A01311
:40178000200000001C0000000000214000002540000001400000344000002440000031400000324000001F4100002340000011400101010101010101011010108000190045
:4017C0005500F0000501053B04101C01010000000FC000000004000001010101011D3A57789600082000101208000000001F00000010000F002000023F06080E000800097A
:40180000000A000B24282C3034000000100000009000000088000000080000008000000004F0000000F00000400200002005A000D00100018001A0012000000010000000F8
:40184000000000000000001000000008C000000064180010C00000085004000030050008D80100000048E80100127A0000093D0000093D0000093D0004000000A00F000090
:401880000000D007E9000010C10000100000000080B230B5C00020D0104B07211C682300B0331B885943236ACB181A68002AFCDA3E220B4B06251A600A4A0B4B1A60A3223E
:4018C0000A4BD2009D500A4A98509858206A09180020486099580029FCDA30BD04070008040126401E1F000008012640000026401C05000010B54378FF2B11D100F092F9A0
:401900000400042000F0CEF9C3685A68012311681943116011681942FCD1200000F08AF910BDF7B507000020019100F0BBF93C4B06001B681A005033B43215681B78451966
:40194000002B27D000F08EF9009003283CD1062000F0A8F900F07EF9041E5DD100F09AF9304B984258D0304A230021001269012000F080F9041E4FD1002000F08BF9294A8C
:401980002A4B904203D09C4246D00134F4E79C421AD141E000F046F9234A04000121300000F038F9002808D1002F08D02B68002BFCDB00F067F9050002E01D4D00E01D4D84
:4019C000200000F037F928E000F02CF91A4B1B4A0400D358002B06DA134A0121300000F019F9002801D0124D0CE00198FFF750FF002F06D02B68002BFCDB00F043F90500E8
:401A000000E00C4D009B032BDAD10121002000F0F9F80028F9D1D3E7054D2800FEBDC0460407000801018800DC060008F049020005005200010050001C05000000002640FE
:401A4000F0B5674C85B0236803905B68019300F0F9F8212846D1236807251A00B032128855431A6AAA1811680029FCDA0220D1680143D160D168C9072FD5D1681E000291B9
:401A800008218C469C44614688361C683068C96F6118241868460F6824680089240A24060443FF203F020004074027439024D76008684C4A240110402043086030681968A5
:401AC000091808680240144362460C601968D26F8A18126832688A1812681B6AED1800236B606B680421404A13690B431361039B012B01D030BF00E020BF39490A680C0093
:401B00001300B033188807234343126A9B181A68002AFCDA00F096F8212830D1236807261A00B032128856431A6AB218D168C9071ED519000831CF6F1968CF193868D568DF
:401B4000FF22284912022D0A154008400400280020433860180088301C68006820181C6A05683419E4682940240C22400A43026002221B6AF618F3689343F36022E0019BC1
:401B8000FC331B69002B1DD1A323184A1849194E194FDB000D68D45830680F600627D7503E233360154B3E37D750D758002FFCDA019B134AFC331A61A3230C4ADB000D60FF
:401BC000D4503060064B1A681300B033198807234B43126A9B1800225A6005B0F0BDC04604070008FF00FFFF00ED00E00000264008012640040126401E1F00001C05000021
:401C0000AAAAAAAA01B40248844601BC604700BF010A001001B40248844601BC604700BF0D09001001B40248844601BC604700BF1311001001B40248844601BC604700BFD7
:401C40001B11001001B40248844601BC604700BF2111001001B40248844601BC604700BF2107001001B40248844601BC604700BFE503001001B40248844601BC604700BF06
:401C80008D0B001001B40248844601BC604700BFE507001001B40248844601BC604700BF790A001001B40248844601BC604700BF0907001000000000000000000000000009
:401CC00000000000000000000000000000000000000000000000000000000000000000000000000000000000000000000000000000000000000000000000000000000000E4
:401D000000000000000000000000000000000000000000000000000000000000000000000000000000000000000000000000000000000000000000000000000000000000A3
:401D40000000000000000000000000000000000000000000000000000000000000000000000000000000000000000000000000000000000000000000000000000000000063
:401D80000000000000000000000000000000000000000000000000000000000000000000000000000000000000000000000000000000000000000000000000000000000023
:401DC00000000000000000000000000000000000000000000000000000000000000000000000000000000000000000000000000000000000000000000000000000000000E3
:020000041008E2
:4000000000780408EB0208100D0000005103081051030810510308105103081000000000000000000000000000000000714908104D03081000000000014A0810654A081016
:400040004D0308104D0308104D0308104D0308104D0308104D0308104D0308104D0308104D0308104D0308104D0308104D0308104D0308104D0308104D0308104D03081000
:400080004D0308104D0308104D0308104D0308104D0308104D0308104D0308104D0308104D0308104D0308104D0308104D0308104D0308104D0308104D0308104D030810C0
:4000C0004D0308104D0308104D0308104D0308104D0308104D0308104D0308104D0308104D0308104D0308104D0308104D0308104D0308104D0308104D0308104D03081080
:400100004D0308104D0308104D0308104D0308104D0308104D0308104D0308104D0308104D0308104D0308104D0308104D0308104D0308104D0308104D0308104D0308103F
:400140004D0308104D0308104D0308104D0308104D0308104D0308104D0308104D0308104D0308104D0308104D0308104D0308104D0308104D0308104D0308104D030810FF
:400180004D0308104D0308104D0308104D0308104D0308104D0308104D0308104D0308104D0308104D0308104D0308104D0308104D0308104D0308104D0308104D030810BF
:4001C0004D0308104D0308104D0308104D0308104D0308104D0308104D0308104D0308104D0308104D0308104D0308104D0308104D0308104D0308104D0308104D0308107F
:400200004D0308104D0308104D0308104D0308104D0308104D0308104D0308104D0308104D0308104D0308104D0308104D0308104D0308104D0308104D0308104D0308103E
:400240004D0308104D0308104D0308104D0308104D0308104D0308104D0308104D0308104D0308104D0308104D0308104D0308104D0308104D0308104D0308104D030810FE
:400280004D0308104D0308104D03081010B5054C237833B9044B13B10448AFF300800123237010BD7048020800000000989F0810084B10B51BB108490848AFF3008008485C
:4002C000036803B910BD074B002BFBD0BDE81040184700BF0000000074480208989F08101C430208000000007047FFF7FDFF72B6104C114DAC4209DA21686268A368043B38
:40030000A2BFC858D050FAE70C34F3E70B490C4A00209142BCBF41F8040BFAE709480A490860BFF34F8F02F069FA02F043FA02F0E3FAFEE7A49F0810BC9F0810704802087C
:40034000300D03080040020808ED00E0FEE7FEE700B504207146084202D0EFF3098001E0EFF30880043002F0A1FEFEE72DE9F043023001F1C00E4A7891F8008016028A7820
:40038000140446EA040242EA0802DFF86C80930803EA08084FEA520C174B22F07F4222F45B020CEA030322F4DB42434422F036021A44C2F3C20C02F00703CCEB030320F86D
:4003C000023CC2F3422CC2F38213CCEB03030380C2F3C23CC2F30233C2F382480331CCEB0303A8EB525271454380828000F10800C1D1BDE8F08300BF499224002DE9F04F9D
:40040000D0E90034ADF52F7DCDE90834D0E90234CDE90A34D0E90434CDE90C34D0E90634CDE90E34D0E90834CDE91034D0E90A34CDE91234D0E90C34CDE91434D0E90E3406
:40044000CDE91634D0E91034CDE91834D0E91234CDE91A34D0E91434CDE91C34D0E91634CDE91E34D0E91834CDE92034D0E91A34CDE92234D0E91C34CDE92434D0E91E3424
:40048000CDE92634D0E92034CDE92834D0E92234CDE92A34D0E92434CDE92C34D0E92634CDE92E34D0E92834CDE93034D0E92A34CDE93234D0E92C34CDE93434D0E92E34E4
:4004C000CDE93634D0E930340249CDE9383401F1D00C01E0689408101031614500F0D287DDE91234DDE908AB8AEA030A8BEA040BDDE91C3483EA0A0384EA0B049A46A346FF
:40050000DDE9263483EA0A0384EA0B049A46A346DDE9303483EA0A0384EA0B049A46A346DDE90A89DDE9143488EA030889EA0409DDE91E3483EA080384EA09049846A146BD
:40054000DDE9283483EA080384EA09049846A146DDE9323483EA080384EA09049846A146DDE91623DDE90C4554405D40DDE9202362406B4014461D46DDE92A2362406B4003
:4005800014461D46DDE9342362406B4014461D46DDE91867DDE90E2372407B40DDE9226756405F4032463B46DDE92C6756405F4032463B46DDE9366756405F40CDE90067F5
:4005C000DDE91A23DDE9106756405F40DDE9242372407B4016461F46DDE92E2372407B4016461F46DDE938234FEA490E7B401F464EEAD8734FEA480E9B934EEAD9739A9344
:4006000072409AAB1646D3E900234FEA450E72407B40CDE902234EEAD4734FEA440E9D934EEAD5739C939CABD3E9002382EA0A0283EA0B03CDE90423019B4FEA430E009B14
:400640004EEAD3739F93009B4FEA430E019B4EEAD3739E939EABD3E900234FEA470E83EA090399464EEAD6737600A19346EAD773A09382EA0802A0AB9046D3E9002362405C
:400680006B404FEA4B04CDE9062344EADA734FEA4A04A39344EADB73A293A2ABD3E900ABDDE9003483EA0A0384EA0B049A46A346DDE90223DDE90845DDE9046754405D4071
:4006C000DDE9142372407B40160D46EA03361B0D43EA02333B93DDE9202382EA080283EA09033A96560D46EAC3265B0D43EAC2233C963D93DDE90667DDE92C237B40724097
:400700005E0546EAD226520542EAD3233E93DDE9382383EA0B0382EA0A023F969E0346EA9246920342EA93434196409351E9062382EA040683EA0507CDE90067DDE93C237D
:40074000DDE93A6722EA060623EA0707DDE9002372407B40CDE90823DDE93C67DDE93E2322EA060223EA0703DDE93A6756405F40CDE9206740AED6E90067DDE93E2326EAC9
:40078000020227EA0303DDE93C675F4040AB5640D3E90023CDE93867DDE93E6724EA020225EA030356405F40DDE93A2323EA05031D4622EA040240AB1446D3E90023624027
:4007C0006B40CDE92C23DDE90645DDE90E236B4062401C0744EA1214120742EA13134293DDE91A2383EA0B0382EA0A0243941C0544EA1234120542EA133345944493DDE9DC
:400800000245DDE91C236B406240DC0044EA5274D20042EA5373CDE9146746934794DDE92823DDE9044562406B40D40C44EA4334DB0C43EA42334993DDE9342382EA0802BC
:40084000489483EA0903D40844EA4374DB0843EA42734A944B9346AC44ABD4E90045D3E9002324EA020242AC25EA0303D4E9004554405D4048ABCDE92845D3E9004546ABCF
:40088000D3E9002325EA030544AB24EA0204D3E9002362406B40CDE90E234AAC48ABD4E90045D3E9002324EA020246AC25EA0303D4E9004554405D4042ABCDE91C45D3E956
:4008C00000454AABD3E9002325EA030548AB24EA0204D3E9002362406B40CDE9342344AC42ABD4E90045D3E9002324EA02024AAC25EA0303D4E9004554405D40CDE91A4565
:40090000DDE90A23DDE904456B4062405C0044EAD274520042EAD3734C93DDE9162383EA090382EA08024D949C0144EA9264920142EA93634F944E93DDE90645DDE92223D0
:400940006B4062405C0644EAD214520642EAD3135093DDE92E2383EA0B03519482EA0A021C0244EA1264120242EA136353945293DDE90245DDE930236B4062409C0444EAF3
:400980009234920442EA93335594549350AC4EABD4E90045D3E9002324EA02024CAC25EA0303D4E9004554405D40CDE9164552AB50ACD4E90045D3E9002322EA04024EACFA
:4009C00023EA0503D4E9004554405D4052ABCDE92E45D3E9004554ABD3E9002323EA050550AB22EA0404D3E9002362406B40CDE90A2354AC4CABD4E90045D3E9002322EA91
:400A0000040252AC23EA0503D4E9004554405D40CDE922454CAB4EACD4E90045D3E9002324EA020254AC25EA0303D4E9004554405D40DDE9102383EA0B03CDE9304582EA16
:400A40000A02DC0644EA5214D20642EA53135794DDE902455693DDE9122362406B40140F44EA03141B0F43EA021358945993DDE90445DDE91E236B4062409C0244EA9254A0
:400A8000920242EA93535A93DDE92A2383EA09035B9482EA0802DC0344EA5244D20342EA53435D945C93DDE90645DDE9362362406B40140A44EA03641B0A43EA02635E94BF
:400AC0005F935AAC58ABD4E90045D3E9002324EA020256AC25EA0303D4E9004554405D40CDE936455CAB5AACD4E90045D3E9002322EA040258AC23EA0503D4E900455440DE
:400B00005D40CDE912455CAB5EACD4E90045D3E9002324EA02025AAC25EA0303D4E9004554405D40CDE92A4556AB5EACD4E90045D3E9002322EA04025CAC23EA0503D4E9BC
:400B4000004554405D40CDE9104556AB58ACD3E90023D4E9004524EA02025EAC25EA0303D4E9004554405D40CDE91E45DDE90C3483EA080384EA090498469B0843EA8473F3
:400B80006093A30843EA88736193DDE91845DDE9062354405D40630A43EAC55362936B0A43EAC4536393DDE9242382EA0A0283EA0B03540E44EAC3145B0E43EAC213649418
:400BC0006593DDE90245DDE9262362406B40D40D44EA4324DB0D43EA422366946793DDE90445DDE932236B4062409C0044EA9274920042EA93736994689364AC62ABD4E9D3
:400C00000045D3E9002324EA020260AC25EA0303D4E9004554405D40CDE9244566AB64ACD4E90045D3E9002322EA040262AC23EA0503D4E9004554405D40CDE9324566AB63
:400C400068ACD4E90045D3E9002324EA020264AC25EA0303D4E9004554405D40CDE9184560AB68ACD4E90045D3E9002322EA040266AC23EA0503D4E9004554405D40CDE9E0
:400C8000264560AB62ACD4E90045D3E9002324EA020268AC25EA0303D4E9004554405D40CDE90C45DDE908ABDDE928348AEA030A8BEA040BDDE9163483EA0A0384EA0B04B3
:400CC0009A46A346DDE9363483EA0A0384EA0B049A46A346DDE9243483EA0A0384EA0B049A46A346DDE92089DDE90E3488EA030889EA0409DDE92E3483EA080384EA0904CE
:400D00009846A146DDE9123483EA080384EA09049846A146DDE9323483EA080384EA09049846A146DDE91C23DDE9384554405D40DDE90A2362406B4014461D46DDE92A23BD
:400D400062406B4014461D46DDE9182362406B4014461D4632463B46DDE9346772407B40DDE9226756405F4032463B46DDE9106756405F4032463B46DDE9266756405F4027
:400D8000CDE90067DDE93023DDE91A6756405F40DDE92C2372407B4016461F46DDE91E2372407B4016461F46DDE90C234FEA490E7B401F464EEAD8734FEA480EA5934EEAE2
:400DC000D973A4937240A4AB1646D3E900234FEA450E72407B40CDE902234EEAD4734FEA440EA7934EEAD573A693A6ABD3E9002382EA0A0283EA0B03CDE90423019B4FEA8E
:400E0000430E009B4EEAD373A993009B4FEA430E019B4EEAD373A893A8ABD3E900234FEA470E83EA090399464EEAD6737600AB9346EAD773AA9382EA0802AAAB9046D3E931
:400E4000002362406B404FEA4B04CDE9062344EADA734FEA4A04AD9344EADB73AC93ACABD3E900ABDDE9003483EA0A0384EA0B049A46A346DDE90823DDE90245DDE90467F7
:400E800062406B40DDE90E4574407D40260D46EA05362D0D45EA0434CDE900236A966B94DDE90A4584EA080485EA0905660D46EAC5266D0D45EAC4246C966D94DDE90667E3
:400EC000DDE910457D4074406E0546EAD426640544EAD5246E94DDE90C4585EA0B056F9684EA0A04AE0346EA9446A40344EA9544709451E904456B401D466AAB7196624064
:400F0000D3E900676CAB1446D3E9002322EA060623EA070784EA060285EA0703CDE908236EABD3E900456CABD3E9002325EA03056AABD3E9006724EA02046EAB66406F405A
:400F4000D3E9004570ABD3E9002323EA05056CABCDE90A67D3E9006722EA040470AB66406F40D3E90045DDE9002323EA05031D466EABCDE90C67D3E9006722EA04026AAB8C
:400F800056406F40D3E90045DDE9002324EA020270AC25EA0303D4E9004554405D40CDE91045DDE91423DDE906456B4062401C0744EA1214120742EA1313CDE90E67739412
:400FC0007293DDE91A2383EA0B0382EA0A021C0544EA1234120542EA133375947493DDE90245DDE916236B406240DC0044EA5274D20042EA537377947693DDE90445DDE9F2
:40100000122362406B40D40C44EA4334DB0C43EA42337993DDE9182382EA0802789483EA0903D40844EA4374DB0843EA42737A947B9376AC74ABD4E90045D3E9002324EA46
:40104000020272AC25EA0303D4E9004554405D40CDE9124578AB76ACD4E90045D3E9002322EA040274AC23EA0503D4E9004554405D40CDE9144578AB7AACD4E90045D3E943
:40108000002324EA020276AC25EA0303D4E9004554405D4072ABCDE91645D3E900457AABD3E9002325EA030578AB24EA0204D3E9002362406B40CDE9182374AC72ABD3E9FA
:4010C0000023D4E9004524EA02027AAC25EA0303D4E9004554405D40CDE91A45DDE92023DDE904456B4062405C0044EAD274520042EAD3737C93DDE91C2383EA09037D949F
:4011000082EA08029C0144EA9264920142EA93637F947E93DDE90645DDE922236B4062405C0644EAD214520642EAD3138093DDE91E2383EA0B03819482EA0A021C0244EAE8
:401140001264120242EA136383948293DDE90245DDE924236B4062409C0444EA9234920442EA93338594849380AC7EABD4E90045D3E9002324EA02027CAC25EA0303D4E922
:40118000004554405D40CDE91C4582AB80ACD4E90045D3E9002322EA04027EAC23EA0503D4E9004554405D40CDE91E4582AB84ACD4E90045D3E9002324EA020280AC25EA40
:4011C0000303D4E9004554405D40CDE920457CAB84ACD4E90045D3E9002322EA040282AC23EA0503D4E9004554405D40CDE922457CAB7EACD4E90045D3E9002324EA02027A
:4012000084AC25EA0303D4E9004554405D40CDE92445DDE92C4585EA0B0584EA0A04EB0643EA54138793E30643EA55138693DDE90245DDE9282362406B40140F44EA0314DC
:401240001B0F43EA021388948993DDE90445DDE92E236B4062409C0244EA9254920242EA93538A93DDE92A2383EA09038B9482EA0802DC0344EA5244D20342EA53438D9466
:401280008C93DDE90645DDE9262362406B40140A44EA03641B0A43EA02638E948F938AAC88ABD4E90045D3E9002324EA020286AC25EA0303D4E9004554405D40CDE92645FD
:4012C0008CAB8AACD4E90045D3E9002322EA040288AC23EA0503D4E9004554405D40CDE928458CAB8EACD4E90045D3E9002324EA02028AAC25EA0303D4E9004554405D400D
:40130000CDE92A4586AB8EACD4E90045D3E9002322EA04028CAC23EA0503D4E9004554405D40CDE92C4586AB88ACD4E90045D3E9002324EA02028EAC25EA0303D4E90045DA
:4013400054405D40CDE92E45DDE9383483EA080384EA090498469B0843EA84739093A30843EA8873DDE934459193DDE9062354405D40630A43EAC55392936B0A43EAC45340
:401380009393DDE9302382EA0A0283EA0B03540E44EAC3145B0E43EAC21394949593DDE90245DDE9362362406B40D40D44EA4324DB0D43EA422396949793DDE90445DDE947
:4013C00032236B4062409C0044EA9274920042EA93739994989394AC92ABD3E90023D4E9004524EA020290AC25EA0303D4E9004554405D40CDE9304596AB94ACD4E90045BD
:40140000D3E9002322EA040292AC23EA0503D4E9004554405D40CDE9324596AB98ACD4E90045D3E9002324EA020294AC25EA0303D4E9004554405D40CDE9344590AB98AC5A
:40144000D4E90045D3E9002322EA040296AC23EA0503D4E9004554405D40CDE9364590AB92ACD4E90045D3E9002324EA020298AC25EA0303D4E9004554405D40CDE9384593
:40148000FFF72AB8DDE90834C0E90034DDE90A34C0E90234DDE90C34C0E90434DDE90E34C0E90634DDE91034C0E90834DDE91234C0E90A34DDE91434C0E90C34DDE91634D7
:4014C000C0E90E34DDE91834C0E91034DDE91A34C0E91234DDE91C34C0E91434DDE91E34C0E91634DDE92034C0E91834DDE92234C0E91A34DDE92434C0E91C34DDE9263494
:40150000C0E91E34DDE92834C0E92034DDE92A34C0E92234DDE92C34C0E92434DDE92E34C0E92634DDE93034C0E92834DDE93234C0E92A34DDE93434C0E92C34DDE9363453
:40154000C0E92E34DDE93834C0E930340DF52F7DBDE8F08F2DE9F843DDF82480089D044616461F4628F0070956EA07031FD02846FEF744FF2146A5F1080004EB090C8C45F4
:401580000FD050F8083FD0F804E000228B5401321B0A082A43EA0E634FEA1E2EF6D10831EDE716F1FF36444447F1FF37DCE7BDE8F8832DE9F04F0023B9B016460A46CDE937
:4015C000022304460D4621F0070742ABD3E90023DDE902018B4208BF82423ED3A4F1080AB046F319434528D000210022CDE90012C3464FF000094A461BF8010B059300211F
:4016000006F01AFFDDE9002309F108090B430243B9F1400FCDE90023059BECD1FAE90201DDE900BC8BEA000B8CEA010C58466146CAE9000108F10808D4E72046FEF7DEFE86
:4016400042A9D1E90001DDE90223821A61EB030342A9C1E900232E44B7E7002200230020DDE9028906A91144013243F100034B4508BF42450870F3D3429B0DF11708013BAD
:40168000721E1E444346B24204D012F8011F03F8011FF8E7429B06AA13449DF810211A70013D38AB1D4404EB070915F8C83C63F07F0305F8C83CA14519D0C2460025002605
:4016C00000272A461AF8010F002106F0B5FE0835402D46EA000647EA0107F2D1D4E9002356405F40E4E8026708F10808E3E739B0BDE8F08F2DE9F04714461D46E0B0A822FD
:40170000002381462946204606F0A2FE2CAB06468A465EAA00200021E3E902019342FBD11F2302936AABD3E900232EAFCDE900234FF0A808689AA8213846FFF73AFF324648
:4017400053468DE880014846FFF704FFA6FB082308FB0A33A41A65EB030554EA050314D0012200238DE8800104A8FFF7F3FE013C04AA0DF10F0308FB06961444A34204D08D
:4017800013F8012F06F8012BF8E760B0BDE8F0872DE97043D8B090469946064624AB56AA00240025E3E902459A42FBD1062326AD0A46029388212846CDE90089FFF7F9FE70
:4017C00004AC882301930095002301222046FFF7C1FE0023E25CF2540133202BFAD158B0BDE870832DE97043C8B090469946064614AB46AA00240025E3E902459A42FBD17E
:40180000062316AD0A46029348212846CDE90089FFF7CFFE04AC482301930095002301222046FFF797FE0023E25CF2540133402BFAD148B0BDE8708338B50C46054600F068
:4018400083FD6A1E04F27F6304F69F3112F8010F03F8010F8B42F9D14FF4A4620023294604F53A60FFF794FF04F53C60202100F037FD002038BD70B5A0B004460E4610A831
:401880002021154600F02CFD10A9084620220023FFF77EFF294618A84FF4A4620023FFF777FF10A9684640220023FFF79BFF23462A4608A910A800F0A6FD214608A84FF4E2
:4018C000B8620023FFF764FF3046402200236946FFF75EFF002020B070BDF0B51446ADF2446D064602F5D06720466A460D4600F0F5FD04F69F330DF11F0204F6BF3113F844
:40190000010F02F8010F8B42F9D1694610A840220023FFF767FF20AB3A4618A9684600F072FD20A94FF4B862284600F06BFE294607464FF4B86218A80023FFF729FFFBB2E1
:4019400004F53C6110A8202200F06EFE30464022002310A9FFF71CFF00200DF2446DF0BD10B5063100F1C00211F8063C31F8044C03F03F0343EA8413037031F8043C31F8C8
:40198000024CC3F3830343EA0413437031F8023C31F8084BC3F3011343EA8403837003308242E1D110BD10B501F50072037803F03F030B80437804789B0003F03C0343EA43
:4019C00094134B80837844781B0103F0300343EA14138B8083789B08CB800831914200F10300E3D110BD70B501F5006501F5007403460A881A700A884E88C2F3042242EAF5
:401A000046125A704A88D2089A704A888E88C2F3C12242EA8602DA708A88CE88C2F3861242EAC6121A71CA8852085A71CA880E89C2F3432242EA06129A710A891209DA714A
:401A40000A894E89C2F3003242EA46021A724A898E89C2F3C51242EA86125A728A8992089A728A89CE89C2F3822242EAC602DA72CA89103152098C421A7303F10D03B8D17C
:401A8000AC4200F5D0702146B0D170BD70B5023001F5006501F50074034613F8012C13F8026C120202F4F85232430A801A7813F8016CD20042EA56165A78D20202F4C05263
:401AC00032434A809A785E78920102F4FE5242EA96028A80DA789E78520042EAD6161A79520202F4F0523243CA805A791E79120142EA16169A79120302F4805232430A81A3
:401B0000DA799E79D20102F4FC5242EA56024A811A7ADE79920042EA96165A7A920202F4E05232438A819A7A5E7A520142EAD602CA8110318C4203F10D03AED1AC4200F56D
:401B4000D0702146A6D170BDF0B501F5006602460B46002431F83450157031F834505F88C5F3012545EA870555705D889F88C5F3831545EA071595709D88DF88C5F305152E
:401B800045EA8715D570DD880134AD08402C157103F1080302F10502DCD101F500718E4200F5A070D3D1F0BD70B501F5006501F5007403465A781E78120202F440723243D5
:401BC0000A809A785E78920102F4707242EA96024A80DA789E78120102F47C7242EA16128A801A79DE78920042EA9612CA8008318C4203F10503DDD1AC4200F5A070214619
:401C0000D5D170BD30B5002201EB02150023845C1C4104F0010425F813400133082BF6D10132202AF0D130BD38B5202204460D46002106F0BBFD2946204604F120050023F8
:401C400031F81320047802F001029A4001332243082B0270F4D10130A84201F11001EED138BD2DE9F047074689469A46164600254FEA05180024BAF1010F0CBF281908EBEA
:401C8000040009EB040107BF324607EB80003246C01904F5007400F089F9B4F5006FEAD18035B5F5007F06F50076E1D1BDE8F087F8B505460E4617460024311928193A467F
:401CC00004F5007400F072F9B4F5006FF5D1F8BD70B5ADF5D05D84B020220023CDE90223064600914FF4D052002304A8FFF702FD00244FF4D06504AB06EBC42105FB0430C6
:401D00000134FFF7C3FE042CF5D10DF5D05D04B070BD70B5ADF5447D20220023CDE90223054600914FF44072002304A8FFF7E2FC0024C02604AB06FB043105EB44200134FD
:401D4000FEF714FB042CF5D10DF5447D70BD2DE9F04FE1B00DF5807905460DF140080D91144600217E22484606F020FD20AE3E220021404606F01AFD30AF3E2200213046F5
:401D800006F014FD3E220021384606F00FFDFE220021204606F00AFDC3460195CDF83C900025BA46B046019BDDF834E01B880293019B1B8C0393019BB3F840300493019BAC
:401DC000049EB3F8603005930F9B5F190BEB050308930AEB05030993029B33449BB20A93059E039B33449BB20B9308EB05030C930B9E0A9B3344621900210E93BEF82030D7
:401E0000BEF800900693BDF808001388BDF8186010FB09331380BDF80C00B2F8403010FB06330398029EA2F8403006440898069B30F811C04B4413FB06C320F81130BEF807
:401E40004060B2F880C0BDF81000BEF86030079310FB06CCA2F880C0BDF81400B2F8C0C0BDF81C3010FB03CC0498A2F8C0C0079B844605988444F0180346099830F81100FC
:401E80001CFB030C09984E4420F811C0B7F800C0BDF828300698B6B216FB03CC079BA7F800C00344B7F840C0BDF82C009BB213FB00CC1E440C9BBDF8380033F81130A7F87E
:401EC00040C016FB00360C9B23F81160013110290EF1020E02F1020207F102078ED1019B02350233202D01937FF45DAF0DF59F7622462146002340AD38F8130035F8137046
:401F0000C01B36F8027FC01B28F813000F883BF81300C01BB1F84070C01B2BF81300B1F880703AF81300C01BB1F8C070C01B2AF8130001331F2B01F10201DDD10023E81801
:401F400038F80310068C31440184108C3BF8031001441184B2F8A0003AF80310023301443E2BA2F8A01002F10202E8D10DF1FE01A21E04F17C0032F8026F31F8023F9B1B81
:401F8000B2F880608242A3EB06030B80F3D13E34002334F8021F35F8132001330A443F2B2280F6D161B0BDE8F08F00002DE9F04FADF5905D87B0044602920F464FF48062AE
:401FC00000210DF6186006F0F1FBFE2200210DF5E36006F0EBFBFE2200210DF6180006F0E5FBFE2200210DF6181006F0DFFBFE2200210DF6182006F0D9FBFE2200210DF609
:40200000183006F0D3FBFE2200210DF6184006F0CDFBFE2200210DF6185006F0C7FB0DF58C7A204600220DF5CC790DF506780DF5267C0588B0F880E0B0F80031B0F8804104
:40204000E9180EEB0406B6B289B201EB060B891B29F8121003EB85019B0003EBC4032B4404EB8E0603EB4E0E26AB490023F812E0C6AB89B223F81250B6B206AB2AF812B088
:4020800001EB060B891B28F812B02CF8121023F812400132402A00F10200CAD1384600220DF593670DF5A3660DF5B3650DF58368E6A9B0F800C0B0F880A0B0F80031B0F8D1
:4020C00080E121F812E00CEB03040AEB0E091FFA89F9A4B204EB090BC9EB040426F8124003EB8C049B000EEB8A09640003EBCE031FFA89F9A4B2634427F812B003EB4A0AC7
:4021000004EB090B0DF5D363C9EB04040DF5C36925F812B029F8124028F812A023F812C00132402A00F10200C3D10DF5E36206A80DF61804FFF70BFE4146224626A80DF672
:402140001818FFF704FE3946424646A80DF61827FFF7FDFD31463A4666A80DF61836FFF7F6FD2946324686A80DF61845FFF7EFFD0DF618592A460DF5C361A6A8FFF7E7FD48
:402180004A460DF5D361C6A8FFF7E1FDB2460DF618624FF0000EAB46CDF80C90049705940DF5E36338F81E1033F81E60039B3AF81E9033F81E70049B3BF81E5033F81E4080
:4021C000059B641A64101FFA84FC33F81E306144C6EB090089B2C9EB05059944C1EB09091FFA89F9A9EB8119C91B891B89B201EB410380B2ADB2A0EB8710C3EB031313FA08
:4022000089F305EB40009BB280B201934FEA0419A0EBC1004AF6AB23304C5843019B09EA04041C4448F639635C43C4F34F041E2303FB04F9019B2B449BB2C3EB09094EF606
:40224000EF6303FB09F913881F44B2F880301780C9F38F094B44A2F88030B2F80031C0F3CF000344A2F80031B2F88031CCEB030CB2F800321944B2F88032C4EB0C0C1C44A4
:40228000B2F80033A2F880C10EF1010E091AC9EB04041E44BEF17F0FA2F80012A2F88042A2F8006302F102027FF47AAF029B0DF616609A1E03F5FF7132F8024F30F8023F28
:4022C0002344B0F800429142A3EB04031380F3D10DF5905D07B0BDE8F08F00BFF0FF0F007FB5164D2B7804460E4683B962B61448291D02F083FF05F13001114802F066FE2F
:4023000002F0B4FE012002F035FE01232B70A5190C4EAC420FD003AB07224FF0864100964FF0844002F0BAFE012002F023FE039B04F8013BEDE704B070BD00BF8C48020893
:4023400020950810E848020870B5ADF5415D84B004AC4FF4006205460E460DF50560002106F024FA20212046FFF7BAFF20220023CDE9022320460094FFF7BCF920210CA8FD
:40238000FFF7AEFF0DF5825021461030FFF7A0FC0CA914A8FFF7BDFC0DF5825014A901230DF505621030FFF75CFC00210DF505620023501830F813200432D21020F81320CE
:4023C0000133B3F5807FF5D101F50071B1F5006FECD114A93046FFF706FB28460DF50561FFF7B2FB05F5A06304F12005224603CAAA4218605960144603F10803F6D10DF5D5
:40240000415D04B070BDF0B5ADF5705D81B00F46154600214FF4006206460DF540601C4606F0C4F94FF400720021684606F0BEF905F5A0610DF5E050FFF74AFC39460DF544
:402440008060FFF766FC0DF5806100230DF540620DF5E050FFF705FC00210DF540620023501830F813200432D21020F813200133B3F5807FF5D101F50071B1F5006FECD169
:402480000DF540612046FFF75FFB28460DF5A051FFF78AFB80AD6A460DF580610DF5A050FFF706FC29463046FFF7ACFB00223DF8123035F81210A3EB412304331B112DF859
:4024C00012300132B2F5807FF1D1694604F5A060FFF746FA0DF5705D01B0F0BD70B5ADF5A05D04460D46164600214FF40072684606F05CF920460DF58061FFF7C7FA0DF566
:4025000040612846FFF750FB80AC6A460DF580610DF54060FFF7CCFB214605F5A060FFF742FA00223DF8123034F81210FC33A3EB01135B122DF812300132B2F5807FF1D173
:4025400069463046FFF770FB0DF5A05D70BD0000831E022B06D8042807D1054B01221A60002070474FF0FF3070476FF001007047F84802084FF4A46070474FF43E60704719
:402580004FF4B860704720207047000010B4084C24682CB138B131B15DF8044BFFF74CB94FF0FF3001E06FF001005DF8044B7047F848020870B4084E36682EB138B131B111
:4025C0002AB170BCFFF757B94FF0FF3001E06FF0010070BC704700BFF848020870B4084E36682EB138B131B12AB170BCFFF775B94FF0FF3001E06FF0010070BC704700BFF5
:40260000F8480208F0B5002300240025934206D0C75CCE5C7E4044EA06040133F6E7644265EB4505E80FF0BD30B55B42DBB201380A44914208D010F8015F11F8014B6C40B2
:402640001C406C400470F4E730BD012000F0DEBC70470000514B524AD3F8800300F00F00810001F1804101F5181130B5D1F8403303F00704032C07D0042C07D0494B4A4989
:40268000002C08BF0B460EE013680CE0D1F8003303F01F03112B01D0132B02D14FF4004301E04FF4FA433D4930BBD1F89045D1F88805D1F8885515F0405FC0F3017005D0C3
:4026C000D1F88815C1F30171012901D1E40701D403283AD13149D1F88005D1F88445D1F88015C0F31100C1F30061C4F30C040131B3FBF4F3434326E0012826D1D1F8404642
:40270000D1F80006D1F8005615F0405F05D0D1F80016C1F30171012901D1E10703D4C0F30171032911D11D48D0F80016D0F80046D0F8000601F07F014B43C4F30421B3FB97
:40274000F1F3C0F30441B3FBF1F31449D1F88013C1F30111CB4015495360D1F890000969090E0131B3FBF1F19160C0F307210131B3FBF1F303F57421D360136101F23F2195
:402780000B48B1FBF0F103F2E73311754FF47A71B3FBF1F39361DB03D36130BD000026408C42020800366E0100127A000000214040420F0008B50D4800F0E0FCFFF748FF75
:4027C000FFF748FF00221146042000F0B3FA084800F034FB074B1B6893F8513013B1064800F064FBBDE8084000F03EBA18970810FC480208A40C03085095081008B500F062
:40280000ACFC074AD2F8883043F47003C2F88830BFF34F8FBFF36F8FBDE8084000F0A1BC00ED00E02C4B2DE9F0414FF0FF31186801F06AFA294806F087F80420FFF788FE32
:4028400010B1274806F080F8FFF797FE0446FFF791FE0646FFF794FE0546FFF794FE01218046204605F080FF1E4C012120600746304605F079FF012160600646284605F02A
:4028800073FF0121A0600546404605F06DFFE06017B10EB105B108B9134800E0134806F053F821686068FFF771FE10B1104806F04BF86268E168A068FFF77CFE10B10D4894
:4028C00006F042F82268A168E068FFF787FE10B1084806F039F8FEE7A00C030884950810A79508107C4A0208BD950810D7950810F29508100C96081007B562B600240223C5
:402900008DE818004FF4C87223460849084801F035FB012300934FF40052234605490194054801F02BFB01F0EFFBFEE721960810AD2908102B96081025280810164B07B58E
:402940000022C3F8C82F0422C3F8C02FD3F8C03F124BB3F90030002B09DB5A09012103F01F0301FA03F360320D4941F8223002A9002341F8043D0B4B186801F0D2F8019B2E
:402980003BB1094B4FF080521A60BFF34F8FBFF36F8F03B05DF804FB000066405896081000E100E08C4A020804ED00E0F8B503220021012000F082FF2B4C2C4D206002F000
:4029C00031FA28682A4F40682A4E00231946022205F0FEFF284805F0B7FF03220021012000F06CFF25493060384600F02FFBB7F90030002B204608DB5909012203F01F038A
:402A000002FA03F31E4A42F821301E4C00680423C4F8C83F00231A46194600F071FF27464FF0FF31306801F06FF9D4F80833C3F30803A3B1286841684B68013B002B4B60CC
:402A400003DA05F089FFC0B203E00B685A1C0A6018783F28E9D10C4805F076FFE5E70423C7F8C83FDCE700BFA00C030810430208589608108C4A0208359608103D2908104F
:402A800000E100E0000066404896081010B504462146034800F0A0FB0028F9D010BD00BF00006640054AD2F80833C3F30803002BF9D0024BD3F84003704700BF00006640CA
:402AC000034B1B681A68D3F88430D058000E7047A40C0308044B1B681A68D3F88430D058C0F30720704700BFA40C0308034B1B68B3F8B0201B6A00FB02307047A40C0308E6
:402B0000034B1B68D3F8B430C058C00F704700BFA40C03081D4B984236D00FD840282CD005D800282FD010282BD119487047802825D0B0F5807F24D118467047154B984295
:402B400014D008D8B0F1204F1DD0134B984218D14FF4A0007047114B98420AD00133984209D0023B98420CD10D4870474FF4A40070470C4870470C4870470C4870470C48CF
:402B800070470C4870470020704700BF0600520001005000010000F0090000A0040000F00100520002005200030052000200500005005200FF00520008B50120FFF796FF27
:402BC000FFF79EFF60B9074B1868FFF7A3FF064B1B685B6801229A609A68002AFCD108BD024808BD904A0208A40C030802005000184B13B5186128B102230370FF23437063
:402C000000234380144A136893F850101446F1B11B8FADF80030114900236846019300F015FABDF90030002B08DB5909012203F01F0302FA03F30A4A42F82130236893F83C
:402C4000513023B102220749012000F08FF902B010BD00BF904A0208A40C0308AB43020800E100E0794302080148FFF7C1BF00BFA44A0208054B1B68D3F8B430C358002B58
:402C8000BDBF89B24160002001487047A40C030801008A000368002BBBBF89B2C26002488160B8BF0020704701008A00054B1B68D3F8B430C358002BBDBFC3680B600020EB
:402CC00001487047A40C030801008A00F8B5154B0C46196891F83130834221D904B3226812F01F071CD1B1F8B0300D6A0E4E00FB0355D20839466068356005F057FD394682
:402D00002846FFF7B7FF394622463068FFF7C2FF014618B93068FFF7ADFF10B10348F8BD0348F8BDA40C0308A84A020801018A0003018A0010B404465AB999B90B4B1A6814
:402D4000B2F8B030106A04FB0300094B1860084609E039B1064B5DF8044B5960191D9A60FFF7B4BF03485DF8044B7047A40C0308A84A020803018A001C4B1A682DE9F041FE
:402D8000D2F80C80D8F80020824204460D461E4624D919B900F0E1F9074600E0002730680368002B01DB124C13E06209D8F804100123A4EB421403FA04F451F822301C427A
:402DC0000ED023EA040341F8223000240021FFF751FF3DB9384600F0C4F903E0054C01E0054CF3E72046BDE8F08100BFA84A02080301880004018A00020188000B4B1B68B4
:402E0000DB681A6882420ED942095968A0EB4210012303FA00F051F822301842044B054818BF184670470448704700BFA84A0208010188000001880004018A00024B1A687C
:402E400002B91860704700BFB44A0208F0B52C246043144C059F25685FFA83FE45F800E02C1811480668306AB6F8B060C3F307250EFB0606266105F1800665601B0C00EB4D
:402E8000461600EB451041F20805A36043EA0343666143510023E2612162A3610FB13B88A381F0BDB44A0208A40C0308F0B5174B41691B688269DB8EC668076985B002AD57
:402EC00000950B440446C16AADF808300392436A826A006AFFF7BAFF00223B46114600923046FFF7B3FF216B284600F0AFF8BDF90830002B08DB5909012203F01F0302FA88
:402F000003F3034A42F8213005B0F0BDA40C030800E100E0F0B5124C26682C2707FB006425693DB107FB0161886928B92E68002E02DA03E00B48F0BD0B48F0BD4E68D4F8E4
:402F400004E0012404FA06F7168846EA07461660EA608C6104FA0EF4A4B24B62AC60F0BDB44A020804028A0007028A00074B10B51C682C2303FB0040C369934283BF036AC6
:402F8000002043F82210024810BD00BFB44A02080A028A0073B54369DD6800262A0C044601961ED012041A601B68174B00691B68D3F8B430C358B34213DA01A9FFF776FEAB
:402FC00058B90198E26903681E0CDBB2934204D2226A52F8233003B1984731462069FFF749FEADB265B163691D601B68636A002513B19847656202E0A36A03B19847A561F1
:4030000063691B6802B070BDA40C0308034B1B682C2202FB0030FFF7BDBF00BFB44A0208074B9A68074B9A4218BF074A00F1100306BF52F8230042F8231052F823007047B1
:4030400000ED00E0004002080000081010B5F0B1B0F900304268002BA8BF03F160434FEA4212ADBF03F5614303F00F030A4CD2B2B6BFD2B283F80023E254084B9A68084B26
:403080009A4206D1B0F90000FFF7CAFF01E0054810BD002010BD00BF14ED00E000ED00E00040020801005600FEE7000008B5234B02681A6042685A6082689A60C268DA605F
:4030C00002691A6142695A6182699A61C269DA611B4A916A1962D16A5962516A9962516BD962926B1A63F1EE102A12F0900F21D0026A5A63426A9A63826ADA63C26A1A64F0
:40310000026B5A64426B9A64826BDA64C26B1A65026C5A65426C9A65826CDA65C26C1A66026D5A66426D9A66826DDA66C26D1A67026E5A67FFF7B8FF08BD00BFF8470208C5
:4031400000ED00E0000000000230800803D001300238FCD100BF00BF7047EFF3108072B6704780F3108870474FF0B0535A7812B15878C0B27047212070470000014B1860E9
:40318000704700BFA40C0308D0F8003303F00F03072B02D901EB420201E00A4407E0914204D0D0F8403321F8023BF8E77047914204D0D0F8403301F8013BF8E7704710B54B
:4031C000D0F80843C4F30804944228BF14462246FFF7DAFF204610BD036813F4006FD0F8083214BF80224022C3F3080393421ABFC0F84012012000207047D0F8003203F060
:403200000F03072B02D901EB420201E00A4407E0914204D031F8023BC0F84032F8E77047914204D011F8013BC0F84032F8E77047036810B5D0F8084213F4006F14BF802382
:403240004023C4F308041C1B944228BF14462246FFF7D3FF204610BD2DE9F043002800F0D580002900F0D2800F78022F01D18C7F0CB14C68013C0B7F002B8B6804F00F0464
:4032800014BF4FF48036002644F00074092B34BF4FF40065002534432C4304603C0604F0407404644C7F4E7B8D7B002C8C7C14BF4FF040094FF00009002C0C7C14BF4FF4A7
:4032C00080684FF00008002C4C7C14BF4FF4807C4FF0000C002CCC6A04F1FF3406F1FF364FEA044406F007064FEA051504F4702405F0300544EA060444EA050444EA090461
:4033000044EA080414BF4FF4007E4FF0000E44EA0C0C4CEA0E0491F80CE08464CC7BBEF1000F14BF4FF4807C4FF0000C2CB9022F14BF00244FF4007401E04FF40074013B8D
:4033400003F00F034CEA030C4CEA0404C0F800438C6991F814C0240404F47F0444EA0C04C0F81043CC7F24B1012F0CBF4FF48074002435432C43BEF1000F446414BF4FF4B3
:4033800080740024012F43EA04030CBF4FF4803400242343C0F8003291F83030C0F8043391F8203091F8214091F82460002B14BF4FF000730023012C91F828400CBF4FF0B8
:4033C000807500253343012C0CBF4FF4803400242B43234303654C6B91F83830C0F8043240F66D332340C96BC0F8C83F40F273730B40C0F8883F00205AB15060906010600F
:40340000D06010621063D062BDE8F0830248BDE8F0831046BDE8F0830160AA0008694B6998422DBF4B69CB684A69C01A3CBFC018801A7047D0F8003E1A072DE9F047054610
:403440000C4640F1BB80D0F8CC3F13F448730AD04A681A434A60C0F8C03FD0F8C03F0B6B0BB110209847D5F8CC3F1B0509D5636843F4006363604FF40063C5F8C03FD5F87A
:40348000C03FD5F8CC3FD80740F19880E269002A43D02B68A16913F4006F284614BF40262026FFF78CFE236AE2690344121A2362E261EAB9A3687BB1E368D5F804239E42F9
:4034C00094BF06F1FF3303F1FF3322F0FF02DBB21343C5F804330123C5F8C83F636823F001036360236B002B63D00420984760E0D5F80033A16903F00F03072B88BF4000BC
:4035000008449642A06154D9D5F80433013A23F0FF031A43C5F804234BE0A368002B48D02B6813F4006FD5F80833266914BF4FF040084FF02008C3F30809B9F1000F26D054
:40354000E368676901369E4208BF0026B7420FD1236B0BB10820984763699F4208D10023C5F8C83F0FB17E1E11E0E668013E0EE0D5F84023D5F8003303F00F03072BA3685B
:4035800009F1FF3994BF9A5523F81620D5E7266121462846E668FFF741FF301A804508D900B10138D5F8043323F0FF031843C5F804030123C5F8C03FD5F8C03FD5F8003EE1
:4035C000590776D5D5F88C3F13F4A0630AD022681A432260C5F8803FD5F8803F236B0BB120209847D5F88C3FDA0750D52B68A26AD5F8006213F4006F14BF80274027012ADC
:4036000006F00F0610D9D4F82480E2624146013A2846FFF70DFEA36A072EA3EB000388BF40004044A3626062D5F80832C3F30803BB4227D0A36A012B24D10023A362636A2D
:40364000072E94BF1E781E88FFF787FD4FF40073C5F84062C5F8803FD5F8803FFFF781FDD5F8883F23F4007323F0010343F40073C5F8883F236843F002032360236B0BB188
:40368000012098470123C5F8803FD5F8803FD5F88C3F9B050DD50022C5F8882F236823F001032360236BE2621BB10220BDE8F0471847BDE8F08700F1080343604FF0FF32E3
:4036C000C3600361002382600360704700230361704743684B609A688A609A6851609960036808610133036070470A68531C30B501D1036907E000F108035C682568AA42B2
:4037000001D32346F9E75A684A6091608B605960036808610133036030BD4168826803698A60826851605968884208BF5A60002202611A68013A1A601868704710B5044681
:4037400001F028F9A46B01F047F9B4FA84F0400910BD70B51646026C856B0446FAB166B9806805F018F8A268236C13446268A360934214D32368A36011E0C06805F00BF8C7
:40378000236CE26821685B421A448A42E2603EBF62689B18E360022E01D105B1013D0135A563002070BD034610B41A6C084662B1D9685C681144A142D96024BF1968D96059
:4037C000D9685DF8044B04F0E6BF5DF8044B704770B5044601F0DEF894F8455004F124066DB2002D0ADD636A43B1304600F032FE08B100F0B1FE013D6DB2F2E7FF2384F8C4
:40380000453001F0E9F801F0C5F894F8445004F110066DB2002D0ADD236943B1304600F019FE08B100F098FE013D6DB2F2E7FF2384F84430BDE8704001F0CEB838B50D46A5
:40384000044640B94FF03F0383F31188BFF36F8FBFF34F8FFEE701F09DF8206CE36B2268A2604343D1181B1A13446160E3600021FF23A16384F8443084F845307DB923697B
:40388000ABB104F1100000F0E5FD80B10A4B4FF080521A60BFF34F8FBFF36F8F07E004F11000FFF708FF04F12400FFF704FF01F093F8012038BD00BF04ED00E070B50D46EF
:4038C000064640B94FF03F0383F31188BFF36F8FBFF34F8FFEE74843483001F0ABF9044658B10DB9206002E000F148030360E663256401212046FFF7A1FF204670BD000099
:403900002DE9FF47894601921F46044640B94FF03F0383F31188BFF36F8FBFF34F8FFEE751B9036C43B14FF03F0383F31188BFF36F8FBFF34F8FFEE7022F0BD1E36B012BC3
:4039400008D04FF03F0383F31188BFF36F8FBFF34F8FFEE700F008FE10B9019E0EB172E00026DFF8FCA04FF0000801F013F8A26BE36B9A4201D3022F17D13A4649462046D6
:40398000FFF7E7FE636A1BB104F1240000F062FD38B1334B4FF080521A60BFF34F8FBFF36F8F01F019F8012056E0019D1DB901F013F8284650E016B902A800F087FD01F0B4
:4039C0000BF800F0DBFB00F0E5FF94F84430FF2B08BF84F8448094F84530FF2B08BF84F8458000F0F9FF01A902A800F079FD18BB00F0D0FFA66BE56B00F0EEFFAE4215D17E
:403A0000019904F1100000F0EDFC2046FFF7E0FE00F030FC08B10126A7E74FF08053CAF80030BFF34F8FBFF36F8FF4E72046FFF7CFFE00F01FFCEEE72046FFF7C9FE00F00F
:403A400019FC002008E04FF03F0383F31188BFF36F8FBFF34F8FFEE704B0BDE8F08700BF04ED00E02DE9F843884691461F46044640B94FF03F0383F31188BFF36F8FBFF384
:403A80004F8FFEE751B9036C43B14FF03F0383F31188BFF36F8FBFF34F8FFEE7022F0BD1E36B012B08D04FF03F0383F31188BFF36F8FBFF34F8FFEE701F066F8EFF3118645
:403AC0004FF03F0383F31188BFF36F8FBFF34F8FA26BE36B9A4201D3022F1DD194F845503A466DB241462046FFF733FE6B1C0DD1636A7BB104F1240000F0ACFC50B1B9F13E
:403B0000000F07D00120C9F8000006E001356DB284F84550012000E0002086F31188BDE8F88370B50D46044640B94FF03F0383F31188BFF36F8FBFF34F8FFEE7036C43B14B
:403B40004FF03F0383F31188BFF36F8FBFF34F8FFEE703680BB943684BBB01F015F8EFF311864FF03F0383F31188BFF36F8FBFF34F8FA26BE36B9A4217D294F84530013215
:403B80005BB2A2635A1C0AD1636A63B104F1240000F060FC38B135B10120286010E001335BB284F8453001200AE0002008E04FF03F0383F31188BFF36F8FBFF34F8FFEE7FA
:403BC00086F3118870BD00002DE9F04385B088460192044640B94FF03F0383F31188BFF36F8FBFF34F8FFEE751B9036C43B14FF03F0383F31188BFF36F8FBFF34F8FFEE78D
:403C000000F0B2FC10B9019E0EB16FE00026DFF8F490002700F0BEFEA56BC5B141462046013DFFF7C0FDA563236963B104F1100000F010FC38B1334B4FF080521A60BFF36B
:403C40004F8FBFF36F8F00F0C7FE012057E0019D1DB900F0C1FE284651E016B902A800F035FC00F0B9FE00F089FA00F093FE94F84430FF2B08BF84F8447094F84530FF2B66
:403C800008BF84F8457000F0A7FE01A902A800F027FCF8B92046FFF751FDA8B1019904F1240000F09FFB2046FFF792FD00F0E2FA08B10126AEE74FF08053C9F80030BFF33E
:403CC0004F8FBFF36F8FF4E72046FFF781FD00F0D1FAEEE72046FFF77BFD00F0CBFA2046FFF72CFD0028E4D0002008E04FF03F0383F31188BFF36F8FBFF34F8FFEE705B095
:403D0000BDE8F08304ED00E02DE9FF410446019140B94FF03F0383F31188BFF36F8FBFF34F8FFEE7056C45B14FF03F0383F31188BFF36F8FBFF34F8FFEE700F015FC10B9D4
:403D4000019D002D6AD1DFF8EC80002700F022FEA36BA3B1013BA363236963B104F1100000F078FB38B1334B4FF080521A60BFF34F8FBFF36F8F00F02FFE012057E0019ED1
:403D80001EB900F029FE304651E015B902A800F09DFB00F021FE00F0F1F900F0FBFD94F84430FF2B08BF84F8447094F84530FF2B08BF84F8457000F00FFE01A902A800F018
:403DC0008FFBF8B92046FFF7B9FCA8B1019904F1240000F007FB2046FFF7FAFC00F04AFA08B10125B2E74FF08053C8F80030BFF34F8FBFF36F8FF4E72046FFF7E9FC00F02D
:403E000039FAEEE72046FFF7E3FC00F033FA2046FFF794FC0028E4D0002008E04FF03F0383F31188BFF36F8FBFF34F8FFEE704B0BDE8F08104ED00E030B5084A002352F85E
:403E4000335002EBC30425B9044A606042F8331030BD01330A2BF2D130BD00BFA80C030870B504460D46164600F094FD94F84430FF2B04BF002384F8443094F84530FF2B54
:403E800004BF002384F8453000F0A6FDA36B2BB93246294604F1240000F0BEFA2046BDE87040FFF795BC0000064B9A6A126812B94FF0FF3203E09A6AD268D2685268DA62A1
:403EC000704700BFF44A0208F8B5154D04462E6B686B04300F46FFF720FC631C2B4607D137B1696B28460431BDE8F840FFF7F1BB34445B6B0A4D5C60A64206D9A86B696BFF
:403F0000BDE8F8400431FFF7F0BBA86A696B0431FFF7EBFBEB6A9C4238BFEC62F8BD00BFF44A020808B5134C2646636DABB100F031FDA36CDD68281DFFF7EFFB236D013B8C
:403F40002365636D013B636500F046FD286B00F001FF284600F0FEFEE7E7B36D012BE4D9054B4FF080521A60BFF34F8FBFF36F8FDBE700BFF44A020804ED00E02DE9F84FEC
:403F800095008146284688469A460B9F00F052FE0646002800F0AF80602000F04BFE044688B106632A463046A52104F0FFFB266B043D2E4408F1FF3326F0070604F1330211
:403FC00008F10F0805E0304600F0C4FE93E0984506D013F8011F02F8011F19780029F6D10A9B062B4FF0000528BF062304F10408E362404684F843509B46FFF767FB04F185
:404000001800FFF763FBCBF10703A5652461A36164626564A564E5642565656584F85C5052464946304600F089FC206007B13C60334D00F0AFFC2B6D01332B656F6B05F131
:40404000580927BB6C632B6D012B29D109EB07001437FFF730FB8C2F294EF7D106F1E40A504606F1F807FFF726FB3846FFF723FB06F11400FFF71FFB06F13C00FFF71BFB9B
:404080003046FFF718FBC6F828A0B76308E0D5F80C312BB96B6BDA6AE36A9A4298BF6C63D5F81031D5F814210133C5F81031E36A934288BF124A4FF0140000FB0390414633
:4040C00088BFC2F81431FFF704FB00F085FCD5F80C316BB10A4B5B6BDA6AE36A9A4207D2084B4FF080521A60BFF34F8FBFF36F8F0120BDE8F88F4FF0FF30BDE8F88F00BFC9
:40410000F44A020804ED00E037B5194C19491A4804F58E730025019300952B468022FFF72DFF012816D100F06FFA012812D14FF03F0383F31188BFF36F8FBFF34F8F4FF050
:40414000FF33E362C4F80C01256303B0BDE8304000F0B8BC013008D14FF03F0383F31188BFF36F8FBFF34F8FFEE703B030BD00BFF44A0208D0970810253F0810034AD2F8D3
:4041800018310133C2F81831704700BFF44A0208014B186B704700BFF44A02082DE9F84F334BD3F818211C4662BB1E6B01361E63B6B99B6A1B6843B14FF03F0383F311881A
:4041C000BFF36F8FBFF34F8FFEE7A36AA26BA262A363D4F820310133C4F82031FFF764FEE36A9E424FF000053AD3DFF884804FF0140B08F1580AA36A1D4A1B684BB94FF074
:40420000FF330DE0D3F824310133C4F82431002526E0D8F82830DB68DF687B689E4201D2D3621DE007F104094846FFF776FABB6A1BB107F11800FFF770FAF86AD4F8143188
:40424000984288BFC8F8140149460BFB00A0FFF740FA636BFA6ADB6A9A4228BF0125CAE7D4F82831002B18BF01252846BDE8F88FF44A02082DE9F843314CD4F8183143B9C4
:404280004FF03F0383F31188BFF36F8FBFF34F8FFEE700F07FFBD4F81831013BC4F81831D4F818510DB1002445E0236D002BFAD0274604F158084FF014096369F3B13B6A95
:4042C000DD682E1D05F11800FFF727FA3046FFF724FAE86AD7F81431984288BFC7F81401314609FB0080FFF7F4F9636BEA6ADB6A9A4224BF0123C7F82831DEE70DB1FFF76B
:40430000D3FDD4F824514DB10126FFF747FF08B1C4F82861013DF8D1C4F82451D4F82831002BC0D0074B4FF080521A60BFF34F8FBFF36F8F012400F04FFB2046BDE8F883F3
:40434000F44A020804ED00E038B5244BD3F818211C461AB10122C3F8282138BDC3F828215B6B1B6B1A68B2F1A53F0BD15A68B2F1A53F07D19A68B2F1A53F03D1DB68B3F1E1
:40438000A53F04D0606B616B343100F027FCD4F81431142000FB03F56219916D59B943B94FF03F0383F31188BFF36F8FBFF34F8FFEE7013BEEE7D16D09484968D1652844CF
:4043C000814204BF4968D165142202FB0342D26DD2686263C4F8143138BD00BFF44A0208544B020810B50C4640B94FF03F0383F31188BFF36F8FBFF34F8FFEE7054B596B1B
:404400001831FFF772F920460121BDE81040FFF75BBD00BFF44A020838B50D46144640B94FF03F0383F31188BFF36F8FBFF34F8FFEE7074B596B1831FFF74BF9002C2146CC
:404440000CBF28464FF0FF30BDE83840FFF73CBDF44A0208C36870B5DE6846B94FF03F0383F31188BFF36F8FBFF34F8FFEE706F11805144C2846FFF750F9D4F8183183B985
:40448000351D2846FFF749F9F36AD4F8142193420D4A88BFC4F814311420294600FB032002E0294604F11400FFF713F9636BF26ADB6A9A4283BF034B0120C3F82801002015
:4044C00070BD00BFF44A02084C4B0208034BD3F820211B6B02604360704700BFF44A020870B50C46054640B94FF03F0383F31188BFF36F8FBFF34F8FFEE741B94FF03F0359
:4045000083F31188BFF36F8FBFF34F8FFEE700F041FA23680F486968026B5E1C12D0D0F820012E68864201D08A420DD2521A9A4205D29B1A23602846FFF7C8FF02E0002356
:40454000236001E0002400E0012400F045FA204670BD00BFF44A0208024B0122C3F82821704700BFF44A0208064BD3F80C2132B1D3F81831002B0CBF022000207047012063
:40458000704700BFF44A0208F8B50F4C00F002FA2568A5B9271D384604F11806FFF78BF83046FFF788F82A460C210A20E7622663FFF784F9206010B10449FFF73DFCBDE8B6
:4045C000F84000F009BA00BF204C0208D5970810914208B54160006107D8D21A83699A420ED2084B011D186B06E09A4201D2994206D2044B011DD86AFFF777F8002008BDDD
:40460000012008BD204C020807B5FFF7BDFF0E4B1A6842B94FF03F0383F31188BFF36F8FBFF34F8F0EE034330193032300938022002306490648FFF7A1FC0028EAD003B0DE
:404640005DF804FBFEE700BF204C0208DA9708102947081030B5154685B01A46034640B94FF03F0383F31188BFF36F8FBFF34F8FFEE70D4C2068A8B10529019102950393C8
:404680000CDCFFF771FF0023022808BF089A206818BF1A4601A9FFF733F903E0002301A9FFF7E0F905B030BD204C02082DE9F7431C4D00272E46EA6A1A4B116859B3D36807
:4046C000DC68D3F8008004F104094846FFF725F8636A20469847E369012BECD1A3694344984506D2636024614946F06AFEF7FDFFE1E700230097424619462046FFF7AAFF69
:404700000028D8D14FF03F0383F31188BFF36F8FBFF34F8FFEE7196BD9621A6303B0BDE8F08300BF204C02082DE9F047624FDFF88C8186B03E46FB6A1D681DB1DB68D3F855
:40474000009000E0A946FFF719FDFFF721FDB36B9842824603D2FFF7A9FF012400E00024C6F838A0002C42D14DB3CA452DD3FFF781FDFB6ADB68DD68281DFEF7CEFFEB69BE
:40478000012B18D1A9694B46524649442846FFF71FFF80B1009423464A4621462846FFF759FF40B94FF03F0383F31188BFF36F8FBFF34F8FFEE76B6A284698471DE03B6B46
:4047C0001A68B2FA82F2520900E02246CAEB09013068FFF745FBFFF74DFD70B94FF08053C8F80030BFF34F8FBFF36F8F05E0FFF741FD02E0039B002B07DA002203A9306831
:40480000FFF7E2F90028F5D195E7059C636913B1201DFEF782FFFFF7BBFCB36B9842054601D2FFF743FF039AB563092AE5D80123934013F404792CD113F0C70F05D19B06F1
:40484000DBD5204600F086FAD7E7A169049B2A4619442046FFF7BCFE0028CED0636A20469847E369012BC8D1A2690499CDF800900A444B4649462046FFF7ECFE0028BCD119
:404880004FF03F0383F31188BFF36F8FBFF34F8FFEE70499A16141B94FF03F0383F31188BFF36F8FBFF34F8FFEE72B462A4629442046FFF78DFEA0E7204C020804ED00E0F2
:4048C00082B0002301930D4B1B68013308D04FF03F0383F31188BFF36F8FBFF34F8FFEE74FF03F0383F31188BFF36F8FBFF34F8F019B002BFCD002B0704700BFAC420208B0
:4049000008480068006880F308884FF0000080F3148862B661B6BFF34F8FBFF36F8F00DF00BF000008ED00E0DFF80C00016841F4700101607047000088ED00E04FF0807393
:4049400040F8043C074B40F80C3C21F001016FF0020340F8081C40F8202C40F8243C4438704700BFC14808100000000000000000074B19680868B0E8F04F80F30988BFF31B
:404980006F8F4FF0000080F311887047AFF30080284B02084FF03F0383F31188BFF36F8FBFF34F8F0A4A13680133012B13600DD1084B1B6813F0FF0F08D04FF03F0383F352
:4049C0001188BFF36F8FBFF34F8FFEE7704700BFAC42020804ED00E0084A136843B94FF03F0383F31188BFF36F8FBFF34F8FFEE7013B13600BB983F311887047AC4202080B
:404A0000EFF30980BFF36F8F154B1A681EF0100F08BF20ED108A20E9F04F10602DE909004FF03F0080F31188BFF34F8FBFF36F8FFFF78AFC4FF0000080F3118809BC196830
:404A40000868B0E8F04F1EF0100F08BFB0EC108A80F30988BFF36F8F704700BFAFF30080284B020808B54FF03F0383F31188BFF36F8FBFF34F8FFFF791FB18B1034B4FF097
:404A800080521A60002383F3118808BD04ED00E0084A0949002313600B60084B4FF47A711B68B3FBF1F30649013B0B6007231360704700BF10E000E018E000E09842020812
:404AC00014E000E013B52B4B1A78D2B20192FF221A701B78DBB28DF803309DF80320264B02F03F021A7007225A6000219DF80300000602F1FF3408D59DF803205200D2B25F
:404B00008DF8032001212246F0E701B15A605B68042B08D04FF03F0383F31188BFF36F8FBFF34F8FFEE7144A1B0203F4E0635360019B104ADBB21370104B1A6842F47F027F
:404B40001A601A6842F07F421A60FFF7A1FF0C4B00241C60FFF7E8FE0A4A136843F040431360FFF7CDFEFFF7EFFBFFF7A9FE204602B010BD00E400E05C4C020820ED00E0E5
:404B8000AC42020834EF00E0EFF305830F2B104A0DD910495B5C1178994208D94FF03F0383F31188BFF36F8FBFF34F8FFEE70A4B52681B6803F4E063934208D94FF03F0309
:404BC00083F31188BFF36F8FBFF34F8FFEE770475C4C0208F0E300E00CED00E04FF03F0383F31188BFF36F8FBFF34F8FFEE700000F4B30B51C461A68824201D21346FAE7E3
:404C000059685D18A84201BF406809181846596041684518AA4206D1A468A2421FBF54681268091941609842026018BF186030BD644C02082DE9F0410446FFF79FFA424947
:404C4000424D8B680BBB01F10C0256071FBF01F113023F4B22F007029B1A08BF4FF440431344083B23F00703002048600A60586018608B60981A13604FF000435060C5F8AB
:404C80006405C5F86805C5F86C35D5F86C8518EA040F48D1002C47D004F1080358071CBF23F007030833002B3BD0D5F86875BB4239D80E6824487268934203D889688E4227
:404CC00006D130E03468002CF8D030462646F2E7D21A316804680160102A0FD9F018410708D04FF03F0383F31188BFF36F8FBFF34F8FFEE742607360FFF77AFF7168D5F8A7
:404D000064357A1A9A4238BF104BC5F8682538BFC3F8642548EA0101002308347160336002E01C4600E00024FFF7A4FA630708D04FF03F0383F31188BFF36F8FBFF34F8FAE
:404D4000FEE72046BDE8F081644C02080C070308700C030838B5044680B3194D50F8043CD5F86C25134208D14FF03F0383F31188BFF36F8FBFF34F8FFEE750F8081C41B17C
:404D80004FF03F0383F31188BFF36F8FBFF34F8FFEE723EA020340F8043CFFF7EFF9D5F8683554F8042CA4F108001344C5F86835FFF71EFFBDE83840FFF75CBA38BD00BFB2
:404DC0000C07030870B516460C4659B10D462B1BB34204DA15F8010BFDF758FEF7E726EAE67070BD084670BD70B516460D4609B90C460CE00024B44209DAFDF753FEC0B275
:404E00000A28285504F1010401D00D28F3D1204670BD000001490248FEF70CBBF80C03080000664010B5114C237853B9104A11491148FEF711FA11491148FEF707F90123C5
:404E400023700F4BB3F90030002B08DB5909012203F01F0302FA03F30A4A42F82130064A136843F00043136010BD00BF7C0C0308F80C0308E497081000006640154E08105A
:404E80005896081000E100E00B4B10B519680B4B0C691A688B69126A80335B019B180122D868A24080B2824205D11A601B68CB69002B00D0984710BD800C0308A40C0308D5
:404EC000084B1A684369126A80335B019B189A68036901209840120C801A43425841C0B27047C046A40C0308074B1A681300116AB0321288B43350431B685B1818180068E6
:404F0000C043C00F7047C046A40C0308134B10B51C682000FFF7D4FF00281BD02069FFF7E3FF002818D001210D4B62691B6891401A00B032108822691B6A50432200C01849
:404F4000FDF7A8FE43425841064B40421840064BC01810BD0548FCE70548FAE7800C0308A40C0308FCFFCDFF040032000600320007003000114B70B51C680500002C16D020
:404F80002378002B13D02000FFF79AFF002810D0002D06D12069FFF7A7FF00280BD0606870BD2069FFF7A0FF0028FAD0F7E70448F6E70448F4E70448F2E7C046800C030870
:404FC000080032000600320007003000F7B505006B6800684B61AB6808618B616B691E4FCB614B1C01932B7B4A1CD3773B680C001A000126B03212881B6A50430021C018CD
:40500000FDF738FE26702000FFF75AFF002820D0E369002B19D0280010490C30FEF716F8A3693A688033126A5B019B18320021698A4092B29A60A319DB7F5BB2002B04DB2C
:405040001F2213409E40064B1E600020054B1C60FEBD0548FCE7C046A40C0308894E081000E100E0800C030806003200094B10B51B68002B0BD0012400221C709A62FFF771
:4050800045FF002802D12000FFF774FF10BD0248FCE7C046800C03080800320070B5074D049C2D68002D06D00626AC622E700FC4FFF72CFF70BD0248FCE7C046800C0308E3
:4050C00008003200002807DB1F23C02218401E3B8340024952008B507047C04600E100E030B5F8250F4B104A18681468436A226C6D039A181168294010D01160226C9B185B
:405100001B680A4B1A68531CD97F002907D1416A086A496A506291620122DA7730BD0022FBE7C046A40C0308900C0308840C03080022F8B5060004000368471C0B604368B3
:4051400028364B6083690D008B60C369CB604B1CDA77FB7F0B7433780B7603F06DF8A169002900D11F4920002030FDF76FFF1F23FB56002B06DB1F2213401E3A9A40130000
:40518000194A1360194F63683A688033126A5B019B188022216852028A40E1699A60002900D113493000FDF751FF00203056FFF789FF0023F356002B06DB1F2213401E3A27
:4051C0009A401300084A13600A4A3B6812685B6A926C00209B18F82252031A60064B1D60F8BDC0466155081000E100E0A40C0308E1500810900C0308840C030810B5084B97
:40520000084A1B6829331B78012B05D1064B60335360FFF78DFF10BD044B3833F8E7C046A40C0308840C030824990810A4990810F0B5BA4D87B0AC68002C1CD0B84BB94E8A
:40524000636032682378506A012B16D103F006F860600023AB603368E1691A00B032108822691B6A5043C018002902D00121A3699940FDF7FFFC07B0F0BD0268002AE8DAEB
:40528000A94A62606A68002A11D00E2B00D1EAE04CD8082B00D1ACE02DD8042B00D194E01BD8022B00D182E0032B00D183E06368002BCED12A68511CC87F002800D045E1AD
:4052C0003268526A106A526AD70F012F01D1974BCF77A060E2606360BBE7062B00D17DE0072BE4D1D768002FE1D0A16A4A7D0B008969B8475DE00B2B00D194E006D8092B6E
:4053000000D181E00A2BD2D197697EE00C2B00D19AE00D2BCBD1576A002FC8D0A16A0B7B00938B684A680968B84742E0142B00D1D2E025D8112B00D1B2E00FD80F2B00D17C
:40534000A1E0102BB3D1176B002FB0D0A16ACB680A699BB2D2B28968B8479EE0122B00D1ADE0132BA3D1D76B002FA0D0A16A0B6A0193CB6900938B694A69C968B84718E0F4
:40538000172B00D1BFE006D8152B00D1B0E0162B8DD1976CADE0192B00D1C9E000D2B4E0552B00D083E7A06A02F0E2FF01E002F0E3FF60607BE71768002F00D177E7A16A13
:4053C0008B684A680968B847F3E75368002B00D16DE7A16A0A69C9689847EAE79768002F00D164E7A16ACB6800938B684A6809687CE01769002F00D159E7A26A117D0092DB
