:020000041000EA
:4000000000400208230100100D00000085010010000000000000000000000000000000000000000000000000000000008101001000000000000000008101001081010010E9
:400040008101001081010010810100108101001081010010810100108101001081010010810100108101001081010010810100108101001081010010810100108101001060
:400080008101001081010010810100108101001081010010810100108101001081010010810100108101001081010010810100108101001081010010810100108101001020
:4000C00010B5064C2378002B07D1054B002B02D0044800E000BF0123237010BD3C060008000000006C210010084B10B5002B03D00749084800E000BF07480368002B00D19D
:4001000010BD064B002BFBD09847F9E700000000400600086C210010E8000008000000007047FFF7FDFF72B60F4C104DAC4209DA21686268A368043B02DBC858D050FAE71C
:400140000C34F3E70A490B4A0020521A02DD043A8850FCDC084809490860BFF34F8F00F005F900F01DF8FEE770210010882100103C060008140800080000000808ED00E04D
:40018000FEE7FEE700B504207146084202D0EFF3098001E0EFF30880043001F0B7F9FEE710B562B6014800F067F9FEE70000081010B5002000F026FF10BDC04670B5624949
:4001C000E0239B00CB580F2213401A00D0329200525807210A40032A05D0042A06D0002A12D15A4814E05A4A106811E01A00C0329200554952581F210A40112A06D0132A7C
:4002000004D0FA20C00103E0524801E080200002002B36D14C4BB222D2009A5801211140B125ED005A59120F032422405B591B0F1C4207D0444C63591B0F03242340012BDC
:4002400002D102E0012300E00023002B01D0002901D1032A4BD13C4BB022D2009D58AD03AD0B3D495958C904C90C9C58240E01231C40013401F054FC6843210001F050FCDC
:4002800035E0012B33D1304BC822D2009A5801251540C024E4001A59120F03210A401B591B0F194207D028490B591B0F03210B40012B02D102E0012300E00023002B01D049
:4002C000002D01D1032A12D11F4DC022D200AB587F210B40A958090A1F263140AC58240C3440584301F01CFC210001F019FCE0239B00154AD3581B0903221340D840144C68
:400300006060164B1D692D0AFC32154001351969090E013101F004FCA060290001F000FC0500E06020610E4BC0180E4901F0F8FB20750D4BE818FA21890001F0F1FBA061B3
:40034000C003E06170BDC0460000264000127A00C000000800366E0184050000000021403F420F0040420F00E703000010B5284801F0D0FB274CB022D200A3585B005B0831
:40038000A350E0218900635830208343635080235B04A350204A214BE250A02292010433E250FF221E4BE25001F0A2FBC0225200A35801218B43A35000F08CF9FFF7FEFEBE
:4003C000B0235B055B78002B04D0B0235B055B78DBB200E02123212B03D1124B0022DA605A60114C22008021042000F0B1FB2000103000F045FC0D4B1A685123D35C002B95
:4004000002D00B4800F0B2FC00F07AFA10BDC046B42000100000264001000200840500008C050000E00023405806000810080008881C00108023024AD35803201840704792
:400440000000214010B501F0F4F8084980228C58074B2340074C23438B508823034AD358DB06FAD501F0E9F810BDC04600002140FCFF00000100FA0570B50500830504D0FF
:40048000E821FF310F4801F013F801F0D2F80400FFF7D0FF032801D1FFF7D4FF0A4AB0239B00D55080215058084B03400848034353508823044AD358DB06FAD5200001F082
:4004C000BCF870BDBC1C001000002140FCFF00000300FA05FEE7C04630B587B06E49A022D2008B58032083438B506C4A116808688823CB58C3181868694908401860136827
:40050000186884241B59C01803681B021B0A80256D042B430360106805680359EB1818680140196013683E229A5C002A06D05A48E02189004258753CA24342503E229A5C20
:40054000002A06D05448E021890042583024A24342503E229B5C002B07D04F49E02292008B588020000603438B500021012000F07BFD0021022000F077FD0021032000F03C
:4005800073FD0021042000F06FFD0021002000F06BFD01A8434903000A0032CA32C312CA12C300F08FFD002802D00420FFF792FF39493D4A8B588020000603438B503B4856
:4005C00000F03CFE002802D00420FFF783FF324C374BE158374A0A40E250E158364A0A40E250E25880252D062A43E250043BE158324A0A40E250E158314A0A408021890186
:400600000A43E250E258802109020A43E2502D4A11682D4B0B40802149000B431360002001F048FA294BE2581543E550E158012291430A43E2506421002000F07FFF174BC6
:400640001B683F229A5C052A03D90021204A986881509A6874215B5AD2181168104B0B408C2189010B4313600C4B1A687323D15C703B8B4019007023D35C7220105C83403E
:400680000B43802109060B438021C9009068435093685B5807B030BD0000264010080008FF00FFFFD41C0010087F0000400D030004050000FEFCFFFFFFFF00FFFFF0FFFF62
:4006C000FF8FFFFF00002740FFFCFFFF0C050000140C000070B58AB09621002000F02EFF00F004FF002814D100F0F0FEC0235B00244AD358DB0705D41100234A8B585B005E
:400700005B088B501F49204A8B588020000603438B50012001F066F91C4A516C1C4B0B40E82189010B435364536C1B0AFF2213403A2B07D1154A516C164B0B40E821890131
:400740000B435364FFF7C8FE01AD134C2A002300143343CB43C243CB43C243CB43C229000E4800F0D5F82A002300383313CB13C213CB13C213CB13C22900094800F0C8F8A7
:400780000AB070BD000026400C05000000002740FF00FFFFFFC5FFDFD41C00108002324000033240214B984230D00ED8402831D004D800281FD010282AD031E080282BD0FE
:4007C00080235B00984229D02AE0194B984229D007D8A0231B0698420DD0164B984212D01EE0154B98420AD0144B984209D0144B984215D101E0002016E0124814E012486E
:4008000012E0124810E0A020C0030DE007480BE00F4809E00F4807E00F4805E0034803E00E4801E0A420C0037047C04606005200010000F0090000A0040000F0050000F094
:40084000030000F0010052000200520003005200010050000200500005005200FF00520070B5124B1A683123D35C002B04D1C421FF310F4800F01CFE0C4B1D682C00B42362
:40088000EB582A6A944663441B68002B0BDB094B1868FFF787FF6B6801229A6063689B68002BFBD100E0044870BDC04610080008301D0010E80700080200500010B50D4B05
:4008C0001861002805D002230370FD33437000234380094B1B6850229A5C002A08D051229B5C002B04D04F3A0449002000F0F8FA10BDC046E807000810080008610100084B
:4009000010B502481430FFF7D9FF10BDE807000870B505000C0000285DD000295DD0FF230A689A4303D099212D4800F0C1FDFF2322699A4303D09A21294800F0B9FDA36896
:400940005B0D03D09B21264800F0B2FD63685B0A03D09C21224800F0ABFDE3695B0F03D09D211F4800F0A4FD236A5B0F03D09E211B4800F09DFD1B4A11688B69EB1ADB0941
:4009800049691B01CB18216829607D211068415C6918E06808607E211068415C6918206908607F211068415C6918606908607C211068415C6918A06808606168A961116814
:4009C00080228A5CAD18A2692A60E2691A60226A5A60002002E0044800E0034870BDC046701D00101008000801005A0070B504000D000A4B1A68B423D3581B181B68002B56
:400A00000ADA0B0C03D00649064800F051FD2D042D0C6560002000E0034870BD10080008D5020000F01D001001008A0070B505000C000368002B01DA002300E0084B002B9F
:400A40000BD1EA60230C03D00649074800F030FD2404240CAC60002000E0014870BDC04601008A00BB020000F01D001070B505000C1E03D19921084800F01AFD074B1A6841
:400A8000B423D3585B191B68002B03DAEB682360002000E0024870BD301E00101008000801008A0070B504000D00234B1A683123D35C834236D9002936D00B68DB0635D1D9
:400AC0003123D35C984204D3C421FF311B4800F0EFFC194B1B681A6AB0215B5A5C431419174E34602B68DA080021686801F0A4F800212000FFF77AFF3468002D03D111491F
:400B00000E4800F0D5FC2A0000212000FFF78EFF00280DD10A4B18680021FFF767FF002808D108E0084806E0074804E0064802E0064800E0054870BD10080008F01D0010F1
:400B4000000800089303000003018A0001018A0010B50400002A17D1002915D1124B1A683123D35C984204D3C421FF310F4800F09FFC0D4B1B681A6AB0215B5A5C43141910
:400B80000B4B1C6000200EE0002A09D0002909D0074B59609A60191D2000FFF783FF02E0044800E0034810BD10080008F01D00100008000803018A00F0B583B00D001C4B30
:400BC0001B68DC68236883422DD947097B01C01A012383401E00002903D100F02AFD019001E000230193124B18680368002B01DA002300E00F4B002B0ED16368BF00DF19B9
:400C00003B68334203D0B3433B60002400E00A4C0021FFF7EBFE00E0084C002D04D1019800F00BFD00E0064C200003B0F0BDC0460008000801008A000201880003018800AD
:400C400004018A000A4B1B68DA68136883420BD943095901401A0121814052689B009B580B4203D0034802E0034800E003487047000800080101880004018A000001880050
:400C8000034B1B68002B01D1014B18607047C0460C080008F0B5474680B404000F0090461E002D4B1B68002B03D1B5212B4800F0FFFB294B1B682C2060431C18FF221500DF
:400CC00035402560330A13406360360CA660244B1A683123D35C9D4204D3C421FF31214800F0E6FB1E4B1A68B023D35A6B43116A8C466344236166683223D35C9E4204D3CC
:400D0000E021FF31174800F0D3FB154B1B681D6A80367601AD196561A668330C04D0FF214900104800F0C4FB330C03D00E490D4800F0BEFB3604330C1E43AE604346E36195
:400D400027620023A361069B002B02D000229B5EA38104BC9046F0BD0C080008701E001010080008F01D0010FF010000F0B58FB0041E03D15221294800F09AFB6368032B70
:400D800003D95421254800F093FBE36A002B03D15821224800F08CFB236B002B03D159211E4800F085FB07AA1300210061C961C321C921C302AD290023001433C1CBC1C123
:400DC00041CB41C10821535E0CAE3380144B1B6836215B5E07998C466344B370089B0D930B9B0A980096A26AE16AFFF753FF2B69E868002200920021FFF74CFF216B3000FA
:400E000000F0E8FA0023F25E002A05DB1F231A401E3B9340034A13600FB0F0BD701E00101008000800E100E0F8B505000F0016001C00002A03D1FD21224800F039FB224BE6
:400E40001B68002B03D1FE211E4800F031FB1E4B1B682C2128004843181879435918012213004D68AB401B044568AA4015000269002A20D08F69002F1FD11268002A01DA4A
:400E8000002200E0114A002A19D132681204120C134333600369DE6001238B614C6204692B0C03D00A490B4800F002FB2A04120CA260002004E0084802E0084800E0074895
:400EC000F8BDC046701E00100C08000801008A00BB020000F01D001004028A0007028A0070B504000D0016000F4B1B68002B04D1AF2149000D4800F0DBFA0B4B1B682C2074
:400F000060431C18236A002B04D1B1214900074800F0CEFAE369B34204D9236AB6009D51002000E0024870BD0C080008701E00100A028A0070B582B00400002301930028DB
:400F400004D1D221FF312D4800F0B2FA2369002B04D1E9214900294800F0AAFA6369002B04D1D421FF31254800F0A2FA236A002B04D1EA214900214800F09AFA6269D568C4
:400F80002B0C24D01B041360136820691C4B1A68B423D358C3181B68002B18DA01A9FFF765FD00280ED1019803681E0CFF221340E269934207D29B00226AD358002B02D017
:400FC000984700E0002631002069FFF70FFD2D042D0C0FD063691D601B68636A002B03D098470023636203E0A36A002B00D098470023A36163691B6802B070BD701E0010EC
:401000001008000810B50400084B1B68002B04D1B221FF31064800F04BFA044B1B682C2060431818FFF786FF10BDC0460C080008701E001010B50400094B1B689B6CC340C8
:40104000DB0703D4BE21074800F032FA044B1B681B691034A402E3580F20184010BDC04610080008B01E0010134B1A683C23D35C83421DD9042904D94B1EFF3B9BB2132B39
:4010800018D8FF290CD91F2319400C4A0300C0339B009950D03080000423835000200AE007231940D0308000044BC150002002E0034800E00248704710080008000026402D
:4010C00001004A0070B5041E03D14A494A4800F0EFF9B023DB00494AD358002B00DA87E0474B22689A4203D94649434800F0E0F923689B039B0BE279002A02D080225204E0
:4011000000E000221343B022D2003C498B50A2883D4B9A4204D98C218900374800F0C8F922893A4B9A4203D93949334800F0C0F9A388DB04D90C23891B04364A13400B4319
:40114000354A2E498B50A37A0F2B04D98E218900294800F0ADF9E37A0F2B03D92F49264800F0A6F9A289284B9A4203D92C49224800F09EF9A37A0F211940E27A1201FF2350
:4011800013400B43A289120226490A401343A27B1207C02189050A401343B122D20017498B50A379042B03D91F49134800F080F9228A164B9A4204D9912189000E4800F081
:4011C00077F90E4819494558194B1D40A3791B02E022D20013402B4343504558154B1D40238A1B040B4A13402B434350002000E0114870BD1F020000F01E0010000026400E
:40120000FFFF030029020000FF1F0000FF010000310200000000FF0184050000390200003A02000000FF1F00430200008C050000FFF8FFFFFFFF00FE03004A0070B50500D5
:401240003149324A8B588020000603438B502C0003E0012000F020F9013CB223DB002A4AD3585B0701D4002CF3D12749B122D2008858274B03408020800503438B50002DC5
:4012800001D0002C0CD02049B022D2008B588020000603438B5003E0012000F0FDF8013CB223DB00184AD358DB0701D4002CF3D1002D01D0002C08D01349B122D2008B58AE
:4012C000C020800503438B5013E00F4BB121C90058580F4A02408020800502435A5008395A58520052085A5008495A58520052085A50002D03D0002C03D0002002E000205E
:4013000000E0044870BDC046000026408C050000FFFFFFCF02004A0070B505000C001A4B1B6828229A5C012A15D1820807211000884327D19200AD1AED00FF20A8401B687B
:4013400020339A181168AC4023004B40184004004C40146016E03A229B5EDBB2994203D176210A4800F0A4F8074B1B681B680722154080221206154380229201944664445E
:40138000A400E55070BDC04610080008781F001070B504000D000B4B9A680B4B9A420CD1002904D13821FF31084800F081F81034054BA400E058E55003E01034A400044BBE
:4013C000E05870BD00ED00E000000008781F001000000010F0B5474680B482B0061E01914AD04368032B03D93221264800F060F80023F05E002804DBB178FFF78DFF00248F
:4014000000E0214C0023F15E7368002912DB88081E4FC0308000C55903221140C900FC3290468A4095439A01434613408B402B43C35116E089B20F220A40083A9208063208
:40144000920013481018476803221140C900FF252A008A4097439A012B0013408B403B4343600B4B9A680B4B9A4206D10023F05E0199FFF78DFF00E0034C200002B004BCC3
:401480009046F0BD781F00100100560000E100E000ED00E00000000810B5034B1B78584300F0BEF810BDC046D400000801BEFEE770B50D00044C18220100200000F0C4FB4F
:4014C000A5610020FFF7F2FF00060008054B802212069A649B6C002B01DB002000E002487047C0460000274003004600054B8022120198585B68FF221A4202D08023DB027D
:401500001843704700002640FEE7C04610B50A4B0268DA6142681A6282685A62C2689A620269DA6242691A6382695A63C2699A63FFF7EAFF10BDC04600060008F0B5474606
:4015400080B4002801D0192300E064238B429B415B42304D2C682268A826A45BA41822680327BA433B401A4322602C682268A45BA2181668284CA046264016602C68266879
:40158000AA229446A25A96193268BA43134333602A6813686546525BD3181A68444614401C60002805D010291BD921291BD8012024E0184B1B6855229A5C914215D9562216
:4015C0009A5C914213D957229A5C914211D958229A5C91420FD959229B5C99420DD804200CE000200AE0022008E0002006E0012004E0022002E0032000E00520054A126889
:40160000526813680F218B430343136004BC9046F0BDC04610080008FFFCFFFF000000000230800803D001300238FCD1C046C0467047EFF3108072B6704780F310887047C1
:4016400010B5B0235B059B899BB2002B04D0B0235B059B899BB201E080235B0080225200934215D1184C23681968683A9B58C9180B680F208343963A13430B6021680C68F4
:401680009C23CB58E318196881430A431A6019E00D4C2368196898229B58C918B02040050A4BC2580A4B13400A681343C022920013430B60226811689C23D358CB18054A0D
:4016C00082581A6010BDC0461008000848180000FFFCFFFF4418000030B5B0235B059B899BB2002B04D0B0235B059B899BB201E080235B0080225200934215D1184C236845
:401700001968683A9B58C9180B680F208343953A13430B6021680C689C23CB58E318196881430A431A6019E00D4D2B68196898229B58C918B0246405C12040012258094BB2
:4017400013400A681343C022920013430B602A6811689C23D358CB1822581A6030BDC04610080008FFFCFFFFB0235B059B899BB2002B04D0B0235B059B899BB201E0802376
:401780005B008022520093420DD1104B1B681A6898215B58D21811680D4B0B40C021C9010B43136011E0094B1B68196898229B58C918084BB0225205D258074B13400A6855
:4017C0001343C022920013430B60704710080008FF8FFFFF18180000FFFCFFFF30B5B0235B059B899BB2002B04D0B0235B059B899BB201E080235B008022520093420DD120
:40180000134B1B681A6898215B58D2181168114B0B408021C9010B43136018E00C4D2B68196898229B58C918B02464050A4822580A4B13400A681343C022920013430B6002
:401840002A6811689C23D358CB1822581A6030BD10080008FF8FFFFF4C180000FFFCFFFF10B5B0235B059B899BB2002B04D0B0235B059B899BB201E080235B0080225200C7
:40188000934217D10020FFF7D5FBB0235B055B78002B04D0B0235B055B78DBB200E02123222B03D8002803D1013004E0012002E0002000E0012010BDF8B50700012803D9E6
:4018C0003D493E48FFF7F4FDB0235B055B78002B04D0B0235B055B78DBB200E021239DB2B0235B059B899BB2002B04D0B0235B059E89B6B201E0802676000020FFF79AFBDD
:40190000002814D180235B009E4212D1222D12D82B4B1B685C682B4821582B4B19403B068022520413400B432350002404E0274C02E0264C00E0254C80235B009E4201D10B
:40194000222D03D880235B009E4232D01C4B1A683123D35C002B04D1C421FF311C48FFF7A7FD174B1B681D6A80235B009E4203D1002F05D0174A06E0002F03D0164A02E031
:40198000164A00E0164A01212800FFF74FF800280FD10B4B1A68B423D3585B191B68002BF7DBEB681B0E1B06A0221206934200D100242000F8BDC0464C0A0000BC1F0010CD
:4019C0001008000818F00000FFFFFFFE04004200301D0010010100300300000C010000300100000CF8B50500012804D9822109012948FFF75DFDFFF733FF002849D0FFF71D
:401A000018FE0700002D11D10021244B244AD150E823DB00B0225205D65CF6B20120FFF74BFF041E19D1FFF70BFE16E0B02252051C4BD0581A4B194958501B49565CF6B22B
:401A40001A481A581F218A4314390A431A500320FFF722FDFFF7C2FE0024002C15D11049124A8B581F20834306401E438E50002D02D1FFF779FE08E00720FFF70DFDFFF7C9
:401A80002BFE0020FFF718FF04003800FFF7D5FD00E0074C2000F8BDBC1F0010307F00000000264010180000410700001CFF000003004200042805D10B4A116804230B43AF
:401AC00013600FE0094B1A681168A023D358CB180006C022920410401860034A136804218B4313607047C04610E000E0100800080749C02252008B589B009B088020C00539
:401B000003438B508B588020000603438B50704700002640014B18607047C04610080008002243088B4274D303098B425FD3030A8B4244D3030B8B4228D3030C8B420DD30D
:401B4000FF22090212BA030C8B4202D31212090265D0030B8B4219D300E0090AC30B8B4201D3CB03C01A5241830B8B4201D38B03C01A5241430B8B4201D34B03C01A524120
:401B8000030B8B4201D30B03C01A5241C30A8B4201D3CB02C01A5241830A8B4201D38B02C01A5241430A8B4201D34B02C01A5241030A8B4201D30B02C01A5241CDD2C309F0
:401BC0008B4201D3CB01C01A524183098B4201D38B01C01A524143098B4201D34B01C01A524103098B4201D30B01C01A5241C3088B4201D3CB00C01A524183088B4201D349
:401C00008B00C01A524143088B4201D34B00C01A5241411A00D20146524110467047FFE701B5002000F006F802BDC0460029F7D076E770477047C04603008218934202D080
:401C400019700133FAE77047030030B5002A0DD00C7801335D1E013A2C700131002CF5D19A189A4202D01C700133FAE730BD0000F8B5C046F8BC08BC9E467047F8B5C0468B
:401C8000F8BC08BC9E4670470300000001000000010000000000000005036000040000000100000000000000010000000604600008000000C8070008B101001073797374C0
:401CC000656D5F70736F63365F636D30706C75732E630000F4010000140004010A000905080000006301000003000000000000000000000068000000000000000000000017
:401D0000000000001212000000000000000000000000000000000000000000BA0000000000000000000000000000000000001D1D47656E6572617465645F536F757263652C
:401D40005C50536F43365C70646C5C647269766572732F7065726970686572616C2F6970632F63795F6970635F6472762E68000047656E6572617465645F536F7572636579
:401D80005C50536F43365C70646C5C647269766572735C7065726970686572616C5C6770696F5C63795F6770696F2E630000000047656E6572617465645F536F757263657C
:401DC0005C50536F43365C70646C5C647269766572735C7065726970686572616C5C6770696F5C63795F6770696F2E680000000047656E6572617465645F536F7572636537
:401E00005C50536F43365C70646C5C647269766572735C7065726970686572616C5C6970635C63795F6970635F6472762E68000047656E6572617465645F536F7572636531
:401E40005C50536F43365C70646C5C647269766572735C7065726970686572616C5C6970635C63795F6970635F6472762E63000047656E6572617465645F536F75726365F6
:401E80005C50536F43365C70646C5C647269766572735C7065726970686572616C5C6970635C63795F6970635F706970652E630047656E6572617465645F536F7572636554
:401EC0005C50536F43365C70646C5C647269766572735C7065726970686572616C5C70726F745C63795F70726F742E630000000047656E6572617465645F536F757263650F
:401F00005C50536F43365C70646C5C647269766572735C7065726970686572616C5C737973636C6B5C63795F737973636C6B2E630000000047656E6572617465645F536FD5
:401F4000757263655C50536F43365C70646C5C647269766572735C7065726970686572616C5C737973636C6B5C63795F737973636C6B2E680000000047656E657261746566
:401F8000645F536F757263655C50536F43365C70646C5C647269766572735C7065726970686572616C5C737973696E745C63795F737973696E742E630000000047656E6530
:401FC00072617465645F536F757263655C50536F43365C70646C5C647269766572735C7065726970686572616C5C737973706D5C63795F737973706D2E630000000020403F
:4020000000002440000000400000000000002340000030400000314000009F40000022400000104002020202020202020210101D800017007500FF03060206360410200052
:40204000000000007FC0000000040000000000000019324B647D00804000080B100000000000FF012002001F00800004FF081018001000140018001C4044484C500000000F
:40208000081000000800000004000000041000000012000004210000002100000016000040114002C41300138013A013200000001C00000000002140000025400000014074
:4020C0000000344000002440000031400000324000001F410000234000001140010101010101010101101010800019005500F0000501053B04101C01010000000FC00000B3
:402100000004000001010101011D3A57789600082000101208000000001F00000010000F002000023F06080E00080009000A000B24282C303400000010000000900000002B
:4021400088000000080000008000000004F0000000F00000400200002005A000D00100018001A0012000000010000000000000000000001000000008C000000090210010A7
:40218000C0000008400500003C060008D80100000048E80100127A0000093D0000093D0000093D0004000000A00F00000000D007E9000010C10000100000000010B5000443
:4021C000400B27D0144B1A68146AB023D15ACA00531AE3181B68002BF4DA3E220F4B1A600F4A104B1A60104B0621A322D20099500E4A98509B58084B1A68106AB023D15AAE
:40220000CA00531AC31800225A60084B064AD358002BFADA10BDC04610080008040126401E1F000008012640000026401C05000010B54378FF2B20D100F02AFA04000F4B45
:402240001A683123D35C042B04D8C421FF310C4800F036FA094B1A68116AB023D35A9B00CB18DB685A68116801230B4313601368DB07FCD4200000F0F3F910BD100800087D
:40228000301D0010F0B585B001900291544B1A683123D35C002B04D1C421FF31514800F00FFA4F4B1B681E6AB4229A58971950229B5C002B77D000F0F3F9050003283CD167
:4022C000474B1A683123D35C062B04D8C421FF31444800F0F5F9424B1968B023CB5A5A00D21853000A6A94466344B4228A58D3181B68002B23DB002000F0AAF93A4B9842C8
:402300001FD03A4B1A6900230021012000F0B0F9002803D0364C17E0013400E00024002000F096F9304B984202D0324B9C42F3D9304B9C4207D92E4C06E0002404E02C4CF5
:4023400002E02B4C00E00024002C46D100F0A0F90390294B294AD358002B13DA234A0121300000F06DF900280ED10298FFF726FF019B002B0AD03B68002BFCDB00F098F9DF
:40238000040004E01A4C02E0194C00E01C4C032D05D10121002000F073F90028F9D1039800F05EF919E000F073F905000F4A0121300000F045F9002809D1019B002B08D0F4
:4023C0003B68002BFCDB00F073F9040002E0084C00E00B4C280000F043F9200005B0F0BD10080008301D001001018800E807000805005200EF4902001C050000000026407F
:4024000001005000F0B54F464646C0B4824B1A685468B0235B055B78002B04D0B0235B055B78DBB200E02123212B67D1B023D15ACB005B1A116A8C46634419680029F5DA1B
:40244000DD6802212943D960B023D15ACB005B1A116A8C466344D968C9073ED5D9680904090C8C4684271168D559A84641440968090A0904FF26360431400D00882611686A
:40248000894691598846C14449460968090A0906294365462943D9601168D359C9180A685E4B98461A4090252D012A430A605A4B99461A6813689C46925962441368414629
:4024C00019400B002B4313604B461A681568D15969180B689359EB181B684F4B1A68B021555AEB005B1B156AAC46634400255D60156A515ACA00531AEB185B68484A11694D
:4025000004230B431361012801D030BF00E020BF414B1A68B023D15ACB005B1A116A8C46634419680029F3DAB02149054978002904D0B02149054978C9B200E021212129AF
:4025400032D1D968C90722D510688421525880180468324A1440DB681B0C1B02FF2109020B40234303602C4B19688823C8580B689C46604403681A400D6AB023CC5AE1001D
:402580000B1BEB18DB681B0E1B021A430260224B1A68106AB023D15ACA00531AC318DA6802218A43DA6028E086235B00E358002B23D11C4807681C4BA321C9005E581B4A7D
:4025C000904615681A4A0260062058503E21424611600631174A9950164B134AD358002BFADA154A86235B00E2500E4B1F60A323DB000D4AD6500D4B1D60074B1A68106A85
:40260000B023D15ACA00531AC31800225A600CBC90469946F0BDC04610080008FF00FFFF00ED00E00801264000002640040126401E1F00001C050000AAAAAAAA000000004E
:4026400001B40248844601BC604700BF2D0A001001B40248844601BC604700BF450C001001B40248844601BC604700BF3B16001001B40248844601BC604700BF290E00105A
:4026800001B40248844601BC604700BFB90B001001B40248844601BC604700BF3316001001B40248844601BC604700BF3504001001B40248844601BC604700BF610800107B
:4026C00001B40248844601BC604700BFB114001000000000000000000000000000000000000000000000000000000000000000000000000000000000000000000000000019
:402700000000000000000000000000000000000000000000000000000000000000000000000000000000000000000000000000000000000000000000000000000000000099
:402740000000000000000000000000000000000000000000000000000000000000000000000000000000000000000000000000000000000000000000000000000000000059
:402780000000000000000000000000000000000000000000000000000000000000000000000000000000000000000000000000000000000000000000000000000000000019
:4027C00000000000000000000000000000000000000000000000000000000000000000000000000000000000000000000000000000000000000000000000000000000000D9
:020000041008E2
:4000000000780408EB0208100D0000005103081051030810510308105103081000000000000000000000000000000000C12D08104D03081000000000612E0810C52E08105A
:400040004D0308104D0308104D0308104D0308104D0308104D0308104D0308104D0308104D0308104D0308104D0308104D0308104D0308104D0308104D0308104D03081000
:400080004D0308104D0308104D0308104D0308104D0308104D0308104D0308104D0308104D0308104D0308104D0308104D0308104D0308104D0308104D0308104D030810C0
:4000C0004D0308104D0308104D0308104D0308104D0308104D0308104D0308104D0308104D0308104D0308104D0308104D0308104D0308104D0308104D0308104D03081080
:400100004D0308104D0308104D0308104D0308104D0308104D0308104D0308104D0308104D0308104D0308104D0308104D0308104D0308104D0308104D0308104D0308103F
:400140004D0308104D0308104D0308104D0308104D0308104D0308104D0308104D0308104D0308104D0308104D0308104D0308104D0308104D0308104D0308104D030810FF
:400180004D0308104D0308104D0308104D0308104D0308104D0308104D0308104D0308104D0308104D0308104D0308104D0308104D0308104D0308104D0308104D030810BF
:4001C0004D0308104D0308104D0308104D0308104D0308104D0308104D0308104D0308104D0308104D0308104D0308104D0308104D0308104D0308104D0308104D0308107F
:400200004D0308104D0308104D0308104D0308104D0308104D0308104D0308104D0308104D0308104D0308104D0308104D0308104D0308104D0308104D0308104D0308103E
:400240004D0308104D0308104D0308104D0308104D0308104D0308104D0308104D0308104D0308104D0308104D0308104D0308104D0308104D0308104D0308104D030810FE
:400280004D0308104D0308104D03081010B5054C237833B9044B13B10448AFF300800123237010BD4C4902080000000028450810084B10B51BB108490848AFF30080084849
:4002C000036803B910BD074B002BFBD0BDE81040184700BF0000000050490208284508101C430208000000007047FFF7FDFF72B6104C114DAC4209DA21686268A368043B25
:40030000A2BFC858D050FAE70C34F3E70B490C4A00209142BCBF41F8040BFAE709480A490860BFF34F8F00F03FF900F019F900F02BF8FEE72C450810444508104C49020859
:40034000780D03080040020808ED00E0FEE7FEE700B504207146084202D0EFF3098001E0EFF30880043000F025FEFEE74FF4A460704700BF4FF43E60704700BF4FF4B86007
:40038000704700BF2020704700B583B062B600230193022200924FF4C8720749074802F029F802F059F8FFF7E5FFFFF7DFFFFFF7E5FFFFF7E7FFFEE73840081045060810B5
:4003C00008B5012000F070FD08BD00BF704700BF5C4AD2F8803303F00F0303F1D00152F8212002F00702032A04D0042A05D092B9554914E0554A116811E003F1C00251491B
:4004000051F8222002F01F02112A06D0132A04D04FF4FA4103E04E4901E04FF400418BBB484BD3F8902502F00100D3F88825C2F30172D3F8883513F0405F07D0414BD3F85B
:400440008835C3F30173012B02D102E0012300E0002303B108B9032A46D13A48D0F88025C2F31103D0F88425C2F30C02D0F88005C0F300600130B1FBF2F202FB03F2B2FB28
:40048000F0F131E0012B2FD12E4BD3F8402602F00100D3F80026C2F30172D3F8003613F0405F07D0274BD3F80036C3F30173012B02D102E0012300E0002303B108B9032AA7
:4004C00012D12048D0F8002602F07F02D0F80036C3F30423D0F80006C0F3044002FB01F2B2FBF3F2B2FBF0F1164BD3F88033C3F3011321FA03F215494A601648D0F89030F9
:40050000C3F3072301330069000E0130B2FBF0F08860B2FBF3F3CB600B6103F5742202F23F220D48A0FB0202C2F387420A7503F2E7330A4AA2FB03239B098B61DB03CB61CC
:40054000704700BF0000264000127A008C42020800366E010000214083DE1B43D34D621008B50D4800F088FDFFF730FFFFF730FF00221146042000F05FFA084800F0F2FA01
:40058000074B1B6893F8513013B1064800F05AFB00F09CF908BD00BF9C42081068490208E80C03084440081008B500F05EFD074AD2F8883043F47003C2F88830BFF34F8F27
:4005C000BFF36F8F00F055FD08BD00BF00ED00E000B583B0164B0022C3F8C82F0422C3F8C02FD3F8C03F134BB3F90030002B09DB5A0903F01F03012101FA03F360320E4944
:4006000041F8223002A9002341F8043D0B4B186801F0B0FB019B43B13BB14FF08052084B1A60BFF34F8FBFF36F8F03B05DF804FB000066409840081000E100E0E84A020841
:4006400004ED00E010B502F05BFE294B1868002302221946406802F027FF264802F0F0FE03220021012001F025FA234B1860234C2349204600F052FCB4F90030002B08DB2A
:40068000590903F01F03012202FA03F31D4A42F8213004221C4BC3F8C82F4FF0FF31164B186801F071FC16E0114B186842685368013B5360002B04DA416802F0C9FEC0B2CC
:4006C00004E042681368591C116018783F2802D10E4802F0B5FE0C4BD3F80833C3F30803002BE1D10422084BC3F8C82FD5E700BF1043020878400810E84A0208984008104C
:40070000D105081000E100E0000066408840081010B504462146034800F0DEFC0028F9D010BD00BF00006640054BD3F80833C3F30803002BF8D0024BD3F84003704700BFFB
:40074000000066401F4B98422DD00CD840282ED003D8E8B1102828D02FE0802829D0B0F5807F28D029E0184B984228D006D8B0F1204F0DD0154B984212D01EE0144B9842FC
:400780000AD00133984209D0023B984215D101E0002070470F4870470F4870470F4870474FF4A0007047074870470D4870470D4870470D487047034870470C4870474FF485
:4007C000A400704706005200010000F0090000A0040000F0010052000200520003005200010050000200500005005200FF00520038B5124B1B6893F83130012B04D840F27E
:40080000C3110F4800F0C6FB0C4B1D682A6AB5F8B03013442C46D5F8B420D358002B0BDB084B1868FFF78EFF6B6801229A6063689B68002BFBD138BD034838BDE80C0308FA
:40084000A0400810EC4A0208020050001A4B186128B102230370FF23437000234380174B1B6893F850202AB300B583B0B3F93830ADF80030002301931149684600F04EFB5E
:40088000BDF90030002B08DB590903F01F03012202FA03F30B4A42F82130084B1B6893F8513023B102220849012000F077FA03B05DF804FB704700BFEC4A0208E80C03086F
:4008C0008D43020800E100E04544020808B50248FFF7BCFF08BD00BF004B020838B50B4B1B68D3F8B4301B58002B0DDA0D4604460B0C1B0423B140F2D521054800F04AFBEE
:40090000A9B26160002038BD024838BDE80C0308E040081001008A0038B50368002B01DA002300E0094B73B90D460446C2600B0C1B0423B140F2BB21054800F02BFBA9B20F
:40094000A160002038BD014838BD00BF01008A00E040081038B504460D4619B99921084800F018FB074B1B68D3F8B4301B59002B03DAE3682B60002038BD034838BD00BF4E
:4009800020410810E80C030801008A00254B1B6893F8313083423AD900293AD00B6813F01F0F38D170B50D4604461E4B1B6893F83130984204D340F2C3111B4800F0EAFA15
:4009C000184B1B68186AB3F8B03004FB0304174E34602A68D2080021686802F0CEFC00212046FFF77BFF346825B940F293310E4800F0D0FA2A4600212046FFF78DFF60B9E3
:400A000000210A4B1868FFF769FF40B970BD084870470748704706487047064870BD054870BD00BFE80C0308E0400810044B020803018A0001018A0010B504461346B2B9F9
:400A4000A9B9124B1B6893F83130984204D340F2C3110F4800F09EFA0C4B1B681A6AB3F8B03004FB03240B4B1C60002010BD43B149B1084A51609360111D2046FFF786FFF1
:400A800010BD054810BD044810BD00BFE80C0308E0400810044B020803018A002DE9F0411B4B1B68DC68236883422CD90D464609A0EB4610012303FA00F819B900F0D5FA63
:400AC000074600E00027124B18680368002B01DA002300E00F4B83B9626852F8263018EA030F05D023EA080342F82630002400E0094C0021FFF7F2FE00E0084C25B93846D0
:400B000000F0B7FA00E0064C2046BDE8F08100BF044B020801008A00020188000301880004018A000B4B1B68DB681A6882420CD94109A0EB4110012202FA00F05B6853F893
:400B40002130184203D004487047044870470448704700BF044B02080101880004018A0000018800024B1B680BB9014B18607047104B02082DE9F8430446884691461D461D
:400B8000089F2C4B1B681BB9B5212B4800F002FA284B1B682C2000FB04F01C18EEB21E50C5F3072363602D0CA560244B1B6893F831309E4204D340F2C311214800F0EAF95E
:400BC0001E4B1B68196AB3F8B02006FB02162661666893F832309E4204D340F2DF11184800F0D8F9154B1B681D6A803605EB46156561A668330C1B0423B14FF4FF7110483A
:400C000000F0C8F9330C1B0423B140F2FF110C4800F0C0F9B3B243EA0646AE60C4F81C90C4F820800023A36117B1B7F90030A381BDE8F883104B020860410810E80C0308B2
:400C4000E0400810F0B58FB0044618B95221274800F0A0F9A369072B03D95621234800F099F9E36A1BB95821204800F093F9236B1BB959211D4800F08DF907AD04F114065C
:400C80000FCE0FC537682F6002AD26460FCE0FC533682B60164B1B68B3F93620079B1344ADF83030089B0D93A26AE16A0CAD00953B460A98FFF75EFF00210091069B0A467E
:400CC0000598FFF757FF216B284600F027F9BDF93030002B08DB590903F01F03012202FA03F3044A42F821300FB0F0BD60410810E80C030800E100E0F8B506460F461D46E2
:400D000014461AB9FD211F4800F044F91E4B1B681BB9FE211B4800F03DF91B4B1B682C2101FB063001FB07314B68012202FA03F31B04466802FA06F60269EAB18F69EFB99D
:400D40001268002A01DA002200E0104AC2B92288134323600369DC6001238B614D620469330C1B0423B140F2BB21094800F012F9B2B2A2600020F8BD0648F8BD0648F8BDF9
:400D80000548F8BD60410810104B020801008A00E040081004028A0007028A00F8B505460F4616460E4B1B6823B94FF4AF710D4800F0F0F80A4B1B682C2404FB0534236A4F
:400DC00023B94FF4B171074800F0E4F8E369B34204D9236A43F826700020F8BD0248F8BD104B0208604108100A028A0070B582B000230193044620B940F2D111284800F0EE
:400E0000C9F8236923B94FF4E971254800F0C2F8636923B940F2D311214800F0BBF8236A23B94FF4EA711E4800F0B4F86369DD682A0C20D012041A601B682069194B1B6848
:400E4000D3F8B430C358002B15DA01A9FFF782FD60B9019803681E0CDBB2E269934206D2226A52F8233013B1984700E0002631462069FFF733FDADB275B16369ADB21D607E
:400E80001B68636A1BB198470023636202E0A36A03B198470023A36163691B6802B070BD60410810E80C030810B50446074B1B6823B940F2B111064800F06CF8034B1B6899
:400EC0002C2000FB0430FFF791FF10BD104B02086041081038B50D4B9A680D4B9A420FD10D46044621B940F237110A4800F052F804F11003064A52F8230042F8235038BDC7
:400F00001030054B53F8200038BD00BF00ED00E000400208A04108100000081048B338B504460D464368072B03D93221134800F031F8B4F900306268002B08DB5201D2B249
:400F400003F1604303F5614383F8002305E003F00F035201D2B20A49CA540A4B9A680A4B9A4208D12946B4F90000FFF7B3FF002038BD06487047002038BD00BFA041081062
:400F800014ED00E000ED00E0004002080100560001BEFEE738B50D46044C18220146204602F02CFBA5610020FFF7F2FFB8480208FEE700BF08B50268254BDA6142681A62FB
:400FC00082685A62C2689A620269DA6242691A6382695A63C2699A631E4A916AD963D16A1964516A5964516B9964926BDA64F1EE103A13F0900F27D0026A154B1A65426A0A
:401000005A65826A9A65C26ADA65026B1A66426B5A66826B9A66C26BDA66026C1A67426C5A67826C9A67C26CDA67026DC3F88020426DC3F88420826DC3F88820C26DC3F817
:401040008C20026EC3F89020FFF7B2FF08BD00BFB848020800ED00E00230800803D001300238FCD100BF00BF7047EFF3108072B6704780F310887047014B1860704700BFA0
:40108000E80C030810B4D0F8003303F00F03072B06D900230DE0D0F84043CC54013300E000239342F7D306E0D0F8404321F8134001339342F8D35DF8044B704710B5144620
:4010C000D0F80833C3F308039A4200D31C462246FFF7D8FF204610BD036813F4006F01D0802200E04022D0F80832C3F30803934203D0C0F84012012070470020704700BF3A
:4011000010B4D0F8003203F00F03072B06D900230DE0CC5CC0F84042013300E000239342F7D306E031F81340C0F8404201339342F8D35DF8044B704710B51446036813F437
:40114000006F01D0802200E04022D0F80832C3F30803D31AA34200D81C462246FFF7D0FF204610BD2DE9F84305460C46036813F4006F02D04FF0800801E04FF04008D5F87F
:40118000007207F00F07A26A012A19D9D4F82490E262561EB9F1000F00D026B940F273512548FFF7F7FE324649462846FFF7C4FFA36A1B1AA362072F00D940004844606287
:4011C000D5F80832C3F30803984533D0A36A012B30D10023A362072F02D8636A1E7801E0636A1E88FFF741FFC5F840624FF40073C5F8803FD5F8803FFFF73BFFD5F8883F07
:4012000023F4007222F0010242F4007623F4EE6323F0030323B140F22A410848FFF7BAFEC5F8886F236843F002032360236B0BB101209847BDE8F883544308109443081072
:401240002DE9F04105460C46036813F4006F01D0802600E040267608A769D4F81C8017B1B8F1000F04D14FF499613148FFF792FE424639462846FFF721FF236A0344236281
:40128000E3691B1AE36173BBA368FBB1E3689E4201D8013E00E05E1E2B6813F4006F01D0802300E040239E4204D34FF420712148FFF770FED5F8043323F0FF03F6B21E43AB
:4012C000C5F804630123C5F8C83F02E00023C5F8C83F636823F001036360236B33B304209847BDE8F081A169D5F8002302F00F02072A00D940000844A0619E4216D95C1E0A
:401300002B6813F4006F01D0802300E040239C4204D34FF420710748FFF73CFED5F8043323F0FF02E3B21343C5F80433BDE8F0815443081094430810002800F0A48170B5D8
:401340000546002900F0A18116460C460B78022B03D93F21A248FFF71DFE637B023BDBB2062B03D940219E48FFF714FEA37B3BB1022B05D0032B03D041219948FFF70AFE00
:4013800094F82130012B03D942219548FFF702FE94F82830012B03D943219148FFF7FAFD2378012B06D86368083B082B94BF0023012307E0A37F2BB16368013B062B94BF0C
:4013C000002301231BB145218548FFF7E3FDA368053B042B03D946218148FFF7DBFD6369FF2B03D947217E48FFF7D4FDA369FF2B03D948217A48FFF7CDFDA37C6BB12378E3
:4014000033B9A368092B05D1A37B2BB1012304E0012302E0012300E000231BB14A217048FFF7B8FD636B23F4366323F00D031BB14C216B48FFF7AEFDE36B23F4EE6323F0EB
:4014400003031BB14D216648FFF7A4FD2378022B01D1A37F13B16268013A00E00022237F13B14FF4803100E00021A368082B02D84FF4006300E000230B4302F00F0213439D
:4014800043F000732B60226B2B6813F4006F01D0802300E040239A4203D362215048FFF779FDA26B2B6813F4006F01D0802300E040239A4203D363214948FFF76BFD626AB7
:4014C0002B6813F4006F01D0802300E040239A4203D364214248FFF75DFD23781B0603F040732B64637F0BB1402200E00022A37C13B14FF4806300E000231343227C12B165
:401500004FF4807200E000221343627C12B14FF4007200E000221A43E36A013B1B0403F470231343627B013A02F007021343A27B120102F030021343AB64237B13B14FF41A
:40154000807200E00022E37B23B92378022B03D1012302E0012300E0002313B14FF4007300E000231A43A368013B03F00F031343C5F80033227DA3691B0403F47F0313436F
:40158000C5F81033E26AD5F8003303F00F0303339A4201D3102A03D97A211148FFF7FAFCE37F23B12378012B03D0002302E0002300E0012313B14FF4807200E00022637B29
:4015C000013B03F007031A43A37B1B0103F0300313436B64237B2BB14FF4807203E000BFD84308100022A368013B03F00F0313432278012A02D14FF4803200E000221343A3
:40160000C5F8003294F83030C5F8043394F8203013B14FF0007200E0002294F82130012B02D14FF0807300E00023134394F82820012A02D14FF4803200E00022134394F876
:40164000242013432B6594F83830C5F80432636B23F4926323F002031B051B0DC5F8C83FE36B23F08C035B055B0DC5F8883F76B1002070603060B060F0603062F0623063A1
:40168000044B736370BD04487047034870BD002070BD00BFEFCDAB000160AA000B694A69934202D34869181A7047CA694869101A184470472DE9F04107460D46036813F4FA
:4016C000006F02D04FF0800801E04FF040084FEA5808D7F80863C6F308062C6926E00134EB689C4200D100246B699C420FD12B6B0BB1082098476B699C4208D10023C7F892
:40170000C83F0CB1013C13E0EC68013C10E0D7F84023D7F8003303F00F03072B02D8AB681A5502E0AB6823F81420013E002ED6D12C61EC6829463846FFF7B0FF201A8045A3
:4017400019D908B1441E00E000243B6813F4006F01D0802300E040239C4204D34FF420710648FFF717FCD7F8040320F0FF03E0B21843C7F80403BDE8F08100BF9443081049
:4017800038B504460D46D0F8003E13F0080F35D0D0F8CC3F13F448730AD04A681A434A60C0F8C03FD0F8C03F0B6B0BB110209847D4F8CC3F13F4006F09D06B6843F4006300
:4017C0006B604FF40063C4F8C03FD4F8C03FD4F8CC3F13F0010F11D0EB6923B129462046FFF72EFD05E0AB681BB129462046FFF761FF0123C4F8C03FD4F8C03FD4F8003E66
:4018000013F0040F2ED0D4F88C3F13F4A0630AD02A681A432A60C4F8803FD4F8803F2B6B0BB120209847D4F88C3F13F0010F08D029462046FFF796FC0123C4F8803FD4F8DF
:40184000803FD4F88C3F13F4007F0BD00022C4F8882F2B6823F001032B60EA622B6B0BB10220984738BD00BF00F1080343604FF0FF328260C360036100230360704700BF20
:4018800000230361704700BF43684B609A688A609A68516099600861036801330360704730B40D68B5F1FF3F01D1026907E000F1080200E01A4653681C68A542FAD25368D2
:4018C0004B6099608A605160086103680133036030BC704703694268816891608268416851605A68904201D182685A60002202611A68013A1A601868704700BF10B504469C
:4019000001F070FAA26BE36B9A4201D1012400E0002401F089FA204610BD00BF10B5044601F060FAA36B0BB9012400E0002401F07BFA204610BD00BF70B504461646856B4C
:40194000026CFAB166B9806801F00CFDA268236C1344A3606268934214D32368A36011E0C06801F0FFFC236C5B42E2681A44E26021688A4202D262681344E360022E01D19C
:4019800005B1013D0135A563002070BD026C72B110B50346C4681444C4604068844201D31868D8600846D96801F0DCFC10BD704738B5054601F016FA95F8454064B20AE040
:4019C0006B6A53B105F1240000F026FF08B100F0B1FF013C64B2002CF2DCFF2385F8453001F022FA01F0FEF995F8444064B20AE02B6953B105F1100000F00EFF08B100F0DB
:401A000099FF013C64B2002CF2DCFF2385F8443001F00AFA38BD00BF38B540B94FF03F0383F31188BFF36F8FBFF34F8FFEE704460D4601F0D7F92168E26B236C03FB021097
:401A400060600020A063A160013A02FB0313E360FF2384F8443084F845307DB92369ABB104F1100000F0D8FE80B14FF08052094B1A60BFF34F8FBFF36F8F07E004F11000C9
:401A8000FFF7F2FE04F12400FFF7EEFE01F0CCF9012038BD04ED00E010B5029B0C4609B91B6000E01A60D8631C6401211846FFF7B3FF10BD40B94FF03F0383F31188BFF372
:401AC0006F8FBFF34F8FFEE7F0B583B0034611B101FB00F000E000201D4617460C46483001F01AFB064638B100903B4600F1480221462846FFF7D0FF304603B0F0BD00BF64
:401B0000F0B585B0019240B94FF03F0383F31188BFF36F8FBFF34F8FFEE7044619B9026C1AB9012202E0012200E0002242B94FF03F0383F31188BFF36F8FBFF34F8FFEE753
:401B4000022B03D1E26B012A02D102E0012200E0002242B94FF03F0383F31188BFF36F8FBFF34F8FFEE71D460E4600F0EBFE18B9019B1BB9012302E0012300E0002343B968
:401B80004FF03F0383F31188BFF36F8FBFF34F8FFEE7002701F026F9A26BE36B9A4201D3022D21D12A4631462046FFF7C5FE636A6BB104F1240000F02FFE88B14FF080529E
:401BC000324B1A60BFF34F8FBFF36F8F08E038B14FF080522D4B1A60BFF34F8FBFF36F8F01F022F901204EE0019B1BB901F01CF9002048E01FB902A800F052FE012701F0A6
:401C000013F900F067FC01F0EDF894F844305BB2B3F1FF3F02D1002384F8443094F845305BB2B3F1FF3F02D1002384F8453001F0FBF801A902A800F03DFEF0B92046FFF75B
:401C40005DFEA0B1019904F1100000F0ADFD2046FFF7AEFE00F0CCFC00289BD14FF080520A4B1A60BFF34F8FBFF36F8F92E72046FFF79EFE00F0BCFC8CE72046FFF798FE8D
:401C800000F0B6FC002005B0F0BD00BF04ED00E02DE9F84340B94FF03F0383F31188BFF36F8FBFF34F8FFEE7044619B9006C18B9012002E0012000E0002040B94FF03F037A
:401CC00083F31188BFF36F8FBFF34F8FFEE7022B03D1E06B012802D102E0012000E0002040B94FF03F0383F31188BFF36F8FBFF34F8FFEE71F469046894601F077F9EFF36A
:401D000011864FF03F0383F31188BFF36F8FBFF34F8FA26BE36B9A4201D3022F1ED194F845506DB23A4649462046FFF705FEB5F1FF3F0DD1636A9BB104F1240000F06CFD16
:401D400080B1B8F1000F0FD00120C8F800000CE06B1C5BB284F84530012006E0002004E0012002E0012000E0012086F31188BDE8F88300BF40B94FF03F0383F31188BFF3ED
:401D80006F8FBFF34F8FFEE770B50446036C43B14FF03F0383F31188BFF36F8FBFF34F8FFEE703681BB943681BB9012302E0012300E0002343B94FF03F0383F31188BFF300
:401DC0006F8FBFF34F8FFEE70E4601F00FF9EFF311854FF03F0383F31188BFF36F8FBFF34F8FA26BE36B9A4218D294F845305BB20132A263B3F1FF3F0AD1636A83B104F1C1
:401E0000240000F009FD68B176B1012030600CE001335BB284F84530012006E0002004E0012002E0012000E0012085F3118870BDF0B585B0019240B94FF03F0383F3118815
:401E4000BFF36F8FBFF34F8FFEE7044619B9036C1BB9012302E0012300E0002343B94FF03F0383F31188BFF36F8FBFF34F8FFEE70E4600F067FD18B9019B1BB9012302E011
:401E8000012300E0002343B94FF03F0383F31188BFF36F8FBFF34F8FFEE7002700F0A2FFA56BC5B131462046FFF770FD013DA563236963B104F1100000F0AEFC38B14FF01F
:401EC0008052304B1A60BFF34F8FBFF36F8F00F0ABFF012053E0019B1BB900F0A5FF00204DE01FB902A800F0DBFC012700F09CFF00F0F0FA00F076FF94F844305BB2B3F1B0
:401F0000FF3F02D1002384F8443094F845305BB2B3F1FF3F02D1002384F8453000F084FF01A902A800F0C6FCF0B92046FFF7F6FCA0B1019904F1240000F036FC2046FFF7B4
:401F400037FD00F055FB0028A8D14FF080520D4B1A60BFF34F8FBFF36F8F9FE72046FFF727FD00F045FB99E72046FFF721FD00F03FFB2046FFF7D2FC00288FD0002005B049
:401F8000F0BD00BF04ED00E030B585B0019140B94FF03F0383F31188BFF36F8FBFF34F8FFEE70446036C43B14FF03F0383F31188BFF36F8FBFF34F8FFEE700F0C3FC18B9A8
:401FC000019B1BB9012302E0012300E0002343B94FF03F0383F31188BFF36F8FBFF34F8FFEE7002500F0FEFEA36BA3B1013BA363236963B104F1100000F00EFC38B14FF017
:402000008052304B1A60BFF34F8FBFF36F8F00F00BFF012053E0019B1BB900F005FF00204DE01DB902A800F03BFC012500F0FCFE00F050FA00F0D6FE94F844305BB2B3F134
:40204000FF3F02D1002384F8443094F845305BB2B3F1FF3F02D1002384F8453000F0E4FE01A902A800F026FCF0B92046FFF756FCA0B1019904F1240000F096FB2046FFF7F5
:4020800097FC00F0B5FA0028ACD14FF080520D4B1A60BFF34F8FBFF36F8FA3E72046FFF787FC00F0A5FA9DE72046FFF781FC00F09FFA2046FFF732FC002893D0002005B05E
:4020C00030BD00BF04ED00E000230BE0074A52F8332032B9054A42F8331002EBC303586070470133092BF1D9704700BFEC0C030870B504460D46164600F074FE94F8443063
:402100005BB2B3F1FF3F02D1002384F8443094F845305BB2B3F1FF3F02D1002384F8453000F082FEA36B2BB93246294604F1240000F054FB2046FFF73BFC70BD094B9B6A39
:402140001B680BB9012300E0002323B14FF0FF32044BDA627047034B9A6AD268D2685268DA627047504B020810B50446006B01F059F8204601F056F810BD00BF2DE9F04719
:402180008246894615469846089F099E0A9C9200A521206B01F0F1F8236B05F18042013A03EB820525F00705002308E019F80310E21882F8341019F8032012B101330F2B3B
:4021C000F4D9002384F84330062F00D90627E762201DFFF755FB04F11800FFF751FB2461C7F10703A3616462002306E003F1100204EB8202002151600133042BF6D90023F0
:40220000A36584F85C3042465146284600F0BCFD206006B13460BDE8F08700BF70B5002407E004EB8402930010481844FFF71CFB0134062CF5D90E4C04F1BC063046FFF707
:4022400013FB04F1D0052846FFF70EFB04F11400FFF70AFB04F1E400FFF706FB2046FFF703FBA662C4F8F85070BD00BF804B0208504B020838B5044600F0B4FD264BD3F865
:40228000FC200132C3F8FC20D3F800314BB9224BC3F80041D3F8FC30012B10D1FFF7BEFF0DE01D4BD3F804314BB91B4BD3F80031DA6AE36A9A4202D8174BC3F80041164A18
:4022C000D2F808310133C2F80831E36AD2F80C21934202D9104AC2F80C310F4D05F1300003EB83039A00211D1044FFF7CDFA00F09BFDD5F804316BB1D5F80031DA6AE36A5B
:402300009A4207D24FF08052044B1A60BFF34F8FBFF36F8F38BD00BF504B020804ED00E038B517E000F05EFD0D4CD4F8F030DD68281DFFF7CFFAD4F8FC30013BC4F8FC30CB
:40234000D4F81031013BC4F8103100F06DFD2846FFF70AFF024BD3F81031002BE2D138BD504B020808B5FFF7DBFF064B1B6B012BF9D94FF08052044B1A60BFF34F8FBFF301
:402380006F8FF0E7504B020804ED00E070B504460E46174BD3F81451D3F800010430FFF799FAB4F1FF3F07D136B11148D0F800110431FFF769FA70BD2C440D4BD3F80031A1
:4023C0005C60A54208D90A4BD3F8F800D3F800110431FFF765FA70BD054DA86AD5F800110431FFF75DFAEB6A9C4200D2EC6270BD504B02082DE9F04385B006460F4615464B
:402400009846900000F088FE60B18146602000F083FE044610B1C0F8309004E0484600F001FF00E000248CB10023039302940D9B01930C9B009343462A4639463046FFF720
:402440009DFE2046FFF716FF012001E04FF0FF3005B0BDE8F08300BF00B583B0194B019300230093802218491848FFF7C3FF012801D100F0CDFA012814D14FF03F0383F3EC
:402480001188BFF36F8FBFF34F8F114B4FF0FF32DA620122C3F804210022C3F8142100F043FD0BE0B0F1FF3F08D14FF03F0383F31188BFF36F8FBFF34F8FFEE703B05DF896
:4024C00004FB00BF6C4C02081844081065230810504B0208034AD2F818310133C2F81831704700BF504B0208014BD3F814017047504B02082DE9F0413C4BD3F81831002B5C
:4025000065D13A4BD3F814410134C3F81441CCB99B6A1B6843B14FF03F0383F31188BFF36F8FBFF34F8FFEE7304B9A6AD3F8F8109962C3F8F820D3F820210132C3F820216A
:40254000FFF7FCFD294BDB6A9C4203D2002645E0012600E00026254B9B6A1B680BB9012300E0002323B14FF0FF32204BDA6235E01E4B9B6ADB68DD686B689C4202D21B4AC5
:40258000D3622BE005F104084046FFF7A3F9AB6A1BB105F11800FFF79DF9EB6A134AD2F80C21934202D9114AC2F80C310F4F07F1300003EB83039A0041461044FFF764F9D9
:4025C000EA6AD7F80031DB6A9A42C1D2C3E7074AD2F824310133C2F824310026034BD3F8283103B101263046BDE8F081504B0208394BD3F8183143B94FF03F0383F31188AE
:40260000BFF36F8FBFF34F8FFEE770B500F0EAFB314BD3F81821013AC3F81821D3F81831002B52D12C4BD3F8FC303BBB00244FE0294D2B6ADC6804F11800FFF74BF9261DDA
:402640003046FFF747F9E36AD5F80C21934201D9C5F80C31204D05F1300003EB83039A0031461044FFF710F9E26AD5F80031DB6A9A4204D30122C5F8282100E00024164B83
:402680005B69002BD4D10CB1FFF758FD124BD3F8244164B1FFF72EFF18B101220E4BC3F82821013CF6D100220B4BC3F824210A4BD3F828315BB14FF08052084B1A60BFF3DF
:4026C0004F8FBFF36F8F012402E0002400E0002400F0AAFB204670BD504B020804ED00E0304BD3F8183123B101222E4BC3F82821704710B52B4B0022C3F82821D3F8003168
:402700001B6B1A68B2F1A53F0BD15A68B2F1A53F07D19A68B2F1A53F03D1DB68B3F1A53F07D0204BD3F80001D3F80011343100F089FC1C4BD3F80C310AE043B94FF03F034B
:4027400083F31188BFF36F8FBFF34F8FFEE7013B03EB83018A0013490A44126B002AECD008469900CC18A2000244546B64685463303019448A0008320244944206D16068AF
:4027800003EB83018A0007490A445063054903EB830082000A44526BD268C1F80021C1F80C3110BD504B020840B94FF03F0383F31188BFF36F8FBFF34F8FFEE710B50C463F
:4027C000054BD3F800111831FFF76AF801212046FFF7DCFD10BD00BF504B020838B540B94FF03F0383F31188BFF36F8FBFF34F8FFEE70C461546074AD2F800111831FFF7D1
:4028000043F80DB14FF0FF3429462046FFF7BEFD38BD00BF504B020838B5C368DC6844B94FF03F0383F31188BFF36F8FBFF34F8FFEE704F118052846FFF74CF8154BD3F85B
:402840001831ABB9251D2846FFF744F8E36A114AD2F80C21934202D90E4AC2F80C3103EB83039A0029460C481044FFF70DF803E029460A48FFF708F8E26A064BD3F80031D8
:40288000DB6A9A4204D90120024BC3F8280138BD002038BD504B0208804B0208644B0208034BD3F820210260D3F8143143607047504B0208F8B540B94FF03F0383F311888A
:4028C000BFF36F8FBFF34F8FFEE7054641B94FF03F0383F31188BFF36F8FBFF34F8FFEE70C4600F07FFA124BD3F814016968421A2368B3F1FF3F14D02F680D4ED6F8206102
:40290000B74201D088420ED29A4206D29B1A23602846FFF7C5FF002406E000232360012402E0002400E0012400F07EFA2046F8BD504B02080122024BC3F82821704700BF1D
:40294000504B0208064BD3F804312BB1044BD3F818311BB9022070470120704700207047504B0208064B1A681368B3FA83F35B09036013B9D368186870470020704700BF15
:402980007C4C020808B54160006191420AD8D21A83699A4211D2011D0A4B5868FEF780FF002008BD9A4201D2994208D2011D054B1868FEF775FF002008BD012008BD012007
:4029C00008BD00BF7C4C020870B500F00BFA0E4B9B68B3B90C4C04F10C063046FEF744FF04F120052846FEF73FFF2660656000220C210A20FFF75EF8A06010B10349FFF7C4
:402A000063FB00F011FA70BD7C4C02082044081000B583B0FFF7D8FF0D4B9B6853B10D4B019303230093002380220B490B48FFF7E1FC00E0002040B94FF03F0383F3118841
:402A4000BFF36F8FBFF34F8FFEE703B05DF804FB7C4C0208B04C020828440810F52C081040B94FF03F0383F31188BFF36F8FBFF34F8FFEE730B585B015460446124A9068D4
:402A8000F0B11A46019102950394052913DCFFF759FF022807D10023089A01A90A488068FFF72EF80DE000231A4601A906488068FFF726F805E0002301A9FFF7E9F800E056
:402AC000002005B030BD00BF7C4C020870B582B029E0DB681E68DC68251D2846FEF7FAFE636A20469847E369012B1CD1A36933449E4207D2636024612946104B1868FEF73F
:402B0000CFFE10E0002100910B4632462046FFF7A7FF40B94FF03F0383F31188BFF36F8FBFF34F8FFEE7054B1B681A68002AD0D1024A51681160536002B070BD7C4C0208B3
:402B400038B50546FFF7D0FC0446074B9B6B984204D2FFF7BBFF01232B6001E000232B60014B9C63204638BD7C4C020870B582B005460E46134B1B68DB68DC68201DFEF713
:402B8000A9FEE369012B18D1A1692B46324629442046FFF7F7FE80B1002100910B462A462046FFF75DFF40B94FF03F0383F31188BFF36F8FBFF34F8FFEE7636A2046984740
:402BC00002B070BD7C4C020870B582B006460C46FFF780FC01A8FFF7B3FF019B1BBB054644B9B04206D3FFF703FD29463046FFF7BDFF1AE02CB10E4B5B681C68B4FA84F4BD
:402C000064092246711B0A4B9868FFF771FAFFF7EFFC50B94FF08052064B1A60BFF34F8FBFF36F8F01E0FFF7E3FC02B070BD00BF7C4C020804ED00E030B587B04DE0039B99
:402C4000002B4ADB059C636913B1201DFEF742FE02A8FFF775FF039B092B3ED8DFE803F00505053D273A05053D270499A5690B46024629442046FFF785FE70B3636A2046AA
:402C80009847E369012B28D1A269002100910B46049802442046FFF7E3FEF0B94FF03F0383F31188BFF36F8FBFF34F8FFEE70499A16141B94FF03F0383F31188BFF36F8F60
:402CC000BFF34F8FFEE70346024601442046FFF759FE02E0204600F0A5FA002203A9044B9868FFF7A5F80028A9D107B030BD00BF7C4C020800B583B001A8FFF733FE019926
:402D0000FFF762FFFFF798FFF6E700BF82B0002301930D4B1B68B3F1FF3F08D04FF03F0383F31188BFF36F8FBFF34F8FFEE74FF03F0383F31188BFF36F8FBFF34F8F019B74
:402D4000002BFCD002B07047AC42020808480068006880F308884FF0000080F3148862B661B6BFF34F8FBFF36F8F00DF00BF000008ED00E0DFF80C00016841F47001016055
:402D80007047000088ED00E04FF0807340F8043C21F0010140F8081C054B40F80C3C40F8202C6FF0020340F8243C4438704700BF0D2D08100000000000000000000000005A
:402DC000074B19680868B0E8F04F80F30988BFF36F8F4FF0000080F311887047AFF30080504C02084FF03F0383F31188BFF36F8FBFF34F8F0A4A136801331360012B0DD1EB
:402E0000084B1B6813F0FF0F08D04FF03F0383F31188BFF36F8FBFF34F8FFEE7704700BFAC42020804ED00E0094B1B6843B94FF03F0383F31188BFF36F8FBFF34F8FFEE757
:402E4000013B034A13600BB983F31188704700BFAC420208000000000000000000000000EFF30980BFF36F8F154B1A681EF0100F08BF20ED108A20E9F04F10602DE90900A6
:402E80004FF03F0080F31188BFF34F8FBFF36F8FFFF726FC4FF0000080F3118809BC19680868B0E8F04F1EF0100F08BFB0EC108A80F30988BFF36F8F704700BFAFF30080E2
:402EC000504C020808B54FF03F0383F31188BFF36F8FBFF34F8FFFF70DFB18B14FF08052024B1A60002383F3118808BD04ED00E0084A0023136008490B60084B1B6808496D
:402F0000A1FB03139B09013B06490B6007231360704700BF10E000E018E000E098420208D34D621014E000E010B582B02A4B1A78D2B20192FF221A701B78DBB28DF80330A8
:402F40009DF80330254A03F03F0313700723536009E0224A5368013B53609DF803305B00DBB28DF803309DF8033013F0800FF0D11A4B5B68042B08D04FF03F0383F3118844
:402F8000BFF36F8FBFF34F8FFEE71B0203F4E063124A5360019BDBB20F4A1370104B1A6842F47F021A601A6842F07F421A60FFF79FFF00240B4B1C60FFF7DCFE0A4A13685B
:402FC00043F040431360FFF7C1FEFFF789FBFFF79DFE204602B010BD00E400E0B84C020820ED00E0AC42020834EF00E0EFF305830F2B0FD9104A9B5CDBB2104A1278934226
:4030000008D24FF03F0383F31188BFF36F8FBFF34F8FFEE70A4B1B6803F4E063074A5268934208D94FF03F0383F31188BFF36F8FBFF34F8FFEE77047F0E300E0B84C020801
:403040000CED00E008B54FF03F0383F31188BFF36F8FBFF34F8F4FF441710248FDF79AFFFEE700BF30440810134A12F0070F07D0D11D21F00701C1F5404313440A4601E0DA
:403080004FF440430D49C1F858250020C1F85C051344083B23F00703C1F8603558601860981A50601360C1F86405C1F868054FF00043C1F86C357047C04C0208680703080F
:4030C000134B00E013461A688242FBD310B45C681919884203D14168214459601846446801198A420DD10B49D1F860158A4206D05268224442601A681268026002E00160A1
:4031000000E00260984200D018605DF8044B7047C00C03086807030870B50446FFF7DAF93F4BD3F860350BB9FFF79EFF3C4BD3F86C351C425CD194B1083414F0070F0ED00F
:4031400024F00704083404F0070343B14FF03F0383F31188BFF36F8FBFF34F8FFEE7002C48D02F4BD3F868359C4245D82C4BD3F8585503F5AB6301E02B4615466A689442E2
:4031800002D92A68002AF7D1254AD2F86025954234D01E6808362A681A606B681B1B102B10D9281910F0070F08D04FF03F0383F31188BFF36F8FBFF34F8FFEE743606C60C7
:4031C000FFF77EFF6A681649D1F868359B1AC1F86835D1F864158B4202D21149C1F864350F4BD3F86C351A436A6000232B6006E0002604E0002602E0002600E00026FFF776
:40320000F7F916F0070F08D04FF03F0383F31188BFF36F8FBFF34F8FFEE7304670BD00BF68070308B8B338B50346A0F1080550F8042C1949D1F86C1512EA010408D14FF09D
:403240003F0383F31188BFF36F8FBFF34F8FFEE750F8080C40B14FF03F0383F31188BFF36F8FBFF34F8FFEE7A4B198B91C4622EA010243F8042CFFF72DF954F8043C064A5C
:40328000D2F868150B44C2F868352846FFF718FFFFF7AEF938BD70476807030870B539B900240AE015F8010BFDF732FA013402E016460D460024B442F4DB204670BD00BF84
:4032C00070B561B900240FE0FDF72EFAC0B2287001340A2808D00D2806D0013502E016460D460024B442EFDB204670BD08B502490248FEF745FA08BD3C0D03080000664089
:4033000008B5114B1B785BB9104A11491148FEF713F811491148FDF701FE01220A4B1A700E4BB3F90030002B08DB590903F01F03012202FA03F30A4A42F82130054A1368A0
:4033400043F00043136008BDD80C03083C0D03088044081000006640ED3208109840081000E100E010B5431E0A44914204D011F8014B03F8014FF8E710BD02440346934227
:4033800002D003F8011BFAE77047000070B50E46054618B183690BB900F00AFBAB69AC6813B9284600F004FB224B9C4201D16C6808E0214B9C4201D1AC6803E01F4B9C42D5
:4033C00008BFEC68A3891B0701D523693BB92146284600F07BF910B14FF0FF3070BD013EA36816F8011F013BA36091B1002B04DAA269934206DB0A2904D023685A1C22602C
:403400001970EDE72246284600F00CF90130E7D1E2E7002B08DA22460A21284600F002F90130D9D00A2070BD23680A205A1C2260187070BDC8440810E84408100845081059
:40344000024B01461868FFF7A1BF00BF1043020838B50C46054618B183690BB900F0A8FA0E4B9C4201D16C6808E00D4B9C4201D1AC6803E00B4B9C4208BFEC682146284649
:4034800000F05AFC38B96368013B636023685A1C2260187838BD4FF0FF3038BDC8440810E8440810084508102DE9F7431D464F4B1E6804460F46904626B1B36913B9304656
:4034C00000F076FA4A4B9C4201D1746808E0494B9C4201D1B46803E0474B9C4208BFF468B8F1020F04D0B8F1010F79D8002D77DB2146304600F0E0F9616B41B104F14403D6
:40350000994202D0304600F061FB002363630023A3616360A3891B0603D52169304600F055FBA38923F44A6323F00303B8F1020FA3811ED001AB6A462146304600F0DEFA0E
:40354000A3891843A0810DB9009D00E02FBB284600F034FB0746D0B9DDF80090A94502D14FF0FF3006E0484600F028FB074678B9F6E70020A38943F00203A3810023A360CF
:4035800004F1470323602361012363612AE0A946A38943F08003A3814D46B36913B9304600F006FAB8F1010F08BFA389276004BF43F00103A381A389276103F0080080B2CB
:4035C000656158B113F001034FF000001DBF6D42A060A561A56008BF184603E0A06001E04FF0FF3003B0BDE8F08300BF10430208C8440810E84408100845081010B5034607
:4036000042B111F8014B03F8014B013A002CF7D11A4400E010BD934202D003F8014BFAE710BD0000F8B50F461446064618B183690BB900F0BDF9224B9C4201D1746808E07D
:40364000204B9C4201D1B46803E01F4B9C4208BFF468A369A360A3891A0709D523693BB123682069181A63699842FDB20FDB08E02146304600F02AF80028F1D04FF0FF3060
:40368000F8BD2146304600F017F90028F6D1A368013BA36023685A1C22601F706269431C934204D0A389DB0707D50A2D05D12146304600F001F90028E0D12846F8BD00BFE1
:4036C000C8440810E844081008450810324B70B51D6806460C4625B1AB6913B9284600F067F92E4B9C4201D16C6808E02C4B9C4201D1AC6803E02B4B9C4208BFEC68B4F9A5
:403700000C309AB215071DD4D00602D4092232603AE0510712D5616B41B104F14403994202D0304600F052FA00236363A38923F02403A3810023636023692360A38943F012
:403740000803A38123694BB9A38903F42073B3F5007F03D02146304600F0F4F9A28912F0010305D00023A36063695B42A36103E0920758BF6369A36023695BB9B4F90C309C
:4037800003F0800080B230B143F04003A3814FF0FF3070BD002070BD10430208C8440810E8440810084508108A892DE9F041054610070C4659D44B68002B02DC0B6C002B3E
:4037C00017DDE66AAEB102F48052002392B22F682B600AB1606D15E0216A01232846B047411C0FD12B686BB11D2B01D0162B03D12F600020BDE8F081A38943F04003A3819F
:40380000BDE8F081A3895A0705D56368C01A636B0BB1236CC01A00230246E66A216A2846B047431CA38906D129681D293AD8214ACA40D60736D500226260D9042269226052
:4038400004D5421C01D12B6803B96065616B2F600029CED004F14403994202D0284600F0B5F900206063BDE8F0810F69002FC0D093070E6808BF4B690F6018BF0023C7EB3E
:4038800006088B6002E00744C0EB0808B8F1000FAFDD43463A46216AA66A2846B0470028F1DCA38943F04003A3814FF0FF30BDE8F08100BF0100402038B50B6905460C467D
:4038C000DBB118B183690BB900F072F80C4B9C4201D16C6808E00B4B9C4201D1AC6803E0094B9C4208BFEC68B4F90C302BB121462846BDE83840FFF757BF002038BD00BFC5
:40390000C8440810E844081008450810014620B9044B0549186800F0D3B8044B1868FFF7CBBF00BFC4440810B938081010430208014900F0C5B800BFB9380810002310B507
:40394000044603604360836081814366C281036143618361194608225C30FFF70EFD054B6362054BA362054BE362054B2462236310BD00BF693E08108B3E0810C33E081084
:40398000E73E081070B568234D1E5D430E4605F1740100F069F9044640B1002180E842000C30A06005F16802FFF7E7FC204670BD836910B5044633BB8364C3640365124B34
:4039C000124A1B688262984204BF0123836100F01FF86060204600F01BF8A060204600F017F80022E06004216068FFF7A7FF01220921A068FFF7A2FF02221221E068FFF75E
:403A00009DFF0123A36110BDC444081031390810F8B51C4B1E68B369074613B93046FFF7C7FF4836B4687368013B04D4B4F90C507DB16834F8E733680BB13668F2E7042124
:403A40003846FFF79FFF30600028F6D10C233B60F8BD4FF6FF73E3810123A38165662560A560656025616561A5610822294604F15C00FFF782FC6563A563A564E564204681
:403A8000F8BD00BFC44408102DE9F041884600F1480400268CB1A5686768013F0BD4AB89012B06D9B5F90E30013302D02846C04706436835F1E72468ECE73046BDE8F08173
:403AC0002DE9F8438046894600F14804002694B1A5686768013F0CD4AB89012B07D9B5F90E30013303D029464046C84706436835F0E72468EBE73046BDE8F88370B50E46DB
:403B0000B1F90E10002990B014461D4606DA00232B60B3891A060ED540230EE001AA00F009FA0028F3DB029A02F47042A2F500535A425A412A604FF480630020236010B06D
:403B400070BD00008B8973B59E0705460C4610D401AB6A46FFF7D2FF00990646284600F083F868B9B4F90C309A0522D443F00203A38104F14703236023610123636118E0B4
:403B80000D4BAB62A389206043F08003A381009B6361019B20614BB1B4F90E10284600F0DBF918B1A38943F00103A381A0893043A08102B070BD00BF31390810024B0146E4
:403BC000186800F051B800BF1043020838B50546002946D051F8043C0C1F002BB8BFE41800F0DCF91F4A1368114613B96360146032E0A3420ED92268A018834204BF18683C
:403C00005B68636004BF121822600C6024E0A24203D813465A68002AF9D118681918A1420BD12168014458188242196014D1106852685A60014419600EE002D90C232B6054
:403C40000AE021686018824204BF10685268626004BF091821605C602846BDE8384000F09EB938BDE00C030870B5CD1C25F0030508350C2D38BF0C25002D064601DBA942F6
:403C800002D90C23336046E000F088F9234B1C681A462146A1B10B685B1B0ED40B2B03D90B60CC18CD501EE08C420DBF63684B686360136018BF0C4615E00C464968E9E73F
:403CC000174C23681BB9304600F0BEF820602946304600F0B9F8431C18D0C41C24F00304A0420DD12560304600F059F904F10B00231D20F00700C31A0ED05A42E25070BD94
:403D0000211A304600F0A0F80130EBD10C233360304600F044F9002070BD00BFE00C0308DC0C0308838903F00903092B01D1FFF7EDBD002070470000F8B50C46054618B167
:403D400083690BB9FFF734FE3A4B9C4201D16C6808E0394B9C4201D1AC6803E0374B9C4208BFEC68B4F90C200023636093B29E065BD458071AD4D90605D4092342F0400258
:403D80002B60A28151E01A070BD521462846FFF793FD002849D1A389A06023F00803A381A061A38943F00403A38110E0616B71B104F14403994202D02846FFF707FF236CCD
:403DC00063600020606313B1E36B2360F8BD23691BB921462846FFF7B5FEB4F90C70BEB2B3070FD00123A381154B1649186806F00906FFF749FE092EA78103D121462846F2
:403E0000FFF7D2FC22692260666A6369216A2846B047002860600BDCA38917BF002243F0200343F040036260A3814FF0FF30F8BD0020F8BDC8440810E844081008450810BB
:403E4000C4440810253D081038B5064C002305460846236000F0D6F8431C02D1236803B12B6038BD740D030810B50C46B1F90E1000F096F80028ABBF636DA3891B1823F4BA
:403E80008053ACBF6365A38110BD2DE9F0411F468B89DB0505460C46164605D502230022B1F90E1000F068F8A389B4F90E1023F48053A38132463B462846BDE8F04100F007
:403EC00017B810B50C46B1F90E1000F055F8431CA38915BF606523F4805343F48053A38118BFA38110BDB1F90E1000F013B8000038B5074C054608461146002222601A461C
:403F0000FFF7CCF9431C02D1236803B12B6038BD740D030838B5064C002305460846236000F050F8431C02D1236803B12B6038BD740D030838B5074C0023054608461146C3
:403F4000236000F047F8431C02D1236803B12B6038BD00BF740D030838B5064C002305460846236000F03EF8431C02D1236803B12B6038BD740D030838B5074C0546084659
:403F80001146002222601A4600F034F8431C02D1236803B12B6038BD740D03087047704738B5074C054608461146002222601A46FFF786F9431C02D1236803B12B6038BD05
:403FC000740D0308024B58221A604FF0FF307047740D0308024B58221A604FF0FF307047740D0308024B58221A600020704700BF740D0308024B58221A604FF0FF30704788
:40400000740D0308044A05491368002B08BF0B461844106018467047E40C0308780D0308F8B500BFF8BC08BC9E467047F8B500BFF8BC08BC9E4670475541525420546173AC
:404040006B0000000300000001000000010000000000000005036000040000000100000000000000010000000604600008000000C84A0208C1030810537461727465642001
:404080005461736B0D0000003F095072696E742048656C700D0000002E0000000700000047656E6572617465645F536F757263655C50536F43365C70646C5C6472697665C8
:4040C00072732F7065726970686572616C2F6970632F63795F6970635F6472762E68000047656E6572617465645F536F757263655C50536F43365C70646C5C6472697665D6
:4041000072735C7065726970686572616C5C6970635C63795F6970635F6472762E68000047656E6572617465645F536F757263655C50536F43365C70646C5C64726976650E
:4041400072735C7065726970686572616C5C6970635C63795F6970635F6472762E63000047656E6572617465645F536F757263655C50536F43365C70646C5C6472697665D3
:4041800072735C7065726970686572616C5C6970635C63795F6970635F706970652E630047656E6572617465645F536F757263655C50536F43365C70646C5C647269766531
:4041C00072735C7065726970686572616C5C737973696E745C63795F737973696E742E63000000000000204000002440000000400000000000002340000030400000314032
:4042000000009F40000022400000104002020202020202020210101D800017007500FF030602063604102000000000007FC0000000040000000000000019324B647D0080DE
:404240004000080B100000000000FF012002001F00800004FF081018001000140018001C4044484C50000000081000000800000004000000041000000012000004210000B8
:40428000002100000016000040114002C41300138013A013200000001C0000000000214000002540000001400000344000002440000031400000324000001F410000234043
:4042C00000001140010101010101010101101010800019005500F0000501053B04101C01010000000FC000000004000001010101011D3A57789600082000101208000000F8
:40430000001F00000010000F002000023F06080E00080009000A000B24282C3034000000100000009000000088000000080000008000000004F0000000F0000040020000EA
:404340002005A000D00100018001A001200000001000000047656E6572617465645F536F757263655C50536F43365C70646C5C647269766572735C706572697068657261FB
:404380006C5C7363625C63795F7363625F756172742E680047656E6572617465645F536F757263655C50536F43365C70646C5C647269766572735C70657269706865726124
:4043C0006C5C7363625C63795F7363625F636F6D6D6F6E2E6800000047656E6572617465645F536F757263655C50536F43365C70646C5C647269766572735C7065726970B7
:40440000686572616C5C7363625C63795F7363625F756172742E630049444C4500000000546D725100000000546D72205376630047656E6572617465645F536F75726365E1
:404440005C50536F43365C70646C5C72746F735C4672656552544F535C31302E302E315C536F757263655C706F727461626C655C4743435C434D34465C706F72742E630032
:40448000000000000C0000000800000000020000000000000000000000000000000000000000000000000000000000000B00000000000000000000000000000000000000DB
:4044C00043000000B042020800000000000000000000000000000000000000000000000000000000000000000000000000000000000000000000000000000000000000007D
:40450000000000000000000000000000000000000000000000000000000000000000000000000000000000000000000000000810004002088C0200004C4508108C4202080A
:404540002C0600004C4902082CC400000048E80100127A0000093D0000127A0000127A0008000000401F00000000A00FAAAAAAAA00000000C8440810E844081008450810D4
:4045800000000000000000000000000000000000C04408100000000000000000000000000000000000000000000000000000000000000000000000000000000000000000DF
:4045C00000000000000000000000000000000000B0420208B10208108D0208100000000080B2C10050B3164B1B681A6AB3F8B030C3EBC303D358002BF5DA3E22114B1A6095
:4046000041F61E7204331A60A3F584730622C3F8182521F07F41C3F81C15D3F81C35084B1A68116AB2F8B030C3EBC3030B4400225A60054BD3F81C35002BFADA704700BF20
:40464000E80C03080401264000002640F8B5274B1B6893F83130052B04D840F2C311244800F06AFA214F3A68166AB2F8B03003EB83031E4452684FF26003D458A4B200F048
:404680004BFA05463B681968D3F890208A58013C032C27D8032A0CD1164A127812F0FF0F07D10822B2601968D3F890208A58032AF9D01968D3F884208B588858C0F3072203
:4046C0001B0E581C02FB00000B4B03FB00F00B4B1B680B4AA2FB03239B09B0FBF3F08230FFF77EFF284600F007FAF8BDE80C0308A04008100B00001640420F0090420208FB
:40470000D34D62104378FF2B23D110B500F004FA0446104B1B6893F83130042B04D840F2C3110D4800F008FA0A4B1A68136AB2F8B02003EB8203DB685A68136843F00103F7
:404740001360136813F0010FFBD1204600F0D4F910BD7047E80C0308A04008102DE9F04707468846554B1B6893F83130012B04D840F2C311524800F0DFF9504B1B681C6A43
:40478000B3F8B0201444D3F8B420161993F85030002B79D04B4B1B7813F0FF0F02D04FF0000901E04FF00109B9F1000F38D0434B1B6893F83130052B04D840F2C311404803
:4047C00000F0BAF93D4B1A68116AB2F8B03003EB83030B44D2F8B420D358002B22DB002000F092F9384B98421ED00023374A12690121184600F0B8F918B1354D17E00135B5
:4048000000E00025002000F07FF92F4B984202D0304B9D42F3D92F4B9D4207D92C4D06E0002504E02A4D02E0294D00E00025002D41D100F071F98246274BD3F81C35002B10
:4048400010DA224A0121204600F06EF960B94046FFF7C6FE57B13368002BFCDB00F074F9054604E01A4D02E0194D00E01B4DB9F1000F05D00121002000F06EF90028F9D169
:40488000504600F039F916E000F046F980460F4A0121204600F048F938B947B13368002BFCDB00F051F9054602E0094D00E00B4D404600F021F92846BDE8F087E80C0308AF
:4048C000A04008100B00001601018800EC4A020805005200EF4902000000264001005000F0B47F4B1A6855684FF0B0535B7813F0FF0F04D04FF0B0535B78DBB200E0212320
:40490000212B55D1116AB2F8B030C3EBC303CC18CB58002BF6DAE36843F00103E360146AB2F8B030C3EBC3031C44E36813F0020F2DD0E3689EB21368D2F884105958090A55
:40494000090401F47F01D2F88870DB591B0A41EA03633343E3601168D2F884208B5823F47F4343F410638B505D4A13681C68D3F88810635823F47F4343F4106363501368B3
:404980001A68D3F884105158D3F88830D358544B1A68116AB2F8B030C3EBC3030B4400215960116AB2F8B030C3EBC3030B445B684B4B19680C68D1F894301C44494A1369EA
:4049C00043F004031361012801D030BF07E020BF454B1B7803B120BF0122434B1A70236803F00303022BE9D00A6AB1F8B030C3EBC303D018D358002BF6DA4FF0B0535B786B
