:020000041008E2
:4000000000780408EB0208100D0000005103081051030810510308105103081000000000000000000000000000000000611908104D0308100000000091190810F519081098
:400040004D0308104D0308104D0308104D0308104D0308104D0308104D0308104D0308104D0308104D0308104D0308104D0308104D0308104D0308104D0308104D03081000
:400080004D0308104D0308104D0308104D0308104D0308104D0308104D0308104D0308104D0308104D0308104D0308104D0308104D0308104D0308104D0308104D030810C0
:4000C0004D0308104D0308104D0308104D0308104D0308104D0308104D0308104D0308104D0308104D0308104D0308104D0308104D0308104D0308104D0308104D03081080
:400100004D0308104D0308104D0308104D0308104D0308104D0308104D0308104D0308104D0308104D0308104D0308104D0308104D0308104D0308104D0308104D0308103F
:400140004D0308104D0308104D0308104D0308104D0308104D0308104D0308104D0308104D0308104D0308104D0308104D0308104D0308104D0308104D0308104D030810FF
:400180004D0308104D0308104D0308104D0308104D0308104D0308104D0308104D0308104D0308104D0308104D0308104D0308104D0308104D0308104D0308104D030810BF
:4001C0004D0308104D0308104D0308104D0308104D0308104D0308104D0308104D0308104D0308104D0308104D0308104D0308104D0308104D0308104D0308104D0308107F
:400200004D0308104D0308104D0308104D0308104D0308104D0308104D0308104D0308104D0308104D0308104D0308104D0308104D0308104D0308104D0308104D0308103E
:400240004D0308104D0308104D0308104D0308104D0308104D0308104D0308104D0308104D0308104D0308104D0308104D0308104D0308104D0308104D0308104D030810FE
:400280004D0308104D0308104D03081010B5054C237833B9044B13B10448AFF300800123237010BD4C49020800000000182D0810084B10B51BB108490848AFF30080084871
:4002C000036803B910BD074B002BFBD0BDE81040184700BF0000000050490208182D081018430208000000007047FFF7FDFF72B6104C114DAC4209DA21686268A368043B51
:40030000A2BFC858D050FAE70C34F3E70B490C4A00209142BCBF41F8040BFAE709480A490860BFF34F8F00F03FF900F019F900F01DF8FEE71C2D0810342D08104C490208B7
:40034000C84C02080040020808ED00E0FEE7FEE700B504207146084202D0EFF3098001E0EFF30880043000F085FDFEE708B562B601F09AFB104B1868002302221946406805
:4003800001F06EFC0D4801F037FC0B4B186842685368013B5360002B04DA416801F034FCC0B204E042681368591C116018780028EBD001F0B3FBE8E70C4302085C28081035
:4003C00008B5012000F0D0FC08BD00BF704700BF5C4AD2F8803303F00F0303F1D00152F8212002F00702032A04D0042A05D092B9554914E0554A116811E003F1C0025149BC
:4004000051F8222002F01F02112A06D0132A04D04FF4FA4103E04E4901E04FF400418BBB484BD3F8902502F00100D3F88825C2F30172D3F8883513F0405F07D0414BD3F85B
:400440008835C3F30173012B02D102E0012300E0002303B108B9032A46D13A48D0F88025C2F31103D0F88425C2F30C02D0F88005C0F300600130B1FBF2F202FB03F2B2FB28
:40048000F0F131E0012B2FD12E4BD3F8402602F00100D3F80026C2F30172D3F8003613F0405F07D0274BD3F80036C3F30173012B02D102E0012300E0002303B108B9032AA7
:4004C00012D12048D0F8002602F07F02D0F80036C3F30423D0F80006C0F3044002FB01F2B2FBF3F2B2FBF0F1164BD3F88033C3F3011321FA03F215494A601648D0F89030F9
:40050000C3F3072301330069000E0130B2FBF0F08860B2FBF3F3CB600B6103F5742202F23F220D48A0FB0202C2F387420A7503F2E7330A4AA2FB03239B098B61DB03CB61CC
:40054000704700BF0000264000127A008C42020800366E010000214083DE1B43D34D621008B50D4800F0E8FCFFF730FFFFF730FF00221146042000F0BFF9084800F052FAE3
:40058000074B1B6893F8513013B1064800F0BAFA00F0FCF808BD00BFA42A081068490208884C02086C28081008B500F0BEFC074AD2F8883043F47003C2F88830BFF34F8F2B
:4005C000BFF36F8F00F0B5FC08BD00BF00ED00E010B504462146034800F0DEFC0028F9D010BD00BF00006640054BD3F80833C3F30803002BF8D0024BD3F84003704700BFD0
:40060000000066401F4B98422DD00CD840282ED003D8E8B1102828D02FE0802829D0B0F5807F28D029E0184B984228D006D8B0F1204F0DD0154B984212D01EE0144B98423D
:400640000AD00133984209D0023B984215D101E0002070470F4870470F4870470F4870474FF4A0007047074870470D4870470D4870470D487047034870470C4870474FF4C6
:40068000A400704706005200010000F0090000A0040000F0010052000200520003005200010050000200500005005200FF00520038B5124B1B6893F83130012B04D840F2BF
:4006C000C3110F4800F0C6FB0C4B1D682A6AB5F8B03013442C46D5F8B420D358002B0BDB084B1868FFF78EFF6B6801229A6063689B68002BFBD138BD034838BD884C02085D
:40070000A8280810E84A0208020050001A4B186128B102230370FF23437000234380174B1B6893F850202AB300B583B0B3F93830ADF80030002301931149684600F04EFBB3
:40074000BDF90030002B08DB590903F01F03012202FA03F30B4A42F82130084B1B6893F8513023B102220849012000F077FA03B05DF804FB704700BFE84A0208884C0208D5
:400780008943020800E100E04144020808B50248FFF7BCFF08BD00BFFC4A020838B50B4B1B68D3F8B4301B58002B0DDA0D4604460B0C1B0423B140F2D521054800F04AFB3C
:4007C000A9B26160002038BD024838BD884C0208E828081001008A0038B50368002B01DA002300E0094B73B90D460446C2600B0C1B0423B140F2BB21054800F02BFBA9B282
:40080000A160002038BD014838BD00BF01008A00E828081038B504460D4619B99921084800F018FB074B1B68D3F8B4301B59002B03DAE3682B60002038BD034838BD00BF9F
:4008400028290810884C020801008A00254B1B6893F8313083423AD900293AD00B6813F01F0F38D170B50D4604461E4B1B6893F83130984204D340F2C3111B4800F0EAFA87
:40088000184B1B68186AB3F8B03004FB0304174E34602A68D2080021686801F037F900212046FFF77BFF346825B940F293310E4800F0D0FA2A4600212046FFF78DFF60B9BF
:4008C00000210A4B1868FFF769FF40B970BD084870470748704706487047064870BD054870BD00BF884C0208E8280810004B020803018A0001018A0010B504461346B2B970
:40090000A9B9124B1B6893F83130984204D340F2C3110F4800F09EFA0C4B1B681A6AB3F8B03004FB03240B4B1C60002010BD43B149B1084A51609360111D2046FFF786FF32
:4009400010BD054810BD044810BD00BF884C0208E8280810004B020803018A002DE9F0411B4B1B68DC68236883422CD90D464609A0EB4610012303FA00F819B900F0D5FAD9
:40098000074600E00027124B18680368002B01DA002300E00F4B83B9626852F8263018EA030F05D023EA080342F82630002400E0094C0021FFF7F2FE00E0084C25B9384611
:4009C00000F0B7FA00E0064C2046BDE8F08100BF004B020801008A00020188000301880004018A000B4B1B68DB681A6882420CD94109A0EB4110012202FA00F05B6853F8D9
:400A00002130184203D004487047044870470448704700BF004B02080101880004018A0000018800024B1B680BB9014B186070470C4B02082DE9F8430446884691461D4666
:400A4000089F2C4B1B681BB9B5212B4800F002FA284B1B682C2000FB04F01C18EEB21E50C5F3072363602D0CA560244B1B6893F831309E4204D340F2C311214800F0EAF99F
:400A80001E4B1B68196AB3F8B02006FB02162661666893F832309E4204D340F2DF11184800F0D8F9154B1B681D6A803605EB46156561A668330C1B0423B14FF4FF7110487B
:400AC00000F0C8F9330C1B0423B140F2FF110C4800F0C0F9B3B243EA0646AE60C4F81C90C4F820800023A36117B1B7F90030A381BDE8F8830C4B020868290810884C020829
:400B0000E8280810F0B58FB0044618B95221274800F0A0F9A369072B03D95621234800F099F9E36A1BB95821204800F093F9236B1BB959211D4800F08DF907AD04F11406AD
:400B40000FCE0FC537682F6002AD26460FCE0FC533682B60164B1B68B3F93620079B1344ADF83030089B0D93A26AE16A0CAD00953B460A98FFF75EFF00210091069B0A46BF
:400B80000598FFF757FF216B284600F027F9BDF93030002B08DB590903F01F03012202FA03F3044A42F821300FB0F0BD68290810884C020800E100E0F8B506460F461D4654
:400BC00014461AB9FD211F4800F044F91E4B1B681BB9FE211B4800F03DF91B4B1B682C2101FB063001FB07314B68012202FA03F31B04466802FA06F60269EAB18F69EFB9DF
:400C00001268002A01DA002200E0104AC2B92288134323600369DC6001238B614D620469330C1B0423B140F2BB21094800F012F9B2B2A2600020F8BD0648F8BD0648F8BD3A
:400C40000548F8BD682908100C4B020801008A00E828081004028A0007028A00F8B505460F4616460E4B1B6823B94FF4AF710D4800F0F0F80A4B1B682C2404FB0534236AB4
:400C800023B94FF4B171074800F0E4F8E369B34204D9236A43F826700020F8BD0248F8BD0C4B0208682908100A028A0070B582B000230193044620B940F2D111284800F043
:400CC000C9F8236923B94FF4E971254800F0C2F8636923B940F2D311214800F0BBF8236A23B94FF4EA711E4800F0B4F86369DD682A0C20D012041A601B682069194B1B688A
:400D0000D3F8B430C358002B15DA01A9FFF782FD60B9019803681E0CDBB2E269934206D2226A52F8233013B1984700E0002631462069FFF733FDADB275B16369ADB21D60BF
:400D40001B68636A1BB198470023636202E0A36A03B198470023A36163691B6802B070BD68290810884C020810B50446074B1B6823B940F2B111064800F06CF8034B1B680B
:400D80002C2000FB0430FFF791FF10BD0C4B02086829081038B50D4B9A680D4B9A420FD10D46044621B940F237110A4800F052F804F11003064A52F8230042F8235038BD1C
:400DC0001030054B53F8200038BD00BF00ED00E000400208A82908100000081048B338B504460D464368072B03D93221134800F031F8B4F900306268002B08DB5201D2B29B
:400E000003F1604303F5614383F8002305E003F00F035201D2B20A49CA540A4B9A680A4B9A4208D12946B4F90000FFF7B3FF002038BD06487047002038BD00BFA8290810B3
:400E400014ED00E000ED00E0004002080100560001BEFEE738B50D46044C18220146204600F0A8FFA5610020FFF7F2FFB8480208FEE700BF08B50268254BDA6142681A62BE
:400E800082685A62C2689A620269DA6242691A6382695A63C2699A631E4A916AD963D16A1964516A5964516B9964926BDA64F1EE103A13F0900F27D0026A154B1A65426A4B
:400EC0005A65826A9A65C26ADA65026B1A66426B5A66826B9A66C26BDA66026C1A67426C5A67826C9A67C26CDA67026DC3F88020426DC3F88420826DC3F88820C26DC3F859
:400F00008C20026EC3F89020FFF7B2FF08BD00BFB848020800ED00E00230800803D001300238FCD100BF00BF7047EFF3108072B6704780F310887047014B1860704700BFE1
:400F4000884C020810B4D0F8003303F00F03072B06D900230DE0D0F84043CC54013300E000239342F7D306E0D0F8404321F8134001339342F8D35DF8044B704710B5144682
:400F8000D0F80833C3F308039A4200D31C462246FFF7D8FF204610BD036813F4006F01D0802200E04022D0F80832C3F30803934203D0C0F84012012070470020704700BF7B
:400FC00010B4D0F8003203F00F03072B06D900230DE0CC5CC0F84042013300E000239342F7D306E031F81340C0F8404201339342F8D35DF8044B704710B51446036813F479
:40100000006F01D0802200E04022D0F80832C3F30803D31AA34200D81C462246FFF7D0FF204610BD2DE9F84305460C46036813F4006F02D04FF0800801E04FF04008D5F8C0
:40104000007207F00F07A26A012A19D9D4F82490E262561EB9F1000F00D026B940F273512548FFF7F7FE324649462846FFF7C4FFA36A1B1AA362072F00D9400048446062C8
:40108000D5F80832C3F30803984533D0A36A012B30D10023A362072F02D8636A1E7801E0636A1E88FFF741FFC5F840624FF40073C5F8803FD5F8803FFFF73BFFD5F8883F48
:4010C00023F4007222F0010242F4007623F4EE6323F0030323B140F236410848FFF7BAFEC5F8886F236843F002032360236B0BB101209847BDE8F8835C2B08109C2B0810C8
:401100002DE9F04105460C46036813F4006F01D0802600E040267608A769D4F81C8017B1B8F1000F04D14FF499613148FFF792FE424639462846FFF721FF236A03442362C2
:40114000E3691B1AE36173BBA368FBB1E3689E4201D8013E00E05E1E2B6813F4006F01D0802300E040239E4204D34FF423712148FFF770FED5F8043323F0FF03F6B21E43E9
:40118000C5F804630123C5F8C83F02E00023C5F8C83F636823F001036360236B33B304209847BDE8F081A169D5F8002302F00F02072A00D940000844A0619E4216D95C1E4B
:4011C0002B6813F4006F01D0802300E040239C4204D34FF423710748FFF73CFED5F8043323F0FF02E3B21343C5F80433BDE8F0815C2B08109C2B0810002800F0A48170B537
:401200000546002900F0A18116460C460B78022B03D93F21A248FFF71DFE637B023BDBB2062B03D940219E48FFF714FEA37B3BB1022B05D0032B03D041219948FFF70AFE41
:4012400094F82130012B03D942219548FFF702FE94F82830012B03D943219148FFF7FAFD2378012B06D86368083B082B94BF0023012307E0A37F2BB16368013B062B94BF4D
:40128000002301231BB145218548FFF7E3FDA368053B042B03D946218148FFF7DBFD6369FF2B03D947217E48FFF7D4FDA369FF2B03D948217A48FFF7CDFDA37C6BB1237824
:4012C00033B9A368092B05D1A37B2BB1012304E0012302E0012300E000231BB14A217048FFF7B8FD636B23F4366323F00D031BB14C216B48FFF7AEFDE36B23F4EE6323F02D
:4013000003031BB14D216648FFF7A4FD2378022B01D1A37F13B16268013A00E00022237F13B14FF4803100E00021A368082B02D84FF4006300E000230B4302F00F021343DE
:4013400043F000732B60226B2B6813F4006F01D0802300E040239A4203D362215048FFF779FDA26B2B6813F4006F01D0802300E040239A4203D363214948FFF76BFD626AF8
:401380002B6813F4006F01D0802300E040239A4203D364214248FFF75DFD23781B0603F040732B64637F0BB1402200E00022A37C13B14FF4806300E000231343227C12B1A6
:4013C0004FF4807200E000221343627C12B14FF4007200E000221A43E36A013B1B0403F470231343627B013A02F007021343A27B120102F030021343AB64237B13B14FF45C
:40140000807200E00022E37B23B92378022B03D1012302E0012300E0002313B14FF4007300E000231A43A368013B03F00F031343C5F80033227DA3691B0403F47F031343B0
:40144000C5F81033E26AD5F8003303F00F0303339A4201D3102A03D97A211148FFF7FAFCE37F23B12378012B03D0002302E0002300E0012313B14FF4807200E00022637B6A
:40148000013B03F007031A43A37B1B0103F0300313436B64237B2BB14FF4807203E000BFE02B08100022A368013B03F00F0313432278012A02D14FF4803200E000221343F4
:4014C000C5F8003294F83030C5F8043394F8203013B14FF0007200E0002294F82130012B02D14FF0807300E00023134394F82820012A02D14FF4803200E00022134394F8B8
:40150000242013432B6594F83830C5F80432636B23F4926323F002031B051B0DC5F8C83FE36B23F08C035B055B0DC5F8883F76B1002070603060B060F0603062F0623063E2
:40154000044B736370BD04487047034870BD002070BD00BFEFCDAB000160AA000B694A69934202D34869181A7047CA684869101A184470472DE9F04107460D46036813F43C
:40158000006F02D04FF0800801E04FF040084FEA5808D7F80863C6F308062C6926E00134EB689C4200D100246B699C420FD12B6B0BB1082098476B699C4208D10023C7F8D3
:4015C000C83F0CB1013C13E0EC68013C10E0D7F84023D7F8003303F00F03072B02D8AB681A5502E0AB6823F81420013E002ED6D12C61EC6829463846FFF7B0FF201A8045E5
:4016000019D908B1441E00E000243B6813F4006F01D0802300E040239C4204D34FF423710648FFF717FCD7F8040320F0FF03E0B21843C7F80403BDE8F08100BF9C2B081097
:4016400038B504460D46D0F8003E13F0080F35D0D0F8CC3F13F448730AD04A681A434A60C0F8C03FD0F8C03F0B6B0BB110209847D4F8CC3F13F4006F09D06B6843F4006341
:401680006B604FF40063C4F8C03FD4F8C03FD4F8CC3F13F0010F11D0EB6923B129462046FFF72EFD05E0AB681BB129462046FFF761FF0123C4F8C03FD4F8C03FD4F8003EA7
:4016C00013F0040F2ED0D4F88C3F13F4A0630AD02A681A432A60C4F8803FD4F8803F2B6B0BB120209847D4F88C3F13F0010F08D029462046FFF796FC0123C4F8803FD4F821
:40170000803FD4F88C3F13F4007F0BD00022C4F8882F2B6823F001032B60EA622B6B0BB10220984738BD00BF43684B609A688A609A685160996008610368013303607047C5
:4017400003694268816891608268416851605A68904201D182685A60002202611A68013A1A601868704700BF094B9B6A1B680BB9012300E0002323B14FF0FF32044BDA62E3
:401780007047034B9A6AD268D2685268DA6270474C4B02082DE9F0413C4BD3F81831002B65D13A4BD3F814410134C3F81441CCB99B6A1B6843B14FF03F0383F31188BFF3EE
:4017C0006F8FBFF34F8FFEE7304B9A6AD3F8F8109962C3F8F820D3F820210132C3F82021FFF7C2FF294BDB6A9C4203D2002645E0012600E00026254B9B6A1B680BB90123A0
:4018000000E0002323B14FF0FF32204BDA6235E01E4B9B6ADB68DD686B689C4202D21B4AD3622BE005F104084046FFF789FFAB6A1BB105F11800FFF783FFEB6A134AD2F89C
:401840000C21934202D9114AC2F80C310F4F07F1300003EB83039A0041461044FFF764FFEA6AD7F80031DB6A9A42C1D2C3E7074AD2F824310133C2F824310026034BD3F8CD
:40188000283103B101263046BDE8F0814C4B0208304BD3F8183123B101222E4BC3F82821704710B52B4B0022C3F82821D3F800311B6B1A68B2F1A53F0BD15A68B2F1A53FFC
:4018C00007D19A68B2F1A53F03D1DB68B3F1A53F07D0204BD3F80001D3F80011343100F09FF81C4BD3F80C310AE043B94FF03F0383F31188BFF36F8FBFF34F8FFEE7013BCC
:4019000003EB83018A0013490A44126B002AECD008469900CC18A2000244546B64685463303019448A0008320244944206D1606803EB83018A0007490A445063054903EBE4
:40194000830082000A44526BD268C1F80021C1F80C3110BD4C4B02080000000000000000074B19680868B0E8F04F80F30988BFF36F8F4FF0000080F311887047AFF30080ED
:401980004C4C0208000000000000000000000000EFF30980BFF36F8F154B1A681EF0100F08BF20ED108A20E9F04F10602DE909004FF03F0080F31188BFF34F8FBFF36F8F4C
:4019C000FFF766FF4FF0000080F3118809BC19680868B0E8F04F1EF0100F08BFB0EC108A80F30988BFF36F8F704700BFAFF300804C4C020808B54FF03F0383F31188BFF39D
:401A00006F8FBFF34F8FFFF7C5FE18B14FF08052024B1A60002383F3118808BD04ED00E008B54FF03F0383F31188BFF36F8FBFF34F8F4FF441710248FFF70CFAFEE700BF8A
:401A4000202C081070B539B900240AE015F8010BFEF7BEFD013402E016460D460024B442F4DB204670BD00BF70B561B900240FE0FEF7BAFDC0B2287001340A2808D00D2897
:401A800006D0013502E016460D460024B442EFDB204670BD08B502490248FFF7D1FD08BD8C4C02080000664008B5114B1B785BB9104A11491148FFF79FFB11491148FFF7A9
:401AC0008DF901220A4B1A700E4BB3F90030002B08DB590903F01F03012202FA03F30A4A42F82130054A136843F00043136008BD784C02088C4C0208702C0810000066402E
:401B0000951A0810A028081000E100E002440346934202D003F8011BFAE7704738B5084B1C68054624B1A36913B9204600F01CFBA26829462046BDE8384000F0CFBC00BFF9
:401B40000C43020870B50E46054618B183690BB900F00AFBAB69AC6813B9284600F004FB224B9C4201D16C6808E0214B9C4201D1AC6803E01F4B9C4208BFEC68A3891B07EC
:401B800001D523693BB92146284600F07BF910B14FF0FF3070BD013EA36816F8011F013BA36091B1002B04DAA269934206DB0A2904D023685A1C22601970EDE722462846BA
:401BC00000F00CF90130E7D1E2E7002B08DA22460A21284600F002F90130D9D00A2070BD23680A205A1C2260187070BDB82C0810D82C0810F82C0810024B01461868FFF754
:401C0000A1BF00BF0C43020838B50C46054618B183690BB900F0A8FA0E4B9C4201D16C6808E00D4B9C4201D1AC6803E00B4B9C4208BFEC682146284600F090FC38B9636877
:401C4000013B636023685A1C2260187838BD4FF0FF3038BDB82C0810D82C0810F82C08102DE9F7431D464F4B1E6804460F46904626B1B36913B9304600F076FA4A4B9C4256
:401C800001D1746808E0494B9C4201D1B46803E0474B9C4208BFF468B8F1020F04D0B8F1010F79D8002D77DB2146304600F0E0F9616B41B104F14403994202D0304600F0EE
:401CC00061FB002363630023A3616360A3891B0603D52169304600F055FBA38923F44A6323F00303B8F1020FA3811ED001AB6A462146304600F0DEFAA3891843A0810DB90C
:401D0000009D00E02FBB284600F034FB0746D0B9DDF80090A94502D14FF0FF3006E0484600F028FB074678B9F6E70020A38943F00203A3810023A36004F14703236023614F
:401D4000012363612AE0A946A38943F08003A3814D46B36913B9304600F006FAB8F1010F08BFA389276004BF43F00103A381A389276103F0080080B2656158B113F0010393
:401D80004FF000001DBF6D42A060A561A56008BF184603E0A06001E04FF0FF3003B0BDE8F08300BF0C430208B82C0810D82C0810F82C081010B5034642B111F8014B03F86F
:401DC000014B013A002CF7D11A4400E010BD934202D003F8014BFAE710BD0000F8B50F461446064618B183690BB900F0BDF9224B9C4201D1746808E0204B9C4201D1B468E2
:401E000003E01F4B9C4208BFF468A369A360A3891A0709D523693BB123682069181A63699842FDB20FDB08E02146304600F02AF80028F1D04FF0FF30F8BD2146304600F06D
:401E400017F90028F6D1A368013BA36023685A1C22601F706269431C934204D0A389DB0707D50A2D05D12146304600F001F90028E0D12846F8BD00BFB82C0810D82C0810A3
:401E8000F82C0810324B70B51D6806460C4625B1AB6913B9284600F067F92E4B9C4201D16C6808E02C4B9C4201D1AC6803E02B4B9C4208BFEC68B4F90C309AB215071DD4F9
:401EC000D00602D4092232603AE0510712D5616B41B104F14403994202D0304600F052FA00236363A38923F02403A3810023636023692360A38943F00803A38123694BB941
:401F0000A38903F42073B3F5007F03D02146304600F0F4F9A28912F0010305D00023A36063695B42A36103E0920758BF6369A36023695BB9B4F90C3003F0800080B230B12D
:401F400043F04003A3814FF0FF3070BD002070BD0C430208B82C0810D82C0810F82C08108A892DE9F041054610070C4659D44B68002B02DC0B6C002B17DDE66AAEB102F400
:401F80008052002392B22F682B600AB1606D15E0216A01232846B047411C0FD12B686BB11D2B01D0162B03D12F600020BDE8F081A38943F04003A381BDE8F081A3895A07ED
:401FC00005D56368C01A636B0BB1236CC01A00230246E66A216A2846B047431CA38906D129681D293AD8214ACA40D60736D500226260D9042269226004D5421C01D12B68B2
:4020000003B96065616B2F600029CED004F14403994202D0284600F0B5F900206063BDE8F0810F69002FC0D093070E6808BF4B690F6018BF0023C7EB06088B6002E007440C
:40204000C0EB0808B8F1000FAFDD43463A46216AA66A2846B0470028F1DCA38943F04003A3814FF0FF30BDE8F08100BF0100402038B50B6905460C46DBB118B183690BB9F6
:4020800000F072F80C4B9C4201D16C6808E00B4B9C4201D1AC6803E0094B9C4208BFEC68B4F90C302BB121462846BDE83840FFF757BF002038BD00BFB82C0810D82C08100A
:4020C000F82C0810014620B9044B0549186800F0D3B8044B1868FFF7CBBF00BFB42C0810712008100C430208014900F0C5B800BF71200810002310B50446036043608360AA
:4021000081814366C281036143618361194608225C30FFF7FBFC054B6362054BA362054BE362054B2462236310BD00BF8D260810AF260810E72608100B27081070B5682305
:402140004D1E5D430E4605F1740100F069F9044640B1002180E842000C30A06005F16802FFF7D4FC204670BD836910B5044633BB8364C3640365124B124A1B6882629842EF
:4021800004BF0123836100F01FF86060204600F01BF8A060204600F017F80022E06004216068FFF7A7FF01220921A068FFF7A2FF02221221E068FFF79DFF0123A36110BDC2
:4021C000B42C0810E9200810F8B51C4B1E68B369074613B93046FFF7C7FF4836B4687368013B04D4B4F90C507DB16834F8E733680BB13668F2E704213846FFF79FFF3060F5
:402200000028F6D10C233B60F8BD4FF6FF73E3810123A38165662560A560656025616561A5610822294604F15C00FFF76FFC6563A563A564E5642046F8BD00BFB42C081022
:402240002DE9F041884600F1480400268CB1A5686768013F0BD4AB89012B06D9B5F90E30013302D02846C04706436835F1E72468ECE73046BDE8F0812DE9F8438046894679
:4022800000F14804002694B1A5686768013F0CD4AB89012B07D9B5F90E30013303D029464046C84706436835F0E72468EBE73046BDE8F88370B50E46B1F90E10002990B0E8
:4022C00014461D4606DA00232B60B3891A060ED540230EE001AA00F03FFA0028F3DB029A02F47042A2F500535A425A412A604FF480630020236010B070BD00008B8973B558
:402300009E0705460C4610D401AB6A46FFF7D2FF00990646284600F083F868B9B4F90C309A0522D443F00203A38104F14703236023610123636118E00D4BAB62A389206064
:4023400043F08003A381009B6361019B20614BB1B4F90E10284600F011FA18B1A38943F00103A381A0893043A08102B070BD00BFE9200810024B0146186800F051B800BF3F
:402380000C43020838B50546002946D051F8043C0C1F002BB8BFE41800F012FA1F4A1368114613B96360146032E0A3420ED92268A018834204BF18685B68636004BF121826
:4023C00022600C6024E0A24203D813465A68002AF9D118681918A1420BD12168014458188242196014D1106852685A60014419600EE002D90C232B600AE021686018824271
:4024000004BF10685268626004BF091821605C602846BDE8384000F0D4B938BD804C020870B5CD1C25F0030508350C2D38BF0C25002D064601DBA94202D90C23336046E025
:4024400000F0BEF9234B1C681A462146A1B10B685B1B0ED40B2B03D90B60CC18CD501EE08C420DBF63684B686360136018BF0C4615E00C464968E9E7174C23681BB93046EC
:4024800000F0F4F820602946304600F0EFF8431C18D0C41C24F00304A0420DD12560304600F08FF904F10B00231D20F00700C31A0ED05A42E25070BD211A304600F0D6F813
:4024C0000130EBD10C233360304600F07AF9002070BD00BF804C02087C4C020870B50D461446064618B183690BB9FFF73DFE134B9C4201D1746808E0114B9C4201D1B468DE
:4025000003E0104B9C4208BFF468A368013B002BA3600CDAA269934202DBEBB20A2B06D1224629463046BDE87040FFF757BC23685A1C22601D70E8B270BD00BFB82C08105E
:40254000D82C0810F82C0810838903F00903092B01D1FFF7B7BD002070470000F8B50C46054618B183690BB9FFF7FEFD3A4B9C4201D16C6808E0394B9C4201D1AC6803E0E1
:40258000374B9C4208BFEC68B4F90C200023636093B29E065BD458071AD4D90605D4092342F040022B60A28151E01A070BD521462846FFF75DFD002849D1A389A06023F09E
:4025C0000803A381A061A38943F00403A38110E0616B71B104F14403994202D02846FFF7D1FE236C63600020606313B1E36B2360F8BD23691BB921462846FFF77FFEB4F953
:402600000C70BEB2B3070FD00123A381154B1649186806F00906FFF713FE092EA78103D121462846FFF79CFC22692260666A6369216A2846B047002860600BDCA38917BF82
:40264000002243F0200343F040036260A3814FF0FF30F8BD0020F8BDB82C0810D82C0810F82C0810B42C08104925081038B5064C002305460846236000F0D6F8431C02D14E
:40268000236803B12B6038BDC44C020810B50C46B1F90E1000F096F80028ABBF636DA3891B1823F48053ACBF6365A38110BD2DE9F0411F468B89DB0505460C46164605D5A2
:4026C00002230022B1F90E1000F068F8A389B4F90E1023F48053A38132463B462846BDE8F04100F017B810B50C46B1F90E1000F055F8431CA38915BF606523F4805343F419
:402700008053A38118BFA38110BDB1F90E1000F013B8000038B5074C054608461146002222601A46FFF78EF9431C02D1236803B12B6038BDC44C020838B5064C00230546EE
:402740000846236000F050F8431C02D1236803B12B6038BDC44C020838B5074C0023054608461146236000F047F8431C02D1236803B12B6038BD00BFC44C020838B5064C37
:40278000002305460846236000F03EF8431C02D1236803B12B6038BDC44C020838B5074C054608461146002222601A4600F034F8431C02D1236803B12B6038BDC44C02084E
:4027C0007047704738B5074C054608461146002222601A46FFF748F9431C02D1236803B12B6038BDC44C0208024B58221A604FF0FF307047C44C0208024B58221A604FF0F5
:40280000FF307047C44C0208024B58221A600020704700BFC44C0208024B58221A604FF0FF307047C44C0208044A05491368002B08BF0B461844106018467047844C020812
:40284000C84C0208F8B500BFF8BC08BC9E467047F8B500BFF8BC08BC9E4670475374617274656420554152540D00000003000000010000000100000000000000050360008F
:40288000040000000100000000000000010000000604600008000000C84A0208C10308102E0000000700000047656E6572617465645F536F757263655C50536F43365C7061
:4028C000646C5C647269766572732F7065726970686572616C2F6970632F63795F6970635F6472762E68000047656E6572617465645F536F757263655C50536F43365C70EE
:40290000646C5C647269766572735C7065726970686572616C5C6970635C63795F6970635F6472762E68000047656E6572617465645F536F757263655C50536F43365C7026
:40294000646C5C647269766572735C7065726970686572616C5C6970635C63795F6970635F6472762E63000047656E6572617465645F536F757263655C50536F43365C70EB
:40298000646C5C647269766572735C7065726970686572616C5C6970635C63795F6970635F706970652E630047656E6572617465645F536F757263655C50536F43365C7049
:4029C000646C5C647269766572735C7065726970686572616C5C737973696E745C63795F737973696E742E63000000000000204000002440000000400000000000002340E5
:402A0000000030400000314000009F40000022400000104002020202020202020210101D800017007500FF030602063604102000000000007FC0000000040000000000000C
:402A40000019324B647D00804000080B100000000000FF012002001F00800004FF081018001000140018001C4044484C500000000810000008000000040000000410000010
:402A80000012000004210000002100000016000040114002C41300138013A013200000001C00000000002140000025400000014000003440000024400000314000003240E7
:402AC00000001F410000234000001140010101010101010101101010800019005500F0000501053B04101C01010000000FC000000004000001010101011D3A577896000897
:402B00002000101208000000001F00000010000F002000023F06080E00080009000A000B24282C3034000000100000009000000088000000080000008000000004F00000EA
:402B400000F00000400200002005A000D00100018001A001200000001000000047656E6572617465645F536F757263655C50536F43365C70646C5C647269766572735C7031
:402B800065726970686572616C5C7363625C63795F7363625F756172742E680047656E6572617465645F536F757263655C50536F43365C70646C5C647269766572735C703C
:402BC00065726970686572616C5C7363625C63795F7363625F636F6D6D6F6E2E6800000047656E6572617465645F536F757263655C50536F43365C70646C5C6472697665E0
:402C000072735C7065726970686572616C5C7363625C63795F7363625F756172742E630047656E6572617465645F536F757263655C50536F43365C70646C5C72746F735CB6
:402C40004672656552544F535C31302E302E315C536F757263655C706F727461626C655C4743435C434D34465C706F72742E6300000000000C000000080000000002000037
:402C8000000000000000000000000000000000000000000000000000000000000B0000000000000000000000000000000000000043000000AC4202080000000000000000CE
:402CC00000000000000000000000000000000000000000000000000000000000000000000000000000000000000000000000000000000000000000000000000000000000D4
:402D00000000000000000000000000000000000000000000000000000000000000000810004002088C0200003C2D08108C4202082C0600004C4902087C0300000048E801C9
:402D400000127A0000093D0000127A0000127A0008000000401F00000000A00F00000000B82C0810D82C0810F82C081000000000000000000000000000000000B02C08100B
:402D8000000000000000000000000000000000000000000000000000000000000000000000000000000000000000000000000000000000000000000000000000AC4202081B
:402DC000B10208108D0208100000000080B2C10050B3164B1B681A6AB3F8B030C3EBC303D358002BF5DA3E22114B1A6041F61E7204331A60A3F584730622C3F8182521F071
:402E00007F41C3F81C15D3F81C35084B1A68116AB2F8B030C3EBC3030B4400225A60054BD3F81C35002BFADA704700BF884C02080401264000002640F8B5274B1B6893F894
:402E40003130052B04D840F2C311244800F054FA214F3A68166AB2F8B03003EB83031E4452684FF26003D458A4B200F03DFA05463B681968D3F890208A58013C032C27D805
:402E8000032A0CD1164A127812F0FF0F07D10822B2601968D3F890208A58032AF9D01968D3F884208B588858C0F307221B0E581C02FB00000B4B03FB00F00B4B1B680B4A8B
:402EC000A2FB03239B09B0FBF3F08230FFF77EFF284600F039FAF8BD884C0208A82808100B00001640420F0090420208D34D62104378FF2B23D110B500F0F6F90446104B6A
:402F00001B6893F83130042B04D840F2C3110D4800F0F2F90A4B1A68136AB2F8B02003EB8203DB685A68136843F001031360136813F0010FFBD1204600F006FA10BD704742
:402F4000884C0208A82808102DE9F04707468846554B1B6893F83130012B04D840F2C311524800F0C9F9504B1B681C6AB3F8B0201444D3F8B420161993F85030002B79D0F6
:402F80004B4B1B7813F0FF0F02D04FF0000901E04FF00109B9F1000F38D0434B1B6893F83130052B04D840F2C311404800F0A4F93D4B1A68116AB2F8B03003EB83030B44DC
:402FC000D2F8B420D358002B22DB002000F0C4F9384B98421ED00023374A12690121184600F0A2F918B1354D17E0013500E00025002000F0B1F92F4B984202D0304B9D42E7
:40300000F3D92F4B9D4207D92C4D06E0002504E02A4D02E0294D00E00025002D41D100F063F98246274BD3F81C35002B10DA224A0121204600F080F960B94046FFF7C6FEA3
:4030400057B13368002BFCDB00F066F9054604E01A4D02E0194D00E01B4DB9F1000F05D00121002000F050F90028F9D1504600F06BF916E000F038F980460F4A0121204693
:4030800000F05AF938B947B13368002BFCDB00F043F9054602E0094D00E00B4D404600F053F92846BDE8F087884C0208A82808100B00001601018800E84A02080500520010
:4030C000EF4902000000264001005000F0B47F4B1A6855684FF0B0535B7813F0FF0F04D04FF0B0535B78DBB200E02123212B55D1116AB2F8B030C3EBC303CC18CB58002B55
:40310000F6DAE36843F00103E360146AB2F8B030C3EBC3031C44E36813F0020F2DD0E3689EB21368D2F884105958090A090401F47F01D2F88870DB591B0A41EA03633343E6
:40314000E3601168D2F884208B5823F47F4343F410638B505D4A13681C68D3F88810635823F47F4343F41063635013681A68D3F884105158D3F88830D358544B1A68116A9B
:40318000B2F8B030C3EBC3030B4400215960116AB2F8B030C3EBC3030B445B684B4B19680C68D1F894301C44494A136943F004031361012801D030BF07E020BF454B1B7856
:4031C00003B120BF0122434B1A70236803F00303022BE9D00A6AB1F8B030C3EBC303D018D358002BF6DA4FF0B0535B7813F0FF0F04D04FF0B0535B78DBB200E02123212B0C
:4032000030D1C36813F0020F1FD00C68D1F88410635823F47F42C3681B0C1B0203F47F4313436350294B19680C68D1F88800235823F47F420D6AB1F8B030C3EBC3032B44DA
:40324000DB681B0E42EA03232350204B1A68136AB2F8B020C2EBC2021344DA6822F00102DA6026E0D5F80C311BBB1B490E681B4BD3F818451A4A106841F61E770F60062154
:40328000C3F818153E2111604422C3F81C25134BD3F81C35002BFADA4FF0AA33C5F80C310D4B1E60A3F58473C3F8184503F582731860064B1A68116AB2F8B030C3EBC30337
:4032C0000B4400225A60F0BC704700BF884C020800ED00E0104B02080801264000002640040126400000000001B40248844601BC604700BF2B0F081001B40248844601BC6D
:40330000604700BF550E081001B40248844601BC604700BF5D09081001B40248844601BC604700BFB106081001B40248844601BC604700BFB90B081001B40248844601BC39
:40334000604700BFD907081001B40248844601BC604700BF330F081001B40248844601BC604700BFE5090810000000000000000000000000000000000000000000000000B7
:40338000000000000000000000000000000000000000000000000000000000000000000000000000000000000000000000000000000000000000000000000000000000000D
:4033C00000000000000000000000000000000000000000000000000000000000000000000000000000000000000000000000000000000000000000000000000000000000CD
:0200000490303A
:0200000035DCED
:0200000490501A
:0C0000000005E2F021002101E30256DCC3
:00000001FF