:020000041000EA
:4000000000400208230100100D00000085010010000000000000000000000000000000000000000000000000000000008101001000000000000000008101001081010010E9
:400040008101001081010010810100108101001081010010810100108101001081010010810100108101001081010010810100108101001081010010810100108101001060
:400080008101001081010010810100108101001081010010810100108101001081010010810100108101001081010010810100108101001081010010810100108101001020
:4000C00010B5064C2378002B07D1054B002B02D0044800E000BF0123237010BD3C060008000000006C210010084B10B5002B03D00749084800E000BF07480368002B00D19D
:4001000010BD064B002BFBD09847F9E700000000400600086C210010E8000008000000007047FFF7FDFF72B60F4C104DAC4209DA21686268A368043B02DBC858D050FAE71C
:400140000C34F3E70A490B4A0020521A02DD043A8850FCDC084809490860BFF34F8F00F005F900F01DF8FEE770210010882100103C060008140800080000000808ED00E04D
:40018000FEE7FEE700B504207146084202D0EFF3098001E0EFF30880043001F0B7F9FEE710B562B6014800F067F9FEE70000081010B5002000F026FF10BDC04670B5624949
:4001C000E0239B00CB580F2213401A00D0329200525807210A40032A05D0042A06D0002A12D15A4814E05A4A106811E01A00C0329200554952581F210A40112A06D0132A7C
:4002000004D0FA20C00103E0524801E080200002002B36D14C4BB222D2009A5801211140B125ED005A59120F032422405B591B0F1C4207D0444C63591B0F03242340012BDC
:4002400002D102E0012300E00023002B01D0002901D1032A4BD13C4BB022D2009D58AD03AD0B3D495958C904C90C9C58240E01231C40013401F054FC6843210001F050FCDC
:4002800035E0012B33D1304BC822D2009A5801251540C024E4001A59120F03210A401B591B0F194207D028490B591B0F03210B40012B02D102E0012300E00023002B01D049
:4002C000002D01D1032A12D11F4DC022D200AB587F210B40A958090A1F263140AC58240C3440584301F01CFC210001F019FCE0239B00154AD3581B0903221340D840144C68
:400300006060164B1D692D0AFC32154001351969090E013101F004FCA060290001F000FC0500E06020610E4BC0180E4901F0F8FB20750D4BE818FA21890001F0F1FBA061B3
:40034000C003E06170BDC0460000264000127A00C000000800366E0184050000000021403F420F0040420F00E703000010B5284801F0D0FB274CB022D200A3585B005B0831
:40038000A350E0218900635830208343635080235B04A350204A214BE250A02292010433E250FF221E4BE25001F0A2FBC0225200A35801218B43A35000F08CF9FFF7FEFEBE
:4003C000B0235B055B78002B04D0B0235B055B78DBB200E02123212B03D1124B0022DA605A60114C22008021042000F0B1FB2000103000F045FC0D4B1A685123D35C002B95
:4004000002D00B4800F0B2FC00F07AFA10BDC046B42000100000264001000200840500008C050000E00023405806000810080008881C00108023024AD35803201840704792
:400440000000214010B501F0F4F8084980228C58074B2340074C23438B508823034AD358DB06FAD501F0E9F810BDC04600002140FCFF00000100FA0570B50500830504D0FF
:40048000E821FF310F4801F013F801F0D2F80400FFF7D0FF032801D1FFF7D4FF0A4AB0239B00D55080215058084B03400848034353508823044AD358DB06FAD5200001F082
:4004C000BCF870BDBC1C001000002140FCFF00000300FA05FEE7C04630B587B06E49A022D2008B58032083438B506C4A116808688823CB58C3181868694908401860136827
:40050000186884241B59C01803681B021B0A80256D042B430360106805680359EB1818680140196013683E229A5C002A06D05A48E02189004258753CA24342503E229A5C20
:40054000002A06D05448E021890042583024A24342503E229B5C002B07D04F49E02292008B588020000603438B500021012000F07BFD0021022000F077FD0021032000F03C
:4005800073FD0021042000F06FFD0021002000F06BFD01A8434903000A0032CA32C312CA12C300F08FFD002802D00420FFF792FF39493D4A8B588020000603438B503B4856
:4005C00000F03CFE002802D00420FFF783FF324C374BE158374A0A40E250E158364A0A40E250E25880252D062A43E250043BE158324A0A40E250E158314A0A408021890186
:400600000A43E250E258802109020A43E2502D4A11682D4B0B40802149000B431360002001F048FA294BE2581543E550E158012291430A43E2506421002000F07FFF174BC6
:400640001B683F229A5C052A03D90021204A986881509A6874215B5AD2181168104B0B408C2189010B4313600C4B1A687323D15C703B8B4019007023D35C7220105C83403E
:400680000B43802109060B438021C9009068435093685B5807B030BD0000264010080008FF00FFFFD41C0010087F0000400D030004050000FEFCFFFFFFFF00FFFFF0FFFF62
:4006C000FF8FFFFF00002740FFFCFFFF0C050000140C000070B58AB09621002000F02EFF00F004FF002814D100F0F0FEC0235B00244AD358DB0705D41100234A8B585B005E
:400700005B088B501F49204A8B588020000603438B50012001F066F91C4A516C1C4B0B40E82189010B435364536C1B0AFF2213403A2B07D1154A516C164B0B40E821890131
:400740000B435364FFF7C8FE01AD134C2A002300143343CB43C243CB43C243CB43C229000E4800F0D5F82A002300383313CB13C213CB13C213CB13C22900094800F0C8F8A7
:400780000AB070BD000026400C05000000002740FF00FFFFFFC5FFDFD41C00108002324000033240214B984230D00ED8402831D004D800281FD010282AD031E080282BD0FE
:4007C00080235B00984229D02AE0194B984229D007D8A0231B0698420DD0164B984212D01EE0154B98420AD0144B984209D0144B984215D101E0002016E0124814E012486E
:4008000012E0124810E0A020C0030DE007480BE00F4809E00F4807E00F4805E0034803E00E4801E0A420C0037047C04606005200010000F0090000A0040000F0050000F094
:40084000030000F0010052000200520003005200010050000200500005005200FF00520070B5124B1A683123D35C002B04D1C421FF310F4800F01CFE0C4B1D682C00B42362
:40088000EB582A6A944663441B68002B0BDB094B1868FFF787FF6B6801229A6063689B68002BFBD100E0044870BDC04610080008301D0010E80700080200500010B50D4B05
:4008C0001861002805D002230370FD33437000234380094B1B6850229A5C002A08D051229B5C002B04D04F3A0449002000F0F8FA10BDC046E807000810080008610100084B
:4009000010B502481430FFF7D9FF10BDE807000870B505000C0000285DD000295DD0FF230A689A4303D099212D4800F0C1FDFF2322699A4303D09A21294800F0B9FDA36896
:400940005B0D03D09B21264800F0B2FD63685B0A03D09C21224800F0ABFDE3695B0F03D09D211F4800F0A4FD236A5B0F03D09E211B4800F09DFD1B4A11688B69EB1ADB0941
:4009800049691B01CB18216829607D211068415C6918E06808607E211068415C6918206908607F211068415C6918606908607C211068415C6918A06808606168A961116814
:4009C00080228A5CAD18A2692A60E2691A60226A5A60002002E0044800E0034870BDC046701D00101008000801005A0070B504000D000A4B1A68B423D3581B181B68002B56
:400A00000ADA0B0C03D00649064800F051FD2D042D0C6560002000E0034870BD10080008D5020000F01D001001008A0070B505000C000368002B01DA002300E0084B002B9F
:400A40000BD1EA60230C03D00649074800F030FD2404240CAC60002000E0014870BDC04601008A00BB020000F01D001070B505000C1E03D19921084800F01AFD074B1A6841
:400A8000B423D3585B191B68002B03DAEB682360002000E0024870BD301E00101008000801008A0070B504000D00234B1A683123D35C834236D9002936D00B68DB0635D1D9
:400AC0003123D35C984204D3C421FF311B4800F0EFFC194B1B681A6AB0215B5A5C431419174E34602B68DA080021686801F0A4F800212000FFF77AFF3468002D03D111491F
:400B00000E4800F0D5FC2A0000212000FFF78EFF00280DD10A4B18680021FFF767FF002808D108E0084806E0074804E0064802E0064800E0054870BD10080008F01D0010F1
:400B4000000800089303000003018A0001018A0010B50400002A17D1002915D1124B1A683123D35C984204D3C421FF310F4800F09FFC0D4B1B681A6AB0215B5A5C43141910
:400B80000B4B1C6000200EE0002A09D0002909D0074B59609A60191D2000FFF783FF02E0044800E0034810BD10080008F01D00100008000803018A00F0B583B00D001C4B30
:400BC0001B68DC68236883422DD947097B01C01A012383401E00002903D100F02AFD019001E000230193124B18680368002B01DA002300E00F4B002B0ED16368BF00DF19B9
:400C00003B68334203D0B3433B60002400E00A4C0021FFF7EBFE00E0084C002D04D1019800F00BFD00E0064C200003B0F0BDC0460008000801008A000201880003018800AD
:400C400004018A000A4B1B68DA68136883420BD943095901401A0121814052689B009B580B4203D0034802E0034800E003487047000800080101880004018A000001880050
:400C8000034B1B68002B01D1014B18607047C0460C080008F0B5474680B404000F0090461E002D4B1B68002B03D1B5212B4800F0FFFB294B1B682C2060431C18FF221500DF
:400CC00035402560330A13406360360CA660244B1A683123D35C9D4204D3C421FF31214800F0E6FB1E4B1A68B023D35A6B43116A8C466344236166683223D35C9E4204D3CC
:400D0000E021FF31174800F0D3FB154B1B681D6A80367601AD196561A668330C04D0FF214900104800F0C4FB330C03D00E490D4800F0BEFB3604330C1E43AE604346E36195
:400D400027620023A361069B002B02D000229B5EA38104BC9046F0BD0C080008701E001010080008F01D0010FF010000F0B58FB0041E03D15221294800F09AFB6368032B70
:400D800003D95421254800F093FBE36A002B03D15821224800F08CFB236B002B03D159211E4800F085FB07AA1300210061C961C321C921C302AD290023001433C1CBC1C123
:400DC00041CB41C10821535E0CAE3380144B1B6836215B5E07998C466344B370089B0D930B9B0A980096A26AE16AFFF753FF2B69E868002200920021FFF74CFF216B3000FA
:400E000000F0E8FA0023F25E002A05DB1F231A401E3B9340034A13600FB0F0BD701E00101008000800E100E0F8B505000F0016001C00002A03D1FD21224800F039FB224BE6
:400E40001B68002B03D1FE211E4800F031FB1E4B1B682C2128004843181879435918012213004D68AB401B044568AA4015000269002A20D08F69002F1FD11268002A01DA4A
:400E8000002200E0114A002A19D132681204120C134333600369DE6001238B614C6204692B0C03D00A490B4800F002FB2A04120CA260002004E0084802E0084800E0074895
:400EC000F8BDC046701E00100C08000801008A00BB020000F01D001004028A0007028A0070B504000D0016000F4B1B68002B04D1AF2149000D4800F0DBFA0B4B1B682C2074
:400F000060431C18236A002B04D1B1214900074800F0CEFAE369B34204D9236AB6009D51002000E0024870BD0C080008701E00100A028A0070B582B00400002301930028DB
:400F400004D1D221FF312D4800F0B2FA2369002B04D1E9214900294800F0AAFA6369002B04D1D421FF31254800F0A2FA236A002B04D1EA214900214800F09AFA6269D568C4
:400F80002B0C24D01B041360136820691C4B1A68B423D358C3181B68002B18DA01A9FFF765FD00280ED1019803681E0CFF221340E269934207D29B00226AD358002B02D017
:400FC000984700E0002631002069FFF70FFD2D042D0C0FD063691D601B68636A002B03D098470023636203E0A36A002B00D098470023A36163691B6802B070BD701E0010EC
:401000001008000810B50400084B1B68002B04D1B221FF31064800F04BFA044B1B682C2060431818FFF786FF10BDC0460C080008701E001010B50400094B1B689B6CC340C8
:40104000DB0703D4BE21074800F032FA044B1B681B691034A402E3580F20184010BDC04610080008B01E0010134B1A683C23D35C83421DD9042904D94B1EFF3B9BB2132B39
:4010800018D8FF290CD91F2319400C4A0300C0339B009950D03080000423835000200AE007231940D0308000044BC150002002E0034800E00248704710080008000026402D
:4010C00001004A0070B5041E03D14A494A4800F0EFF9B023DB00494AD358002B00DA87E0474B22689A4203D94649434800F0E0F923689B039B0BE279002A02D080225204E0
:4011000000E000221343B022D2003C498B50A2883D4B9A4204D98C218900374800F0C8F922893A4B9A4203D93949334800F0C0F9A388DB04D90C23891B04364A13400B4319
:40114000354A2E498B50A37A0F2B04D98E218900294800F0ADF9E37A0F2B03D92F49264800F0A6F9A289284B9A4203D92C49224800F09EF9A37A0F211940E27A1201FF2350
:4011800013400B43A289120226490A401343A27B1207C02189050A401343B122D20017498B50A379042B03D91F49134800F080F9228A164B9A4204D9912189000E4800F081
:4011C00077F90E4819494558194B1D40A3791B02E022D20013402B4343504558154B1D40238A1B040B4A13402B434350002000E0114870BD1F020000F01E0010000026400E
:40120000FFFF030029020000FF1F0000FF010000310200000000FF0184050000390200003A02000000FF1F00430200008C050000FFF8FFFFFFFF00FE03004A0070B50500D5
:401240003149324A8B588020000603438B502C0003E0012000F020F9013CB223DB002A4AD3585B0701D4002CF3D12749B122D2008858274B03408020800503438B50002DC5
:4012800001D0002C0CD02049B022D2008B588020000603438B5003E0012000F0FDF8013CB223DB00184AD358DB0701D4002CF3D1002D01D0002C08D01349B122D2008B58AE
:4012C000C020800503438B5013E00F4BB121C90058580F4A02408020800502435A5008395A58520052085A5008495A58520052085A50002D03D0002C03D0002002E000205E
:4013000000E0044870BDC046000026408C050000FFFFFFCF02004A0070B505000C001A4B1B6828229A5C012A15D1820807211000884327D19200AD1AED00FF20A8401B687B
:4013400020339A181168AC4023004B40184004004C40146016E03A229B5EDBB2994203D176210A4800F0A4F8074B1B681B680722154080221206154380229201944664445E
:40138000A400E55070BDC04610080008781F001070B504000D000B4B9A680B4B9A420CD1002904D13821FF31084800F081F81034054BA400E058E55003E01034A400044BBE
:4013C000E05870BD00ED00E000000008781F001000000010F0B5474680B482B0061E01914AD04368032B03D93221264800F060F80023F05E002804DBB178FFF78DFF00248F
:4014000000E0214C0023F15E7368002912DB88081E4FC0308000C55903221140C900FC3290468A4095439A01434613408B402B43C35116E089B20F220A40083A9208063208
:40144000920013481018476803221140C900FF252A008A4097439A012B0013408B403B4343600B4B9A680B4B9A4206D10023F05E0199FFF78DFF00E0034C200002B004BCC3
:401480009046F0BD781F00100100560000E100E000ED00E00000000810B5034B1B78584300F0BEF810BDC046D400000801BEFEE770B50D00044C18220100200000F0C4FB4F
:4014C000A5610020FFF7F2FF00060008054B802212069A649B6C002B01DB002000E002487047C0460000274003004600054B8022120198585B68FF221A4202D08023DB027D
:401500001843704700002640FEE7C04610B50A4B0268DA6142681A6282685A62C2689A620269DA6242691A6382695A63C2699A63FFF7EAFF10BDC04600060008F0B5474606
:4015400080B4002801D0192300E064238B429B415B42304D2C682268A826A45BA41822680327BA433B401A4322602C682268A45BA2181668284CA046264016602C68266879
:40158000AA229446A25A96193268BA43134333602A6813686546525BD3181A68444614401C60002805D010291BD921291BD8012024E0184B1B6855229A5C914215D9562216
:4015C0009A5C914213D957229A5C914211D958229A5C91420FD959229B5C99420DD804200CE000200AE0022008E0002006E0012004E0022002E0032000E00520054A126889
:40160000526813680F218B430343136004BC9046F0BDC04610080008FFFCFFFF000000000230800803D001300238FCD1C046C0467047EFF3108072B6704780F310887047C1
:4016400010B5B0235B059B899BB2002B04D0B0235B059B899BB201E080235B0080225200934215D1184C23681968683A9B58C9180B680F208343963A13430B6021680C68F4
:401680009C23CB58E318196881430A431A6019E00D4C2368196898229B58C918B02040050A4BC2580A4B13400A681343C022920013430B60226811689C23D358CB18054A0D
:4016C00082581A6010BDC0461008000848180000FFFCFFFF4418000030B5B0235B059B899BB2002B04D0B0235B059B899BB201E080235B0080225200934215D1184C236845
:401700001968683A9B58C9180B680F208343953A13430B6021680C689C23CB58E318196881430A431A6019E00D4D2B68196898229B58C918B0246405C12040012258094BB2
:4017400013400A681343C022920013430B602A6811689C23D358CB1822581A6030BDC04610080008FFFCFFFFB0235B059B899BB2002B04D0B0235B059B899BB201E0802376
:401780005B008022520093420DD1104B1B681A6898215B58D21811680D4B0B40C021C9010B43136011E0094B1B68196898229B58C918084BB0225205D258074B13400A6855
:4017C0001343C022920013430B60704710080008FF8FFFFF18180000FFFCFFFF30B5B0235B059B899BB2002B04D0B0235B059B899BB201E080235B008022520093420DD120
:40180000134B1B681A6898215B58D2181168114B0B408021C9010B43136018E00C4D2B68196898229B58C918B02464050A4822580A4B13400A681343C022920013430B6002
:401840002A6811689C23D358CB1822581A6030BD10080008FF8FFFFF4C180000FFFCFFFF10B5B0235B059B899BB2002B04D0B0235B059B899BB201E080235B0080225200C7
:40188000934217D10020FFF7D5FBB0235B055B78002B04D0B0235B055B78DBB200E02123222B03D8002803D1013004E0012002E0002000E0012010BDF8B50700012803D9E6
:4018C0003D493E48FFF7F4FDB0235B055B78002B04D0B0235B055B78DBB200E021239DB2B0235B059B899BB2002B04D0B0235B059E89B6B201E0802676000020FFF79AFBDD
:40190000002814D180235B009E4212D1222D12D82B4B1B685C682B4821582B4B19403B068022520413400B432350002404E0274C02E0264C00E0254C80235B009E4201D10B
:40194000222D03D880235B009E4232D01C4B1A683123D35C002B04D1C421FF311C48FFF7A7FD174B1B681D6A80235B009E4203D1002F05D0174A06E0002F03D0164A02E031
:40198000164A00E0164A01212800FFF74FF800280FD10B4B1A68B423D3585B191B68002BF7DBEB681B0E1B06A0221206934200D100242000F8BDC0464C0A0000BC1F0010CD
:4019C0001008000818F00000FFFFFFFE04004200301D0010010100300300000C010000300100000CF8B50500012804D9822109012948FFF75DFDFFF733FF002849D0FFF71D
:401A000018FE0700002D11D10021244B244AD150E823DB00B0225205D65CF6B20120FFF74BFF041E19D1FFF70BFE16E0B02252051C4BD0581A4B194958501B49565CF6B22B
:401A40001A481A581F218A4314390A431A500320FFF722FDFFF7C2FE0024002C15D11049124A8B581F20834306401E438E50002D02D1FFF779FE08E00720FFF70DFDFFF7C9
:401A80002BFE0020FFF718FF04003800FFF7D5FD00E0074C2000F8BDBC1F0010307F00000000264010180000410700001CFF000003004200042805D10B4A116804230B43AF
:401AC00013600FE0094B1A681168A023D358CB180006C022920410401860034A136804218B4313607047C04610E000E0100800080749C02252008B589B009B088020C00539
:401B000003438B508B588020000603438B50704700002640014B18607047C04610080008002243088B4274D303098B425FD3030A8B4244D3030B8B4228D3030C8B420DD30D
:401B4000FF22090212BA030C8B4202D31212090265D0030B8B4219D300E0090AC30B8B4201D3CB03C01A5241830B8B4201D38B03C01A5241430B8B4201D34B03C01A524120
:401B8000030B8B4201D30B03C01A5241C30A8B4201D3CB02C01A5241830A8B4201D38B02C01A5241430A8B4201D34B02C01A5241030A8B4201D30B02C01A5241CDD2C309F0
:401BC0008B4201D3CB01C01A524183098B4201D38B01C01A524143098B4201D34B01C01A524103098B4201D30B01C01A5241C3088B4201D3CB00C01A524183088B4201D349
:401C00008B00C01A524143088B4201D34B00C01A5241411A00D20146524110467047FFE701B5002000F006F802BDC0460029F7D076E770477047C04603008218934202D080
:401C400019700133FAE77047030030B5002A0DD00C7801335D1E013A2C700131002CF5D19A189A4202D01C700133FAE730BD0000F8B5C046F8BC08BC9E467047F8B5C0468B
:401C8000F8BC08BC9E4670470300000001000000010000000000000005036000040000000100000000000000010000000604600008000000C8070008B101001073797374C0
:401CC000656D5F70736F63365F636D30706C75732E630000F4010000140004010A000905080000006301000003000000000000000000000068000000000000000000000017
:401D0000000000001212000000000000000000000000000000000000000000BA0000000000000000000000000000000000001D1D47656E6572617465645F536F757263652C
:401D40005C50536F43365C70646C5C647269766572732F7065726970686572616C2F6970632F63795F6970635F6472762E68000047656E6572617465645F536F7572636579
:401D80005C50536F43365C70646C5C647269766572735C7065726970686572616C5C6770696F5C63795F6770696F2E630000000047656E6572617465645F536F757263657C
:401DC0005C50536F43365C70646C5C647269766572735C7065726970686572616C5C6770696F5C63795F6770696F2E680000000047656E6572617465645F536F7572636537
:401E00005C50536F43365C70646C5C647269766572735C7065726970686572616C5C6970635C63795F6970635F6472762E68000047656E6572617465645F536F7572636531
:401E40005C50536F43365C70646C5C647269766572735C7065726970686572616C5C6970635C63795F6970635F6472762E63000047656E6572617465645F536F75726365F6
:401E80005C50536F43365C70646C5C647269766572735C7065726970686572616C5C6970635C63795F6970635F706970652E630047656E6572617465645F536F7572636554
:401EC0005C50536F43365C70646C5C647269766572735C7065726970686572616C5C70726F745C63795F70726F742E630000000047656E6572617465645F536F757263650F
:401F00005C50536F43365C70646C5C647269766572735C7065726970686572616C5C737973636C6B5C63795F737973636C6B2E630000000047656E6572617465645F536FD5
:401F4000757263655C50536F43365C70646C5C647269766572735C7065726970686572616C5C737973636C6B5C63795F737973636C6B2E680000000047656E657261746566
:401F8000645F536F757263655C50536F43365C70646C5C647269766572735C7065726970686572616C5C737973696E745C63795F737973696E742E630000000047656E6530
:401FC00072617465645F536F757263655C50536F43365C70646C5C647269766572735C7065726970686572616C5C737973706D5C63795F737973706D2E630000000020403F
:4020000000002440000000400000000000002340000030400000314000009F40000022400000104002020202020202020210101D800017007500FF03060206360410200052
:40204000000000007FC0000000040000000000000019324B647D00804000080B100000000000FF012002001F00800004FF081018001000140018001C4044484C500000000F
:40208000081000000800000004000000041000000012000004210000002100000016000040114002C41300138013A013200000001C00000000002140000025400000014074
:4020C0000000344000002440000031400000324000001F410000234000001140010101010101010101101010800019005500F0000501053B04101C01010000000FC00000B3
:402100000004000001010101011D3A57789600082000101208000000001F00000010000F002000023F06080E00080009000A000B24282C303400000010000000900000002B
:4021400088000000080000008000000004F0000000F00000400200002005A000D00100018001A0012000000010000000000000000000001000000008C000000090210010A7
:40218000C0000008400500003C060008D80100000048E80100127A0000093D0000093D0000093D0004000000A00F00000000D007E9000010C10000100000000010B5000443
:4021C000400B27D0144B1A68146AB023D15ACA00531AE3181B68002BF4DA3E220F4B1A600F4A104B1A60104B0621A322D20099500E4A98509B58084B1A68106AB023D15AAE
:40220000CA00531AC31800225A60084B064AD358002BFADA10BDC04610080008040126401E1F000008012640000026401C05000010B54378FF2B20D100F02AFA04000F4B45
:402240001A683123D35C042B04D8C421FF310C4800F036FA094B1A68116AB023D35A9B00CB18DB685A68116801230B4313601368DB07FCD4200000F0F3F910BD100800087D
:40228000301D0010F0B585B001900291544B1A683123D35C002B04D1C421FF31514800F00FFA4F4B1B681E6AB4229A58971950229B5C002B77D000F0F3F9050003283CD167
:4022C000474B1A683123D35C062B04D8C421FF31444800F0F5F9424B1968B023CB5A5A00D21853000A6A94466344B4228A58D3181B68002B23DB002000F0AAF93A4B9842C8
:402300001FD03A4B1A6900230021012000F0B0F9002803D0364C17E0013400E00024002000F096F9304B984202D0324B9C42F3D9304B9C4207D92E4C06E0002404E02C4CF5
:4023400002E02B4C00E00024002C46D100F0A0F90390294B294AD358002B13DA234A0121300000F06DF900280ED10298FFF726FF019B002B0AD03B68002BFCDB00F098F9DF
:40238000040004E01A4C02E0194C00E01C4C032D05D10121002000F073F90028F9D1039800F05EF919E000F073F905000F4A0121300000F045F9002809D1019B002B08D0F4
:4023C0003B68002BFCDB00F073F9040002E0084C00E00B4C280000F043F9200005B0F0BD10080008301D001001018800E807000805005200EF4902001C050000000026407F
:4024000001005000F0B54F464646C0B4824B1A685468B0235B055B78002B04D0B0235B055B78DBB200E02123212B67D1B023D15ACB005B1A116A8C46634419680029F5DA1B
:40244000DD6802212943D960B023D15ACB005B1A116A8C466344D968C9073ED5D9680904090C8C4684271168D559A84641440968090A0904FF26360431400D00882611686A
:40248000894691598846C14449460968090A0906294365462943D9601168D359C9180A685E4B98461A4090252D012A430A605A4B99461A6813689C46925962441368414629
:4024C00019400B002B4313604B461A681568D15969180B689359EB181B684F4B1A68B021555AEB005B1B156AAC46634400255D60156A515ACA00531AEB185B68484A11694D
:4025000004230B431361012801D030BF00E020BF414B1A68B023D15ACB005B1A116A8C46634419680029F3DAB02149054978002904D0B02149054978C9B200E021212129AF
:4025400032D1D968C90722D510688421525880180468324A1440DB681B0C1B02FF2109020B40234303602C4B19688823C8580B689C46604403681A400D6AB023CC5AE1001D
:402580000B1BEB18DB681B0E1B021A430260224B1A68106AB023D15ACA00531AC318DA6802218A43DA6028E086235B00E358002B23D11C4807681C4BA321C9005E581B4A7D
:4025C000904615681A4A0260062058503E21424611600631174A9950164B134AD358002BFADA154A86235B00E2500E4B1F60A323DB000D4AD6500D4B1D60074B1A68106A85
:40260000B023D15ACA00531AC31800225A600CBC90469946F0BDC04610080008FF00FFFF00ED00E00801264000002640040126401E1F00001C050000AAAAAAAA000000004E
:4026400001B40248844601BC604700BF2D0A001001B40248844601BC604700BF450C001001B40248844601BC604700BF3B16001001B40248844601BC604700BF290E00105A
:4026800001B40248844601BC604700BFB90B001001B40248844601BC604700BF3316001001B40248844601BC604700BF3504001001B40248844601BC604700BF610800107B
:4026C00001B40248844601BC604700BFB114001000000000000000000000000000000000000000000000000000000000000000000000000000000000000000000000000019
:402700000000000000000000000000000000000000000000000000000000000000000000000000000000000000000000000000000000000000000000000000000000000099
:402740000000000000000000000000000000000000000000000000000000000000000000000000000000000000000000000000000000000000000000000000000000000059
:402780000000000000000000000000000000000000000000000000000000000000000000000000000000000000000000000000000000000000000000000000000000000019
:4027C00000000000000000000000000000000000000000000000000000000000000000000000000000000000000000000000000000000000000000000000000000000000D9
:020000041008E2
:4000000000780408273D08100D0000008D3D08108D3D08108D3D08108D3D08100000000000000000000000000000000041690810893D081000000000E1690810456A081062
:40004000893D0810893D0810893D0810893D0810893D0810893D0810893D0810893D0810893D0810893D0810893D0810893D0810893D0810893D0810893D0810893D0810A0
:40008000893D0810893D0810893D0810893D0810893D0810893D0810893D0810893D0810893D0810893D0810893D0810893D0810893D0810893D0810893D0810893D081060
:4000C000893D0810893D0810893D0810893D0810893D0810893D0810893D0810893D0810893D0810893D0810893D0810893D0810893D0810893D0810893D0810893D081020
:40010000893D0810893D0810893D0810893D0810893D0810893D0810893D0810893D0810893D0810893D0810893D0810893D0810893D0810893D0810893D0810893D0810DF
:40014000893D0810893D0810893D0810893D0810893D0810893D0810893D0810893D0810893D0810893D0810893D0810893D0810893D0810893D0810893D0810893D08109F
:40018000893D0810893D0810893D0810893D0810893D0810893D0810893D0810893D0810893D0810893D0810893D0810893D0810893D0810893D0810893D0810893D08105F
:4001C000893D0810893D0810893D0810893D0810893D0810893D0810893D0810893D0810893D0810893D0810893D0810893D0810893D0810893D0810893D0810893D08101F
:40020000893D0810893D0810893D0810893D0810893D0810893D0810893D0810893D0810893D0810893D0810893D0810893D0810893D0810893D0810893D0810893D0810DE
:40024000893D0810893D0810893D0810893D0810893D0810893D0810893D0810893D0810893D0810893D0810893D0810893D0810893D0810893D0810893D0810893D08109E
:40028000893D0810893D0810893D081010B5054C237833B9044B13B10448AFF300800123237010BD8449020800000000CC160910084B10B51BB108490848AFF30080084839
:4002C000036803B910BD074B002BFBD0BDE81040184700BF0000000088490208CC160910544302080000000030B599B004460D465A22002101A80AF0FFFB294601A803F028
:400300008BFA01A9204603F01DF819B030BD00BF30B599B004460D465A22002101A80AF0EBFB294601A803F039F801A9204603F0DBFA19B030BD00BF002306E0C3F107016C
:4003400001228A4020F813200133062BF6D97047F0B40026068011E0234431F8167030F814507D4020F813500134A4B200E000240123B3409C42EFDB0136B6B29642F6D3B1
:40038000F0BC70472DE9F04FA5B083460191164699462224224600211BA80AF0ADFB2246002112A80AF0A8FB00240E940F94109411940A940B940C940D9406940794089485
:4003C00009940294039404940594A9F1020301259D404FEA450808EB05034FEA430AB2444746424651461BA80AF07BFB424651461BAB03EB08000AF074FBAA00314612A865
:400400000AF06FFB15E0E31936F8131024AB03EB440232F8243C4B409BB222F8243C621924A901EB420232F8481C4B4022F8483C0134AC42E7D309F1FF394B461BAA0AA9F0
:400440000EA800F021F84B4612AA02A906A800F01BF8424606A958460AF043FB42460EA90BEB08000AF03DFB424602A9019C20460AF037FB42460AA92346434418460AF0B3
:4004800030FB25B0BDE8F08FF8B55C1E032C00F28580DFE804F07E725202148A138B63400381148B938B63408381948BD38B6340C381D58A538B5D404D81548B938B634059
:4004C0008B81D38BCB81938A148B63406B404381558A548B6C4063400B8113880380D389D48AD68B634086EA0305CD809689948A938B744063406B40C38016890489CD881D
:40050000744063406B408380D4885589538A578BCE886C405C4087EA040373404B80D488C5885C406C408C80958884886C4063404380528853400B80F8BD13880380148989
:400540009389634083809489D3896340C380D3885489D689634086EA03054D805489938963408B80D389CB809388848863406B404380528853400B80F8BD1388038094886E
:40058000D38863404380508843400B80D3884B80F8BD1388038053880B80F8BDFFF7F2FEF8BD00BF2DE9F04FF5B004460E4603929846DDF8FC91002570957195729573957A
:4005C0006C956D956E956F9569956A956B9566956795689580273A46294646A80AF08CFA3A46294626A80AF087FA3A46294606A80AF082FA049505957E9B012B26D109E059
:40060000718839F8150001F071FD04AB23F81500013500E0002547464545F1D333882380012000260FE0191834F8135004AA32F816206A4024F81120013300E000238342D2
:40064000F1D340000136BE42F8D3B7E0C24608F10043013B09EB430739F81330012B14D001237E9A03FA02FB1D4602930BE03988029801F03BFD029036F8151001F036FDF5
:4006800026F8150001355D45F1D37E9B32466CA970A8FFF7F9FE002315E05D0039F813B0388801F051FD0146584601F01FFD74AB1D4425F82C0C01F033FD35F82C3C584043
:4006C00025F8380C33465E1CB245E6D808F1FF3292B269A946A8FFF73BFE039B5A1C08F1FF385FFA88F57E994F1E66AB019300972B46520870A926A8FFF754FF08F00F0870
:40070000012606FA08F6039B032B23D8BDF898202280BDF8B031534024F81630012716E026AB33F8175074AB03EB4703BDF8B01133F8B80C01F0DAFC684080B224F8170022
:40074000BA19BDF8B031584024F812000137B742E6D333E066AB019300972B46039A52086CA906A8FFF71EFF7000024606A920440AF0B7F9BDF89820228034F8163053404A
:4007800024F81630012717E026AB33F8175074AB03EB470306AA32F8171033F8B80C01F0A5FC684080B224F81700BA1934F81230584024F812000137B742E5D375B0BDE8B5
:4007C000F08F00BF2DE9F043ADF55B7D0646894617460024D694D794D894ADF864434FF480752A46214696A80AF086F94FF02008424621468EA80AF07FF94246214686A8EE
:400800000AF07AF9829483948494ADF814422A46214642A80AF070F92A46214602A80AF06BF9D6A8FFF788FD0722D6A996A8FFF78FFD05234A4686A98EA8FFF725FE0DE084
:40084000DAAB03EB440535F8100C01F069FC35F8103C584082AB23F814000134062CEFD97A1C82AD019504240094072352088EA942A8FFF797FE0195009407237A0886A935
:4008800002A8FFF78FFE4FF4807202A9B0180AF028F9BDF808213280B6F800315340A6F80031012416E042AB33F8145002AB33F8141096AB33F8140001F018FC684080B285
:4008C00026F8140004F1800236F81230584026F8120001347F2CE6D90DF55B7DBDE8F083F0B5C5B004460D460021409141914291ADF80C114FF4807268460AF0FDF840A8BC
:40090000FFF71AFD072240A96846FFF721FD2B885B42C3F3C0322378534083F001022270B5F800315B42C3F3C033534083F001032370012323E03DF81300134F37F8106077
:40094000C6F1FF0635F813205242C2F3C032A15D4A4082F00102A25580F0010037F81000C0F1FF0003F1800235F812205242C2F3C032215C4A4082F00102225401337F2BEC
:40098000D9D945B0F0BD00BFBCD708102DE9F04FADF5337DB190D0E90034CDE92E34D0E90212CDE93812D0E90434CDE93A34D0E90634CDE93C34D0E90812CDE93E12D0E9FF
:4009C0000A3440A9C1E90034D0E90C3442A9C1E900340346D0E90E1244A8C0E900121A46D3E9103446A9C1E90034D2E9123448A9C1E900341346D2E914124AA8C0E9001283
:400A00001A46D3E916344CA9C1E90034D2E918344EA9C1E900341346D2E91A1250A8C0E900121A46D3E91C3452A9C1E90034D2E91E3454A9C1E900341346D2E9201256A83D
:400A4000C0E900121A46D3E9223458A9C1E90034D2E924345AA9C1E900341346D2E926125CA8C0E900121A46D3E928345EA9C1E90034D2E92A3460A9C1E900341346D2E9FA
:400A80002C1262A8C0E900121A46D3E92E3464A9C1E90034D2E930344FF0000C66AAC2E9003401F057B8DDE92E8940ABD3E9003488EA030889EA04094AABD3E9003483EACA
:400AC000080384EA0904984654ABD3E9002382EA08026340904699465EABD3E9001281EA080182EA090288469146DDE9386742ABD3E9000146404F404CABD3E900017040F7
:400B0000794056ABD3E9004544404D40264660ABD3E9003473406C401E462746DDE93A0144ABD3E90045604069404EABD3E9004544404D40204658ABD3E9003443406C4085
:400B40001846214662ABD3E9004544404D4020462946DDE93C2346ACD4E9004562406B4050ACD4E9004554405D4022462B465AACD4E9004554405D4022462B4664ACD4E96F
:400B8000004554405D40CDE90645DDE93E3448AAD2E900AB83EA0A0384EA0B0425461C4652ABD3E9002362406B4014461D465CABD3E9002362406B4014461D4666ABD3E9C7
:400BC000002362406B4014461D464FEA470E4EEAD67ECDF8A4E14FEA460E4EEAD77ECDF8A0E168ABD3E9002362406B40CDE900234FEA410E4EEAD07ECDF8ACE14FEA400E05
:400C00004EEAD17ECDF8A8E16AABD3E9002382EA080283EA0903CDE90223DDE906AB4FEA4B0E4EEADA7ECDF8B4E14FEA4A0E4EEADB7ECDF8B0E16CABD3E900AB8AEA060AB4
:400C40008BEA070BCDE904AB4FEA450E4EEAD47ECDF8BCE1640044EAD57ECDF8B8E16EABD3E9004544404D402E4625464FEA490141EAD87ECDF8C4E14FEA480141EAD97E51
:400C8000CDF8C0E170ABD3E9009ADDE9062382EA090283EA0A039B469246DDE92E89DDE9003488EA030889EA040972ABC3E9008942ABD3E90089DDE9022388EA020889EAF2
:400CC000030940464946040D44EA093ECDF8D0E1090D41EA083ECDF8D4E14EABD3E90001DDE9043443404C4021465C0D44EAC12ECDF8D8E1490D41EAC32ECDF8DCE15AABAF
:400D0000D3E90001CDE92E56684071404C0544EAD02ECDF8E4E1400540EAD12ECDF8E0E166ABD3E90045CDE906AB52465B4654405D40A90341EA944ECDF8ECE1A10341EA6B
:400D4000954ECDF8E8E174ABD3E900AB76ABD3E9002322EA0A0023EA0B0172ACD4E9005645404E402846DFF894EB0EEBCC04D4E9004580EA040886EA050942A9C1E9008968
:400D800078A9D1E9006726EA020027EA030154465D4644404D404EA9C1E900457AACD4E9008928EA060029EA070142404B4066A9C1E9002372ABD3E9002322EA080423EAED
:400DC000090566406F405AA9C1E9006711462AEA01012BEA030293460A465B46404649465040594072ABC3E90001DDE93CABDDE92E568AEA050A8BEA060B52465B461907CA
:400E000041EA1A1BCDF8F4B1120742EA131BCDF8F0B148ABD3E900ABDDE9062382EA0A0283EA0B03190541EA123BCDF824B0120542EA133BCDF820B04AABD3E90078DDE98F
:400E40000045674088EA05084346D90041EA577BCDF82CB0FA0042EA587BCDF828B056ABD3E90089DDE9021288EA010889EA020942464B46D10C41EA493BCDF8F8B1DB0C5E
:400E800043EA483BCDF8FCB162ABD3E90089DDE9040180EA080081EA090189460B46C10841EA497BCDF830B0DB0843EA407BCDF834B0DDE90812DDE90A7827EA010128EACE
:400EC000020213460A467CA9D1E9009A4F4657408AEA030856ABC3E900787EABD3E90067DDE90A0126EA000227EA0103DDE9080150405940CDE93C01DDE90C0120EA0602E8
:400F000021EA0703DDE90A01504059404AABC3E90001C846D146DDE90CAB28EA0A0129EA0B02084686EA000A87EA020B62ABC3E900AB41464A46DDE9088928EA010129EAE2
:400F400002021346DDE90C8988EA010889EA030948ABC3E90089DDE93867DDE9028986EA080687EA0907790041EAD67BCDF8C4B0720042EAD77BCDF8C0B044ABD3E9009A4A
:400F8000DDE9041281EA090182EA0A02894692460A465346990141EA996BCDF83CB0920142EA9A6BCDF838B050ABD3E90067DDE92E9A86EA090687EA0A07790641EAD61BA5
:400FC000CDF804B2720642EAD71BCDF800B25CABD3E900ABDDE9066786EA0A0687EA0B07390241EA166BCDF80CB2320242EA176BCDF808B25EABD3E900782E46674088EA30
:4010000006084346990441EA973BCDF814B2BA0442EA983BCDF810B2DDE90E9A80A9D1E9006726EA090227EA0A03DDE930015040594044ABC3E9000182ABD3E9004524EAC7
:40104000060225EA070389EA02098AEA030A5CABC3E9009A84ABD3E900AB2AEA04012BEA050213464E405F40CDE93867DDE9307827EA0A0228EA0B032046294650405940B4
:4010800050ABC3E900013A464346DDE90E8928EA020229EA03038AEA02088BEA03095EABC3E90089DDE93E56DDE9060168407140CB0643EA501BCDF81CB2C30643EA511BD8
:4010C000CDF818B240ABD3E900ABDDE900568AEA050A8BEA060B52465B46110F41EA0B1BCDF820B21B0F43EA0A1BCDF824B24CABD3E90012DDE9028981EA080182EA090291
:4011000013460A46990241EA925BCDF844B0920242EA935BCDF840B058ABD3E90078DDE904347B4084EA08041F46E10341EA574BCDF82CB2FA0342EA544BCDF828B264AB9E
:40114000D3E90078DDE92E45674088EA05084346390A41EA086BCDF848B01B0A43EA076BCDF84CB088ABD3E900ABDDE9107827EA0A0228EA0B0386A9D1E90001074657403D
:4011800081EA030864ABC3E900788AABD3E90067DDE9108926EA080227EA09038AEA02088BEA030940ABC3E90089DDE9122322EA060823EA070942464B46DDE9108988EA5D
:4011C000020889EA030958ABC3E9008980468946DDE9120128EA000229EA01033046394650405940CDE92E0142464B462AEA02022BEA0303DDE9129A89EA02098AEA030AD5
:401200004CABC3E9009ADDE93A67DDE9042372407B401F46930843EA877BCDF830B2BB0843EA827BCDF834B246ABD3E90078674088EA050841467B0A43EAC85BCDF850B0D6
:401240004B0A43EAC75BCDF854B052ABD3E90012DDE906344B40544019460A46490E41EAC41BCDF838B2630E43EAC21BCDF83CB254ABD3E90023DDE900566A407340D10DF5
:4012800041EA432BCDF858B0DB0D43EA422BCDF85CB060ABD3E90023DDE902566A407340990041EA92759195920042EA93759095DDE914AB8EA9D1E9005625EA0A0226EA3D
:4012C0000B038CA9D1E9000180EA020881EA030952ABC3E90089DDE9168928EA050229EA06038AEA020A8BEA030B60ABC3E900AB90ABD3E900AB2AEA08082BEA090942465F
:401300004B4655405E4046ABC3E900568046894655465E4620EA0A0221EA0B03DDE916015040594054ABC3E9000142464B46DDE9148928EA020229EA030355405E40CDE9AD
:401340003A5642ABD3E9009A56ABD3E9001289EA01098AEA020AC84644ABD3E9001281EA080182EA0A0264ABD3E900AB8AEA010A8BEA020B52ABD3E9001281EA0A0182EAF3
:401380000B02884691464EABD3E90067DDE93C4566406F405CABD3E9003473407C401E46274640ABD3E9004574407D4060ABD3E900AB8AEA040A8BEA050B56465F4666AB64
:4013C000D3E900344AAAD2E900124B405440DDE938AB8AEA030A8BEA040B5046594658ABD3E9002342404B40194646ABD3E9003453404C40184621465AABD3E9002362AC35
:40140000D4E9004562406B4050ACD4E9004554405D4022462B46DDE92E4554405D40224654ACD4E900AB8AEA020A8BEA050BCDE900AB72ABD3E9003448AAD2E900AB83EAE3
:401440000A0384EA0B0425461C465EABD3E900AB8AEA040A8BEA050B54465D464CABD3E900AB8AEA040A8BEA050B54465D46DDE93AAB8AEA040A8BEA050B54465D464FEA97
:40148000470A4AEAD67BCDF84CB24FEA460A4AEAD77BCDF848B292ABD3E9002362406B40CDE902234FEA410A4AEAD07BCDF854B24FEA400A4AEAD17BCDF850B294ABD3E9EE
:4014C00000AB8AEA080A8BEA090BCDE904AB019B4FEA430A009B4AEAD37BCDF85CB2009B4FEA430A019B4AEAD37BCDF858B296ABD3E900AB8AEA060A8BEA070B6E0046EA5C
:40150000D4779997640044EAD577989798ABD3E9005645404E40CDE906564FEA490141EAD8779B974FEA480141EAD9779A979AABD3E90089DDE9003483EA080384EA0904D5
:40154000A1461F46A04642ABD3E90056DDE9020145404E4028463146DDE93C45DDE9042354405D4022462B46240D44EA053518951B0D43EA02351995DDE9384584EA0A04FC
:4015800085EA0B0522462B46640D44EAC52532955B0D43EAC2253395DDE92E34DDE906565D4066402A46740544EAD5251B95520542EAD6251A95DDE93A45CDE900783E46CD
:4015C0004F4666406F40BC0344EA96459D95B20342EA97459C95DDE91845DDE9327827EA040428EA050522462B4642404B400CF101040EEBC40EDEE9004582EA040883EAAD
:401600000509CDE92E89DDE91A45DDE9327824EA070425EA080522462B46DDE9184554405D40CDE93845DDE91A349CAAD2E9005625EA030326EA04041A46574088EA0408F8
:40164000CDE93A782F46B04620EA050521EA06062A46DDE91A4554407540CDE93C45DDE9184524EA000425EA010529463D46464665404E40CDE93E565AABD3E90023DDE968
:401680000601504059400B0743EA10153595030743EA1115349548ABD3E90045DDE90001604069400B46090541EA10359F95020542EA13359E9544ABD3E90023DDE902015A
:4016C00042404B40D90041EA52751D95D20042EA53751C9540ABD3E90045DDE9042354405D402B46E10C41EA45351E95DB0C43EA44351F9546ABD3E9000180EA0A0081EA5B
:401700000B010B46C10841EA43752095DB0843EA407521959EABD3E90089DDE91C0120EA080521EA09062A46DDE934455440754040ABC3E90045DDE91E34DDE91C5623EA9D
:40174000050024EA060146464F4688EA000889EA010942AAC2E90089DDE9208928EA030129EA04021346DDE91C8988EA010889EA030944ABC3E90089DDE93445DDE92089E9
:4017800024EA080025EA0901DDE91E2342404B4046A9C1E9002326EA040427EA0505DDE9208988EA040889EA050948ABC3E900894EABD3E90001DDE90445604069404B0008
:4017C00043EAD075A195430043EAD175A0954AABD3E9000180EA0A0081EA0B010B46890141EA9065A395820142EA9365A29550ABD3E90023DDE9065655405E402A46710692
:4018000041EAD5152395520642EAD61522954CABD3E90045DDE9002362406B40190241EA12652595120242EA1365249552ABD3E90012DDE9024561406A4013460A46990436
:4018400041EA92352795920442EA93352695A2ABD3E90089DDE9220120EA080521EA09062A46A0A9D1E9004520462946504071404AABC3E90001DDE92401DDE9226720EA15
:40188000060021EA070146464F4646404F404CABC3E90067DDE92401DDE9262322EA000023EA0101DDE9226746404F404EA9C1E9006724EA020025EA030102460B46DDE9CC
:4018C00024015040594050ABC3E9000128EA040029EA0501DDE9266746404F4052ABC3E9006772ABD3E90034DDE90001584061400C46C90641EA5015A59501E0C0D90810C1
:40190000C20642EA5415A49556ABD3E90012DDE9024561406A4013460A46090F41EA0311A6911B0F43EA0215A7955CABD3E90034DDE904124B4054401A46A10241EA925502
:401940002995920242EA9455289558ABD3E9001281EA0A0182EA0B0213460A46D90341EA52412B91D20342EA53452A9554ABD3E90023DDE9064554405D40210A41EA056150
:401980002C912B0A43EA04652D95A6ABD3E90089DDE9281221EA080522EA09062A46A4A9D1E90045204629465040714054ABC3E90001DDE92A12DDE9286721EA060122EA21
:4019C0000702134646464F464E405F4056ABC3E90067DDE92A12DDE92C6726EA010127EA02021346DDE928674E405F4058ABC3E90067DDE92C6724EA060125EA07021346D1
:401A00000A46DDE92A01504059405AABC3E9000128EA040129EA05021346DDE92C674E405F405CABC3E9006766ABD3E9003483EA0A0384EA0B049A469B0843EA8473A89386
:401A4000A30843EA8A73A99362ABD3E90001DDE9063443404C4018465B0A43EAC453AA93630A43EAC053AB935EABD3E90034DDE900125940624014460A46490E41EAC41140
:401A8000AC91630E43EAC213AD9364ABD3E90023DDE9024562406B40D10D41EA4321AE91DB0D43EA4223AF9360ABD3E90023DDE9044562406B40990041EA9271379192001F
:401AC00042EA93733693AAABD3E90067ACA9D1E9008928EA060229EA0703A8A9D1E900AB50465946504059405EABC3E90001AEABD3E9000120EA080221EA090334463D469C
:401B000054405D4060ABC3E90045DDE9364524EA000225EA010344464D4654405D4062ABC3E90045DDE936892AEA08022BEA09035040594064ABC3E9000126EA0A0A27EAEA
:401B40000B0B88EA0A0489EA0B0566ABC3E900450CF1020CBCF1170F7EF7A5AF66ABD3E900ABB19A1346DDE92E01C2E90001DDE93812C3E902121A461946DDE93A34C2E978
:401B80000434DDE93C23C1E906230B46DDE93E12C3E908121A46194640ABD3E90034C2E90A3442ABD3E90023C1E90C230B4644AAD2E90012C3E90E121A46194646ABD3E95C
:401BC0000034C2E9103448ABD3E90023C1E912230B464AAAD2E90012C3E914121A4619464CABD3E90034C2E916344EABD3E90023C1E918230B4650AAD2E90012C3E91A12E5
:401C00001A46194652ABD3E90034C2E91C3454ABD3E90023C1E91E230B4656AAD2E90012C3E920121A46194658ABD3E90034C2E922345AABD3E90023C1E924230B465CAA59
:401C4000D2E90012C3E926121A4619465EABD3E90034C2E9283460ABD3E90023C1E92A230B4662AAD2E90012C3E92C121A4664ABD3E90034C2E92E3453465C46C2E9303449
:401C80000DF5337DBDE8F08F30B4002306E000EBC30200240025C2E900450133182BF6D900220023C0E9322330BC70472DE9F04F83B006460F469046994630E012EB0E0251
:401CC00022F0070CB44418F80E0002F00702D200A2F12001C2F12003002500FA01F10D4320FA03F31D4300FA02F4DCE9002362406B40CCE900230EF1010E01E04FF0000E48
:401D0000D6E93223B91A8E45D8D3D01B8144884400220023C6E932233046FEF737FE002348461946CDE90001D6E9322319EB0200594102460B4600218B4208BFBA42DDD265
:401D4000002423E0D6E93223121922F00705354418F8040002F00702D200A2F12001C2F120034FF0000B00FA01F14BEA010B20FA03F34BEA030B00FA02FAD5E9002382EAEE
:401D80000A0283EA0B03C5E900230134A145D9D8D6E93223DDE900018018594102460B46C6E9322303B0BDE8F08F00BF2DE9F003D0F8C83023F0070606445FFA82F803F0C6
:401DC0000703DB00A3F12007C3F12002002508FA07F73D4328FA02F2154308FA03F4D6E9002354405D40C6E90045013921F00706064401F00701C9008024A1F12007C1F1E7
:401E0000200504FA07F324FA05F52B4304FA01F2D6E9004562406B40C6E9002300220023C0E93223BDE8F003704700BF2DE9F04180468E4614461D464FF0000C20E000238E
:401E40002A1A63EB010392197B41D10841EA437104EBC10054F83130466802F00702D200C2F12000A2F1200123FA02F206FA00F0024326FA01F10A4308F80C200CF1010C73
:401E8000F44507D266460027D4E932018F4208BF8445D4D3E044CCEB0E06D4E93223B2EB0C0263F10003C4E9322329E02046FEF76DFD002118E0CB0804EBC30054F8332035
:401EC000D0F804E001F00703DB00C3F12007A3F1200022FA03F30EFA07F73B432EFA00F0034308F8013001318E4201D9A942E2D38844761A691AC4F8C8100023C4F8CC30E2
:401F0000002ED3D1BDE8F08110B50446D02008F0C9FD206010B96F2008F0B0FDFFF7B4FE10BD00BF08B513460A4688210068FFF7BDFE08BD08B51F2288210068FFF736FF24
:401F400008BD00BF08B588231268FFF76FFF08BD08B5006808F0AEFD08BD00BF30B400244FF6FF7125460EE040FA04F282F0010202F001030AB203EA02010D44ADB25B42DC
:401F8000134099B201340D2CEED9284630BC70472DE9F04F83B080468946043A930801934FF0000B37E04FEA182646EA09664FEA192708F0FF084FF0000988EA060889EA89
:401FC000070903254FF48E7A002420E05046FFF7C5FF041BA4B2A4F12001C4F1200307FA04F206FA01F10A4326FA03F306FA04F4264642EA030788EA040889EA07090123DC
:40200000834083EA0A0A1FFA8AFA013D0446002DDCD10BF1010B019B9B45C4D31FFA88F003B0BDE8F08F00BF2DE9F04383B00027ADF8007002F07F04ADF802406300ADF8FF
:4020400004306340ADF8063001F0030E3D460DE0C5EB0E0302AC04EB450434F8086C5C422343DB17DB4333405F400135032DEFD94FF0020E4FF0000C25E041FA0EF808F0C9
:40208000030800252E460EE0C5EB080302AC04EB450434F8089C5C422343DB17DB4309EA03035E400135032DEED906FA0EF35F40BFB2CEF1080346FA03F383EA0C061FFA9C
:4020C00086FC0EF1020EBEF1070FD6D942F3C01292B202EAC1135F4002EA510181EA0C060770467003B0BDE8F08300BF00B583B002AB002223F8042DCAB2C1B21846FFF779
:4021000093FF9DF804309DF8050043EA00200E2280B20021FFF73CFF03B05DF804FB00BF10B5014600F00100012206E0490054000123A3400B4058400132072AF6D90E22F3
:402140000021FFF725FF10BD38B50446FFF7E8FF05462146FFF7CAFF04462846FFF7E0FF05462146FFF7C2FF044601462846FFF7BDFF2946FFF7BAFFFFF7D2FFFFF7D0FF81
:40218000FFF7CEFF2146FFF7B1FFFFF7C9FF38BD2DE9F04FAFB00D9090469946CDE90A89802200210EA808F0A7FCDDE9380121F07041CDE91001021841EB0103CDE912237C
:4021C00080EA020481EA0305CDE9144592185B41CDE9162380EA020681EA0307CDE90667CDE9186724196D41CDE91A4580EA040681EA0507CDE91C6792185B41CDE91E2318
:4022000042404B40CDE92023DDE9062392185B41CDE9222342404B40CDE9242324196D41CDE9264544404D40CDE92845B6197F4132463B46CDE92A2370407940CDE92C0147
:4022400008F00F0600274FF0000E00230024CDE906341AE0B6EB0E0267F100032EA901EBCE0151E92045504263EB43010B434FEAE37824EA080425EA0805DDE906236240A2
:402280006B40CDE906230EF1010EBEF10F0FE1D94FF0040C00230024CDE908346FE0CCF12002ACF12003DDE90A4524FA0CF1009105FA02F20099114325FA03F30A461A4326
:4022C000009225FA0CF30193DDE9008908F00F084FF000094FF0000E0026002716E0B8EB0E0069F100012EAB03EBCE0353E92045424261EB41030B434FEAE37A24EA0A040B
:4023000025EA0A0566406F400EF1010EBEF10F0FE5D9ACF12002CCF1200307FA0CF106FA02F2114326FA03F30A461A43039206FA0CF30293DDE90234DDE906124B405440C7
:40234000CDE90634CCF14003C3F12001A3F1200226FA03F007FA01F1084327FA02F201461143049127FA03F30593DDE90434DDE908124B405440CDE908340CF1040CBCF1F4
:402380003F0F8CD9399B4FEA13784FF0000908F001020023504263EB4301399C620F02F001020023544263EB4305399EB20F02F001020023D2F1000A63EB430BF317009308
:4023C00001930A9E33074A4602400B40DDE9066756405F40CDE902670A9E32090B9E42EA0672330902400B40DDE9080150405940CDE90401DDE90A67730704EA090005EA80
:402400000301DDE9022342404B4010461946F2080B9E42EA4672F30822402B40DDE9044554405D4022462B460A9EB50709EA0A0405EA0B0560406940B4080B9E44EA867449
:40244000B50804EA0A0405EA0B0562406B40DDE90AAB5646F5074C46DDE90078274008EA05083C46454644404D405046594649084FEA3000DDE9006706400F40304639464A
:40248000504059400D9AC2E90045C2E902012FB0BDE8F08F2DE9F04F8A46DDF824B0DDF828E0002120E04FEAC10800EB080902EB0804D4E9006701EB0B0C4FEACC0C02EBC3
:4024C0000C04D4E9004574407D40C9E900450AEB08099844D8E900679C44DCE9004574407D40C9E9004501317145DCD3DE450DD24FEACE0E70447244D2E90045C0E9004500
:40250000F2449E44DEE90023CAE90023BDE8F08F2DE9F0439E46079B4FF000080EE04FEAC80401EB040CDCE900670444D4E9004574407D40CCE9004508F101084FEA4E0C24
:40254000E045ECD34FF000080EE04FEAC80401EB0409D9E900671444D4E9004574407D40C9E9004508F10108B8EB430FEDD300260EE006EB0E0700EBC707D7E9002301EB00
:40258000C604D4E9004562406B40C7E9002301366645EED3BDE8F0832DE9F04F87B006460F469046012B09D1D1E90023D8E90001CDE900013046FFF7EBFD3CE04FEA530910
:4025C00001335C08E500109B03EB050A0AEB0503049300EB04120392109901EB441B791905914544CDF800B0234642463946FFF7D3FFCDF800B04B462A4605990398FFF795
:40260000CBFFCDF80490009443463A4651461098FFF740FFCDF800B0234652461099049D2846FFF7B9FFCDF800902346039A29463046FFF76DFF07B0BDE8F08F2DE9F043C4
:40264000002325E003F5617201EBC20252685609002703F2853201EBC20E51F83220DEF804E04FEACE6545EA5215D4064FEAC30E00EB0E028E44DEE9008988EA060889EAC4
:40268000070988EA040889EA0509C2E900890133B3F5617FD6D900F5E150D0E9002303F01F03C0E90023BDE8F08300BFF0B5ADF58C3DE7B005460E4617460DF5615418340C
:4026C0004EF240120021204608F016FA43F65002002102A808F010FA009440F285333A46314602A8FFF758FF02A92846FFF7A6FF0DF58C3D67B0F0BD2DE9F041ADF5E24D9A
:4027000086B0064688462824224600210DF5E140683008F0F1F920273A4600210DF5E140483008F0E9F9224600210DF5E140203008F0E2F941F628452A4600210DF5A8408C
:40274000783008F0D9F92A4600210DF56150103008F0D2F92A4600210DEB050008F0CCF92A460021684608F0C7F921460DF5E140683000F0F5FC39460DF5E140483000F051
:40278000EFFC22460DF5E14168310DF5E240143001F01AF921460DF5E140203000F0E0FC22460DF5E14120310DF5E240103001F00BF983220DF5A84178310DF5E240143020
:4027C00001F068F983220DF5615110310DF5E240143001F05FF90DEB05010DF5E240103001F018FA0DEB05020DF5615110316846FFF75CFF40F285336A460DF5A8417831B6
:40280000684601F02DFA6A460DF5E1412031304600F00CFC33460DF5E14248320DF5E1416831404600F094FB0DF5E240103001F005F90DF5E240143001F000F90DF5E24D8F
:4028400006B0BDE8F08100BF2DE9F041ADF5454D88B006460D461746984641F62844224600210DF52840F03008F046F9224600210DF50C40C83008F03FF9224600210DF5C9
:40288000E140203008F038F9224600210DF5A840783008F031F9224600210DF56150103008F02AF9224600210DEB040008F024F922460021684608F01FF9282241460DF5F6
:4028C00045401C3001F080F80DF5454338331A680DF50C41C8310DF52840F03000F0C4FB95220DF5E14120310DF545401C3001F0D1F895220DF5A84178310DF545401C30CF
:4029000001F0C8F895220DF5615110310DF545401C3001F0BFF80DF52842F0320DF5A84178313046FFF7C2FE40F2853332460DF5E1412031304601F093F939462846FDF7C6
:40294000D3FC4FF461432A464EF225110DEB040001F0B0F90DF50C42C8320DF5A84178316846FFF7A3FE40F285336A460DF561511031684601F074F940F285336A460DEBD5
:402980000401684601F06CF94EF225136A464FF46141284601F08EF90DF545401C3001F04DF80DF5454D08B0BDE8F0812DE9F041ADF50C4DBEB00546884616461F4641F6EF
:4029C0002844224600210DF5E140503008F094F8224600210DF5A940283008F08DF841F64D4200210DF56150183008F085F8224600210DF5E150103008F07EF82246002128
:402A000002A808F079F80DF50D4310331B6800930DF56153183342460DF5A94128310DF5E140503000F0C8FA4FF461433A464EF225110DF5E150103001F03CF932460DF5C5
:402A4000A941283102A8FFF731FE40F2853302AA0DF5E1511031104601F002F902A92846FDF756FC00200DF50C4D3EB0BDE8F081802804D0C02802D0B0F5807F04D1012247
:402A8000034B1A60002070474FF0FF30704700BFA049020841F64D40704700BF41F69540704700BF43F65500704700BF4020704708B5084B1B6823B130B141B100F042F865
:402AC00008BD4FF0FF3008BD6FF0010008BD6FF0010008BDA049020808B50A4B1B682BB138B149B15AB100F033F808BD4FF0FF3008BD6FF0010008BD6FF0010008BD6FF086
:402B0000010008BDA049020808B50D4B1B6843B150B161B172B100F0B1F870B16FF0020008BD4FF0FF3008BD6FF0010008BD6FF0010008BD6FF0010008BD002008BD00BFF4
:402B4000A049020808B5FFF7D7FD002008BD00BF2DE9F047ADF50D4DA2B081468A461446402200210DF50D40483007F0C5FF41F6284200210DF5E240203007F0BDFF4FF47A
:402B8000E158424600210DF5AA4007F0B5FF43F665073A4600210DF5E450183007F0ACFF41F67D452A46002106A807F0A5FF202106A800F0D5FA06AB03F5E3560D3610215F
:402BC000304600F0CDFA41F64D4221460EA807F088FF05AB0393032300932B4606AA0DF50D414831039800F0D1FE00940DF50D43483306AA0DF5AA410DF5E2402030FFF79C
:402C000023FE0DF5E455183506AC0FCC0FC594E80F0085E80F0040F285330DF5E242203241F625410DF5E8500830503800F066F94FF461730DF5AA4241460DF5E450183031
:402C400000F5E250053000F059F9042300933B460DF5E45218325146039800F097FE33460DF5AA420DF5E2412031484600F018FA00200DF50D4D22B0BDE8F0872DE9F04322
:402C8000ADF5454DBDB005468946144641F62848424600210DF52940C83007F02DFF4FF4E156324600210DF50D40A83007F024FF04F148070DF50D43B033283B0393202221
:402CC0000021184607F018FF402200210DF50D40483007F011FF424600210DF5E240203007F00AFF324600210DF5AA4007F004FF43F6650200210DF5E450183007F0FCFE2A
:402D000041F67D484246002106A807F0F5FE4B4606AA02F5E3520D320DF50D41A8310DF52940C83000F0DCF900940DF50D43A8330DF52942C832039906A8FFF737FE044672
:402D400041F64D4239460EA807F0CBFE03230093434606AA0DF50D41483105A800F016FE00970DF50D43483306AA0DF5AA410DF5E2402030FFF768FD41F625420DF5E24199
:402D800020310DF52940C83000F082FF2043C4B232460DF5AA410DF50D40A83000F078FF2043C4B2013CE4B200230EE006AAD25C0DF50D418831C95C21EA040122404A405D
:402DC0000DF5E4511831CA5401331F2BEED940F285330DF52942C83241F625410DF5E7501030383800F08AF84FF461730DF50D42A8324FF4E1510DF5E450183000F5E2504B
:402E0000053000F07BF80423009343F665030DF5E4521832294605A800F0B8FD04F0010001380DF5454D3DB0BDE8F08330B4C2790023062109E01D0245EA12651402425CCA
:402E4000002322432B43013949B20029F3DA1046194630BC704700BF2DE9F04F83B001900E4691469B46072B17D969B90027384615E0019B03EBC70A4844FFF7D7FFCAE9B1
:402E800000010137404601E000273846B74206D200F10808C345ECD201E000273846584528D2B74226D2019B03EBC70609EB0B0313F8012C0023C6E90023C0EB0B03023BAB
:402EC0005BB215E0326871680D0245EA12651402C6E9004509EB000212F803A04FF0000B4AEA040A4BEA050BC6E900AB013B5BB2002BE7DA03B0BDE8F08F00BF2DE9F041BE
:402F0000804600273E461CE002EBC704656806F00704E400C4F1200CA4F1200E52F8370020FA04F405FA0CFC44EA0C0425FA0EFE44EA0E0408F80640013616F0070F00D169
:402F400001378E4201D29F42DED3BDE8F08100BF2DE9F0410C46054601F12006D4F80080D4F804C0D4F808E0E768C5F80080C5F804C0C5F808E0EF6010341035B442EDD145
:402F8000266861682E606960176856689568D1688762C66205634163176956699569D1698763C6630564416441F64D421946483007F097FDBDE8F081F0B583B007460E4684
:402FC0001D46089C234653F828CFD3F804E09868D968C2F800C0C2F804E09060D160D3F810C0D3F814E09869D969C2F810C0C2F814E09061D1612822214601A800F0E4FCD4
:403000008322394601A800F045FD8322314601A800F040FD41F64D4204F14801284607F060FD01A800F00AFD03B0F0BDF8B50B4604462031D3F800E05F689E68DD68C4F8C7
:4030400000E06760A660E560103310348B42F1D119685B682160636040F2853341F625412830FFF74BFFF8BD70B582B006460D4614462822214601A800F0A6FC314601A890
:4030800000F0C8FD41F6254304F1280240F285312846FFF7E1FE01A800F0D0FC02B070BDF8B5054616461C4640F285330A4641F62541FFF723FF4FF4617332464FF4E15185
:4030C00068180530FFF71AFF43F64502AB1827686668A068E168AF505E609860D960F8BD70B50E4615461C4641F62543224640F28531FFF7B1FE4FF4E153E21805324FF4C3
:4031000061713046FFF7A8FE04F56153D3F80500D3F80910D3F80D200533DB6828606960AA60EB6070BD00BF38B50B4B1B7893B962B6094C094D211D284603F0AFFF04F11E
:403140003001284603F092FE03F0E0FE012003F061FE0123237038BDA449020880DA081070B584B006460D46FFF7DEFF002410E00A4B009303AB07224FF086414FF084402D
:4031800003F0DCFE012003F045FE9DF80C3033550134AC42ECD304B070BD00BF004A02082DE9700341F3C01441F3000303F0AA33634041F3400202F0CC32534041F38002D2
:4031C00002F0F032534041F3C00202F0FF2283EA020441F30012130C1B04634041F3401683EA0602002444EA03089146C0E9008941F3801382EA03010B46224671400A4332
:40320000C0E90223BDE87003704700BF70B4002618E09A0030F823500232845A2C4421F8134003F1400530F82340825AA21A21F81520013300E000233F2BEAD9013603463F
:4032400008461946062EF6D970BC7047F0B500261BE002EB861E01EBC60451F836306768C2F12005A2F12004D34007FA05F52B4327FA04F4234303F0010320F81E30013216
:4032800000E000223F2AE4D90136012EF9D94FF0010C29E002EB8E160EEB4C0301EBC30451F833306768C2F12005A2F12004D34007FA05F52B4327FA04F4234303F00103D1
:4032C00030F81640234420F81630013200E000223F2ADFD90EF1010E01E04FF0000EBEF1010FF4D90CF1010CBCF1040FF5D9F0BDF0B400210E460D460C4618E030F81170C9
:403300003AB27B42534003EAE23353409BB2E21A42F3C03292B26F4017407D4086EA010717407E40634013405C40013189B27F29E4D9E80B013800F080003043C0B2F0BC27
:40334000704700BF2DE9F04106460F46002520E005EB85031C013444795D2046FFF720FF012213E005EB850313441B01F118D4F80080D4F804C0D4F808E0E06846F80380C9
:40338000C1F804C0C1F808E0C8600132042AE9D90135592DDCD9BDE8F08100BF70B5ADF5007D06460D46002415E004EB84031901294440A8FFF74AFF694640A8FFF726FF8C
:4033C000BDF80030A3F5A073ADF800306846FFF78FFF30550134592CE7D90DF5007D70BD10B4002305E031F81320C45C6240C2540133592BF7D95DF8044B7047F8B50646AF
:403400000F4600251AE0621E592303FB05230D4A32F81310385DFEF769FE36F81530584026F81500013400E00124592CEBD93A7836F81530534026F815300135392DF3D91D
:40344000F8BD00BFB0DA08102DE9F84F8246894693469846012303800AE0CBEB0302013A42F3C03239F813100A402AF8132001331D2BF2D9B8F80020BAF802305340AAF8BA
:403480000230022527E0CBEB0507013F47F3C037BFB20AEB450605F10043013B38F8133007EA03023AF8153053402AF8153001240EE02B1B03F10043013B38F8131039F829
:4034C0001400FEF713FE38403388584030800134A542EED801351D2DD5D9BDE8F88F00BF2DE9F04FA1B080468A463C242246002111A807F001FB2246002102A807F0FCFA4B
:403500000123ADF80A30BAF80060A8F800304FF0000901934FF6FF7BCDF800904D4693E044460DF1440C08F1300E674620686168A268E3680FC71034BC467445F5D120682B
:403540006168ACE803002389ACF800300198FEF7FBFD01463046FEF7C9FD012407460EE020AA02EB430333F8781C3846FEF7BEFD38F81430584028F814000134A4B22346EF
:4035800009F10102944201DC1D2CE9D91746CBEB0903009A12FA83F39BB2C6F1000E4EF3C03EEA1A42F3C03292B20EEA020E85EA03040EEA04046C40B9F1390F49D08BEAAB
:4035C00009030EEA03038BEA030B019B5E400EEA0606734001931D2112E04A1E20AB03EB420030F83C3C30F8780C20AE06EB410120EA0E000EEA0303434021F8783C91B230
:403600000029EAD1009B5D400EEA050E83EA0E03009309F101033AF8136001250AE0FB1A3AF8131038F81500FEF760FD704086B20135ADB22B46AF4201DB1D2DEFD909F1D7
:4036400001091FFA89F92546B9F1390F7FF668AF00E02546284621B0BDE8F08F2DE9F04FA1B004468A4690463A252A46002111A807F042FA2A46002102A807F03DFA002013
:40368000074628E018F800104942C91789B2002215461BE087EA02035B42DB17DB439BB20B404F4E06EB4006B6F864660DF1800E0EEB420C03EA060E3CF83C6C76442CF8E2
:4036C0003C6C03F001032B449DB201321C2AE1D92F44BFB201305928D4D94FF000094DE020AB03EB490333F83C0CFEF72DFD01900125AB462E460BE001995846FEF7F6FCC5
:4037000083463AF81510FEF7F1FC704086B201351D2DF1D90125AB461AE009EB0502314BA3FB02131B09C3EBC30103EB8103D31A20AA02EB430333F83C1C0198FEF7D6FC45
:4037400080F0010189B25846FEF7D0FC834601351C2DE2D90FFA89F5ED1BC5F3CF355846FEF7F2FC01463046FEF7C0FC20AB03EB4903284023F8780C09F10109B9F11C0F1B
:40378000AED90020064625E018F800506D42ED17ADB200210F4618E086EA01025242D217D24392B205EA020320AA02EB410232F8782C03EA020E34F81020724424F81020D1
:4037C00003F00102BB189FB201311C29E4D93E44B6B201305928D7D921B0BDE8F08F00BFA0FC081009CB3D8D30B5ADF5017D04460D464FF400720021684607F07DF91E2256
:4038000029466846FCF7DEFF69462046FDF768F80DF5017D30BD00BF2DE9F043BDB0064688467624224600211EA807F065F922462C49684607F055F95A220021304607F01E
:403840005BF9002728E0C7F11F0318F8039096F8393089EA030900240AE03CAB03EB440535F8F01C4846FEF741FC25F8780C01343A2CF2D9392309E0591E705C3CAA02EB4B
:40388000430232F8782C4240F2540B46002BF3D19DF87830337001371F2FD4D9D8F80040D8F80400D8F80810D8F80C20C6F83A40C6F83E00C6F84210C6F84620D8F810408A
:4038C000D8F81400D8F81810D8F81C20C6F84A40C6F84E00C6F85210C6F856203DB0BDE8F08300BF0805091070B5ADF5487D05460C4674220021ABA807F0FEF840220021AB
:403900009BA807F0F9F84FF4807200215BA807F0F3F8B426324600212EA807F0EDF83246002101A807F0E8F82146ABA8FFF766FDABA99BA8FFF7D4FD06469BA95BA8FFF7E9
:4039400053FFABAB32469BA92EA8FFF77DFD5BAA2EA901A8FFF782FE01A92046FFF740FD214651F83A4F48688A68CB682C606860AA60EB600C6948698A69CB692C61686105
:40398000AA61EB610DF5487D70BD00BFF8B504460D4616461F46FEF7B7FA3A4631462046FEF7C0FA012206A92046FEF7BBFA2046FEF7C0FA224640212846FEF7C3FA2046FA
:4039C000FEF7C6FAF8BD00BFF0B583B004460E46174602AD022305F8013DFEF795FA3A4631462046FEF79EFA012229462046FEF799FA2046FEF79EFA03B0F0BDF0B583B0A3
:403A000007460E4602F00705541B024621463046FEF798FA85B13A4608216846FEF792FA002307E0E21802A9194411F8081CB1540133DBB29D42F5D803B0F0BD08B5FEF701
:403A400087FA08BD2DE9F04384464FF0000E012000214FF000084FF0000913E0CEEB0C020023564263EB43073B43DC1720EA040221EA040348EA020849EA03090018494112
:403A80000EF1010EBEF13F0FE8D940464946BDE8F08300BF2DE9F043ADF6AC3D07460D4616464FF41574224600210DF6541007F023F8224600210DF5E06007F01DF8224670
:403AC00000210DF2AC4007F017F84FF495620021684607F011F8B2000DF654113846FFF78DFF002124E08A000DF6541010F82130541C045D43EA0423941C045D43EA044378
:403B00000332825C43EA0263414A52F82120A2FB0389C1F56142253202FB19339B1A02EAE37213440B440DF5E06242F8213001313446B142D7D3721E1FE00DF5E06353F8D5
:403B4000221053F82730CE1A5B1A3343002BA8BF40F00100013200E00020A242EDD3404207EA00010DF5E06252F8273023EA000081EA000342F827303A46571E002AEBD1C4
:403B8000002611E00DF5E06353F8260082090DF2AC4343F8262000F03F00FFF753FF0DEBC603C3E900010136A642EBD34FF0000E27E00DF2AC4353F82C20C2EB0E02534251
:403BC0001A43D243D20F524263EB03030DEBCC06D6E9006732403B40104319430CF1010C03E04FF0000C00200021A445E1D305EBCE06D6E9002302430B43C6E900230EF1DE
:403C0000010EBEF5617FECD90DF6AC3DBDE8F0838005091070B5ADF5E15D82B006460C4641F625452A460021684606F065FF2A4669463046FFF7E2FE2B466A4640F28531F8
:403C40002046FFF709F904F5E154D4E9002303F01F03C4E900230DF5E15D02B070BD00BF2DE9F00F00250EE0EC0006190F19D7E900AB1444D4E9008988EA0A0889EA0B09A6
:403C8000C6E9008901359D42EED3BDE8F00F704770B400234FF4807504E0C65CCC5C7440254301339342F8D3681EC0F3072070BC704700BFF8B507460E4611469E422BD27A
:403CC00016F03F0602D0C6F1400600E000264FF4E152384606F005FF00231AE06FF00042C3F12000A3F120014FF0FF3E2EFA03F402FA00F0044322FA01F10C4322FA03F530
:403D000007F5E052D2E9060120402940C2E9060101339E42E2D8F8BD3F339A09D20006F0E0FEF8BD7047FFF7FDFF72B6104C114DAC4209DA21686268A368043BA2BFC858AB
:403D4000D050FAE70C34F3E70B490C4A00209142BCBF41F8040BFAE709480A490860BFF34F8F00F015F900F0EFF800F0D5F9FEE7D0160910E81609108449020838CE0308D5
:403D80000040020808ED00E0FEE7FEE700B504207146084202D0EFF3098001E0EFF30880043000F0CBFEFEE708B5012000F040FE08BD00BF704700BF5C4AD2F8803303F0CA
:403DC0000F0303F1D00152F8212002F00702032A04D0042A05D092B9554914E0554A116811E003F1C002514951F8222002F01F02112A06D0132A04D04FF4FA4103E04E4974
:403E000001E04FF400418BBB484BD3F8902502F00100D3F88825C2F30172D3F8883513F0405F07D0414BD3F88835C3F30173012B02D102E0012300E0002303B108B9032A48
:403E400046D13A48D0F88025C2F31103D0F88425C2F30C02D0F88005C0F300600130B1FBF2F202FB03F2B2FBF0F131E0012B2FD12E4BD3F8402602F00100D3F80026C2F31E
:403E80000172D3F8003613F0405F07D0274BD3F80036C3F30173012B02D102E0012300E0002303B108B9032A12D12048D0F8002602F07F02D0F80036C3F30423D0F8000679
:403EC000C0F3044002FB01F2B2FBF3F2B2FBF0F1164BD3F88033C3F3011321FA03F215494A601648D0F89030C3F3072301330069000E0130B2FBF0F08860B2FBF3F3CB6025
:403F00000B6103F5742202F23F220D48A0FB0202C2F387420A7503F2E7330A4AA2FB03239B098B61DB03CB61704700BF0000264000127A008C42020800366E01000021403B
:403F400083DE1B43D34D621008B50D4800F058FEFFF730FFFFF730FF00221146042000F02FFB084800F0C2FB074B1B6893F8513013B1064800F02AFC00F06CFA08BD00BFB7
:403F8000D80B0910104A0208A8CD0308D407091008B500F02EFE074AD2F8883043F47003C2F88830BFF34F8FBFF36F8F00F025FE08BD00BF00ED00E000B583B0164B002256
:403FC000C3F8C82F0422C3F8C02FD3F8C03F134BB3F90030002B09DB5A0903F01F03012101FA03F360320E4941F8223002A9002341F8043D0B4B186801F080FC019B43B112
:404000003BB14FF08052084B1A60BFF34F8FBFF36F8F03B05DF804FB00006640D409091000E100E0904B020804ED00E010B503220021012001F002FB2E4B186002F042FE1F
:404040002D4B1868002302221946406807F03EFB2A4807F0F7FA03220021012001F0EEFA274B1860274C2849204600F01BFDB4F90030002B08DB590903F01F03012202FA73
:4040800003F3224A42F821300422214BC3F8C82F00231A4619461748006801F0F5FA4FF0FF31174B186801F033FD16E0124B186842685368013B5360002B04DA416807F004
:4040C000C9FAC0B204E042681368591C116018783F2802D10F4807F0B5FA0D4BD3F80833C3F30803002BE1D10422094BC3F8C82FD5E700BFA4CD0308104302080808091030
:40410000904B0208D4090910B93F081000E100E0000066401C08091000B583B062B6002401940223009323464FF4C8720849094801F024FF019401230093234642F6E062B4
:404140000549064801F01AFF01F04AFFFEE700BF2C0809102D40081038080910614108102DE9F0414FF0FF313B4B186801F0D0FC3A4807F067FA4FF48070FEF779FC10B125
:40418000374807F05FFAFEF789FC0446FEF782FC0646FEF787FC0546FEF788FC8046314807F050FA3146304807F0DAF921462F4807F0D6F929462E4807F0D2F941462D48F1
:4041C00007F0CEF90121204606F050FC07462A4C20600121304606F049FC064660600121284606F043FC0546A0600121404606F03DFCE06017B10EB105B118B91F4807F082
:4042000021FA02E01E4807F01DFA1B4B19685868FEF74EFC10B11B4807F014FA1A4807F011FA154B5A68D9689868FEF755FC10B1164807F007FA164807F004FA0E4B1A68AC
:404240009968D868FEF760FC10B1104807F0FAF9104807F0F7F9FEE7A4CD030844080910680809107808091084080910A8080910CC080910F0080910944B020818090910F3
:4042800034090910500909106C0909108C090910A4090910BC09091010B504462146034800F0DEFC0028F9D010BD00BF00006640054BD3F80833C3F30803002BF8D0024B51
:4042C000D3F84003704700BF000066401F4B98422DD00CD840282ED003D8E8B1102828D02FE0802829D0B0F5807F28D029E0184B984228D006D8B0F1204F0DD0154B9842D6
:4043000012D01EE0144B98420AD00133984209D0023B984215D101E0002070470F4870470F4870470F4870474FF4A0007047074870470D4870470D4870470D4870470348B5
:4043400070470C4870474FF4A400704706005200010000F0090000A0040000F0010052000200520003005200010050000200500005005200FF00520038B5124B1B6893F858
:404380003130012B04D840F2C3110F4800F0C6FB0C4B1D682A6AB5F8B03013442C46D5F8B420D358002B0BDB084B1868FFF78EFF6B6801229A6063689B68002BFBD138BDE3
:4043C000034838BDA8CD0308DC090910A44B0208020050001A4B186128B102230370FF23437000234380174B1B6893F850202AB300B583B0B3F93830ADF800300023019365
:404400001149684600F04EFBBDF90030002B08DB590903F01F03012202FA03F30B4A42F82130084B1B6893F8513023B102220849012000F077FA03B05DF804FB704700BFB1
:40444000A44B0208A8CD0308C543020800E100E07D44020808B50248FFF7BCFF08BD00BFB84B020838B50B4B1B68D3F8B4301B58002B0DDA0D4604460B0C1B0423B140F209
:40448000D521054800F04AFBA9B26160002038BD024838BDA8CD03081C0A091001008A0038B50368002B01DA002300E0094B73B90D460446C2600B0C1B0423B140F2BB2112
:4044C000054800F02BFBA9B2A160002038BD014838BD00BF01008A001C0A091038B504460D4619B99921084800F018FB074B1B68D3F8B4301B59002B03DAE3682B600020C2
:4045000038BD034838BD00BF5C0A0910A8CD030801008A00254B1B6893F8313083423AD900293AD00B6813F01F0F38D170B50D4604461E4B1B6893F83130984204D340F2E9
:40454000C3111B4800F0EAFA184B1B68186AB3F8B03004FB0304174E34602A68D2080021686806F0C9FA00212046FFF77BFF346825B940F293310E4800F0D0FA2A46002120
:404580002046FFF78DFF60B900210A4B1868FFF769FF40B970BD084870470748704706487047064870BD054870BD00BFA8CD03081C0A0910BC4B020803018A0001018A00D0
:4045C00010B504461346B2B9A9B9124B1B6893F83130984204D340F2C3110F4800F09EFA0C4B1B681A6AB3F8B03004FB03240B4B1C60002010BD43B149B1084A5160936072
:40460000111D2046FFF786FF10BD054810BD044810BD00BFA8CD03081C0A0910BC4B020803018A002DE9F0411B4B1B68DC68236883422CD90D464609A0EB4610012303FAE1
:4046400000F819B900F0D5FA074600E00027124B18680368002B01DA002300E00F4B83B9626852F8263018EA030F05D023EA080342F82630002400E0094C0021FFF7F2FE1B
:4046800000E0084C25B9384600F0B7FA00E0064C2046BDE8F08100BFBC4B020801008A00020188000301880004018A000B4B1B68DB681A6882420CD94109A0EB411001228A
:4046C00002FA00F05B6853F82130184203D004487047044870470448704700BFBC4B02080101880004018A0000018800024B1B680BB9014B18607047C84B02082DE9F8434A
:404700000446884691461D46089F2C4B1B681BB9B5212B4800F002FA284B1B682C2000FB04F01C18EEB21E50C5F3072363602D0CA560244B1B6893F831309E4204D340F260
:40474000C311214800F0EAF91E4B1B68196AB3F8B02006FB02162661666893F832309E4204D340F2DF11184800F0D8F9154B1B681D6A803605EB46156561A668330C1B044D
:4047800023B14FF4FF71104800F0C8F9330C1B0423B140F2FF110C4800F0C0F9B3B243EA0646AE60C4F81C90C4F820800023A36117B1B7F90030A381BDE8F883C84B020818
:4047C0009C0A0910A8CD03081C0A0910F0B58FB0044618B95221274800F0A0F9A369072B03D95621234800F099F9E36A1BB95821204800F093F9236B1BB959211D4800F0A4
:404800008DF907AD04F114060FCE0FC537682F6002AD26460FCE0FC533682B60164B1B68B3F93620079B1344ADF83030089B0D93A26AE16A0CAD00953B460A98FFF75EFF1C
:4048400000210091069B0A460598FFF757FF216B284600F027F9BDF93030002B08DB590903F01F03012202FA03F3044A42F821300FB0F0BD9C0A0910A8CD030800E100E0AD
:40488000F8B506460F461D4614461AB9FD211F4800F044F91E4B1B681BB9FE211B4800F03DF91B4B1B682C2101FB063001FB07314B68012202FA03F31B04466802FA06F6D7
:4048C0000269EAB18F69EFB91268002A01DA002200E0104AC2B92288134323600369DC6001238B614D620469330C1B0423B140F2BB21094800F012F9B2B2A2600020F8BD9E
:404900000648F8BD0648F8BD0548F8BD9C0A0910C84B020801008A001C0A091004028A0007028A00F8B505460F4616460E4B1B6823B94FF4AF710D4800F0F0F80A4B1B68DD
:404940002C2404FB0534236A23B94FF4B171074800F0E4F8E369B34204D9236A43F826700020F8BD0248F8BDC84B02089C0A09100A028A0070B582B000230193044620B9D3
:4049800040F2D111284800F0C9F8236923B94FF4E971254800F0C2F8636923B940F2D311214800F0BBF8236A23B94FF4EA711E4800F0B4F86369DD682A0C20D012041A600C
:4049C0001B682069194B1B68D3F8B430C358002B15DA01A9FFF782FD60B9019803681E0CDBB2E269934206D2226A52F8233013B1984700E0002631462069FFF733FDADB29E
